{
	"contracts/DigitalVotingSystem.sol": {
		"Election": {
			"abi": [
				{
					"inputs": [],
					"stateMutability": "nonpayable",
					"type": "constructor"
				},
				{
					"anonymous": false,
					"inputs": [
						{
							"indexed": false,
							"internalType": "address",
							"name": "voter",
							"type": "address"
						},
						{
							"indexed": false,
							"internalType": "uint256",
							"name": "candidateId",
							"type": "uint256"
						}
					],
					"name": "VoteCasted",
					"type": "event"
				},
				{
					"inputs": [],
					"name": "blankVotes",
					"outputs": [
						{
							"internalType": "uint256",
							"name": "",
							"type": "uint256"
						}
					],
					"stateMutability": "view",
					"type": "function"
				},
				{
					"inputs": [
						{
							"internalType": "uint256",
							"name": "",
							"type": "uint256"
						}
					],
					"name": "candidates",
					"outputs": [
						{
							"internalType": "uint256",
							"name": "id",
							"type": "uint256"
						},
						{
							"internalType": "string",
							"name": "name",
							"type": "string"
						},
						{
							"internalType": "uint256",
							"name": "voteCount",
							"type": "uint256"
						}
					],
					"stateMutability": "view",
					"type": "function"
				},
				{
					"inputs": [],
					"name": "getResults",
					"outputs": [
						{
							"internalType": "uint256[3]",
							"name": "",
							"type": "uint256[3]"
						}
					],
					"stateMutability": "view",
					"type": "function"
				},
				{
					"inputs": [
						{
							"internalType": "address",
							"name": "",
							"type": "address"
						}
					],
					"name": "hasVoted",
					"outputs": [
						{
							"internalType": "bool",
							"name": "",
							"type": "bool"
						}
					],
					"stateMutability": "view",
					"type": "function"
				},
				{
					"inputs": [],
					"name": "resetVotes",
					"outputs": [],
					"stateMutability": "nonpayable",
					"type": "function"
				},
				{
					"inputs": [],
					"name": "totalVotes",
					"outputs": [
						{
							"internalType": "uint256",
							"name": "",
							"type": "uint256"
						}
					],
					"stateMutability": "view",
					"type": "function"
				},
				{
					"inputs": [
						{
							"internalType": "uint256",
							"name": "_candidateId",
							"type": "uint256"
						}
					],
					"name": "vote",
					"outputs": [],
					"stateMutability": "nonpayable",
					"type": "function"
				}
			],
			"devdoc": {
				"kind": "dev",
				"methods": {},
				"version": 1
			},
			"evm": {
				"assembly": "    /* \"contracts/DigitalVotingSystem.sol\":320:3441  contract Election{... */\n  mstore(0x40, 0x80)\n    /* \"contracts/DigitalVotingSystem.sol\":1158:1328  constructor(){... */\n  callvalue\n  dup1\n  iszero\n  tag_1\n  jumpi\n  0x00\n  dup1\n  revert\ntag_1:\n  pop\n    /* \"contracts/DigitalVotingSystem.sol\":1247:1278  addCandidate(13, \"Candidate A\") */\n  tag_4\n    /* \"contracts/DigitalVotingSystem.sol\":1260:1262  13 */\n  0x0d\n    /* \"contracts/DigitalVotingSystem.sol\":1247:1278  addCandidate(13, \"Candidate A\") */\n  mload(0x40)\n  dup1\n  0x40\n  add\n  0x40\n  mstore\n  dup1\n  0x0b\n  dup2\n  mstore\n  0x20\n  add\n  0x43616e6469646174652041000000000000000000000000000000000000000000\n  dup2\n  mstore\n  pop\n    /* \"contracts/DigitalVotingSystem.sol\":1247:1259  addCandidate */\n  shl(0x20, tag_5)\n    /* \"contracts/DigitalVotingSystem.sol\":1247:1278  addCandidate(13, \"Candidate A\") */\n  0x20\n  shr\n  jump\t// in\ntag_4:\n    /* \"contracts/DigitalVotingSystem.sol\":1289:1320  addCandidate(22, \"Candidate B\") */\n  tag_6\n    /* \"contracts/DigitalVotingSystem.sol\":1302:1304  22 */\n  0x16\n    /* \"contracts/DigitalVotingSystem.sol\":1289:1320  addCandidate(22, \"Candidate B\") */\n  mload(0x40)\n  dup1\n  0x40\n  add\n  0x40\n  mstore\n  dup1\n  0x0b\n  dup2\n  mstore\n  0x20\n  add\n  0x43616e6469646174652042000000000000000000000000000000000000000000\n  dup2\n  mstore\n  pop\n    /* \"contracts/DigitalVotingSystem.sol\":1289:1301  addCandidate */\n  shl(0x20, tag_5)\n    /* \"contracts/DigitalVotingSystem.sol\":1289:1320  addCandidate(22, \"Candidate B\") */\n  0x20\n  shr\n  jump\t// in\ntag_6:\n    /* \"contracts/DigitalVotingSystem.sol\":320:3441  contract Election{... */\n  jump(tag_7)\n    /* \"contracts/DigitalVotingSystem.sol\":1395:1547  function addCandidate(uint _id, string memory _name) internal {... */\ntag_5:\n    /* \"contracts/DigitalVotingSystem.sol\":1486:1510  Candidate(_id, _name, 0) */\n  mload(0x40)\n  dup1\n  0x60\n  add\n  0x40\n  mstore\n  dup1\n    /* \"contracts/DigitalVotingSystem.sol\":1496:1499  _id */\n  dup4\n    /* \"contracts/DigitalVotingSystem.sol\":1486:1510  Candidate(_id, _name, 0) */\n  dup2\n  mstore\n  0x20\n  add\n    /* \"contracts/DigitalVotingSystem.sol\":1501:1506  _name */\n  dup3\n    /* \"contracts/DigitalVotingSystem.sol\":1486:1510  Candidate(_id, _name, 0) */\n  dup2\n  mstore\n  0x20\n  add\n    /* \"contracts/DigitalVotingSystem.sol\":1508:1509  0 */\n  0x00\n    /* \"contracts/DigitalVotingSystem.sol\":1486:1510  Candidate(_id, _name, 0) */\n  dup2\n  mstore\n  pop\n    /* \"contracts/DigitalVotingSystem.sol\":1468:1478  candidates */\n  0x00\n    /* \"contracts/DigitalVotingSystem.sol\":1468:1483  candidates[_id] */\n  dup1\n    /* \"contracts/DigitalVotingSystem.sol\":1479:1482  _id */\n  dup5\n    /* \"contracts/DigitalVotingSystem.sol\":1468:1483  candidates[_id] */\n  dup2\n  mstore\n  0x20\n  add\n  swap1\n  dup2\n  mstore\n  0x20\n  add\n  0x00\n  keccak256\n    /* \"contracts/DigitalVotingSystem.sol\":1468:1510  candidates[_id] = Candidate(_id, _name, 0) */\n  0x00\n  dup3\n  add\n  mload\n  dup2\n  0x00\n  add\n  sstore\n  0x20\n  dup3\n  add\n  mload\n  dup2\n  0x01\n  add\n  swap1\n  dup2\n  tag_9\n  swap2\n  swap1\n  tag_10\n  jump\t// in\ntag_9:\n  pop\n  0x40\n  dup3\n  add\n  mload\n  dup2\n  0x02\n  add\n  sstore\n  swap1\n  pop\n  pop\n    /* \"contracts/DigitalVotingSystem.sol\":1395:1547  function addCandidate(uint _id, string memory _name) internal {... */\n  pop\n  pop\n  jump\t// out\n    /* \"#utility.yul\":7:106   */\ntag_11:\n    /* \"#utility.yul\":59:65   */\n  0x00\n    /* \"#utility.yul\":93:98   */\n  dup2\n    /* \"#utility.yul\":87:99   */\n  mload\n    /* \"#utility.yul\":77:99   */\n  swap1\n  pop\n    /* \"#utility.yul\":7:106   */\n  swap2\n  swap1\n  pop\n  jump\t// out\n    /* \"#utility.yul\":112:292   */\ntag_12:\n    /* \"#utility.yul\":160:237   */\n  0x4e487b7100000000000000000000000000000000000000000000000000000000\n    /* \"#utility.yul\":157:158   */\n  0x00\n    /* \"#utility.yul\":150:238   */\n  mstore\n    /* \"#utility.yul\":257:261   */\n  0x41\n    /* \"#utility.yul\":254:255   */\n  0x04\n    /* \"#utility.yul\":247:262   */\n  mstore\n    /* \"#utility.yul\":281:285   */\n  0x24\n    /* \"#utility.yul\":278:279   */\n  0x00\n    /* \"#utility.yul\":271:286   */\n  revert\n    /* \"#utility.yul\":298:478   */\ntag_13:\n    /* \"#utility.yul\":346:423   */\n  0x4e487b7100000000000000000000000000000000000000000000000000000000\n    /* \"#utility.yul\":343:344   */\n  0x00\n    /* \"#utility.yul\":336:424   */\n  mstore\n    /* \"#utility.yul\":443:447   */\n  0x22\n    /* \"#utility.yul\":440:441   */\n  0x04\n    /* \"#utility.yul\":433:448   */\n  mstore\n    /* \"#utility.yul\":467:471   */\n  0x24\n    /* \"#utility.yul\":464:465   */\n  0x00\n    /* \"#utility.yul\":457:472   */\n  revert\n    /* \"#utility.yul\":484:804   */\ntag_14:\n    /* \"#utility.yul\":528:534   */\n  0x00\n    /* \"#utility.yul\":565:566   */\n  0x02\n    /* \"#utility.yul\":559:563   */\n  dup3\n    /* \"#utility.yul\":555:567   */\n  div\n    /* \"#utility.yul\":545:567   */\n  swap1\n  pop\n    /* \"#utility.yul\":612:613   */\n  0x01\n    /* \"#utility.yul\":606:610   */\n  dup3\n    /* \"#utility.yul\":602:614   */\n  and\n    /* \"#utility.yul\":633:651   */\n  dup1\n    /* \"#utility.yul\":623:704   */\n  tag_36\n  jumpi\n    /* \"#utility.yul\":689:693   */\n  0x7f\n    /* \"#utility.yul\":681:687   */\n  dup3\n    /* \"#utility.yul\":677:694   */\n  and\n    /* \"#utility.yul\":667:694   */\n  swap2\n  pop\n    /* \"#utility.yul\":623:704   */\ntag_36:\n    /* \"#utility.yul\":751:753   */\n  0x20\n    /* \"#utility.yul\":743:749   */\n  dup3\n    /* \"#utility.yul\":740:754   */\n  lt\n    /* \"#utility.yul\":720:738   */\n  dup2\n    /* \"#utility.yul\":717:755   */\n  sub\n    /* \"#utility.yul\":714:798   */\n  tag_37\n  jumpi\n    /* \"#utility.yul\":770:788   */\n  tag_38\n  tag_13\n  jump\t// in\ntag_38:\n    /* \"#utility.yul\":714:798   */\ntag_37:\n    /* \"#utility.yul\":535:804   */\n  pop\n    /* \"#utility.yul\":484:804   */\n  swap2\n  swap1\n  pop\n  jump\t// out\n    /* \"#utility.yul\":810:951   */\ntag_15:\n    /* \"#utility.yul\":859:863   */\n  0x00\n    /* \"#utility.yul\":882:885   */\n  dup2\n    /* \"#utility.yul\":874:885   */\n  swap1\n  pop\n    /* \"#utility.yul\":905:908   */\n  dup2\n    /* \"#utility.yul\":902:903   */\n  0x00\n    /* \"#utility.yul\":895:909   */\n  mstore\n    /* \"#utility.yul\":939:943   */\n  0x20\n    /* \"#utility.yul\":936:937   */\n  0x00\n    /* \"#utility.yul\":926:944   */\n  keccak256\n    /* \"#utility.yul\":918:944   */\n  swap1\n  pop\n    /* \"#utility.yul\":810:951   */\n  swap2\n  swap1\n  pop\n  jump\t// out\n    /* \"#utility.yul\":957:1050   */\ntag_16:\n    /* \"#utility.yul\":994:1000   */\n  0x00\n    /* \"#utility.yul\":1041:1043   */\n  0x20\n    /* \"#utility.yul\":1036:1038   */\n  0x1f\n    /* \"#utility.yul\":1029:1034   */\n  dup4\n    /* \"#utility.yul\":1025:1039   */\n  add\n    /* \"#utility.yul\":1021:1044   */\n  div\n    /* \"#utility.yul\":1011:1044   */\n  swap1\n  pop\n    /* \"#utility.yul\":957:1050   */\n  swap2\n  swap1\n  pop\n  jump\t// out\n    /* \"#utility.yul\":1056:1163   */\ntag_17:\n    /* \"#utility.yul\":1100:1108   */\n  0x00\n    /* \"#utility.yul\":1150:1155   */\n  dup3\n    /* \"#utility.yul\":1144:1148   */\n  dup3\n    /* \"#utility.yul\":1140:1156   */\n  shl\n    /* \"#utility.yul\":1119:1156   */\n  swap1\n  pop\n    /* \"#utility.yul\":1056:1163   */\n  swap3\n  swap2\n  pop\n  pop\n  jump\t// out\n    /* \"#utility.yul\":1169:1562   */\ntag_18:\n    /* \"#utility.yul\":1238:1244   */\n  0x00\n    /* \"#utility.yul\":1288:1289   */\n  0x08\n    /* \"#utility.yul\":1276:1286   */\n  dup4\n    /* \"#utility.yul\":1272:1290   */\n  mul\n    /* \"#utility.yul\":1311:1408   */\n  tag_43\n    /* \"#utility.yul\":1341:1407   */\n  0xffffffffffffffffffffffffffffffffffffffffffffffffffffffffffffffff\n    /* \"#utility.yul\":1330:1339   */\n  dup3\n    /* \"#utility.yul\":1311:1408   */\n  tag_17\n  jump\t// in\ntag_43:\n    /* \"#utility.yul\":1429:1468   */\n  tag_44\n    /* \"#utility.yul\":1459:1467   */\n  dup7\n    /* \"#utility.yul\":1448:1457   */\n  dup4\n    /* \"#utility.yul\":1429:1468   */\n  tag_17\n  jump\t// in\ntag_44:\n    /* \"#utility.yul\":1417:1468   */\n  swap6\n  pop\n    /* \"#utility.yul\":1501:1505   */\n  dup1\n    /* \"#utility.yul\":1497:1506   */\n  not\n    /* \"#utility.yul\":1490:1495   */\n  dup5\n    /* \"#utility.yul\":1486:1507   */\n  and\n    /* \"#utility.yul\":1477:1507   */\n  swap4\n  pop\n    /* \"#utility.yul\":1550:1554   */\n  dup1\n    /* \"#utility.yul\":1540:1548   */\n  dup7\n    /* \"#utility.yul\":1536:1555   */\n  and\n    /* \"#utility.yul\":1529:1534   */\n  dup5\n    /* \"#utility.yul\":1526:1556   */\n  or\n    /* \"#utility.yul\":1516:1556   */\n  swap3\n  pop\n    /* \"#utility.yul\":1245:1562   */\n  pop\n  pop\n    /* \"#utility.yul\":1169:1562   */\n  swap4\n  swap3\n  pop\n  pop\n  pop\n  jump\t// out\n    /* \"#utility.yul\":1568:1645   */\ntag_19:\n    /* \"#utility.yul\":1605:1612   */\n  0x00\n    /* \"#utility.yul\":1634:1639   */\n  dup2\n    /* \"#utility.yul\":1623:1639   */\n  swap1\n  pop\n    /* \"#utility.yul\":1568:1645   */\n  swap2\n  swap1\n  pop\n  jump\t// out\n    /* \"#utility.yul\":1651:1711   */\ntag_20:\n    /* \"#utility.yul\":1679:1682   */\n  0x00\n    /* \"#utility.yul\":1700:1705   */\n  dup2\n    /* \"#utility.yul\":1693:1705   */\n  swap1\n  pop\n    /* \"#utility.yul\":1651:1711   */\n  swap2\n  swap1\n  pop\n  jump\t// out\n    /* \"#utility.yul\":1717:1859   */\ntag_21:\n    /* \"#utility.yul\":1767:1776   */\n  0x00\n    /* \"#utility.yul\":1800:1853   */\n  tag_48\n    /* \"#utility.yul\":1818:1852   */\n  tag_49\n    /* \"#utility.yul\":1827:1851   */\n  tag_50\n    /* \"#utility.yul\":1845:1850   */\n  dup5\n    /* \"#utility.yul\":1827:1851   */\n  tag_19\n  jump\t// in\ntag_50:\n    /* \"#utility.yul\":1818:1852   */\n  tag_20\n  jump\t// in\ntag_49:\n    /* \"#utility.yul\":1800:1853   */\n  tag_19\n  jump\t// in\ntag_48:\n    /* \"#utility.yul\":1787:1853   */\n  swap1\n  pop\n    /* \"#utility.yul\":1717:1859   */\n  swap2\n  swap1\n  pop\n  jump\t// out\n    /* \"#utility.yul\":1865:1940   */\ntag_22:\n    /* \"#utility.yul\":1908:1911   */\n  0x00\n    /* \"#utility.yul\":1929:1934   */\n  dup2\n    /* \"#utility.yul\":1922:1934   */\n  swap1\n  pop\n    /* \"#utility.yul\":1865:1940   */\n  swap2\n  swap1\n  pop\n  jump\t// out\n    /* \"#utility.yul\":1946:2215   */\ntag_23:\n    /* \"#utility.yul\":2056:2095   */\n  tag_53\n    /* \"#utility.yul\":2087:2094   */\n  dup4\n    /* \"#utility.yul\":2056:2095   */\n  tag_21\n  jump\t// in\ntag_53:\n    /* \"#utility.yul\":2117:2208   */\n  tag_54\n    /* \"#utility.yul\":2166:2207   */\n  tag_55\n    /* \"#utility.yul\":2190:2206   */\n  dup3\n    /* \"#utility.yul\":2166:2207   */\n  tag_22\n  jump\t// in\ntag_55:\n    /* \"#utility.yul\":2158:2164   */\n  dup5\n    /* \"#utility.yul\":2151:2155   */\n  dup5\n    /* \"#utility.yul\":2145:2156   */\n  sload\n    /* \"#utility.yul\":2117:2208   */\n  tag_18\n  jump\t// in\ntag_54:\n    /* \"#utility.yul\":2111:2115   */\n  dup3\n    /* \"#utility.yul\":2104:2209   */\n  sstore\n    /* \"#utility.yul\":2022:2215   */\n  pop\n    /* \"#utility.yul\":1946:2215   */\n  pop\n  pop\n  pop\n  jump\t// out\n    /* \"#utility.yul\":2221:2294   */\ntag_24:\n    /* \"#utility.yul\":2266:2269   */\n  0x00\n    /* \"#utility.yul\":2221:2294   */\n  swap1\n  jump\t// out\n    /* \"#utility.yul\":2300:2489   */\ntag_25:\n    /* \"#utility.yul\":2377:2409   */\n  tag_58\n  tag_24\n  jump\t// in\ntag_58:\n    /* \"#utility.yul\":2418:2483   */\n  tag_59\n    /* \"#utility.yul\":2476:2482   */\n  dup2\n    /* \"#utility.yul\":2468:2474   */\n  dup5\n    /* \"#utility.yul\":2462:2466   */\n  dup5\n    /* \"#utility.yul\":2418:2483   */\n  tag_23\n  jump\t// in\ntag_59:\n    /* \"#utility.yul\":2353:2489   */\n  pop\n    /* \"#utility.yul\":2300:2489   */\n  pop\n  pop\n  jump\t// out\n    /* \"#utility.yul\":2495:2681   */\ntag_26:\n    /* \"#utility.yul\":2555:2675   */\ntag_61:\n    /* \"#utility.yul\":2572:2575   */\n  dup2\n    /* \"#utility.yul\":2565:2570   */\n  dup2\n    /* \"#utility.yul\":2562:2576   */\n  lt\n    /* \"#utility.yul\":2555:2675   */\n  iszero\n  tag_63\n  jumpi\n    /* \"#utility.yul\":2626:2665   */\n  tag_64\n    /* \"#utility.yul\":2663:2664   */\n  0x00\n    /* \"#utility.yul\":2656:2661   */\n  dup3\n    /* \"#utility.yul\":2626:2665   */\n  tag_25\n  jump\t// in\ntag_64:\n    /* \"#utility.yul\":2599:2600   */\n  0x01\n    /* \"#utility.yul\":2592:2597   */\n  dup2\n    /* \"#utility.yul\":2588:2601   */\n  add\n    /* \"#utility.yul\":2579:2601   */\n  swap1\n  pop\n    /* \"#utility.yul\":2555:2675   */\n  jump(tag_61)\ntag_63:\n    /* \"#utility.yul\":2495:2681   */\n  pop\n  pop\n  jump\t// out\n    /* \"#utility.yul\":2687:3230   */\ntag_27:\n    /* \"#utility.yul\":2788:2790   */\n  0x1f\n    /* \"#utility.yul\":2783:2786   */\n  dup3\n    /* \"#utility.yul\":2780:2791   */\n  gt\n    /* \"#utility.yul\":2777:3223   */\n  iszero\n  tag_66\n  jumpi\n    /* \"#utility.yul\":2822:2860   */\n  tag_67\n    /* \"#utility.yul\":2854:2859   */\n  dup2\n    /* \"#utility.yul\":2822:2860   */\n  tag_15\n  jump\t// in\ntag_67:\n    /* \"#utility.yul\":2906:2935   */\n  tag_68\n    /* \"#utility.yul\":2924:2934   */\n  dup5\n    /* \"#utility.yul\":2906:2935   */\n  tag_16\n  jump\t// in\ntag_68:\n    /* \"#utility.yul\":2896:2904   */\n  dup2\n    /* \"#utility.yul\":2892:2936   */\n  add\n    /* \"#utility.yul\":3089:3091   */\n  0x20\n    /* \"#utility.yul\":3077:3087   */\n  dup6\n    /* \"#utility.yul\":3074:3092   */\n  lt\n    /* \"#utility.yul\":3071:3120   */\n  iszero\n  tag_69\n  jumpi\n    /* \"#utility.yul\":3110:3118   */\n  dup2\n    /* \"#utility.yul\":3095:3118   */\n  swap1\n  pop\n    /* \"#utility.yul\":3071:3120   */\ntag_69:\n    /* \"#utility.yul\":3133:3213   */\n  tag_70\n    /* \"#utility.yul\":3189:3211   */\n  tag_71\n    /* \"#utility.yul\":3207:3210   */\n  dup6\n    /* \"#utility.yul\":3189:3211   */\n  tag_16\n  jump\t// in\ntag_71:\n    /* \"#utility.yul\":3179:3187   */\n  dup4\n    /* \"#utility.yul\":3175:3212   */\n  add\n    /* \"#utility.yul\":3162:3173   */\n  dup3\n    /* \"#utility.yul\":3133:3213   */\n  tag_26\n  jump\t// in\ntag_70:\n    /* \"#utility.yul\":2792:3223   */\n  pop\n  pop\n    /* \"#utility.yul\":2777:3223   */\ntag_66:\n    /* \"#utility.yul\":2687:3230   */\n  pop\n  pop\n  pop\n  jump\t// out\n    /* \"#utility.yul\":3236:3353   */\ntag_28:\n    /* \"#utility.yul\":3290:3298   */\n  0x00\n    /* \"#utility.yul\":3340:3345   */\n  dup3\n    /* \"#utility.yul\":3334:3338   */\n  dup3\n    /* \"#utility.yul\":3330:3346   */\n  shr\n    /* \"#utility.yul\":3309:3346   */\n  swap1\n  pop\n    /* \"#utility.yul\":3236:3353   */\n  swap3\n  swap2\n  pop\n  pop\n  jump\t// out\n    /* \"#utility.yul\":3359:3528   */\ntag_29:\n    /* \"#utility.yul\":3403:3409   */\n  0x00\n    /* \"#utility.yul\":3436:3487   */\n  tag_74\n    /* \"#utility.yul\":3484:3485   */\n  0x00\n    /* \"#utility.yul\":3480:3486   */\n  not\n    /* \"#utility.yul\":3472:3477   */\n  dup5\n    /* \"#utility.yul\":3469:3470   */\n  0x08\n    /* \"#utility.yul\":3465:3478   */\n  mul\n    /* \"#utility.yul\":3436:3487   */\n  tag_28\n  jump\t// in\ntag_74:\n    /* \"#utility.yul\":3432:3488   */\n  not\n    /* \"#utility.yul\":3517:3521   */\n  dup1\n    /* \"#utility.yul\":3511:3515   */\n  dup4\n    /* \"#utility.yul\":3507:3522   */\n  and\n    /* \"#utility.yul\":3497:3522   */\n  swap2\n  pop\n    /* \"#utility.yul\":3410:3528   */\n  pop\n    /* \"#utility.yul\":3359:3528   */\n  swap3\n  swap2\n  pop\n  pop\n  jump\t// out\n    /* \"#utility.yul\":3533:3828   */\ntag_30:\n    /* \"#utility.yul\":3609:3613   */\n  0x00\n    /* \"#utility.yul\":3755:3784   */\n  tag_76\n    /* \"#utility.yul\":3780:3783   */\n  dup4\n    /* \"#utility.yul\":3774:3778   */\n  dup4\n    /* \"#utility.yul\":3755:3784   */\n  tag_29\n  jump\t// in\ntag_76:\n    /* \"#utility.yul\":3747:3784   */\n  swap2\n  pop\n    /* \"#utility.yul\":3817:3820   */\n  dup3\n    /* \"#utility.yul\":3814:3815   */\n  0x02\n    /* \"#utility.yul\":3810:3821   */\n  mul\n    /* \"#utility.yul\":3804:3808   */\n  dup3\n    /* \"#utility.yul\":3801:3822   */\n  or\n    /* \"#utility.yul\":3793:3822   */\n  swap1\n  pop\n    /* \"#utility.yul\":3533:3828   */\n  swap3\n  swap2\n  pop\n  pop\n  jump\t// out\n    /* \"#utility.yul\":3833:5228   */\ntag_10:\n    /* \"#utility.yul\":3950:3987   */\n  tag_78\n    /* \"#utility.yul\":3983:3986   */\n  dup3\n    /* \"#utility.yul\":3950:3987   */\n  tag_11\n  jump\t// in\ntag_78:\n    /* \"#utility.yul\":4052:4070   */\n  0xffffffffffffffff\n    /* \"#utility.yul\":4044:4050   */\n  dup2\n    /* \"#utility.yul\":4041:4071   */\n  gt\n    /* \"#utility.yul\":4038:4094   */\n  iszero\n  tag_79\n  jumpi\n    /* \"#utility.yul\":4074:4092   */\n  tag_80\n  tag_12\n  jump\t// in\ntag_80:\n    /* \"#utility.yul\":4038:4094   */\ntag_79:\n    /* \"#utility.yul\":4118:4156   */\n  tag_81\n    /* \"#utility.yul\":4150:4154   */\n  dup3\n    /* \"#utility.yul\":4144:4155   */\n  sload\n    /* \"#utility.yul\":4118:4156   */\n  tag_14\n  jump\t// in\ntag_81:\n    /* \"#utility.yul\":4203:4270   */\n  tag_82\n    /* \"#utility.yul\":4263:4269   */\n  dup3\n    /* \"#utility.yul\":4255:4261   */\n  dup3\n    /* \"#utility.yul\":4249:4253   */\n  dup6\n    /* \"#utility.yul\":4203:4270   */\n  tag_27\n  jump\t// in\ntag_82:\n    /* \"#utility.yul\":4297:4298   */\n  0x00\n    /* \"#utility.yul\":4321:4325   */\n  0x20\n    /* \"#utility.yul\":4308:4325   */\n  swap1\n  pop\n    /* \"#utility.yul\":4353:4355   */\n  0x1f\n    /* \"#utility.yul\":4345:4351   */\n  dup4\n    /* \"#utility.yul\":4342:4356   */\n  gt\n    /* \"#utility.yul\":4370:4371   */\n  0x01\n    /* \"#utility.yul\":4365:4983   */\n  dup2\n  eq\n  tag_84\n  jumpi\n    /* \"#utility.yul\":5027:5028   */\n  0x00\n    /* \"#utility.yul\":5044:5050   */\n  dup5\n    /* \"#utility.yul\":5041:5118   */\n  iszero\n  tag_85\n  jumpi\n    /* \"#utility.yul\":5093:5102   */\n  dup3\n    /* \"#utility.yul\":5088:5091   */\n  dup8\n    /* \"#utility.yul\":5084:5103   */\n  add\n    /* \"#utility.yul\":5078:5104   */\n  mload\n    /* \"#utility.yul\":5069:5104   */\n  swap1\n  pop\n    /* \"#utility.yul\":5041:5118   */\ntag_85:\n    /* \"#utility.yul\":5144:5211   */\n  tag_86\n    /* \"#utility.yul\":5204:5210   */\n  dup6\n    /* \"#utility.yul\":5197:5202   */\n  dup3\n    /* \"#utility.yul\":5144:5211   */\n  tag_30\n  jump\t// in\ntag_86:\n    /* \"#utility.yul\":5138:5142   */\n  dup7\n    /* \"#utility.yul\":5131:5212   */\n  sstore\n    /* \"#utility.yul\":5000:5222   */\n  pop\n    /* \"#utility.yul\":4335:5222   */\n  jump(tag_83)\n    /* \"#utility.yul\":4365:4983   */\ntag_84:\n    /* \"#utility.yul\":4417:4421   */\n  0x1f\n    /* \"#utility.yul\":4413:4422   */\n  not\n    /* \"#utility.yul\":4405:4411   */\n  dup5\n    /* \"#utility.yul\":4401:4423   */\n  and\n    /* \"#utility.yul\":4451:4488   */\n  tag_87\n    /* \"#utility.yul\":4483:4487   */\n  dup7\n    /* \"#utility.yul\":4451:4488   */\n  tag_15\n  jump\t// in\ntag_87:\n    /* \"#utility.yul\":4510:4511   */\n  0x00\n    /* \"#utility.yul\":4524:4732   */\ntag_88:\n    /* \"#utility.yul\":4538:4545   */\n  dup3\n    /* \"#utility.yul\":4535:4536   */\n  dup2\n    /* \"#utility.yul\":4532:4546   */\n  lt\n    /* \"#utility.yul\":4524:4732   */\n  iszero\n  tag_90\n  jumpi\n    /* \"#utility.yul\":4617:4626   */\n  dup5\n    /* \"#utility.yul\":4612:4615   */\n  dup10\n    /* \"#utility.yul\":4608:4627   */\n  add\n    /* \"#utility.yul\":4602:4628   */\n  mload\n    /* \"#utility.yul\":4594:4600   */\n  dup3\n    /* \"#utility.yul\":4587:4629   */\n  sstore\n    /* \"#utility.yul\":4668:4669   */\n  0x01\n    /* \"#utility.yul\":4660:4666   */\n  dup3\n    /* \"#utility.yul\":4656:4670   */\n  add\n    /* \"#utility.yul\":4646:4670   */\n  swap2\n  pop\n    /* \"#utility.yul\":4715:4717   */\n  0x20\n    /* \"#utility.yul\":4704:4713   */\n  dup6\n    /* \"#utility.yul\":4700:4718   */\n  add\n    /* \"#utility.yul\":4687:4718   */\n  swap5\n  pop\n    /* \"#utility.yul\":4561:4565   */\n  0x20\n    /* \"#utility.yul\":4558:4559   */\n  dup2\n    /* \"#utility.yul\":4554:4566   */\n  add\n    /* \"#utility.yul\":4549:4566   */\n  swap1\n  pop\n    /* \"#utility.yul\":4524:4732   */\n  jump(tag_88)\ntag_90:\n    /* \"#utility.yul\":4760:4766   */\n  dup7\n    /* \"#utility.yul\":4751:4758   */\n  dup4\n    /* \"#utility.yul\":4748:4767   */\n  lt\n    /* \"#utility.yul\":4745:4924   */\n  iszero\n  tag_91\n  jumpi\n    /* \"#utility.yul\":4818:4827   */\n  dup5\n    /* \"#utility.yul\":4813:4816   */\n  dup10\n    /* \"#utility.yul\":4809:4828   */\n  add\n    /* \"#utility.yul\":4803:4829   */\n  mload\n    /* \"#utility.yul\":4861:4909   */\n  tag_92\n    /* \"#utility.yul\":4903:4907   */\n  0x1f\n    /* \"#utility.yul\":4895:4901   */\n  dup10\n    /* \"#utility.yul\":4891:4908   */\n  and\n    /* \"#utility.yul\":4880:4889   */\n  dup3\n    /* \"#utility.yul\":4861:4909   */\n  tag_29\n  jump\t// in\ntag_92:\n    /* \"#utility.yul\":4853:4859   */\n  dup4\n    /* \"#utility.yul\":4846:4910   */\n  sstore\n    /* \"#utility.yul\":4768:4924   */\n  pop\n    /* \"#utility.yul\":4745:4924   */\ntag_91:\n    /* \"#utility.yul\":4970:4971   */\n  0x01\n    /* \"#utility.yul\":4966:4967   */\n  0x02\n    /* \"#utility.yul\":4958:4964   */\n  dup9\n    /* \"#utility.yul\":4954:4968   */\n  mul\n    /* \"#utility.yul\":4950:4972   */\n  add\n    /* \"#utility.yul\":4944:4948   */\n  dup9\n    /* \"#utility.yul\":4937:4973   */\n  sstore\n    /* \"#utility.yul\":4372:4983   */\n  pop\n  pop\n  pop\n    /* \"#utility.yul\":4335:5222   */\ntag_83:\n  pop\n    /* \"#utility.yul\":3925:5228   */\n  pop\n  pop\n  pop\n    /* \"#utility.yul\":3833:5228   */\n  pop\n  pop\n  jump\t// out\n    /* \"contracts/DigitalVotingSystem.sol\":320:3441  contract Election{... */\ntag_7:\n  dataSize(sub_0)\n  dup1\n  dataOffset(sub_0)\n  0x00\n  codecopy\n  0x00\n  return\nstop\n\nsub_0: assembly {\n        /* \"contracts/DigitalVotingSystem.sol\":320:3441  contract Election{... */\n      mstore(0x40, 0x80)\n      callvalue\n      dup1\n      iszero\n      tag_1\n      jumpi\n      0x00\n      dup1\n      revert\n    tag_1:\n      pop\n      jumpi(tag_2, lt(calldatasize, 0x04))\n      shr(0xe0, calldataload(0x00))\n      dup1\n      0x3477ee2e\n      gt\n      tag_10\n      jumpi\n      dup1\n      0x3477ee2e\n      eq\n      tag_6\n      jumpi\n      dup1\n      0x4717f97c\n      eq\n      tag_7\n      jumpi\n      dup1\n      0x6a316c9d\n      eq\n      tag_8\n      jumpi\n      dup1\n      0xb9830ff1\n      eq\n      tag_9\n      jumpi\n      jump(tag_2)\n    tag_10:\n      dup1\n      0x0121b93f\n      eq\n      tag_3\n      jumpi\n      dup1\n      0x09eef43e\n      eq\n      tag_4\n      jumpi\n      dup1\n      0x0d15fd77\n      eq\n      tag_5\n      jumpi\n    tag_2:\n      0x00\n      dup1\n      revert\n        /* \"contracts/DigitalVotingSystem.sol\":1633:2534  function vote(uint _candidateId) public{... */\n    tag_3:\n      tag_11\n      0x04\n      dup1\n      calldatasize\n      sub\n      dup2\n      add\n      swap1\n      tag_12\n      swap2\n      swap1\n      tag_13\n      jump\t// in\n    tag_12:\n      tag_14\n      jump\t// in\n    tag_11:\n      stop\n        /* \"contracts/DigitalVotingSystem.sol\":782:822  mapping(address => bool) public hasVoted */\n    tag_4:\n      tag_15\n      0x04\n      dup1\n      calldatasize\n      sub\n      dup2\n      add\n      swap1\n      tag_16\n      swap2\n      swap1\n      tag_17\n      jump\t// in\n    tag_16:\n      tag_18\n      jump\t// in\n    tag_15:\n      mload(0x40)\n      tag_19\n      swap2\n      swap1\n      tag_20\n      jump\t// in\n    tag_19:\n      mload(0x40)\n      dup1\n      swap2\n      sub\n      swap1\n      return\n        /* \"contracts/DigitalVotingSystem.sol\":882:904  uint public totalVotes */\n    tag_5:\n      tag_21\n      tag_22\n      jump\t// in\n    tag_21:\n      mload(0x40)\n      tag_23\n      swap2\n      swap1\n      tag_24\n      jump\t// in\n    tag_23:\n      mload(0x40)\n      dup1\n      swap2\n      sub\n      swap1\n      return\n        /* \"contracts/DigitalVotingSystem.sol\":668:712  mapping(uint => Candidate) public candidates */\n    tag_6:\n      tag_25\n      0x04\n      dup1\n      calldatasize\n      sub\n      dup2\n      add\n      swap1\n      tag_26\n      swap2\n      swap1\n      tag_13\n      jump\t// in\n    tag_26:\n      tag_27\n      jump\t// in\n    tag_25:\n      mload(0x40)\n      tag_28\n      swap4\n      swap3\n      swap2\n      swap1\n      tag_29\n      jump\t// in\n    tag_28:\n      mload(0x40)\n      dup1\n      swap2\n      sub\n      swap1\n      return\n        /* \"contracts/DigitalVotingSystem.sol\":2686:3052  function getResults() public view returns (uint[3] memory){... */\n    tag_7:\n      tag_30\n      tag_31\n      jump\t// in\n    tag_30:\n      mload(0x40)\n      tag_32\n      swap2\n      swap1\n      tag_33\n      jump\t// in\n    tag_32:\n      mload(0x40)\n      dup1\n      swap2\n      sub\n      swap1\n      return\n        /* \"contracts/DigitalVotingSystem.sol\":988:1010  uint public blankVotes */\n    tag_8:\n      tag_34\n      tag_35\n      jump\t// in\n    tag_34:\n      mload(0x40)\n      tag_36\n      swap2\n      swap1\n      tag_24\n      jump\t// in\n    tag_36:\n      mload(0x40)\n      dup1\n      swap2\n      sub\n      swap1\n      return\n        /* \"contracts/DigitalVotingSystem.sol\":3203:3438  function resetVotes() public{... */\n    tag_9:\n      tag_37\n      tag_38\n      jump\t// in\n    tag_37:\n      stop\n        /* \"contracts/DigitalVotingSystem.sol\":1633:2534  function vote(uint _candidateId) public{... */\n    tag_14:\n        /* \"contracts/DigitalVotingSystem.sol\":1750:1758  hasVoted */\n      0x01\n        /* \"contracts/DigitalVotingSystem.sol\":1750:1770  hasVoted[msg.sender] */\n      0x00\n        /* \"contracts/DigitalVotingSystem.sol\":1759:1769  msg.sender */\n      caller\n        /* \"contracts/DigitalVotingSystem.sol\":1750:1770  hasVoted[msg.sender] */\n      0xffffffffffffffffffffffffffffffffffffffff\n      and\n      0xffffffffffffffffffffffffffffffffffffffff\n      and\n      dup2\n      mstore\n      0x20\n      add\n      swap1\n      dup2\n      mstore\n      0x20\n      add\n      0x00\n      keccak256\n      0x00\n      swap1\n      sload\n      swap1\n      0x0100\n      exp\n      swap1\n      div\n      0xff\n      and\n        /* \"contracts/DigitalVotingSystem.sol\":1749:1770  !hasVoted[msg.sender] */\n      iszero\n        /* \"contracts/DigitalVotingSystem.sol\":1741:1798  require(!hasVoted[msg.sender], \"You have already voted.\") */\n      tag_40\n      jumpi\n      mload(0x40)\n      0x08c379a000000000000000000000000000000000000000000000000000000000\n      dup2\n      mstore\n      0x04\n      add\n      tag_41\n      swap1\n      tag_42\n      jump\t// in\n    tag_41:\n      mload(0x40)\n      dup1\n      swap2\n      sub\n      swap1\n      revert\n    tag_40:\n        /* \"contracts/DigitalVotingSystem.sol\":1904:1906  13 */\n      0x0d\n        /* \"contracts/DigitalVotingSystem.sol\":1889:1901  _candidateId */\n      dup2\n        /* \"contracts/DigitalVotingSystem.sol\":1889:1906  _candidateId ==13 */\n      eq\n        /* \"contracts/DigitalVotingSystem.sol\":1889:1927  _candidateId ==13 || _candidateId ==22 */\n      dup1\n      tag_43\n      jumpi\n      pop\n        /* \"contracts/DigitalVotingSystem.sol\":1925:1927  22 */\n      0x16\n        /* \"contracts/DigitalVotingSystem.sol\":1910:1922  _candidateId */\n      dup2\n        /* \"contracts/DigitalVotingSystem.sol\":1910:1927  _candidateId ==22 */\n      eq\n        /* \"contracts/DigitalVotingSystem.sol\":1889:1927  _candidateId ==13 || _candidateId ==22 */\n    tag_43:\n        /* \"contracts/DigitalVotingSystem.sol\":1889:1947  _candidateId ==13 || _candidateId ==22 || _candidateId ==0 */\n      dup1\n      tag_44\n      jumpi\n      pop\n        /* \"contracts/DigitalVotingSystem.sol\":1946:1947  0 */\n      0x00\n        /* \"contracts/DigitalVotingSystem.sol\":1931:1943  _candidateId */\n      dup2\n        /* \"contracts/DigitalVotingSystem.sol\":1931:1947  _candidateId ==0 */\n      eq\n        /* \"contracts/DigitalVotingSystem.sol\":1889:1947  _candidateId ==13 || _candidateId ==22 || _candidateId ==0 */\n    tag_44:\n        /* \"contracts/DigitalVotingSystem.sol\":1867:2015  require(... */\n      tag_45\n      jumpi\n      mload(0x40)\n      0x08c379a000000000000000000000000000000000000000000000000000000000\n      dup2\n      mstore\n      0x04\n      add\n      tag_46\n      swap1\n      tag_47\n      jump\t// in\n    tag_46:\n      mload(0x40)\n      dup1\n      swap2\n      sub\n      swap1\n      revert\n    tag_45:\n        /* \"contracts/DigitalVotingSystem.sol\":2100:2101  0 */\n      0x00\n        /* \"contracts/DigitalVotingSystem.sol\":2085:2097  _candidateId */\n      dup2\n        /* \"contracts/DigitalVotingSystem.sol\":2085:2101  _candidateId ==0 */\n      sub\n        /* \"contracts/DigitalVotingSystem.sol\":2081:2271  if (_candidateId ==0){... */\n      tag_48\n      jumpi\n        /* \"contracts/DigitalVotingSystem.sol\":2117:2127  blankVotes */\n      0x03\n      0x00\n        /* \"contracts/DigitalVotingSystem.sol\":2117:2129  blankVotes++ */\n      dup2\n      sload\n      dup1\n      swap3\n      swap2\n      swap1\n      tag_49\n      swap1\n      tag_50\n      jump\t// in\n    tag_49:\n      swap2\n      swap1\n      pop\n      sstore\n      pop\n        /* \"contracts/DigitalVotingSystem.sol\":2081:2271  if (_candidateId ==0){... */\n      jump(tag_51)\n    tag_48:\n        /* \"contracts/DigitalVotingSystem.sol\":2223:2233  candidates */\n      0x00\n        /* \"contracts/DigitalVotingSystem.sol\":2223:2247  candidates[_candidateId] */\n      dup1\n        /* \"contracts/DigitalVotingSystem.sol\":2234:2246  _candidateId */\n      dup3\n        /* \"contracts/DigitalVotingSystem.sol\":2223:2247  candidates[_candidateId] */\n      dup2\n      mstore\n      0x20\n      add\n      swap1\n      dup2\n      mstore\n      0x20\n      add\n      0x00\n      keccak256\n        /* \"contracts/DigitalVotingSystem.sol\":2223:2257  candidates[_candidateId].voteCount */\n      0x02\n      add\n      0x00\n        /* \"contracts/DigitalVotingSystem.sol\":2223:2259  candidates[_candidateId].voteCount++ */\n      dup2\n      sload\n      dup1\n      swap3\n      swap2\n      swap1\n      tag_52\n      swap1\n      tag_50\n      jump\t// in\n    tag_52:\n      swap2\n      swap1\n      pop\n      sstore\n      pop\n        /* \"contracts/DigitalVotingSystem.sol\":2081:2271  if (_candidateId ==0){... */\n    tag_51:\n        /* \"contracts/DigitalVotingSystem.sol\":2291:2301  totalVotes */\n      0x02\n      0x00\n        /* \"contracts/DigitalVotingSystem.sol\":2291:2303  totalVotes++ */\n      dup2\n      sload\n      dup1\n      swap3\n      swap2\n      swap1\n      tag_53\n      swap1\n      tag_50\n      jump\t// in\n    tag_53:\n      swap2\n      swap1\n      pop\n      sstore\n      pop\n        /* \"contracts/DigitalVotingSystem.sol\":2374:2378  true */\n      0x01\n        /* \"contracts/DigitalVotingSystem.sol\":2351:2359  hasVoted */\n      dup1\n        /* \"contracts/DigitalVotingSystem.sol\":2351:2371  hasVoted[msg.sender] */\n      0x00\n        /* \"contracts/DigitalVotingSystem.sol\":2360:2370  msg.sender */\n      caller\n        /* \"contracts/DigitalVotingSystem.sol\":2351:2371  hasVoted[msg.sender] */\n      0xffffffffffffffffffffffffffffffffffffffff\n      and\n      0xffffffffffffffffffffffffffffffffffffffff\n      and\n      dup2\n      mstore\n      0x20\n      add\n      swap1\n      dup2\n      mstore\n      0x20\n      add\n      0x00\n      keccak256\n      0x00\n        /* \"contracts/DigitalVotingSystem.sol\":2351:2378  hasVoted[msg.sender] = true */\n      0x0100\n      exp\n      dup2\n      sload\n      dup2\n      0xff\n      mul\n      not\n      and\n      swap1\n      dup4\n      iszero\n      iszero\n      mul\n      or\n      swap1\n      sstore\n      pop\n        /* \"contracts/DigitalVotingSystem.sol\":2429:2465  VoteCasted(msg.sender, _candidateId) */\n      0xd0e6c39f2e086dc49f1524b47725526a56945cd1ff661f37976f1725a1e56986\n        /* \"contracts/DigitalVotingSystem.sol\":2440:2450  msg.sender */\n      caller\n        /* \"contracts/DigitalVotingSystem.sol\":2452:2464  _candidateId */\n      dup3\n        /* \"contracts/DigitalVotingSystem.sol\":2429:2465  VoteCasted(msg.sender, _candidateId) */\n      mload(0x40)\n      tag_54\n      swap3\n      swap2\n      swap1\n      tag_55\n      jump\t// in\n    tag_54:\n      mload(0x40)\n      dup1\n      swap2\n      sub\n      swap1\n      log1\n        /* \"contracts/DigitalVotingSystem.sol\":1633:2534  function vote(uint _candidateId) public{... */\n      pop\n      jump\t// out\n        /* \"contracts/DigitalVotingSystem.sol\":782:822  mapping(address => bool) public hasVoted */\n    tag_18:\n      mstore(0x20, 0x01)\n      dup1\n      0x00\n      mstore\n      keccak256(0x00, 0x40)\n      0x00\n      swap2\n      pop\n      sload\n      swap1\n      0x0100\n      exp\n      swap1\n      div\n      0xff\n      and\n      dup2\n      jump\t// out\n        /* \"contracts/DigitalVotingSystem.sol\":882:904  uint public totalVotes */\n    tag_22:\n      sload(0x02)\n      dup2\n      jump\t// out\n        /* \"contracts/DigitalVotingSystem.sol\":668:712  mapping(uint => Candidate) public candidates */\n    tag_27:\n      mstore(0x20, 0x00)\n      dup1\n      0x00\n      mstore\n      keccak256(0x00, 0x40)\n      0x00\n      swap2\n      pop\n      swap1\n      pop\n      dup1\n      0x00\n      add\n      sload\n      swap1\n      dup1\n      0x01\n      add\n      dup1\n      sload\n      tag_56\n      swap1\n      tag_57\n      jump\t// in\n    tag_56:\n      dup1\n      0x1f\n      add\n      0x20\n      dup1\n      swap2\n      div\n      mul\n      0x20\n      add\n      mload(0x40)\n      swap1\n      dup2\n      add\n      0x40\n      mstore\n      dup1\n      swap3\n      swap2\n      swap1\n      dup2\n      dup2\n      mstore\n      0x20\n      add\n      dup3\n      dup1\n      sload\n      tag_58\n      swap1\n      tag_57\n      jump\t// in\n    tag_58:\n      dup1\n      iszero\n      tag_59\n      jumpi\n      dup1\n      0x1f\n      lt\n      tag_60\n      jumpi\n      0x0100\n      dup1\n      dup4\n      sload\n      div\n      mul\n      dup4\n      mstore\n      swap2\n      0x20\n      add\n      swap2\n      jump(tag_59)\n    tag_60:\n      dup3\n      add\n      swap2\n      swap1\n      0x00\n      mstore\n      keccak256(0x00, 0x20)\n      swap1\n    tag_61:\n      dup2\n      sload\n      dup2\n      mstore\n      swap1\n      0x01\n      add\n      swap1\n      0x20\n      add\n      dup1\n      dup4\n      gt\n      tag_61\n      jumpi\n      dup3\n      swap1\n      sub\n      0x1f\n      and\n      dup3\n      add\n      swap2\n    tag_59:\n      pop\n      pop\n      pop\n      pop\n      pop\n      swap1\n      dup1\n      0x02\n      add\n      sload\n      swap1\n      pop\n      dup4\n      jump\t// out\n        /* \"contracts/DigitalVotingSystem.sol\":2686:3052  function getResults() public view returns (uint[3] memory){... */\n    tag_31:\n        /* \"contracts/DigitalVotingSystem.sol\":2729:2743  uint[3] memory */\n      tag_62\n      tag_63\n      jump\t// in\n    tag_62:\n        /* \"contracts/DigitalVotingSystem.sol\":2755:2777  uint[3] memory results */\n      tag_65\n      tag_63\n      jump\t// in\n    tag_65:\n        /* \"contracts/DigitalVotingSystem.sol\":2801:2811  candidates */\n      0x00\n        /* \"contracts/DigitalVotingSystem.sol\":2801:2815  candidates[13] */\n      dup1\n        /* \"contracts/DigitalVotingSystem.sol\":2812:2814  13 */\n      0x0d\n        /* \"contracts/DigitalVotingSystem.sol\":2801:2815  candidates[13] */\n      dup2\n      mstore\n      0x20\n      add\n      swap1\n      dup2\n      mstore\n      0x20\n      add\n      0x00\n      keccak256\n        /* \"contracts/DigitalVotingSystem.sol\":2801:2825  candidates[13].voteCount */\n      0x02\n      add\n      sload\n        /* \"contracts/DigitalVotingSystem.sol\":2788:2795  results */\n      dup2\n        /* \"contracts/DigitalVotingSystem.sol\":2796:2797  0 */\n      0x00\n        /* \"contracts/DigitalVotingSystem.sol\":2788:2798  results[0] */\n      0x03\n      dup2\n      lt\n      tag_66\n      jumpi\n      tag_67\n      tag_68\n      jump\t// in\n    tag_67:\n    tag_66:\n      0x20\n      mul\n      add\n        /* \"contracts/DigitalVotingSystem.sol\":2788:2825  results[0] = candidates[13].voteCount */\n      dup2\n      dup2\n      mstore\n      pop\n      pop\n        /* \"contracts/DigitalVotingSystem.sol\":2874:2884  candidates */\n      0x00\n        /* \"contracts/DigitalVotingSystem.sol\":2874:2888  candidates[22] */\n      dup1\n        /* \"contracts/DigitalVotingSystem.sol\":2885:2887  22 */\n      0x16\n        /* \"contracts/DigitalVotingSystem.sol\":2874:2888  candidates[22] */\n      dup2\n      mstore\n      0x20\n      add\n      swap1\n      dup2\n      mstore\n      0x20\n      add\n      0x00\n      keccak256\n        /* \"contracts/DigitalVotingSystem.sol\":2874:2898  candidates[22].voteCount */\n      0x02\n      add\n      sload\n        /* \"contracts/DigitalVotingSystem.sol\":2861:2868  results */\n      dup2\n        /* \"contracts/DigitalVotingSystem.sol\":2869:2870  1 */\n      0x01\n        /* \"contracts/DigitalVotingSystem.sol\":2861:2871  results[1] */\n      0x03\n      dup2\n      lt\n      tag_69\n      jumpi\n      tag_70\n      tag_68\n      jump\t// in\n    tag_70:\n    tag_69:\n      0x20\n      mul\n      add\n        /* \"contracts/DigitalVotingSystem.sol\":2861:2898  results[1] = candidates[22].voteCount */\n      dup2\n      dup2\n      mstore\n      pop\n      pop\n        /* \"contracts/DigitalVotingSystem.sol\":2947:2957  blankVotes */\n      sload(0x03)\n        /* \"contracts/DigitalVotingSystem.sol\":2934:2941  results */\n      dup2\n        /* \"contracts/DigitalVotingSystem.sol\":2942:2943  2 */\n      0x02\n        /* \"contracts/DigitalVotingSystem.sol\":2934:2944  results[2] */\n      0x03\n      dup2\n      lt\n      tag_71\n      jumpi\n      tag_72\n      tag_68\n      jump\t// in\n    tag_72:\n    tag_71:\n      0x20\n      mul\n      add\n        /* \"contracts/DigitalVotingSystem.sol\":2934:2957  results[2] = blankVotes */\n      dup2\n      dup2\n      mstore\n      pop\n      pop\n        /* \"contracts/DigitalVotingSystem.sol\":3003:3010  results */\n      dup1\n        /* \"contracts/DigitalVotingSystem.sol\":2996:3010  return results */\n      swap2\n      pop\n      pop\n        /* \"contracts/DigitalVotingSystem.sol\":2686:3052  function getResults() public view returns (uint[3] memory){... */\n      swap1\n      jump\t// out\n        /* \"contracts/DigitalVotingSystem.sol\":988:1010  uint public blankVotes */\n    tag_35:\n      sload(0x03)\n      dup2\n      jump\t// out\n        /* \"contracts/DigitalVotingSystem.sol\":3203:3438  function resetVotes() public{... */\n    tag_38:\n        /* \"contracts/DigitalVotingSystem.sol\":3267:3268  0 */\n      0x00\n        /* \"contracts/DigitalVotingSystem.sol\":3242:3252  candidates */\n      dup1\n        /* \"contracts/DigitalVotingSystem.sol\":3242:3256  candidates[13] */\n      0x00\n        /* \"contracts/DigitalVotingSystem.sol\":3253:3255  13 */\n      0x0d\n        /* \"contracts/DigitalVotingSystem.sol\":3242:3256  candidates[13] */\n      dup2\n      mstore\n      0x20\n      add\n      swap1\n      dup2\n      mstore\n      0x20\n      add\n      0x00\n      keccak256\n        /* \"contracts/DigitalVotingSystem.sol\":3242:3266  candidates[13].voteCount */\n      0x02\n      add\n        /* \"contracts/DigitalVotingSystem.sol\":3242:3268  candidates[13].voteCount=0 */\n      dup2\n      swap1\n      sstore\n      pop\n        /* \"contracts/DigitalVotingSystem.sol\":3341:3342  0 */\n      0x00\n        /* \"contracts/DigitalVotingSystem.sol\":3316:3326  candidates */\n      dup1\n        /* \"contracts/DigitalVotingSystem.sol\":3316:3330  candidates[22] */\n      0x00\n        /* \"contracts/DigitalVotingSystem.sol\":3327:3329  22 */\n      0x16\n        /* \"contracts/DigitalVotingSystem.sol\":3316:3330  candidates[22] */\n      dup2\n      mstore\n      0x20\n      add\n      swap1\n      dup2\n      mstore\n      0x20\n      add\n      0x00\n      keccak256\n        /* \"contracts/DigitalVotingSystem.sol\":3316:3340  candidates[22].voteCount */\n      0x02\n      add\n        /* \"contracts/DigitalVotingSystem.sol\":3316:3342  candidates[22].voteCount=0 */\n      dup2\n      swap1\n      sstore\n      pop\n        /* \"contracts/DigitalVotingSystem.sol\":3366:3367  0 */\n      0x00\n        /* \"contracts/DigitalVotingSystem.sol\":3355:3365  blankVotes */\n      0x03\n        /* \"contracts/DigitalVotingSystem.sol\":3355:3367  blankVotes=0 */\n      dup2\n      swap1\n      sstore\n      pop\n        /* \"contracts/DigitalVotingSystem.sol\":3429:3430  0 */\n      0x00\n        /* \"contracts/DigitalVotingSystem.sol\":3418:3428  totalVotes */\n      0x02\n        /* \"contracts/DigitalVotingSystem.sol\":3418:3430  totalVotes=0 */\n      dup2\n      swap1\n      sstore\n      pop\n        /* \"contracts/DigitalVotingSystem.sol\":3203:3438  function resetVotes() public{... */\n      jump\t// out\n    tag_63:\n      mload(0x40)\n      dup1\n      0x60\n      add\n      0x40\n      mstore\n      dup1\n      0x03\n      swap1\n      0x20\n      dup3\n      mul\n      dup1\n      calldatasize\n      dup4\n      calldatacopy\n      dup1\n      dup3\n      add\n      swap2\n      pop\n      pop\n      swap1\n      pop\n      pop\n      swap1\n      jump\t// out\n        /* \"#utility.yul\":88:205   */\n    tag_75:\n        /* \"#utility.yul\":197:198   */\n      0x00\n        /* \"#utility.yul\":194:195   */\n      dup1\n        /* \"#utility.yul\":187:199   */\n      revert\n        /* \"#utility.yul\":334:411   */\n    tag_77:\n        /* \"#utility.yul\":371:378   */\n      0x00\n        /* \"#utility.yul\":400:405   */\n      dup2\n        /* \"#utility.yul\":389:405   */\n      swap1\n      pop\n        /* \"#utility.yul\":334:411   */\n      swap2\n      swap1\n      pop\n      jump\t// out\n        /* \"#utility.yul\":417:539   */\n    tag_78:\n        /* \"#utility.yul\":490:514   */\n      tag_112\n        /* \"#utility.yul\":508:513   */\n      dup2\n        /* \"#utility.yul\":490:514   */\n      tag_77\n      jump\t// in\n    tag_112:\n        /* \"#utility.yul\":483:488   */\n      dup2\n        /* \"#utility.yul\":480:515   */\n      eq\n        /* \"#utility.yul\":470:533   */\n      tag_113\n      jumpi\n        /* \"#utility.yul\":529:530   */\n      0x00\n        /* \"#utility.yul\":526:527   */\n      dup1\n        /* \"#utility.yul\":519:531   */\n      revert\n        /* \"#utility.yul\":470:533   */\n    tag_113:\n        /* \"#utility.yul\":417:539   */\n      pop\n      jump\t// out\n        /* \"#utility.yul\":545:684   */\n    tag_79:\n        /* \"#utility.yul\":591:596   */\n      0x00\n        /* \"#utility.yul\":629:635   */\n      dup2\n        /* \"#utility.yul\":616:636   */\n      calldataload\n        /* \"#utility.yul\":607:636   */\n      swap1\n      pop\n        /* \"#utility.yul\":645:678   */\n      tag_115\n        /* \"#utility.yul\":672:677   */\n      dup2\n        /* \"#utility.yul\":645:678   */\n      tag_78\n      jump\t// in\n    tag_115:\n        /* \"#utility.yul\":545:684   */\n      swap3\n      swap2\n      pop\n      pop\n      jump\t// out\n        /* \"#utility.yul\":690:1019   */\n    tag_13:\n        /* \"#utility.yul\":749:755   */\n      0x00\n        /* \"#utility.yul\":798:800   */\n      0x20\n        /* \"#utility.yul\":786:795   */\n      dup3\n        /* \"#utility.yul\":777:784   */\n      dup5\n        /* \"#utility.yul\":773:796   */\n      sub\n        /* \"#utility.yul\":769:801   */\n      slt\n        /* \"#utility.yul\":766:885   */\n      iszero\n      tag_117\n      jumpi\n        /* \"#utility.yul\":804:883   */\n      tag_118\n      tag_75\n      jump\t// in\n    tag_118:\n        /* \"#utility.yul\":766:885   */\n    tag_117:\n        /* \"#utility.yul\":924:925   */\n      0x00\n        /* \"#utility.yul\":949:1002   */\n      tag_119\n        /* \"#utility.yul\":994:1001   */\n      dup5\n        /* \"#utility.yul\":985:991   */\n      dup3\n        /* \"#utility.yul\":974:983   */\n      dup6\n        /* \"#utility.yul\":970:992   */\n      add\n        /* \"#utility.yul\":949:1002   */\n      tag_79\n      jump\t// in\n    tag_119:\n        /* \"#utility.yul\":939:1002   */\n      swap2\n      pop\n        /* \"#utility.yul\":895:1012   */\n      pop\n        /* \"#utility.yul\":690:1019   */\n      swap3\n      swap2\n      pop\n      pop\n      jump\t// out\n        /* \"#utility.yul\":1025:1151   */\n    tag_80:\n        /* \"#utility.yul\":1062:1069   */\n      0x00\n        /* \"#utility.yul\":1102:1144   */\n      0xffffffffffffffffffffffffffffffffffffffff\n        /* \"#utility.yul\":1095:1100   */\n      dup3\n        /* \"#utility.yul\":1091:1145   */\n      and\n        /* \"#utility.yul\":1080:1145   */\n      swap1\n      pop\n        /* \"#utility.yul\":1025:1151   */\n      swap2\n      swap1\n      pop\n      jump\t// out\n        /* \"#utility.yul\":1157:1253   */\n    tag_81:\n        /* \"#utility.yul\":1194:1201   */\n      0x00\n        /* \"#utility.yul\":1223:1247   */\n      tag_122\n        /* \"#utility.yul\":1241:1246   */\n      dup3\n        /* \"#utility.yul\":1223:1247   */\n      tag_80\n      jump\t// in\n    tag_122:\n        /* \"#utility.yul\":1212:1247   */\n      swap1\n      pop\n        /* \"#utility.yul\":1157:1253   */\n      swap2\n      swap1\n      pop\n      jump\t// out\n        /* \"#utility.yul\":1259:1381   */\n    tag_82:\n        /* \"#utility.yul\":1332:1356   */\n      tag_124\n        /* \"#utility.yul\":1350:1355   */\n      dup2\n        /* \"#utility.yul\":1332:1356   */\n      tag_81\n      jump\t// in\n    tag_124:\n        /* \"#utility.yul\":1325:1330   */\n      dup2\n        /* \"#utility.yul\":1322:1357   */\n      eq\n        /* \"#utility.yul\":1312:1375   */\n      tag_125\n      jumpi\n        /* \"#utility.yul\":1371:1372   */\n      0x00\n        /* \"#utility.yul\":1368:1369   */\n      dup1\n        /* \"#utility.yul\":1361:1373   */\n      revert\n        /* \"#utility.yul\":1312:1375   */\n    tag_125:\n        /* \"#utility.yul\":1259:1381   */\n      pop\n      jump\t// out\n        /* \"#utility.yul\":1387:1526   */\n    tag_83:\n        /* \"#utility.yul\":1433:1438   */\n      0x00\n        /* \"#utility.yul\":1471:1477   */\n      dup2\n        /* \"#utility.yul\":1458:1478   */\n      calldataload\n        /* \"#utility.yul\":1449:1478   */\n      swap1\n      pop\n        /* \"#utility.yul\":1487:1520   */\n      tag_127\n        /* \"#utility.yul\":1514:1519   */\n      dup2\n        /* \"#utility.yul\":1487:1520   */\n      tag_82\n      jump\t// in\n    tag_127:\n        /* \"#utility.yul\":1387:1526   */\n      swap3\n      swap2\n      pop\n      pop\n      jump\t// out\n        /* \"#utility.yul\":1532:1861   */\n    tag_17:\n        /* \"#utility.yul\":1591:1597   */\n      0x00\n        /* \"#utility.yul\":1640:1642   */\n      0x20\n        /* \"#utility.yul\":1628:1637   */\n      dup3\n        /* \"#utility.yul\":1619:1626   */\n      dup5\n        /* \"#utility.yul\":1615:1638   */\n      sub\n        /* \"#utility.yul\":1611:1643   */\n      slt\n        /* \"#utility.yul\":1608:1727   */\n      iszero\n      tag_129\n      jumpi\n        /* \"#utility.yul\":1646:1725   */\n      tag_130\n      tag_75\n      jump\t// in\n    tag_130:\n        /* \"#utility.yul\":1608:1727   */\n    tag_129:\n        /* \"#utility.yul\":1766:1767   */\n      0x00\n        /* \"#utility.yul\":1791:1844   */\n      tag_131\n        /* \"#utility.yul\":1836:1843   */\n      dup5\n        /* \"#utility.yul\":1827:1833   */\n      dup3\n        /* \"#utility.yul\":1816:1825   */\n      dup6\n        /* \"#utility.yul\":1812:1834   */\n      add\n        /* \"#utility.yul\":1791:1844   */\n      tag_83\n      jump\t// in\n    tag_131:\n        /* \"#utility.yul\":1781:1844   */\n      swap2\n      pop\n        /* \"#utility.yul\":1737:1854   */\n      pop\n        /* \"#utility.yul\":1532:1861   */\n      swap3\n      swap2\n      pop\n      pop\n      jump\t// out\n        /* \"#utility.yul\":1867:1957   */\n    tag_84:\n        /* \"#utility.yul\":1901:1908   */\n      0x00\n        /* \"#utility.yul\":1944:1949   */\n      dup2\n        /* \"#utility.yul\":1937:1950   */\n      iszero\n        /* \"#utility.yul\":1930:1951   */\n      iszero\n        /* \"#utility.yul\":1919:1951   */\n      swap1\n      pop\n        /* \"#utility.yul\":1867:1957   */\n      swap2\n      swap1\n      pop\n      jump\t// out\n        /* \"#utility.yul\":1963:2072   */\n    tag_85:\n        /* \"#utility.yul\":2044:2065   */\n      tag_134\n        /* \"#utility.yul\":2059:2064   */\n      dup2\n        /* \"#utility.yul\":2044:2065   */\n      tag_84\n      jump\t// in\n    tag_134:\n        /* \"#utility.yul\":2039:2042   */\n      dup3\n        /* \"#utility.yul\":2032:2066   */\n      mstore\n        /* \"#utility.yul\":1963:2072   */\n      pop\n      pop\n      jump\t// out\n        /* \"#utility.yul\":2078:2288   */\n    tag_20:\n        /* \"#utility.yul\":2165:2169   */\n      0x00\n        /* \"#utility.yul\":2203:2205   */\n      0x20\n        /* \"#utility.yul\":2192:2201   */\n      dup3\n        /* \"#utility.yul\":2188:2206   */\n      add\n        /* \"#utility.yul\":2180:2206   */\n      swap1\n      pop\n        /* \"#utility.yul\":2216:2281   */\n      tag_136\n        /* \"#utility.yul\":2278:2279   */\n      0x00\n        /* \"#utility.yul\":2267:2276   */\n      dup4\n        /* \"#utility.yul\":2263:2280   */\n      add\n        /* \"#utility.yul\":2254:2260   */\n      dup5\n        /* \"#utility.yul\":2216:2281   */\n      tag_85\n      jump\t// in\n    tag_136:\n        /* \"#utility.yul\":2078:2288   */\n      swap3\n      swap2\n      pop\n      pop\n      jump\t// out\n        /* \"#utility.yul\":2294:2412   */\n    tag_86:\n        /* \"#utility.yul\":2381:2405   */\n      tag_138\n        /* \"#utility.yul\":2399:2404   */\n      dup2\n        /* \"#utility.yul\":2381:2405   */\n      tag_77\n      jump\t// in\n    tag_138:\n        /* \"#utility.yul\":2376:2379   */\n      dup3\n        /* \"#utility.yul\":2369:2406   */\n      mstore\n        /* \"#utility.yul\":2294:2412   */\n      pop\n      pop\n      jump\t// out\n        /* \"#utility.yul\":2418:2640   */\n    tag_24:\n        /* \"#utility.yul\":2511:2515   */\n      0x00\n        /* \"#utility.yul\":2549:2551   */\n      0x20\n        /* \"#utility.yul\":2538:2547   */\n      dup3\n        /* \"#utility.yul\":2534:2552   */\n      add\n        /* \"#utility.yul\":2526:2552   */\n      swap1\n      pop\n        /* \"#utility.yul\":2562:2633   */\n      tag_140\n        /* \"#utility.yul\":2630:2631   */\n      0x00\n        /* \"#utility.yul\":2619:2628   */\n      dup4\n        /* \"#utility.yul\":2615:2632   */\n      add\n        /* \"#utility.yul\":2606:2612   */\n      dup5\n        /* \"#utility.yul\":2562:2633   */\n      tag_86\n      jump\t// in\n    tag_140:\n        /* \"#utility.yul\":2418:2640   */\n      swap3\n      swap2\n      pop\n      pop\n      jump\t// out\n        /* \"#utility.yul\":2646:2745   */\n    tag_87:\n        /* \"#utility.yul\":2698:2704   */\n      0x00\n        /* \"#utility.yul\":2732:2737   */\n      dup2\n        /* \"#utility.yul\":2726:2738   */\n      mload\n        /* \"#utility.yul\":2716:2738   */\n      swap1\n      pop\n        /* \"#utility.yul\":2646:2745   */\n      swap2\n      swap1\n      pop\n      jump\t// out\n        /* \"#utility.yul\":2751:2920   */\n    tag_88:\n        /* \"#utility.yul\":2835:2846   */\n      0x00\n        /* \"#utility.yul\":2869:2875   */\n      dup3\n        /* \"#utility.yul\":2864:2867   */\n      dup3\n        /* \"#utility.yul\":2857:2876   */\n      mstore\n        /* \"#utility.yul\":2909:2913   */\n      0x20\n        /* \"#utility.yul\":2904:2907   */\n      dup3\n        /* \"#utility.yul\":2900:2914   */\n      add\n        /* \"#utility.yul\":2885:2914   */\n      swap1\n      pop\n        /* \"#utility.yul\":2751:2920   */\n      swap3\n      swap2\n      pop\n      pop\n      jump\t// out\n        /* \"#utility.yul\":2926:3065   */\n    tag_89:\n        /* \"#utility.yul\":3015:3021   */\n      dup3\n        /* \"#utility.yul\":3010:3013   */\n      dup2\n        /* \"#utility.yul\":3005:3008   */\n      dup4\n        /* \"#utility.yul\":2999:3022   */\n      mcopy\n        /* \"#utility.yul\":3056:3057   */\n      0x00\n        /* \"#utility.yul\":3047:3053   */\n      dup4\n        /* \"#utility.yul\":3042:3045   */\n      dup4\n        /* \"#utility.yul\":3038:3054   */\n      add\n        /* \"#utility.yul\":3031:3058   */\n      mstore\n        /* \"#utility.yul\":2926:3065   */\n      pop\n      pop\n      pop\n      jump\t// out\n        /* \"#utility.yul\":3071:3173   */\n    tag_90:\n        /* \"#utility.yul\":3112:3118   */\n      0x00\n        /* \"#utility.yul\":3163:3165   */\n      0x1f\n        /* \"#utility.yul\":3159:3166   */\n      not\n        /* \"#utility.yul\":3154:3156   */\n      0x1f\n        /* \"#utility.yul\":3147:3152   */\n      dup4\n        /* \"#utility.yul\":3143:3157   */\n      add\n        /* \"#utility.yul\":3139:3167   */\n      and\n        /* \"#utility.yul\":3129:3167   */\n      swap1\n      pop\n        /* \"#utility.yul\":3071:3173   */\n      swap2\n      swap1\n      pop\n      jump\t// out\n        /* \"#utility.yul\":3179:3556   */\n    tag_91:\n        /* \"#utility.yul\":3267:3270   */\n      0x00\n        /* \"#utility.yul\":3295:3334   */\n      tag_146\n        /* \"#utility.yul\":3328:3333   */\n      dup3\n        /* \"#utility.yul\":3295:3334   */\n      tag_87\n      jump\t// in\n    tag_146:\n        /* \"#utility.yul\":3350:3421   */\n      tag_147\n        /* \"#utility.yul\":3414:3420   */\n      dup2\n        /* \"#utility.yul\":3409:3412   */\n      dup6\n        /* \"#utility.yul\":3350:3421   */\n      tag_88\n      jump\t// in\n    tag_147:\n        /* \"#utility.yul\":3343:3421   */\n      swap4\n      pop\n        /* \"#utility.yul\":3430:3495   */\n      tag_148\n        /* \"#utility.yul\":3488:3494   */\n      dup2\n        /* \"#utility.yul\":3483:3486   */\n      dup6\n        /* \"#utility.yul\":3476:3480   */\n      0x20\n        /* \"#utility.yul\":3469:3474   */\n      dup7\n        /* \"#utility.yul\":3465:3481   */\n      add\n        /* \"#utility.yul\":3430:3495   */\n      tag_89\n      jump\t// in\n    tag_148:\n        /* \"#utility.yul\":3520:3549   */\n      tag_149\n        /* \"#utility.yul\":3542:3548   */\n      dup2\n        /* \"#utility.yul\":3520:3549   */\n      tag_90\n      jump\t// in\n    tag_149:\n        /* \"#utility.yul\":3515:3518   */\n      dup5\n        /* \"#utility.yul\":3511:3550   */\n      add\n        /* \"#utility.yul\":3504:3550   */\n      swap2\n      pop\n        /* \"#utility.yul\":3271:3556   */\n      pop\n        /* \"#utility.yul\":3179:3556   */\n      swap3\n      swap2\n      pop\n      pop\n      jump\t// out\n        /* \"#utility.yul\":3562:4095   */\n    tag_29:\n        /* \"#utility.yul\":3731:3735   */\n      0x00\n        /* \"#utility.yul\":3769:3771   */\n      0x60\n        /* \"#utility.yul\":3758:3767   */\n      dup3\n        /* \"#utility.yul\":3754:3772   */\n      add\n        /* \"#utility.yul\":3746:3772   */\n      swap1\n      pop\n        /* \"#utility.yul\":3782:3853   */\n      tag_151\n        /* \"#utility.yul\":3850:3851   */\n      0x00\n        /* \"#utility.yul\":3839:3848   */\n      dup4\n        /* \"#utility.yul\":3835:3852   */\n      add\n        /* \"#utility.yul\":3826:3832   */\n      dup7\n        /* \"#utility.yul\":3782:3853   */\n      tag_86\n      jump\t// in\n    tag_151:\n        /* \"#utility.yul\":3900:3909   */\n      dup2\n        /* \"#utility.yul\":3894:3898   */\n      dup2\n        /* \"#utility.yul\":3890:3910   */\n      sub\n        /* \"#utility.yul\":3885:3887   */\n      0x20\n        /* \"#utility.yul\":3874:3883   */\n      dup4\n        /* \"#utility.yul\":3870:3888   */\n      add\n        /* \"#utility.yul\":3863:3911   */\n      mstore\n        /* \"#utility.yul\":3928:4006   */\n      tag_152\n        /* \"#utility.yul\":4001:4005   */\n      dup2\n        /* \"#utility.yul\":3992:3998   */\n      dup6\n        /* \"#utility.yul\":3928:4006   */\n      tag_91\n      jump\t// in\n    tag_152:\n        /* \"#utility.yul\":3920:4006   */\n      swap1\n      pop\n        /* \"#utility.yul\":4016:4088   */\n      tag_153\n        /* \"#utility.yul\":4084:4086   */\n      0x40\n        /* \"#utility.yul\":4073:4082   */\n      dup4\n        /* \"#utility.yul\":4069:4087   */\n      add\n        /* \"#utility.yul\":4060:4066   */\n      dup5\n        /* \"#utility.yul\":4016:4088   */\n      tag_86\n      jump\t// in\n    tag_153:\n        /* \"#utility.yul\":3562:4095   */\n      swap5\n      swap4\n      pop\n      pop\n      pop\n      pop\n      jump\t// out\n        /* \"#utility.yul\":4101:4205   */\n    tag_92:\n        /* \"#utility.yul\":4166:4172   */\n      0x00\n        /* \"#utility.yul\":4194:4198   */\n      0x03\n        /* \"#utility.yul\":4184:4198   */\n      swap1\n      pop\n        /* \"#utility.yul\":4101:4205   */\n      swap2\n      swap1\n      pop\n      jump\t// out\n        /* \"#utility.yul\":4211:4354   */\n    tag_93:\n        /* \"#utility.yul\":4308:4319   */\n      0x00\n        /* \"#utility.yul\":4345:4348   */\n      dup2\n        /* \"#utility.yul\":4330:4348   */\n      swap1\n      pop\n        /* \"#utility.yul\":4211:4354   */\n      swap3\n      swap2\n      pop\n      pop\n      jump\t// out\n        /* \"#utility.yul\":4360:4458   */\n    tag_94:\n        /* \"#utility.yul\":4425:4429   */\n      0x00\n        /* \"#utility.yul\":4448:4451   */\n      dup2\n        /* \"#utility.yul\":4440:4451   */\n      swap1\n      pop\n        /* \"#utility.yul\":4360:4458   */\n      swap2\n      swap1\n      pop\n      jump\t// out\n        /* \"#utility.yul\":4464:4572   */\n    tag_95:\n        /* \"#utility.yul\":4541:4565   */\n      tag_158\n        /* \"#utility.yul\":4559:4564   */\n      dup2\n        /* \"#utility.yul\":4541:4565   */\n      tag_77\n      jump\t// in\n    tag_158:\n        /* \"#utility.yul\":4536:4539   */\n      dup3\n        /* \"#utility.yul\":4529:4566   */\n      mstore\n        /* \"#utility.yul\":4464:4572   */\n      pop\n      pop\n      jump\t// out\n        /* \"#utility.yul\":4578:4757   */\n    tag_96:\n        /* \"#utility.yul\":4647:4657   */\n      0x00\n        /* \"#utility.yul\":4668:4714   */\n      tag_160\n        /* \"#utility.yul\":4710:4713   */\n      dup4\n        /* \"#utility.yul\":4702:4708   */\n      dup4\n        /* \"#utility.yul\":4668:4714   */\n      tag_95\n      jump\t// in\n    tag_160:\n        /* \"#utility.yul\":4746:4750   */\n      0x20\n        /* \"#utility.yul\":4741:4744   */\n      dup4\n        /* \"#utility.yul\":4737:4751   */\n      add\n        /* \"#utility.yul\":4723:4751   */\n      swap1\n      pop\n        /* \"#utility.yul\":4578:4757   */\n      swap3\n      swap2\n      pop\n      pop\n      jump\t// out\n        /* \"#utility.yul\":4763:4874   */\n    tag_97:\n        /* \"#utility.yul\":4831:4835   */\n      0x00\n        /* \"#utility.yul\":4863:4867   */\n      0x20\n        /* \"#utility.yul\":4858:4861   */\n      dup3\n        /* \"#utility.yul\":4854:4868   */\n      add\n        /* \"#utility.yul\":4846:4868   */\n      swap1\n      pop\n        /* \"#utility.yul\":4763:4874   */\n      swap2\n      swap1\n      pop\n      jump\t// out\n        /* \"#utility.yul\":4912:5606   */\n    tag_98:\n        /* \"#utility.yul\":5048:5100   */\n      tag_163\n        /* \"#utility.yul\":5094:5099   */\n      dup2\n        /* \"#utility.yul\":5048:5100   */\n      tag_92\n      jump\t// in\n    tag_163:\n        /* \"#utility.yul\":5116:5200   */\n      tag_164\n        /* \"#utility.yul\":5193:5199   */\n      dup2\n        /* \"#utility.yul\":5188:5191   */\n      dup5\n        /* \"#utility.yul\":5116:5200   */\n      tag_93\n      jump\t// in\n    tag_164:\n        /* \"#utility.yul\":5109:5200   */\n      swap3\n      pop\n        /* \"#utility.yul\":5224:5278   */\n      tag_165\n        /* \"#utility.yul\":5272:5277   */\n      dup3\n        /* \"#utility.yul\":5224:5278   */\n      tag_94\n      jump\t// in\n    tag_165:\n        /* \"#utility.yul\":5301:5308   */\n      dup1\n        /* \"#utility.yul\":5332:5333   */\n      0x00\n        /* \"#utility.yul\":5317:5599   */\n    tag_166:\n        /* \"#utility.yul\":5342:5348   */\n      dup4\n        /* \"#utility.yul\":5339:5340   */\n      dup2\n        /* \"#utility.yul\":5336:5349   */\n      lt\n        /* \"#utility.yul\":5317:5599   */\n      iszero\n      tag_168\n      jumpi\n        /* \"#utility.yul\":5418:5424   */\n      dup2\n        /* \"#utility.yul\":5412:5425   */\n      mload\n        /* \"#utility.yul\":5445:5508   */\n      tag_169\n        /* \"#utility.yul\":5504:5507   */\n      dup8\n        /* \"#utility.yul\":5489:5502   */\n      dup3\n        /* \"#utility.yul\":5445:5508   */\n      tag_96\n      jump\t// in\n    tag_169:\n        /* \"#utility.yul\":5438:5508   */\n      swap7\n      pop\n        /* \"#utility.yul\":5531:5589   */\n      tag_170\n        /* \"#utility.yul\":5582:5588   */\n      dup4\n        /* \"#utility.yul\":5531:5589   */\n      tag_97\n      jump\t// in\n    tag_170:\n        /* \"#utility.yul\":5521:5589   */\n      swap3\n      pop\n        /* \"#utility.yul\":5377:5599   */\n      pop\n        /* \"#utility.yul\":5364:5365   */\n      0x01\n        /* \"#utility.yul\":5361:5362   */\n      dup2\n        /* \"#utility.yul\":5357:5366   */\n      add\n        /* \"#utility.yul\":5352:5366   */\n      swap1\n      pop\n        /* \"#utility.yul\":5317:5599   */\n      jump(tag_166)\n    tag_168:\n        /* \"#utility.yul\":5321:5335   */\n      pop\n        /* \"#utility.yul\":5024:5606   */\n      pop\n      pop\n      pop\n        /* \"#utility.yul\":4912:5606   */\n      pop\n      pop\n      jump\t// out\n        /* \"#utility.yul\":5612:5926   */\n    tag_33:\n        /* \"#utility.yul\":5751:5755   */\n      0x00\n        /* \"#utility.yul\":5789:5791   */\n      0x60\n        /* \"#utility.yul\":5778:5787   */\n      dup3\n        /* \"#utility.yul\":5774:5792   */\n      add\n        /* \"#utility.yul\":5766:5792   */\n      swap1\n      pop\n        /* \"#utility.yul\":5802:5919   */\n      tag_172\n        /* \"#utility.yul\":5916:5917   */\n      0x00\n        /* \"#utility.yul\":5905:5914   */\n      dup4\n        /* \"#utility.yul\":5901:5918   */\n      add\n        /* \"#utility.yul\":5892:5898   */\n      dup5\n        /* \"#utility.yul\":5802:5919   */\n      tag_98\n      jump\t// in\n    tag_172:\n        /* \"#utility.yul\":5612:5926   */\n      swap3\n      swap2\n      pop\n      pop\n      jump\t// out\n        /* \"#utility.yul\":5932:6105   */\n    tag_99:\n        /* \"#utility.yul\":6072:6097   */\n      0x596f75206861766520616c726561647920766f7465642e000000000000000000\n        /* \"#utility.yul\":6068:6069   */\n      0x00\n        /* \"#utility.yul\":6060:6066   */\n      dup3\n        /* \"#utility.yul\":6056:6070   */\n      add\n        /* \"#utility.yul\":6049:6098   */\n      mstore\n        /* \"#utility.yul\":5932:6105   */\n      pop\n      jump\t// out\n        /* \"#utility.yul\":6111:6477   */\n    tag_100:\n        /* \"#utility.yul\":6253:6256   */\n      0x00\n        /* \"#utility.yul\":6274:6341   */\n      tag_175\n        /* \"#utility.yul\":6338:6340   */\n      0x17\n        /* \"#utility.yul\":6333:6336   */\n      dup4\n        /* \"#utility.yul\":6274:6341   */\n      tag_88\n      jump\t// in\n    tag_175:\n        /* \"#utility.yul\":6267:6341   */\n      swap2\n      pop\n        /* \"#utility.yul\":6350:6443   */\n      tag_176\n        /* \"#utility.yul\":6439:6442   */\n      dup3\n        /* \"#utility.yul\":6350:6443   */\n      tag_99\n      jump\t// in\n    tag_176:\n        /* \"#utility.yul\":6468:6470   */\n      0x20\n        /* \"#utility.yul\":6463:6466   */\n      dup3\n        /* \"#utility.yul\":6459:6471   */\n      add\n        /* \"#utility.yul\":6452:6471   */\n      swap1\n      pop\n        /* \"#utility.yul\":6111:6477   */\n      swap2\n      swap1\n      pop\n      jump\t// out\n        /* \"#utility.yul\":6483:6902   */\n    tag_42:\n        /* \"#utility.yul\":6649:6653   */\n      0x00\n        /* \"#utility.yul\":6687:6689   */\n      0x20\n        /* \"#utility.yul\":6676:6685   */\n      dup3\n        /* \"#utility.yul\":6672:6690   */\n      add\n        /* \"#utility.yul\":6664:6690   */\n      swap1\n      pop\n        /* \"#utility.yul\":6736:6745   */\n      dup2\n        /* \"#utility.yul\":6730:6734   */\n      dup2\n        /* \"#utility.yul\":6726:6746   */\n      sub\n        /* \"#utility.yul\":6722:6723   */\n      0x00\n        /* \"#utility.yul\":6711:6720   */\n      dup4\n        /* \"#utility.yul\":6707:6724   */\n      add\n        /* \"#utility.yul\":6700:6747   */\n      mstore\n        /* \"#utility.yul\":6764:6895   */\n      tag_178\n        /* \"#utility.yul\":6890:6894   */\n      dup2\n        /* \"#utility.yul\":6764:6895   */\n      tag_100\n      jump\t// in\n    tag_178:\n        /* \"#utility.yul\":6756:6895   */\n      swap1\n      pop\n        /* \"#utility.yul\":6483:6902   */\n      swap2\n      swap1\n      pop\n      jump\t// out\n        /* \"#utility.yul\":6908:7148   */\n    tag_101:\n        /* \"#utility.yul\":7048:7082   */\n      0x496e76616c69642063616e6469646174652049442e2050726573732030206966\n        /* \"#utility.yul\":7044:7045   */\n      0x00\n        /* \"#utility.yul\":7036:7042   */\n      dup3\n        /* \"#utility.yul\":7032:7046   */\n      add\n        /* \"#utility.yul\":7025:7083   */\n      mstore\n        /* \"#utility.yul\":7117:7140   */\n      0x20796f75207769746820746f204162737461696e2e0000000000000000000000\n        /* \"#utility.yul\":7112:7114   */\n      0x20\n        /* \"#utility.yul\":7104:7110   */\n      dup3\n        /* \"#utility.yul\":7100:7115   */\n      add\n        /* \"#utility.yul\":7093:7141   */\n      mstore\n        /* \"#utility.yul\":6908:7148   */\n      pop\n      jump\t// out\n        /* \"#utility.yul\":7154:7520   */\n    tag_102:\n        /* \"#utility.yul\":7296:7299   */\n      0x00\n        /* \"#utility.yul\":7317:7384   */\n      tag_181\n        /* \"#utility.yul\":7381:7383   */\n      0x35\n        /* \"#utility.yul\":7376:7379   */\n      dup4\n        /* \"#utility.yul\":7317:7384   */\n      tag_88\n      jump\t// in\n    tag_181:\n        /* \"#utility.yul\":7310:7384   */\n      swap2\n      pop\n        /* \"#utility.yul\":7393:7486   */\n      tag_182\n        /* \"#utility.yul\":7482:7485   */\n      dup3\n        /* \"#utility.yul\":7393:7486   */\n      tag_101\n      jump\t// in\n    tag_182:\n        /* \"#utility.yul\":7511:7513   */\n      0x40\n        /* \"#utility.yul\":7506:7509   */\n      dup3\n        /* \"#utility.yul\":7502:7514   */\n      add\n        /* \"#utility.yul\":7495:7514   */\n      swap1\n      pop\n        /* \"#utility.yul\":7154:7520   */\n      swap2\n      swap1\n      pop\n      jump\t// out\n        /* \"#utility.yul\":7526:7945   */\n    tag_47:\n        /* \"#utility.yul\":7692:7696   */\n      0x00\n        /* \"#utility.yul\":7730:7732   */\n      0x20\n        /* \"#utility.yul\":7719:7728   */\n      dup3\n        /* \"#utility.yul\":7715:7733   */\n      add\n        /* \"#utility.yul\":7707:7733   */\n      swap1\n      pop\n        /* \"#utility.yul\":7779:7788   */\n      dup2\n        /* \"#utility.yul\":7773:7777   */\n      dup2\n        /* \"#utility.yul\":7769:7789   */\n      sub\n        /* \"#utility.yul\":7765:7766   */\n      0x00\n        /* \"#utility.yul\":7754:7763   */\n      dup4\n        /* \"#utility.yul\":7750:7767   */\n      add\n        /* \"#utility.yul\":7743:7790   */\n      mstore\n        /* \"#utility.yul\":7807:7938   */\n      tag_184\n        /* \"#utility.yul\":7933:7937   */\n      dup2\n        /* \"#utility.yul\":7807:7938   */\n      tag_102\n      jump\t// in\n    tag_184:\n        /* \"#utility.yul\":7799:7938   */\n      swap1\n      pop\n        /* \"#utility.yul\":7526:7945   */\n      swap2\n      swap1\n      pop\n      jump\t// out\n        /* \"#utility.yul\":7951:8131   */\n    tag_103:\n        /* \"#utility.yul\":7999:8076   */\n      0x4e487b7100000000000000000000000000000000000000000000000000000000\n        /* \"#utility.yul\":7996:7997   */\n      0x00\n        /* \"#utility.yul\":7989:8077   */\n      mstore\n        /* \"#utility.yul\":8096:8100   */\n      0x11\n        /* \"#utility.yul\":8093:8094   */\n      0x04\n        /* \"#utility.yul\":8086:8101   */\n      mstore\n        /* \"#utility.yul\":8120:8124   */\n      0x24\n        /* \"#utility.yul\":8117:8118   */\n      0x00\n        /* \"#utility.yul\":8110:8125   */\n      revert\n        /* \"#utility.yul\":8137:8370   */\n    tag_50:\n        /* \"#utility.yul\":8176:8179   */\n      0x00\n        /* \"#utility.yul\":8199:8223   */\n      tag_187\n        /* \"#utility.yul\":8217:8222   */\n      dup3\n        /* \"#utility.yul\":8199:8223   */\n      tag_77\n      jump\t// in\n    tag_187:\n        /* \"#utility.yul\":8190:8223   */\n      swap2\n      pop\n        /* \"#utility.yul\":8245:8311   */\n      0xffffffffffffffffffffffffffffffffffffffffffffffffffffffffffffffff\n        /* \"#utility.yul\":8238:8243   */\n      dup3\n        /* \"#utility.yul\":8235:8312   */\n      sub\n        /* \"#utility.yul\":8232:8335   */\n      tag_188\n      jumpi\n        /* \"#utility.yul\":8315:8333   */\n      tag_189\n      tag_103\n      jump\t// in\n    tag_189:\n        /* \"#utility.yul\":8232:8335   */\n    tag_188:\n        /* \"#utility.yul\":8362:8363   */\n      0x01\n        /* \"#utility.yul\":8355:8360   */\n      dup3\n        /* \"#utility.yul\":8351:8364   */\n      add\n        /* \"#utility.yul\":8344:8364   */\n      swap1\n      pop\n        /* \"#utility.yul\":8137:8370   */\n      swap2\n      swap1\n      pop\n      jump\t// out\n        /* \"#utility.yul\":8376:8494   */\n    tag_104:\n        /* \"#utility.yul\":8463:8487   */\n      tag_191\n        /* \"#utility.yul\":8481:8486   */\n      dup2\n        /* \"#utility.yul\":8463:8487   */\n      tag_81\n      jump\t// in\n    tag_191:\n        /* \"#utility.yul\":8458:8461   */\n      dup3\n        /* \"#utility.yul\":8451:8488   */\n      mstore\n        /* \"#utility.yul\":8376:8494   */\n      pop\n      pop\n      jump\t// out\n        /* \"#utility.yul\":8500:8832   */\n    tag_55:\n        /* \"#utility.yul\":8621:8625   */\n      0x00\n        /* \"#utility.yul\":8659:8661   */\n      0x40\n        /* \"#utility.yul\":8648:8657   */\n      dup3\n        /* \"#utility.yul\":8644:8662   */\n      add\n        /* \"#utility.yul\":8636:8662   */\n      swap1\n      pop\n        /* \"#utility.yul\":8672:8743   */\n      tag_193\n        /* \"#utility.yul\":8740:8741   */\n      0x00\n        /* \"#utility.yul\":8729:8738   */\n      dup4\n        /* \"#utility.yul\":8725:8742   */\n      add\n        /* \"#utility.yul\":8716:8722   */\n      dup6\n        /* \"#utility.yul\":8672:8743   */\n      tag_104\n      jump\t// in\n    tag_193:\n        /* \"#utility.yul\":8753:8825   */\n      tag_194\n        /* \"#utility.yul\":8821:8823   */\n      0x20\n        /* \"#utility.yul\":8810:8819   */\n      dup4\n        /* \"#utility.yul\":8806:8824   */\n      add\n        /* \"#utility.yul\":8797:8803   */\n      dup5\n        /* \"#utility.yul\":8753:8825   */\n      tag_86\n      jump\t// in\n    tag_194:\n        /* \"#utility.yul\":8500:8832   */\n      swap4\n      swap3\n      pop\n      pop\n      pop\n      jump\t// out\n        /* \"#utility.yul\":8838:9018   */\n    tag_105:\n        /* \"#utility.yul\":8886:8963   */\n      0x4e487b7100000000000000000000000000000000000000000000000000000000\n        /* \"#utility.yul\":8883:8884   */\n      0x00\n        /* \"#utility.yul\":8876:8964   */\n      mstore\n        /* \"#utility.yul\":8983:8987   */\n      0x22\n        /* \"#utility.yul\":8980:8981   */\n      0x04\n        /* \"#utility.yul\":8973:8988   */\n      mstore\n        /* \"#utility.yul\":9007:9011   */\n      0x24\n        /* \"#utility.yul\":9004:9005   */\n      0x00\n        /* \"#utility.yul\":8997:9012   */\n      revert\n        /* \"#utility.yul\":9024:9344   */\n    tag_57:\n        /* \"#utility.yul\":9068:9074   */\n      0x00\n        /* \"#utility.yul\":9105:9106   */\n      0x02\n        /* \"#utility.yul\":9099:9103   */\n      dup3\n        /* \"#utility.yul\":9095:9107   */\n      div\n        /* \"#utility.yul\":9085:9107   */\n      swap1\n      pop\n        /* \"#utility.yul\":9152:9153   */\n      0x01\n        /* \"#utility.yul\":9146:9150   */\n      dup3\n        /* \"#utility.yul\":9142:9154   */\n      and\n        /* \"#utility.yul\":9173:9191   */\n      dup1\n        /* \"#utility.yul\":9163:9244   */\n      tag_197\n      jumpi\n        /* \"#utility.yul\":9229:9233   */\n      0x7f\n        /* \"#utility.yul\":9221:9227   */\n      dup3\n        /* \"#utility.yul\":9217:9234   */\n      and\n        /* \"#utility.yul\":9207:9234   */\n      swap2\n      pop\n        /* \"#utility.yul\":9163:9244   */\n    tag_197:\n        /* \"#utility.yul\":9291:9293   */\n      0x20\n        /* \"#utility.yul\":9283:9289   */\n      dup3\n        /* \"#utility.yul\":9280:9294   */\n      lt\n        /* \"#utility.yul\":9260:9278   */\n      dup2\n        /* \"#utility.yul\":9257:9295   */\n      sub\n        /* \"#utility.yul\":9254:9338   */\n      tag_198\n      jumpi\n        /* \"#utility.yul\":9310:9328   */\n      tag_199\n      tag_105\n      jump\t// in\n    tag_199:\n        /* \"#utility.yul\":9254:9338   */\n    tag_198:\n        /* \"#utility.yul\":9075:9344   */\n      pop\n        /* \"#utility.yul\":9024:9344   */\n      swap2\n      swap1\n      pop\n      jump\t// out\n        /* \"#utility.yul\":9350:9530   */\n    tag_68:\n        /* \"#utility.yul\":9398:9475   */\n      0x4e487b7100000000000000000000000000000000000000000000000000000000\n        /* \"#utility.yul\":9395:9396   */\n      0x00\n        /* \"#utility.yul\":9388:9476   */\n      mstore\n        /* \"#utility.yul\":9495:9499   */\n      0x32\n        /* \"#utility.yul\":9492:9493   */\n      0x04\n        /* \"#utility.yul\":9485:9500   */\n      mstore\n        /* \"#utility.yul\":9519:9523   */\n      0x24\n        /* \"#utility.yul\":9516:9517   */\n      0x00\n        /* \"#utility.yul\":9509:9524   */\n      revert\n\n    auxdata: 0xa26469706673582212208760b95b8ddda9c8a26890e1647f7fe1348e74b446f6d159382ade3194f1d1d064736f6c634300081a0033\n}\n",
				"bytecode": {
					"linkReferences": {},
					"object": "608060405234801561000f575f80fd5b50610056600d6040518060400160405280600b81526020017f43616e64696461746520410000000000000000000000000000000000000000008152506100a160201b60201c565b61009c60166040518060400160405280600b81526020017f43616e64696461746520420000000000000000000000000000000000000000008152506100a160201b60201c565b610404565b60405180606001604052808381526020018281526020015f8152505f808481526020019081526020015f205f820151815f015560208201518160010190816100e99190610335565b50604082015181600201559050505050565b5f81519050919050565b7f4e487b71000000000000000000000000000000000000000000000000000000005f52604160045260245ffd5b7f4e487b71000000000000000000000000000000000000000000000000000000005f52602260045260245ffd5b5f600282049050600182168061017657607f821691505b60208210810361018957610188610132565b5b50919050565b5f819050815f5260205f209050919050565b5f6020601f8301049050919050565b5f82821b905092915050565b5f600883026101eb7fffffffffffffffffffffffffffffffffffffffffffffffffffffffffffffffff826101b0565b6101f586836101b0565b95508019841693508086168417925050509392505050565b5f819050919050565b5f819050919050565b5f61023961023461022f8461020d565b610216565b61020d565b9050919050565b5f819050919050565b6102528361021f565b61026661025e82610240565b8484546101bc565b825550505050565b5f90565b61027a61026e565b610285818484610249565b505050565b5b818110156102a85761029d5f82610272565b60018101905061028b565b5050565b601f8211156102ed576102be8161018f565b6102c7846101a1565b810160208510156102d6578190505b6102ea6102e2856101a1565b83018261028a565b50505b505050565b5f82821c905092915050565b5f61030d5f19846008026102f2565b1980831691505092915050565b5f61032583836102fe565b9150826002028217905092915050565b61033e826100fb565b67ffffffffffffffff81111561035757610356610105565b5b610361825461015f565b61036c8282856102ac565b5f60209050601f83116001811461039d575f841561038b578287015190505b610395858261031a565b8655506103fc565b601f1984166103ab8661018f565b5f5b828110156103d2578489015182556001820191506020850194506020810190506103ad565b868310156103ef57848901516103eb601f8916826102fe565b8355505b6001600288020188555050505b505050505050565b610a14806104115f395ff3fe608060405234801561000f575f80fd5b506004361061007b575f3560e01c80633477ee2e116100595780633477ee2e146100e95780634717f97c1461011b5780636a316c9d14610139578063b9830ff1146101575761007b565b80630121b93f1461007f57806309eef43e1461009b5780630d15fd77146100cb575b5f80fd5b6100996004803603810190610094919061053f565b610161565b005b6100b560048036038101906100b091906105c4565b610336565b6040516100c29190610609565b60405180910390f35b6100d3610353565b6040516100e09190610631565b60405180910390f35b61010360048036038101906100fe919061053f565b610359565b604051610112939291906106ba565b60405180910390f35b610123610404565b604051610130919061079b565b60405180910390f35b61014161049e565b60405161014e9190610631565b60405180910390f35b61015f6104a4565b005b60015f3373ffffffffffffffffffffffffffffffffffffffff1673ffffffffffffffffffffffffffffffffffffffff1681526020019081526020015f205f9054906101000a900460ff16156101eb576040517f08c379a00000000000000000000000000000000000000000000000000000000081526004016101e2906107fe565b60405180910390fd5b600d8114806101fa5750601681145b8061020457505f81145b610243576040517f08c379a000000000000000000000000000000000000000000000000000000000815260040161023a9061088c565b60405180910390fd5b5f81036102665760035f81548092919061025c906108d7565b919050555061028f565b5f808281526020019081526020015f206002015f815480929190610289906108d7565b91905055505b60025f8154809291906102a1906108d7565b91905055506001805f3373ffffffffffffffffffffffffffffffffffffffff1673ffffffffffffffffffffffffffffffffffffffff1681526020019081526020015f205f6101000a81548160ff0219169083151502179055507fd0e6c39f2e086dc49f1524b47725526a56945cd1ff661f37976f1725a1e56986338260405161032b92919061092d565b60405180910390a150565b6001602052805f5260405f205f915054906101000a900460ff1681565b60025481565b5f602052805f5260405f205f91509050805f01549080600101805461037d90610981565b80601f01602080910402602001604051908101604052809291908181526020018280546103a990610981565b80156103f45780601f106103cb576101008083540402835291602001916103f4565b820191905f5260205f20905b8154815290600101906020018083116103d757829003601f168201915b5050505050908060020154905083565b61040c6104e6565b6104146104e6565b5f80600d81526020019081526020015f2060020154815f6003811061043c5761043b6109b1565b5b6020020181815250505f80601681526020019081526020015f20600201548160016003811061046e5761046d6109b1565b5b6020020181815250506003548160026003811061048e5761048d6109b1565b5b6020020181815250508091505090565b60035481565b5f805f600d81526020019081526020015f20600201819055505f805f601681526020019081526020015f20600201819055505f6003819055505f600281905550565b6040518060600160405280600390602082028036833780820191505090505090565b5f80fd5b5f819050919050565b61051e8161050c565b8114610528575f80fd5b50565b5f8135905061053981610515565b92915050565b5f6020828403121561055457610553610508565b5b5f6105618482850161052b565b91505092915050565b5f73ffffffffffffffffffffffffffffffffffffffff82169050919050565b5f6105938261056a565b9050919050565b6105a381610589565b81146105ad575f80fd5b50565b5f813590506105be8161059a565b92915050565b5f602082840312156105d9576105d8610508565b5b5f6105e6848285016105b0565b91505092915050565b5f8115159050919050565b610603816105ef565b82525050565b5f60208201905061061c5f8301846105fa565b92915050565b61062b8161050c565b82525050565b5f6020820190506106445f830184610622565b92915050565b5f81519050919050565b5f82825260208201905092915050565b8281835e5f83830152505050565b5f601f19601f8301169050919050565b5f61068c8261064a565b6106968185610654565b93506106a6818560208601610664565b6106af81610672565b840191505092915050565b5f6060820190506106cd5f830186610622565b81810360208301526106df8185610682565b90506106ee6040830184610622565b949350505050565b5f60039050919050565b5f81905092915050565b5f819050919050565b61071c8161050c565b82525050565b5f61072d8383610713565b60208301905092915050565b5f602082019050919050565b61074e816106f6565b6107588184610700565b92506107638261070a565b805f5b8381101561079357815161077a8782610722565b965061078583610739565b925050600181019050610766565b505050505050565b5f6060820190506107ae5f830184610745565b92915050565b7f596f75206861766520616c726561647920766f7465642e0000000000000000005f82015250565b5f6107e8601783610654565b91506107f3826107b4565b602082019050919050565b5f6020820190508181035f830152610815816107dc565b9050919050565b7f496e76616c69642063616e6469646174652049442e20507265737320302069665f8201527f20796f75207769746820746f204162737461696e2e0000000000000000000000602082015250565b5f610876603583610654565b91506108818261081c565b604082019050919050565b5f6020820190508181035f8301526108a38161086a565b9050919050565b7f4e487b71000000000000000000000000000000000000000000000000000000005f52601160045260245ffd5b5f6108e18261050c565b91507fffffffffffffffffffffffffffffffffffffffffffffffffffffffffffffffff8203610913576109126108aa565b5b600182019050919050565b61092781610589565b82525050565b5f6040820190506109405f83018561091e565b61094d6020830184610622565b9392505050565b7f4e487b71000000000000000000000000000000000000000000000000000000005f52602260045260245ffd5b5f600282049050600182168061099857607f821691505b6020821081036109ab576109aa610954565b5b50919050565b7f4e487b71000000000000000000000000000000000000000000000000000000005f52603260045260245ffdfea26469706673582212208760b95b8ddda9c8a26890e1647f7fe1348e74b446f6d159382ade3194f1d1d064736f6c634300081a0033",
					"opcodes": "PUSH1 0x80 PUSH1 0x40 MSTORE CALLVALUE DUP1 ISZERO PUSH2 0xF JUMPI PUSH0 DUP1 REVERT JUMPDEST POP PUSH2 0x56 PUSH1 0xD PUSH1 0x40 MLOAD DUP1 PUSH1 0x40 ADD PUSH1 0x40 MSTORE DUP1 PUSH1 0xB DUP2 MSTORE PUSH1 0x20 ADD PUSH32 0x43616E6469646174652041000000000000000000000000000000000000000000 DUP2 MSTORE POP PUSH2 0xA1 PUSH1 0x20 SHL PUSH1 0x20 SHR JUMP JUMPDEST PUSH2 0x9C PUSH1 0x16 PUSH1 0x40 MLOAD DUP1 PUSH1 0x40 ADD PUSH1 0x40 MSTORE DUP1 PUSH1 0xB DUP2 MSTORE PUSH1 0x20 ADD PUSH32 0x43616E6469646174652042000000000000000000000000000000000000000000 DUP2 MSTORE POP PUSH2 0xA1 PUSH1 0x20 SHL PUSH1 0x20 SHR JUMP JUMPDEST PUSH2 0x404 JUMP JUMPDEST PUSH1 0x40 MLOAD DUP1 PUSH1 0x60 ADD PUSH1 0x40 MSTORE DUP1 DUP4 DUP2 MSTORE PUSH1 0x20 ADD DUP3 DUP2 MSTORE PUSH1 0x20 ADD PUSH0 DUP2 MSTORE POP PUSH0 DUP1 DUP5 DUP2 MSTORE PUSH1 0x20 ADD SWAP1 DUP2 MSTORE PUSH1 0x20 ADD PUSH0 KECCAK256 PUSH0 DUP3 ADD MLOAD DUP2 PUSH0 ADD SSTORE PUSH1 0x20 DUP3 ADD MLOAD DUP2 PUSH1 0x1 ADD SWAP1 DUP2 PUSH2 0xE9 SWAP2 SWAP1 PUSH2 0x335 JUMP JUMPDEST POP PUSH1 0x40 DUP3 ADD MLOAD DUP2 PUSH1 0x2 ADD SSTORE SWAP1 POP POP POP POP JUMP JUMPDEST PUSH0 DUP2 MLOAD SWAP1 POP SWAP2 SWAP1 POP JUMP JUMPDEST PUSH32 0x4E487B7100000000000000000000000000000000000000000000000000000000 PUSH0 MSTORE PUSH1 0x41 PUSH1 0x4 MSTORE PUSH1 0x24 PUSH0 REVERT JUMPDEST PUSH32 0x4E487B7100000000000000000000000000000000000000000000000000000000 PUSH0 MSTORE PUSH1 0x22 PUSH1 0x4 MSTORE PUSH1 0x24 PUSH0 REVERT JUMPDEST PUSH0 PUSH1 0x2 DUP3 DIV SWAP1 POP PUSH1 0x1 DUP3 AND DUP1 PUSH2 0x176 JUMPI PUSH1 0x7F DUP3 AND SWAP2 POP JUMPDEST PUSH1 0x20 DUP3 LT DUP2 SUB PUSH2 0x189 JUMPI PUSH2 0x188 PUSH2 0x132 JUMP JUMPDEST JUMPDEST POP SWAP2 SWAP1 POP JUMP JUMPDEST PUSH0 DUP2 SWAP1 POP DUP2 PUSH0 MSTORE PUSH1 0x20 PUSH0 KECCAK256 SWAP1 POP SWAP2 SWAP1 POP JUMP JUMPDEST PUSH0 PUSH1 0x20 PUSH1 0x1F DUP4 ADD DIV SWAP1 POP SWAP2 SWAP1 POP JUMP JUMPDEST PUSH0 DUP3 DUP3 SHL SWAP1 POP SWAP3 SWAP2 POP POP JUMP JUMPDEST PUSH0 PUSH1 0x8 DUP4 MUL PUSH2 0x1EB PUSH32 0xFFFFFFFFFFFFFFFFFFFFFFFFFFFFFFFFFFFFFFFFFFFFFFFFFFFFFFFFFFFFFFFF DUP3 PUSH2 0x1B0 JUMP JUMPDEST PUSH2 0x1F5 DUP7 DUP4 PUSH2 0x1B0 JUMP JUMPDEST SWAP6 POP DUP1 NOT DUP5 AND SWAP4 POP DUP1 DUP7 AND DUP5 OR SWAP3 POP POP POP SWAP4 SWAP3 POP POP POP JUMP JUMPDEST PUSH0 DUP2 SWAP1 POP SWAP2 SWAP1 POP JUMP JUMPDEST PUSH0 DUP2 SWAP1 POP SWAP2 SWAP1 POP JUMP JUMPDEST PUSH0 PUSH2 0x239 PUSH2 0x234 PUSH2 0x22F DUP5 PUSH2 0x20D JUMP JUMPDEST PUSH2 0x216 JUMP JUMPDEST PUSH2 0x20D JUMP JUMPDEST SWAP1 POP SWAP2 SWAP1 POP JUMP JUMPDEST PUSH0 DUP2 SWAP1 POP SWAP2 SWAP1 POP JUMP JUMPDEST PUSH2 0x252 DUP4 PUSH2 0x21F JUMP JUMPDEST PUSH2 0x266 PUSH2 0x25E DUP3 PUSH2 0x240 JUMP JUMPDEST DUP5 DUP5 SLOAD PUSH2 0x1BC JUMP JUMPDEST DUP3 SSTORE POP POP POP POP JUMP JUMPDEST PUSH0 SWAP1 JUMP JUMPDEST PUSH2 0x27A PUSH2 0x26E JUMP JUMPDEST PUSH2 0x285 DUP2 DUP5 DUP5 PUSH2 0x249 JUMP JUMPDEST POP POP POP JUMP JUMPDEST JUMPDEST DUP2 DUP2 LT ISZERO PUSH2 0x2A8 JUMPI PUSH2 0x29D PUSH0 DUP3 PUSH2 0x272 JUMP JUMPDEST PUSH1 0x1 DUP2 ADD SWAP1 POP PUSH2 0x28B JUMP JUMPDEST POP POP JUMP JUMPDEST PUSH1 0x1F DUP3 GT ISZERO PUSH2 0x2ED JUMPI PUSH2 0x2BE DUP2 PUSH2 0x18F JUMP JUMPDEST PUSH2 0x2C7 DUP5 PUSH2 0x1A1 JUMP JUMPDEST DUP2 ADD PUSH1 0x20 DUP6 LT ISZERO PUSH2 0x2D6 JUMPI DUP2 SWAP1 POP JUMPDEST PUSH2 0x2EA PUSH2 0x2E2 DUP6 PUSH2 0x1A1 JUMP JUMPDEST DUP4 ADD DUP3 PUSH2 0x28A JUMP JUMPDEST POP POP JUMPDEST POP POP POP JUMP JUMPDEST PUSH0 DUP3 DUP3 SHR SWAP1 POP SWAP3 SWAP2 POP POP JUMP JUMPDEST PUSH0 PUSH2 0x30D PUSH0 NOT DUP5 PUSH1 0x8 MUL PUSH2 0x2F2 JUMP JUMPDEST NOT DUP1 DUP4 AND SWAP2 POP POP SWAP3 SWAP2 POP POP JUMP JUMPDEST PUSH0 PUSH2 0x325 DUP4 DUP4 PUSH2 0x2FE JUMP JUMPDEST SWAP2 POP DUP3 PUSH1 0x2 MUL DUP3 OR SWAP1 POP SWAP3 SWAP2 POP POP JUMP JUMPDEST PUSH2 0x33E DUP3 PUSH2 0xFB JUMP JUMPDEST PUSH8 0xFFFFFFFFFFFFFFFF DUP2 GT ISZERO PUSH2 0x357 JUMPI PUSH2 0x356 PUSH2 0x105 JUMP JUMPDEST JUMPDEST PUSH2 0x361 DUP3 SLOAD PUSH2 0x15F JUMP JUMPDEST PUSH2 0x36C DUP3 DUP3 DUP6 PUSH2 0x2AC JUMP JUMPDEST PUSH0 PUSH1 0x20 SWAP1 POP PUSH1 0x1F DUP4 GT PUSH1 0x1 DUP2 EQ PUSH2 0x39D JUMPI PUSH0 DUP5 ISZERO PUSH2 0x38B JUMPI DUP3 DUP8 ADD MLOAD SWAP1 POP JUMPDEST PUSH2 0x395 DUP6 DUP3 PUSH2 0x31A JUMP JUMPDEST DUP7 SSTORE POP PUSH2 0x3FC JUMP JUMPDEST PUSH1 0x1F NOT DUP5 AND PUSH2 0x3AB DUP7 PUSH2 0x18F JUMP JUMPDEST PUSH0 JUMPDEST DUP3 DUP2 LT ISZERO PUSH2 0x3D2 JUMPI DUP5 DUP10 ADD MLOAD DUP3 SSTORE PUSH1 0x1 DUP3 ADD SWAP2 POP PUSH1 0x20 DUP6 ADD SWAP5 POP PUSH1 0x20 DUP2 ADD SWAP1 POP PUSH2 0x3AD JUMP JUMPDEST DUP7 DUP4 LT ISZERO PUSH2 0x3EF JUMPI DUP5 DUP10 ADD MLOAD PUSH2 0x3EB PUSH1 0x1F DUP10 AND DUP3 PUSH2 0x2FE JUMP JUMPDEST DUP4 SSTORE POP JUMPDEST PUSH1 0x1 PUSH1 0x2 DUP9 MUL ADD DUP9 SSTORE POP POP POP JUMPDEST POP POP POP POP POP POP JUMP JUMPDEST PUSH2 0xA14 DUP1 PUSH2 0x411 PUSH0 CODECOPY PUSH0 RETURN INVALID PUSH1 0x80 PUSH1 0x40 MSTORE CALLVALUE DUP1 ISZERO PUSH2 0xF JUMPI PUSH0 DUP1 REVERT JUMPDEST POP PUSH1 0x4 CALLDATASIZE LT PUSH2 0x7B JUMPI PUSH0 CALLDATALOAD PUSH1 0xE0 SHR DUP1 PUSH4 0x3477EE2E GT PUSH2 0x59 JUMPI DUP1 PUSH4 0x3477EE2E EQ PUSH2 0xE9 JUMPI DUP1 PUSH4 0x4717F97C EQ PUSH2 0x11B JUMPI DUP1 PUSH4 0x6A316C9D EQ PUSH2 0x139 JUMPI DUP1 PUSH4 0xB9830FF1 EQ PUSH2 0x157 JUMPI PUSH2 0x7B JUMP JUMPDEST DUP1 PUSH4 0x121B93F EQ PUSH2 0x7F JUMPI DUP1 PUSH4 0x9EEF43E EQ PUSH2 0x9B JUMPI DUP1 PUSH4 0xD15FD77 EQ PUSH2 0xCB JUMPI JUMPDEST PUSH0 DUP1 REVERT JUMPDEST PUSH2 0x99 PUSH1 0x4 DUP1 CALLDATASIZE SUB DUP2 ADD SWAP1 PUSH2 0x94 SWAP2 SWAP1 PUSH2 0x53F JUMP JUMPDEST PUSH2 0x161 JUMP JUMPDEST STOP JUMPDEST PUSH2 0xB5 PUSH1 0x4 DUP1 CALLDATASIZE SUB DUP2 ADD SWAP1 PUSH2 0xB0 SWAP2 SWAP1 PUSH2 0x5C4 JUMP JUMPDEST PUSH2 0x336 JUMP JUMPDEST PUSH1 0x40 MLOAD PUSH2 0xC2 SWAP2 SWAP1 PUSH2 0x609 JUMP JUMPDEST PUSH1 0x40 MLOAD DUP1 SWAP2 SUB SWAP1 RETURN JUMPDEST PUSH2 0xD3 PUSH2 0x353 JUMP JUMPDEST PUSH1 0x40 MLOAD PUSH2 0xE0 SWAP2 SWAP1 PUSH2 0x631 JUMP JUMPDEST PUSH1 0x40 MLOAD DUP1 SWAP2 SUB SWAP1 RETURN JUMPDEST PUSH2 0x103 PUSH1 0x4 DUP1 CALLDATASIZE SUB DUP2 ADD SWAP1 PUSH2 0xFE SWAP2 SWAP1 PUSH2 0x53F JUMP JUMPDEST PUSH2 0x359 JUMP JUMPDEST PUSH1 0x40 MLOAD PUSH2 0x112 SWAP4 SWAP3 SWAP2 SWAP1 PUSH2 0x6BA JUMP JUMPDEST PUSH1 0x40 MLOAD DUP1 SWAP2 SUB SWAP1 RETURN JUMPDEST PUSH2 0x123 PUSH2 0x404 JUMP JUMPDEST PUSH1 0x40 MLOAD PUSH2 0x130 SWAP2 SWAP1 PUSH2 0x79B JUMP JUMPDEST PUSH1 0x40 MLOAD DUP1 SWAP2 SUB SWAP1 RETURN JUMPDEST PUSH2 0x141 PUSH2 0x49E JUMP JUMPDEST PUSH1 0x40 MLOAD PUSH2 0x14E SWAP2 SWAP1 PUSH2 0x631 JUMP JUMPDEST PUSH1 0x40 MLOAD DUP1 SWAP2 SUB SWAP1 RETURN JUMPDEST PUSH2 0x15F PUSH2 0x4A4 JUMP JUMPDEST STOP JUMPDEST PUSH1 0x1 PUSH0 CALLER PUSH20 0xFFFFFFFFFFFFFFFFFFFFFFFFFFFFFFFFFFFFFFFF AND PUSH20 0xFFFFFFFFFFFFFFFFFFFFFFFFFFFFFFFFFFFFFFFF AND DUP2 MSTORE PUSH1 0x20 ADD SWAP1 DUP2 MSTORE PUSH1 0x20 ADD PUSH0 KECCAK256 PUSH0 SWAP1 SLOAD SWAP1 PUSH2 0x100 EXP SWAP1 DIV PUSH1 0xFF AND ISZERO PUSH2 0x1EB JUMPI PUSH1 0x40 MLOAD PUSH32 0x8C379A000000000000000000000000000000000000000000000000000000000 DUP2 MSTORE PUSH1 0x4 ADD PUSH2 0x1E2 SWAP1 PUSH2 0x7FE JUMP JUMPDEST PUSH1 0x40 MLOAD DUP1 SWAP2 SUB SWAP1 REVERT JUMPDEST PUSH1 0xD DUP2 EQ DUP1 PUSH2 0x1FA JUMPI POP PUSH1 0x16 DUP2 EQ JUMPDEST DUP1 PUSH2 0x204 JUMPI POP PUSH0 DUP2 EQ JUMPDEST PUSH2 0x243 JUMPI PUSH1 0x40 MLOAD PUSH32 0x8C379A000000000000000000000000000000000000000000000000000000000 DUP2 MSTORE PUSH1 0x4 ADD PUSH2 0x23A SWAP1 PUSH2 0x88C JUMP JUMPDEST PUSH1 0x40 MLOAD DUP1 SWAP2 SUB SWAP1 REVERT JUMPDEST PUSH0 DUP2 SUB PUSH2 0x266 JUMPI PUSH1 0x3 PUSH0 DUP2 SLOAD DUP1 SWAP3 SWAP2 SWAP1 PUSH2 0x25C SWAP1 PUSH2 0x8D7 JUMP JUMPDEST SWAP2 SWAP1 POP SSTORE POP PUSH2 0x28F JUMP JUMPDEST PUSH0 DUP1 DUP3 DUP2 MSTORE PUSH1 0x20 ADD SWAP1 DUP2 MSTORE PUSH1 0x20 ADD PUSH0 KECCAK256 PUSH1 0x2 ADD PUSH0 DUP2 SLOAD DUP1 SWAP3 SWAP2 SWAP1 PUSH2 0x289 SWAP1 PUSH2 0x8D7 JUMP JUMPDEST SWAP2 SWAP1 POP SSTORE POP JUMPDEST PUSH1 0x2 PUSH0 DUP2 SLOAD DUP1 SWAP3 SWAP2 SWAP1 PUSH2 0x2A1 SWAP1 PUSH2 0x8D7 JUMP JUMPDEST SWAP2 SWAP1 POP SSTORE POP PUSH1 0x1 DUP1 PUSH0 CALLER PUSH20 0xFFFFFFFFFFFFFFFFFFFFFFFFFFFFFFFFFFFFFFFF AND PUSH20 0xFFFFFFFFFFFFFFFFFFFFFFFFFFFFFFFFFFFFFFFF AND DUP2 MSTORE PUSH1 0x20 ADD SWAP1 DUP2 MSTORE PUSH1 0x20 ADD PUSH0 KECCAK256 PUSH0 PUSH2 0x100 EXP DUP2 SLOAD DUP2 PUSH1 0xFF MUL NOT AND SWAP1 DUP4 ISZERO ISZERO MUL OR SWAP1 SSTORE POP PUSH32 0xD0E6C39F2E086DC49F1524B47725526A56945CD1FF661F37976F1725A1E56986 CALLER DUP3 PUSH1 0x40 MLOAD PUSH2 0x32B SWAP3 SWAP2 SWAP1 PUSH2 0x92D JUMP JUMPDEST PUSH1 0x40 MLOAD DUP1 SWAP2 SUB SWAP1 LOG1 POP JUMP JUMPDEST PUSH1 0x1 PUSH1 0x20 MSTORE DUP1 PUSH0 MSTORE PUSH1 0x40 PUSH0 KECCAK256 PUSH0 SWAP2 POP SLOAD SWAP1 PUSH2 0x100 EXP SWAP1 DIV PUSH1 0xFF AND DUP2 JUMP JUMPDEST PUSH1 0x2 SLOAD DUP2 JUMP JUMPDEST PUSH0 PUSH1 0x20 MSTORE DUP1 PUSH0 MSTORE PUSH1 0x40 PUSH0 KECCAK256 PUSH0 SWAP2 POP SWAP1 POP DUP1 PUSH0 ADD SLOAD SWAP1 DUP1 PUSH1 0x1 ADD DUP1 SLOAD PUSH2 0x37D SWAP1 PUSH2 0x981 JUMP JUMPDEST DUP1 PUSH1 0x1F ADD PUSH1 0x20 DUP1 SWAP2 DIV MUL PUSH1 0x20 ADD PUSH1 0x40 MLOAD SWAP1 DUP2 ADD PUSH1 0x40 MSTORE DUP1 SWAP3 SWAP2 SWAP1 DUP2 DUP2 MSTORE PUSH1 0x20 ADD DUP3 DUP1 SLOAD PUSH2 0x3A9 SWAP1 PUSH2 0x981 JUMP JUMPDEST DUP1 ISZERO PUSH2 0x3F4 JUMPI DUP1 PUSH1 0x1F LT PUSH2 0x3CB JUMPI PUSH2 0x100 DUP1 DUP4 SLOAD DIV MUL DUP4 MSTORE SWAP2 PUSH1 0x20 ADD SWAP2 PUSH2 0x3F4 JUMP JUMPDEST DUP3 ADD SWAP2 SWAP1 PUSH0 MSTORE PUSH1 0x20 PUSH0 KECCAK256 SWAP1 JUMPDEST DUP2 SLOAD DUP2 MSTORE SWAP1 PUSH1 0x1 ADD SWAP1 PUSH1 0x20 ADD DUP1 DUP4 GT PUSH2 0x3D7 JUMPI DUP3 SWAP1 SUB PUSH1 0x1F AND DUP3 ADD SWAP2 JUMPDEST POP POP POP POP POP SWAP1 DUP1 PUSH1 0x2 ADD SLOAD SWAP1 POP DUP4 JUMP JUMPDEST PUSH2 0x40C PUSH2 0x4E6 JUMP JUMPDEST PUSH2 0x414 PUSH2 0x4E6 JUMP JUMPDEST PUSH0 DUP1 PUSH1 0xD DUP2 MSTORE PUSH1 0x20 ADD SWAP1 DUP2 MSTORE PUSH1 0x20 ADD PUSH0 KECCAK256 PUSH1 0x2 ADD SLOAD DUP2 PUSH0 PUSH1 0x3 DUP2 LT PUSH2 0x43C JUMPI PUSH2 0x43B PUSH2 0x9B1 JUMP JUMPDEST JUMPDEST PUSH1 0x20 MUL ADD DUP2 DUP2 MSTORE POP POP PUSH0 DUP1 PUSH1 0x16 DUP2 MSTORE PUSH1 0x20 ADD SWAP1 DUP2 MSTORE PUSH1 0x20 ADD PUSH0 KECCAK256 PUSH1 0x2 ADD SLOAD DUP2 PUSH1 0x1 PUSH1 0x3 DUP2 LT PUSH2 0x46E JUMPI PUSH2 0x46D PUSH2 0x9B1 JUMP JUMPDEST JUMPDEST PUSH1 0x20 MUL ADD DUP2 DUP2 MSTORE POP POP PUSH1 0x3 SLOAD DUP2 PUSH1 0x2 PUSH1 0x3 DUP2 LT PUSH2 0x48E JUMPI PUSH2 0x48D PUSH2 0x9B1 JUMP JUMPDEST JUMPDEST PUSH1 0x20 MUL ADD DUP2 DUP2 MSTORE POP POP DUP1 SWAP2 POP POP SWAP1 JUMP JUMPDEST PUSH1 0x3 SLOAD DUP2 JUMP JUMPDEST PUSH0 DUP1 PUSH0 PUSH1 0xD DUP2 MSTORE PUSH1 0x20 ADD SWAP1 DUP2 MSTORE PUSH1 0x20 ADD PUSH0 KECCAK256 PUSH1 0x2 ADD DUP2 SWAP1 SSTORE POP PUSH0 DUP1 PUSH0 PUSH1 0x16 DUP2 MSTORE PUSH1 0x20 ADD SWAP1 DUP2 MSTORE PUSH1 0x20 ADD PUSH0 KECCAK256 PUSH1 0x2 ADD DUP2 SWAP1 SSTORE POP PUSH0 PUSH1 0x3 DUP2 SWAP1 SSTORE POP PUSH0 PUSH1 0x2 DUP2 SWAP1 SSTORE POP JUMP JUMPDEST PUSH1 0x40 MLOAD DUP1 PUSH1 0x60 ADD PUSH1 0x40 MSTORE DUP1 PUSH1 0x3 SWAP1 PUSH1 0x20 DUP3 MUL DUP1 CALLDATASIZE DUP4 CALLDATACOPY DUP1 DUP3 ADD SWAP2 POP POP SWAP1 POP POP SWAP1 JUMP JUMPDEST PUSH0 DUP1 REVERT JUMPDEST PUSH0 DUP2 SWAP1 POP SWAP2 SWAP1 POP JUMP JUMPDEST PUSH2 0x51E DUP2 PUSH2 0x50C JUMP JUMPDEST DUP2 EQ PUSH2 0x528 JUMPI PUSH0 DUP1 REVERT JUMPDEST POP JUMP JUMPDEST PUSH0 DUP2 CALLDATALOAD SWAP1 POP PUSH2 0x539 DUP2 PUSH2 0x515 JUMP JUMPDEST SWAP3 SWAP2 POP POP JUMP JUMPDEST PUSH0 PUSH1 0x20 DUP3 DUP5 SUB SLT ISZERO PUSH2 0x554 JUMPI PUSH2 0x553 PUSH2 0x508 JUMP JUMPDEST JUMPDEST PUSH0 PUSH2 0x561 DUP5 DUP3 DUP6 ADD PUSH2 0x52B JUMP JUMPDEST SWAP2 POP POP SWAP3 SWAP2 POP POP JUMP JUMPDEST PUSH0 PUSH20 0xFFFFFFFFFFFFFFFFFFFFFFFFFFFFFFFFFFFFFFFF DUP3 AND SWAP1 POP SWAP2 SWAP1 POP JUMP JUMPDEST PUSH0 PUSH2 0x593 DUP3 PUSH2 0x56A JUMP JUMPDEST SWAP1 POP SWAP2 SWAP1 POP JUMP JUMPDEST PUSH2 0x5A3 DUP2 PUSH2 0x589 JUMP JUMPDEST DUP2 EQ PUSH2 0x5AD JUMPI PUSH0 DUP1 REVERT JUMPDEST POP JUMP JUMPDEST PUSH0 DUP2 CALLDATALOAD SWAP1 POP PUSH2 0x5BE DUP2 PUSH2 0x59A JUMP JUMPDEST SWAP3 SWAP2 POP POP JUMP JUMPDEST PUSH0 PUSH1 0x20 DUP3 DUP5 SUB SLT ISZERO PUSH2 0x5D9 JUMPI PUSH2 0x5D8 PUSH2 0x508 JUMP JUMPDEST JUMPDEST PUSH0 PUSH2 0x5E6 DUP5 DUP3 DUP6 ADD PUSH2 0x5B0 JUMP JUMPDEST SWAP2 POP POP SWAP3 SWAP2 POP POP JUMP JUMPDEST PUSH0 DUP2 ISZERO ISZERO SWAP1 POP SWAP2 SWAP1 POP JUMP JUMPDEST PUSH2 0x603 DUP2 PUSH2 0x5EF JUMP JUMPDEST DUP3 MSTORE POP POP JUMP JUMPDEST PUSH0 PUSH1 0x20 DUP3 ADD SWAP1 POP PUSH2 0x61C PUSH0 DUP4 ADD DUP5 PUSH2 0x5FA JUMP JUMPDEST SWAP3 SWAP2 POP POP JUMP JUMPDEST PUSH2 0x62B DUP2 PUSH2 0x50C JUMP JUMPDEST DUP3 MSTORE POP POP JUMP JUMPDEST PUSH0 PUSH1 0x20 DUP3 ADD SWAP1 POP PUSH2 0x644 PUSH0 DUP4 ADD DUP5 PUSH2 0x622 JUMP JUMPDEST SWAP3 SWAP2 POP POP JUMP JUMPDEST PUSH0 DUP2 MLOAD SWAP1 POP SWAP2 SWAP1 POP JUMP JUMPDEST PUSH0 DUP3 DUP3 MSTORE PUSH1 0x20 DUP3 ADD SWAP1 POP SWAP3 SWAP2 POP POP JUMP JUMPDEST DUP3 DUP2 DUP4 MCOPY PUSH0 DUP4 DUP4 ADD MSTORE POP POP POP JUMP JUMPDEST PUSH0 PUSH1 0x1F NOT PUSH1 0x1F DUP4 ADD AND SWAP1 POP SWAP2 SWAP1 POP JUMP JUMPDEST PUSH0 PUSH2 0x68C DUP3 PUSH2 0x64A JUMP JUMPDEST PUSH2 0x696 DUP2 DUP6 PUSH2 0x654 JUMP JUMPDEST SWAP4 POP PUSH2 0x6A6 DUP2 DUP6 PUSH1 0x20 DUP7 ADD PUSH2 0x664 JUMP JUMPDEST PUSH2 0x6AF DUP2 PUSH2 0x672 JUMP JUMPDEST DUP5 ADD SWAP2 POP POP SWAP3 SWAP2 POP POP JUMP JUMPDEST PUSH0 PUSH1 0x60 DUP3 ADD SWAP1 POP PUSH2 0x6CD PUSH0 DUP4 ADD DUP7 PUSH2 0x622 JUMP JUMPDEST DUP2 DUP2 SUB PUSH1 0x20 DUP4 ADD MSTORE PUSH2 0x6DF DUP2 DUP6 PUSH2 0x682 JUMP JUMPDEST SWAP1 POP PUSH2 0x6EE PUSH1 0x40 DUP4 ADD DUP5 PUSH2 0x622 JUMP JUMPDEST SWAP5 SWAP4 POP POP POP POP JUMP JUMPDEST PUSH0 PUSH1 0x3 SWAP1 POP SWAP2 SWAP1 POP JUMP JUMPDEST PUSH0 DUP2 SWAP1 POP SWAP3 SWAP2 POP POP JUMP JUMPDEST PUSH0 DUP2 SWAP1 POP SWAP2 SWAP1 POP JUMP JUMPDEST PUSH2 0x71C DUP2 PUSH2 0x50C JUMP JUMPDEST DUP3 MSTORE POP POP JUMP JUMPDEST PUSH0 PUSH2 0x72D DUP4 DUP4 PUSH2 0x713 JUMP JUMPDEST PUSH1 0x20 DUP4 ADD SWAP1 POP SWAP3 SWAP2 POP POP JUMP JUMPDEST PUSH0 PUSH1 0x20 DUP3 ADD SWAP1 POP SWAP2 SWAP1 POP JUMP JUMPDEST PUSH2 0x74E DUP2 PUSH2 0x6F6 JUMP JUMPDEST PUSH2 0x758 DUP2 DUP5 PUSH2 0x700 JUMP JUMPDEST SWAP3 POP PUSH2 0x763 DUP3 PUSH2 0x70A JUMP JUMPDEST DUP1 PUSH0 JUMPDEST DUP4 DUP2 LT ISZERO PUSH2 0x793 JUMPI DUP2 MLOAD PUSH2 0x77A DUP8 DUP3 PUSH2 0x722 JUMP JUMPDEST SWAP7 POP PUSH2 0x785 DUP4 PUSH2 0x739 JUMP JUMPDEST SWAP3 POP POP PUSH1 0x1 DUP2 ADD SWAP1 POP PUSH2 0x766 JUMP JUMPDEST POP POP POP POP POP POP JUMP JUMPDEST PUSH0 PUSH1 0x60 DUP3 ADD SWAP1 POP PUSH2 0x7AE PUSH0 DUP4 ADD DUP5 PUSH2 0x745 JUMP JUMPDEST SWAP3 SWAP2 POP POP JUMP JUMPDEST PUSH32 0x596F75206861766520616C726561647920766F7465642E000000000000000000 PUSH0 DUP3 ADD MSTORE POP JUMP JUMPDEST PUSH0 PUSH2 0x7E8 PUSH1 0x17 DUP4 PUSH2 0x654 JUMP JUMPDEST SWAP2 POP PUSH2 0x7F3 DUP3 PUSH2 0x7B4 JUMP JUMPDEST PUSH1 0x20 DUP3 ADD SWAP1 POP SWAP2 SWAP1 POP JUMP JUMPDEST PUSH0 PUSH1 0x20 DUP3 ADD SWAP1 POP DUP2 DUP2 SUB PUSH0 DUP4 ADD MSTORE PUSH2 0x815 DUP2 PUSH2 0x7DC JUMP JUMPDEST SWAP1 POP SWAP2 SWAP1 POP JUMP JUMPDEST PUSH32 0x496E76616C69642063616E6469646174652049442E2050726573732030206966 PUSH0 DUP3 ADD MSTORE PUSH32 0x20796F75207769746820746F204162737461696E2E0000000000000000000000 PUSH1 0x20 DUP3 ADD MSTORE POP JUMP JUMPDEST PUSH0 PUSH2 0x876 PUSH1 0x35 DUP4 PUSH2 0x654 JUMP JUMPDEST SWAP2 POP PUSH2 0x881 DUP3 PUSH2 0x81C JUMP JUMPDEST PUSH1 0x40 DUP3 ADD SWAP1 POP SWAP2 SWAP1 POP JUMP JUMPDEST PUSH0 PUSH1 0x20 DUP3 ADD SWAP1 POP DUP2 DUP2 SUB PUSH0 DUP4 ADD MSTORE PUSH2 0x8A3 DUP2 PUSH2 0x86A JUMP JUMPDEST SWAP1 POP SWAP2 SWAP1 POP JUMP JUMPDEST PUSH32 0x4E487B7100000000000000000000000000000000000000000000000000000000 PUSH0 MSTORE PUSH1 0x11 PUSH1 0x4 MSTORE PUSH1 0x24 PUSH0 REVERT JUMPDEST PUSH0 PUSH2 0x8E1 DUP3 PUSH2 0x50C JUMP JUMPDEST SWAP2 POP PUSH32 0xFFFFFFFFFFFFFFFFFFFFFFFFFFFFFFFFFFFFFFFFFFFFFFFFFFFFFFFFFFFFFFFF DUP3 SUB PUSH2 0x913 JUMPI PUSH2 0x912 PUSH2 0x8AA JUMP JUMPDEST JUMPDEST PUSH1 0x1 DUP3 ADD SWAP1 POP SWAP2 SWAP1 POP JUMP JUMPDEST PUSH2 0x927 DUP2 PUSH2 0x589 JUMP JUMPDEST DUP3 MSTORE POP POP JUMP JUMPDEST PUSH0 PUSH1 0x40 DUP3 ADD SWAP1 POP PUSH2 0x940 PUSH0 DUP4 ADD DUP6 PUSH2 0x91E JUMP JUMPDEST PUSH2 0x94D PUSH1 0x20 DUP4 ADD DUP5 PUSH2 0x622 JUMP JUMPDEST SWAP4 SWAP3 POP POP POP JUMP JUMPDEST PUSH32 0x4E487B7100000000000000000000000000000000000000000000000000000000 PUSH0 MSTORE PUSH1 0x22 PUSH1 0x4 MSTORE PUSH1 0x24 PUSH0 REVERT JUMPDEST PUSH0 PUSH1 0x2 DUP3 DIV SWAP1 POP PUSH1 0x1 DUP3 AND DUP1 PUSH2 0x998 JUMPI PUSH1 0x7F DUP3 AND SWAP2 POP JUMPDEST PUSH1 0x20 DUP3 LT DUP2 SUB PUSH2 0x9AB JUMPI PUSH2 0x9AA PUSH2 0x954 JUMP JUMPDEST JUMPDEST POP SWAP2 SWAP1 POP JUMP JUMPDEST PUSH32 0x4E487B7100000000000000000000000000000000000000000000000000000000 PUSH0 MSTORE PUSH1 0x32 PUSH1 0x4 MSTORE PUSH1 0x24 PUSH0 REVERT INVALID LOG2 PUSH5 0x6970667358 0x22 SLT KECCAK256 DUP8 PUSH1 0xB9 JUMPDEST DUP14 0xDD 0xA9 0xC8 LOG2 PUSH9 0x90E1647F7FE1348E74 0xB4 CHAINID 0xF6 0xD1 MSIZE CODESIZE 0x2A 0xDE BALANCE SWAP5 CALL 0xD1 0xD0 PUSH5 0x736F6C6343 STOP ADDMOD BYTE STOP CALLER "
				},
				"gasEstimates": {
					"creation": {
						"codeDepositCost": "516000",
						"executionCost": "infinite",
						"totalCost": "infinite"
					},
					"external": {
						"blankVotes()": "2469",
						"candidates(uint256)": "infinite",
						"getResults()": "infinite",
						"hasVoted(address)": "2856",
						"resetVotes()": "20425",
						"totalVotes()": "2470",
						"vote(uint256)": "infinite"
					},
					"internal": {
						"addCandidate(uint256,string memory)": "infinite"
					}
				},
				"methodIdentifiers": {
					"blankVotes()": "6a316c9d",
					"candidates(uint256)": "3477ee2e",
					"getResults()": "4717f97c",
					"hasVoted(address)": "09eef43e",
					"resetVotes()": "b9830ff1",
					"totalVotes()": "0d15fd77",
					"vote(uint256)": "0121b93f"
				}
			},
			"storageLayout": {
				"storage": [
					{
						"astId": 13,
						"contract": "contracts/DigitalVotingSystem.sol:Election",
						"label": "candidates",
						"offset": 0,
						"slot": "0",
						"type": "t_mapping(t_uint256,t_struct(Candidate)8_storage)"
					},
					{
						"astId": 17,
						"contract": "contracts/DigitalVotingSystem.sol:Election",
						"label": "hasVoted",
						"offset": 0,
						"slot": "1",
						"type": "t_mapping(t_address,t_bool)"
					},
					{
						"astId": 19,
						"contract": "contracts/DigitalVotingSystem.sol:Election",
						"label": "totalVotes",
						"offset": 0,
						"slot": "2",
						"type": "t_uint256"
					},
					{
						"astId": 21,
						"contract": "contracts/DigitalVotingSystem.sol:Election",
						"label": "blankVotes",
						"offset": 0,
						"slot": "3",
						"type": "t_uint256"
					}
				],
				"types": {
					"t_address": {
						"encoding": "inplace",
						"label": "address",
						"numberOfBytes": "20"
					},
					"t_bool": {
						"encoding": "inplace",
						"label": "bool",
						"numberOfBytes": "1"
					},
					"t_mapping(t_address,t_bool)": {
						"encoding": "mapping",
						"key": "t_address",
						"label": "mapping(address => bool)",
						"numberOfBytes": "32",
						"value": "t_bool"
					},
					"t_mapping(t_uint256,t_struct(Candidate)8_storage)": {
						"encoding": "mapping",
						"key": "t_uint256",
						"label": "mapping(uint256 => struct Election.Candidate)",
						"numberOfBytes": "32",
						"value": "t_struct(Candidate)8_storage"
					},
					"t_string_storage": {
						"encoding": "bytes",
						"label": "string",
						"numberOfBytes": "32"
					},
					"t_struct(Candidate)8_storage": {
						"encoding": "inplace",
						"label": "struct Election.Candidate",
						"members": [
							{
								"astId": 3,
								"contract": "contracts/DigitalVotingSystem.sol:Election",
								"label": "id",
								"offset": 0,
								"slot": "0",
								"type": "t_uint256"
							},
							{
								"astId": 5,
								"contract": "contracts/DigitalVotingSystem.sol:Election",
								"label": "name",
								"offset": 0,
								"slot": "1",
								"type": "t_string_storage"
							},
							{
								"astId": 7,
								"contract": "contracts/DigitalVotingSystem.sol:Election",
								"label": "voteCount",
								"offset": 0,
								"slot": "2",
								"type": "t_uint256"
							}
						],
						"numberOfBytes": "96"
					},
					"t_uint256": {
						"encoding": "inplace",
						"label": "uint256",
						"numberOfBytes": "32"
					}
				}
			},
			"userdoc": {
				"kind": "user",
				"methods": {},
				"version": 1
			}
		}
	}
}