{
	"contracts/DigitalVotingSystem.sol": {
		"Election": {
			"abi": [
				{
					"inputs": [],
					"stateMutability": "nonpayable",
					"type": "constructor"
				},
				{
					"anonymous": false,
					"inputs": [
						{
							"indexed": false,
							"internalType": "address",
							"name": "voter",
							"type": "address"
						},
						{
							"indexed": false,
							"internalType": "uint256",
							"name": "candidateId",
							"type": "uint256"
						}
					],
					"name": "VoteCasted",
					"type": "event"
				},
				{
					"inputs": [
						{
							"internalType": "uint256[]",
							"name": "candidateIds",
							"type": "uint256[]"
						}
					],
					"name": "batchVote",
					"outputs": [],
					"stateMutability": "nonpayable",
					"type": "function"
				},
				{
					"inputs": [],
					"name": "blankVotes",
					"outputs": [
						{
							"internalType": "uint256",
							"name": "",
							"type": "uint256"
						}
					],
					"stateMutability": "view",
					"type": "function"
				},
				{
					"inputs": [
						{
							"internalType": "uint256",
							"name": "",
							"type": "uint256"
						}
					],
					"name": "candidates",
					"outputs": [
						{
							"internalType": "uint256",
							"name": "id",
							"type": "uint256"
						},
						{
							"internalType": "string",
							"name": "name",
							"type": "string"
						},
						{
							"internalType": "uint256",
							"name": "voteCount",
							"type": "uint256"
						}
					],
					"stateMutability": "view",
					"type": "function"
				},
				{
					"inputs": [],
					"name": "getResults",
					"outputs": [
						{
							"internalType": "string",
							"name": "",
							"type": "string"
						}
					],
					"stateMutability": "view",
					"type": "function"
				},
				{
					"inputs": [
						{
							"internalType": "address",
							"name": "",
							"type": "address"
						}
					],
					"name": "hasVoted",
					"outputs": [
						{
							"internalType": "bool",
							"name": "",
							"type": "bool"
						}
					],
					"stateMutability": "view",
					"type": "function"
				},
				{
					"inputs": [],
					"name": "resetVotes",
					"outputs": [],
					"stateMutability": "nonpayable",
					"type": "function"
				},
				{
					"inputs": [],
					"name": "totalVotes",
					"outputs": [
						{
							"internalType": "uint256",
							"name": "",
							"type": "uint256"
						}
					],
					"stateMutability": "view",
					"type": "function"
				},
				{
					"inputs": [
						{
							"internalType": "uint256",
							"name": "_candidateId",
							"type": "uint256"
						}
					],
					"name": "vote",
					"outputs": [],
					"stateMutability": "nonpayable",
					"type": "function"
				}
			],
			"devdoc": {
				"kind": "dev",
				"methods": {},
				"version": 1
			},
			"evm": {
				"assembly": "    /* \"contracts/DigitalVotingSystem.sol\":349:4330  contract Election{... */\n  mstore(0x40, 0x80)\n    /* \"contracts/DigitalVotingSystem.sol\":1187:1357  constructor(){... */\n  callvalue\n  dup1\n  iszero\n  tag_1\n  jumpi\n  0x00\n  dup1\n  revert\ntag_1:\n  pop\n    /* \"contracts/DigitalVotingSystem.sol\":1276:1307  addCandidate(13, \"Candidate A\") */\n  tag_4\n    /* \"contracts/DigitalVotingSystem.sol\":1289:1291  13 */\n  0x0d\n    /* \"contracts/DigitalVotingSystem.sol\":1276:1307  addCandidate(13, \"Candidate A\") */\n  mload(0x40)\n  dup1\n  0x40\n  add\n  0x40\n  mstore\n  dup1\n  0x0b\n  dup2\n  mstore\n  0x20\n  add\n  0x43616e6469646174652041000000000000000000000000000000000000000000\n  dup2\n  mstore\n  pop\n    /* \"contracts/DigitalVotingSystem.sol\":1276:1288  addCandidate */\n  shl(0x20, tag_5)\n    /* \"contracts/DigitalVotingSystem.sol\":1276:1307  addCandidate(13, \"Candidate A\") */\n  0x20\n  shr\n  jump\t// in\ntag_4:\n    /* \"contracts/DigitalVotingSystem.sol\":1318:1349  addCandidate(22, \"Candidate B\") */\n  tag_6\n    /* \"contracts/DigitalVotingSystem.sol\":1331:1333  22 */\n  0x16\n    /* \"contracts/DigitalVotingSystem.sol\":1318:1349  addCandidate(22, \"Candidate B\") */\n  mload(0x40)\n  dup1\n  0x40\n  add\n  0x40\n  mstore\n  dup1\n  0x0b\n  dup2\n  mstore\n  0x20\n  add\n  0x43616e6469646174652042000000000000000000000000000000000000000000\n  dup2\n  mstore\n  pop\n    /* \"contracts/DigitalVotingSystem.sol\":1318:1330  addCandidate */\n  shl(0x20, tag_5)\n    /* \"contracts/DigitalVotingSystem.sol\":1318:1349  addCandidate(22, \"Candidate B\") */\n  0x20\n  shr\n  jump\t// in\ntag_6:\n    /* \"contracts/DigitalVotingSystem.sol\":349:4330  contract Election{... */\n  jump(tag_7)\n    /* \"contracts/DigitalVotingSystem.sol\":1424:1576  function addCandidate(uint _id, string memory _name) internal {... */\ntag_5:\n    /* \"contracts/DigitalVotingSystem.sol\":1515:1539  Candidate(_id, _name, 0) */\n  mload(0x40)\n  dup1\n  0x60\n  add\n  0x40\n  mstore\n  dup1\n    /* \"contracts/DigitalVotingSystem.sol\":1525:1528  _id */\n  dup4\n    /* \"contracts/DigitalVotingSystem.sol\":1515:1539  Candidate(_id, _name, 0) */\n  dup2\n  mstore\n  0x20\n  add\n    /* \"contracts/DigitalVotingSystem.sol\":1530:1535  _name */\n  dup3\n    /* \"contracts/DigitalVotingSystem.sol\":1515:1539  Candidate(_id, _name, 0) */\n  dup2\n  mstore\n  0x20\n  add\n    /* \"contracts/DigitalVotingSystem.sol\":1537:1538  0 */\n  0x00\n    /* \"contracts/DigitalVotingSystem.sol\":1515:1539  Candidate(_id, _name, 0) */\n  dup2\n  mstore\n  pop\n    /* \"contracts/DigitalVotingSystem.sol\":1497:1507  candidates */\n  0x00\n    /* \"contracts/DigitalVotingSystem.sol\":1497:1512  candidates[_id] */\n  dup1\n    /* \"contracts/DigitalVotingSystem.sol\":1508:1511  _id */\n  dup5\n    /* \"contracts/DigitalVotingSystem.sol\":1497:1512  candidates[_id] */\n  dup2\n  mstore\n  0x20\n  add\n  swap1\n  dup2\n  mstore\n  0x20\n  add\n  0x00\n  keccak256\n    /* \"contracts/DigitalVotingSystem.sol\":1497:1539  candidates[_id] = Candidate(_id, _name, 0) */\n  0x00\n  dup3\n  add\n  mload\n  dup2\n  0x00\n  add\n  sstore\n  0x20\n  dup3\n  add\n  mload\n  dup2\n  0x01\n  add\n  swap1\n  dup2\n  tag_9\n  swap2\n  swap1\n  tag_10\n  jump\t// in\ntag_9:\n  pop\n  0x40\n  dup3\n  add\n  mload\n  dup2\n  0x02\n  add\n  sstore\n  swap1\n  pop\n  pop\n    /* \"contracts/DigitalVotingSystem.sol\":1424:1576  function addCandidate(uint _id, string memory _name) internal {... */\n  pop\n  pop\n  jump\t// out\n    /* \"#utility.yul\":7:106   */\ntag_11:\n    /* \"#utility.yul\":59:65   */\n  0x00\n    /* \"#utility.yul\":93:98   */\n  dup2\n    /* \"#utility.yul\":87:99   */\n  mload\n    /* \"#utility.yul\":77:99   */\n  swap1\n  pop\n    /* \"#utility.yul\":7:106   */\n  swap2\n  swap1\n  pop\n  jump\t// out\n    /* \"#utility.yul\":112:292   */\ntag_12:\n    /* \"#utility.yul\":160:237   */\n  0x4e487b7100000000000000000000000000000000000000000000000000000000\n    /* \"#utility.yul\":157:158   */\n  0x00\n    /* \"#utility.yul\":150:238   */\n  mstore\n    /* \"#utility.yul\":257:261   */\n  0x41\n    /* \"#utility.yul\":254:255   */\n  0x04\n    /* \"#utility.yul\":247:262   */\n  mstore\n    /* \"#utility.yul\":281:285   */\n  0x24\n    /* \"#utility.yul\":278:279   */\n  0x00\n    /* \"#utility.yul\":271:286   */\n  revert\n    /* \"#utility.yul\":298:478   */\ntag_13:\n    /* \"#utility.yul\":346:423   */\n  0x4e487b7100000000000000000000000000000000000000000000000000000000\n    /* \"#utility.yul\":343:344   */\n  0x00\n    /* \"#utility.yul\":336:424   */\n  mstore\n    /* \"#utility.yul\":443:447   */\n  0x22\n    /* \"#utility.yul\":440:441   */\n  0x04\n    /* \"#utility.yul\":433:448   */\n  mstore\n    /* \"#utility.yul\":467:471   */\n  0x24\n    /* \"#utility.yul\":464:465   */\n  0x00\n    /* \"#utility.yul\":457:472   */\n  revert\n    /* \"#utility.yul\":484:804   */\ntag_14:\n    /* \"#utility.yul\":528:534   */\n  0x00\n    /* \"#utility.yul\":565:566   */\n  0x02\n    /* \"#utility.yul\":559:563   */\n  dup3\n    /* \"#utility.yul\":555:567   */\n  div\n    /* \"#utility.yul\":545:567   */\n  swap1\n  pop\n    /* \"#utility.yul\":612:613   */\n  0x01\n    /* \"#utility.yul\":606:610   */\n  dup3\n    /* \"#utility.yul\":602:614   */\n  and\n    /* \"#utility.yul\":633:651   */\n  dup1\n    /* \"#utility.yul\":623:704   */\n  tag_36\n  jumpi\n    /* \"#utility.yul\":689:693   */\n  0x7f\n    /* \"#utility.yul\":681:687   */\n  dup3\n    /* \"#utility.yul\":677:694   */\n  and\n    /* \"#utility.yul\":667:694   */\n  swap2\n  pop\n    /* \"#utility.yul\":623:704   */\ntag_36:\n    /* \"#utility.yul\":751:753   */\n  0x20\n    /* \"#utility.yul\":743:749   */\n  dup3\n    /* \"#utility.yul\":740:754   */\n  lt\n    /* \"#utility.yul\":720:738   */\n  dup2\n    /* \"#utility.yul\":717:755   */\n  sub\n    /* \"#utility.yul\":714:798   */\n  tag_37\n  jumpi\n    /* \"#utility.yul\":770:788   */\n  tag_38\n  tag_13\n  jump\t// in\ntag_38:\n    /* \"#utility.yul\":714:798   */\ntag_37:\n    /* \"#utility.yul\":535:804   */\n  pop\n    /* \"#utility.yul\":484:804   */\n  swap2\n  swap1\n  pop\n  jump\t// out\n    /* \"#utility.yul\":810:951   */\ntag_15:\n    /* \"#utility.yul\":859:863   */\n  0x00\n    /* \"#utility.yul\":882:885   */\n  dup2\n    /* \"#utility.yul\":874:885   */\n  swap1\n  pop\n    /* \"#utility.yul\":905:908   */\n  dup2\n    /* \"#utility.yul\":902:903   */\n  0x00\n    /* \"#utility.yul\":895:909   */\n  mstore\n    /* \"#utility.yul\":939:943   */\n  0x20\n    /* \"#utility.yul\":936:937   */\n  0x00\n    /* \"#utility.yul\":926:944   */\n  keccak256\n    /* \"#utility.yul\":918:944   */\n  swap1\n  pop\n    /* \"#utility.yul\":810:951   */\n  swap2\n  swap1\n  pop\n  jump\t// out\n    /* \"#utility.yul\":957:1050   */\ntag_16:\n    /* \"#utility.yul\":994:1000   */\n  0x00\n    /* \"#utility.yul\":1041:1043   */\n  0x20\n    /* \"#utility.yul\":1036:1038   */\n  0x1f\n    /* \"#utility.yul\":1029:1034   */\n  dup4\n    /* \"#utility.yul\":1025:1039   */\n  add\n    /* \"#utility.yul\":1021:1044   */\n  div\n    /* \"#utility.yul\":1011:1044   */\n  swap1\n  pop\n    /* \"#utility.yul\":957:1050   */\n  swap2\n  swap1\n  pop\n  jump\t// out\n    /* \"#utility.yul\":1056:1163   */\ntag_17:\n    /* \"#utility.yul\":1100:1108   */\n  0x00\n    /* \"#utility.yul\":1150:1155   */\n  dup3\n    /* \"#utility.yul\":1144:1148   */\n  dup3\n    /* \"#utility.yul\":1140:1156   */\n  shl\n    /* \"#utility.yul\":1119:1156   */\n  swap1\n  pop\n    /* \"#utility.yul\":1056:1163   */\n  swap3\n  swap2\n  pop\n  pop\n  jump\t// out\n    /* \"#utility.yul\":1169:1562   */\ntag_18:\n    /* \"#utility.yul\":1238:1244   */\n  0x00\n    /* \"#utility.yul\":1288:1289   */\n  0x08\n    /* \"#utility.yul\":1276:1286   */\n  dup4\n    /* \"#utility.yul\":1272:1290   */\n  mul\n    /* \"#utility.yul\":1311:1408   */\n  tag_43\n    /* \"#utility.yul\":1341:1407   */\n  0xffffffffffffffffffffffffffffffffffffffffffffffffffffffffffffffff\n    /* \"#utility.yul\":1330:1339   */\n  dup3\n    /* \"#utility.yul\":1311:1408   */\n  tag_17\n  jump\t// in\ntag_43:\n    /* \"#utility.yul\":1429:1468   */\n  tag_44\n    /* \"#utility.yul\":1459:1467   */\n  dup7\n    /* \"#utility.yul\":1448:1457   */\n  dup4\n    /* \"#utility.yul\":1429:1468   */\n  tag_17\n  jump\t// in\ntag_44:\n    /* \"#utility.yul\":1417:1468   */\n  swap6\n  pop\n    /* \"#utility.yul\":1501:1505   */\n  dup1\n    /* \"#utility.yul\":1497:1506   */\n  not\n    /* \"#utility.yul\":1490:1495   */\n  dup5\n    /* \"#utility.yul\":1486:1507   */\n  and\n    /* \"#utility.yul\":1477:1507   */\n  swap4\n  pop\n    /* \"#utility.yul\":1550:1554   */\n  dup1\n    /* \"#utility.yul\":1540:1548   */\n  dup7\n    /* \"#utility.yul\":1536:1555   */\n  and\n    /* \"#utility.yul\":1529:1534   */\n  dup5\n    /* \"#utility.yul\":1526:1556   */\n  or\n    /* \"#utility.yul\":1516:1556   */\n  swap3\n  pop\n    /* \"#utility.yul\":1245:1562   */\n  pop\n  pop\n    /* \"#utility.yul\":1169:1562   */\n  swap4\n  swap3\n  pop\n  pop\n  pop\n  jump\t// out\n    /* \"#utility.yul\":1568:1645   */\ntag_19:\n    /* \"#utility.yul\":1605:1612   */\n  0x00\n    /* \"#utility.yul\":1634:1639   */\n  dup2\n    /* \"#utility.yul\":1623:1639   */\n  swap1\n  pop\n    /* \"#utility.yul\":1568:1645   */\n  swap2\n  swap1\n  pop\n  jump\t// out\n    /* \"#utility.yul\":1651:1711   */\ntag_20:\n    /* \"#utility.yul\":1679:1682   */\n  0x00\n    /* \"#utility.yul\":1700:1705   */\n  dup2\n    /* \"#utility.yul\":1693:1705   */\n  swap1\n  pop\n    /* \"#utility.yul\":1651:1711   */\n  swap2\n  swap1\n  pop\n  jump\t// out\n    /* \"#utility.yul\":1717:1859   */\ntag_21:\n    /* \"#utility.yul\":1767:1776   */\n  0x00\n    /* \"#utility.yul\":1800:1853   */\n  tag_48\n    /* \"#utility.yul\":1818:1852   */\n  tag_49\n    /* \"#utility.yul\":1827:1851   */\n  tag_50\n    /* \"#utility.yul\":1845:1850   */\n  dup5\n    /* \"#utility.yul\":1827:1851   */\n  tag_19\n  jump\t// in\ntag_50:\n    /* \"#utility.yul\":1818:1852   */\n  tag_20\n  jump\t// in\ntag_49:\n    /* \"#utility.yul\":1800:1853   */\n  tag_19\n  jump\t// in\ntag_48:\n    /* \"#utility.yul\":1787:1853   */\n  swap1\n  pop\n    /* \"#utility.yul\":1717:1859   */\n  swap2\n  swap1\n  pop\n  jump\t// out\n    /* \"#utility.yul\":1865:1940   */\ntag_22:\n    /* \"#utility.yul\":1908:1911   */\n  0x00\n    /* \"#utility.yul\":1929:1934   */\n  dup2\n    /* \"#utility.yul\":1922:1934   */\n  swap1\n  pop\n    /* \"#utility.yul\":1865:1940   */\n  swap2\n  swap1\n  pop\n  jump\t// out\n    /* \"#utility.yul\":1946:2215   */\ntag_23:\n    /* \"#utility.yul\":2056:2095   */\n  tag_53\n    /* \"#utility.yul\":2087:2094   */\n  dup4\n    /* \"#utility.yul\":2056:2095   */\n  tag_21\n  jump\t// in\ntag_53:\n    /* \"#utility.yul\":2117:2208   */\n  tag_54\n    /* \"#utility.yul\":2166:2207   */\n  tag_55\n    /* \"#utility.yul\":2190:2206   */\n  dup3\n    /* \"#utility.yul\":2166:2207   */\n  tag_22\n  jump\t// in\ntag_55:\n    /* \"#utility.yul\":2158:2164   */\n  dup5\n    /* \"#utility.yul\":2151:2155   */\n  dup5\n    /* \"#utility.yul\":2145:2156   */\n  sload\n    /* \"#utility.yul\":2117:2208   */\n  tag_18\n  jump\t// in\ntag_54:\n    /* \"#utility.yul\":2111:2115   */\n  dup3\n    /* \"#utility.yul\":2104:2209   */\n  sstore\n    /* \"#utility.yul\":2022:2215   */\n  pop\n    /* \"#utility.yul\":1946:2215   */\n  pop\n  pop\n  pop\n  jump\t// out\n    /* \"#utility.yul\":2221:2294   */\ntag_24:\n    /* \"#utility.yul\":2266:2269   */\n  0x00\n    /* \"#utility.yul\":2221:2294   */\n  swap1\n  jump\t// out\n    /* \"#utility.yul\":2300:2489   */\ntag_25:\n    /* \"#utility.yul\":2377:2409   */\n  tag_58\n  tag_24\n  jump\t// in\ntag_58:\n    /* \"#utility.yul\":2418:2483   */\n  tag_59\n    /* \"#utility.yul\":2476:2482   */\n  dup2\n    /* \"#utility.yul\":2468:2474   */\n  dup5\n    /* \"#utility.yul\":2462:2466   */\n  dup5\n    /* \"#utility.yul\":2418:2483   */\n  tag_23\n  jump\t// in\ntag_59:\n    /* \"#utility.yul\":2353:2489   */\n  pop\n    /* \"#utility.yul\":2300:2489   */\n  pop\n  pop\n  jump\t// out\n    /* \"#utility.yul\":2495:2681   */\ntag_26:\n    /* \"#utility.yul\":2555:2675   */\ntag_61:\n    /* \"#utility.yul\":2572:2575   */\n  dup2\n    /* \"#utility.yul\":2565:2570   */\n  dup2\n    /* \"#utility.yul\":2562:2576   */\n  lt\n    /* \"#utility.yul\":2555:2675   */\n  iszero\n  tag_63\n  jumpi\n    /* \"#utility.yul\":2626:2665   */\n  tag_64\n    /* \"#utility.yul\":2663:2664   */\n  0x00\n    /* \"#utility.yul\":2656:2661   */\n  dup3\n    /* \"#utility.yul\":2626:2665   */\n  tag_25\n  jump\t// in\ntag_64:\n    /* \"#utility.yul\":2599:2600   */\n  0x01\n    /* \"#utility.yul\":2592:2597   */\n  dup2\n    /* \"#utility.yul\":2588:2601   */\n  add\n    /* \"#utility.yul\":2579:2601   */\n  swap1\n  pop\n    /* \"#utility.yul\":2555:2675   */\n  jump(tag_61)\ntag_63:\n    /* \"#utility.yul\":2495:2681   */\n  pop\n  pop\n  jump\t// out\n    /* \"#utility.yul\":2687:3230   */\ntag_27:\n    /* \"#utility.yul\":2788:2790   */\n  0x1f\n    /* \"#utility.yul\":2783:2786   */\n  dup3\n    /* \"#utility.yul\":2780:2791   */\n  gt\n    /* \"#utility.yul\":2777:3223   */\n  iszero\n  tag_66\n  jumpi\n    /* \"#utility.yul\":2822:2860   */\n  tag_67\n    /* \"#utility.yul\":2854:2859   */\n  dup2\n    /* \"#utility.yul\":2822:2860   */\n  tag_15\n  jump\t// in\ntag_67:\n    /* \"#utility.yul\":2906:2935   */\n  tag_68\n    /* \"#utility.yul\":2924:2934   */\n  dup5\n    /* \"#utility.yul\":2906:2935   */\n  tag_16\n  jump\t// in\ntag_68:\n    /* \"#utility.yul\":2896:2904   */\n  dup2\n    /* \"#utility.yul\":2892:2936   */\n  add\n    /* \"#utility.yul\":3089:3091   */\n  0x20\n    /* \"#utility.yul\":3077:3087   */\n  dup6\n    /* \"#utility.yul\":3074:3092   */\n  lt\n    /* \"#utility.yul\":3071:3120   */\n  iszero\n  tag_69\n  jumpi\n    /* \"#utility.yul\":3110:3118   */\n  dup2\n    /* \"#utility.yul\":3095:3118   */\n  swap1\n  pop\n    /* \"#utility.yul\":3071:3120   */\ntag_69:\n    /* \"#utility.yul\":3133:3213   */\n  tag_70\n    /* \"#utility.yul\":3189:3211   */\n  tag_71\n    /* \"#utility.yul\":3207:3210   */\n  dup6\n    /* \"#utility.yul\":3189:3211   */\n  tag_16\n  jump\t// in\ntag_71:\n    /* \"#utility.yul\":3179:3187   */\n  dup4\n    /* \"#utility.yul\":3175:3212   */\n  add\n    /* \"#utility.yul\":3162:3173   */\n  dup3\n    /* \"#utility.yul\":3133:3213   */\n  tag_26\n  jump\t// in\ntag_70:\n    /* \"#utility.yul\":2792:3223   */\n  pop\n  pop\n    /* \"#utility.yul\":2777:3223   */\ntag_66:\n    /* \"#utility.yul\":2687:3230   */\n  pop\n  pop\n  pop\n  jump\t// out\n    /* \"#utility.yul\":3236:3353   */\ntag_28:\n    /* \"#utility.yul\":3290:3298   */\n  0x00\n    /* \"#utility.yul\":3340:3345   */\n  dup3\n    /* \"#utility.yul\":3334:3338   */\n  dup3\n    /* \"#utility.yul\":3330:3346   */\n  shr\n    /* \"#utility.yul\":3309:3346   */\n  swap1\n  pop\n    /* \"#utility.yul\":3236:3353   */\n  swap3\n  swap2\n  pop\n  pop\n  jump\t// out\n    /* \"#utility.yul\":3359:3528   */\ntag_29:\n    /* \"#utility.yul\":3403:3409   */\n  0x00\n    /* \"#utility.yul\":3436:3487   */\n  tag_74\n    /* \"#utility.yul\":3484:3485   */\n  0x00\n    /* \"#utility.yul\":3480:3486   */\n  not\n    /* \"#utility.yul\":3472:3477   */\n  dup5\n    /* \"#utility.yul\":3469:3470   */\n  0x08\n    /* \"#utility.yul\":3465:3478   */\n  mul\n    /* \"#utility.yul\":3436:3487   */\n  tag_28\n  jump\t// in\ntag_74:\n    /* \"#utility.yul\":3432:3488   */\n  not\n    /* \"#utility.yul\":3517:3521   */\n  dup1\n    /* \"#utility.yul\":3511:3515   */\n  dup4\n    /* \"#utility.yul\":3507:3522   */\n  and\n    /* \"#utility.yul\":3497:3522   */\n  swap2\n  pop\n    /* \"#utility.yul\":3410:3528   */\n  pop\n    /* \"#utility.yul\":3359:3528   */\n  swap3\n  swap2\n  pop\n  pop\n  jump\t// out\n    /* \"#utility.yul\":3533:3828   */\ntag_30:\n    /* \"#utility.yul\":3609:3613   */\n  0x00\n    /* \"#utility.yul\":3755:3784   */\n  tag_76\n    /* \"#utility.yul\":3780:3783   */\n  dup4\n    /* \"#utility.yul\":3774:3778   */\n  dup4\n    /* \"#utility.yul\":3755:3784   */\n  tag_29\n  jump\t// in\ntag_76:\n    /* \"#utility.yul\":3747:3784   */\n  swap2\n  pop\n    /* \"#utility.yul\":3817:3820   */\n  dup3\n    /* \"#utility.yul\":3814:3815   */\n  0x02\n    /* \"#utility.yul\":3810:3821   */\n  mul\n    /* \"#utility.yul\":3804:3808   */\n  dup3\n    /* \"#utility.yul\":3801:3822   */\n  or\n    /* \"#utility.yul\":3793:3822   */\n  swap1\n  pop\n    /* \"#utility.yul\":3533:3828   */\n  swap3\n  swap2\n  pop\n  pop\n  jump\t// out\n    /* \"#utility.yul\":3833:5228   */\ntag_10:\n    /* \"#utility.yul\":3950:3987   */\n  tag_78\n    /* \"#utility.yul\":3983:3986   */\n  dup3\n    /* \"#utility.yul\":3950:3987   */\n  tag_11\n  jump\t// in\ntag_78:\n    /* \"#utility.yul\":4052:4070   */\n  0xffffffffffffffff\n    /* \"#utility.yul\":4044:4050   */\n  dup2\n    /* \"#utility.yul\":4041:4071   */\n  gt\n    /* \"#utility.yul\":4038:4094   */\n  iszero\n  tag_79\n  jumpi\n    /* \"#utility.yul\":4074:4092   */\n  tag_80\n  tag_12\n  jump\t// in\ntag_80:\n    /* \"#utility.yul\":4038:4094   */\ntag_79:\n    /* \"#utility.yul\":4118:4156   */\n  tag_81\n    /* \"#utility.yul\":4150:4154   */\n  dup3\n    /* \"#utility.yul\":4144:4155   */\n  sload\n    /* \"#utility.yul\":4118:4156   */\n  tag_14\n  jump\t// in\ntag_81:\n    /* \"#utility.yul\":4203:4270   */\n  tag_82\n    /* \"#utility.yul\":4263:4269   */\n  dup3\n    /* \"#utility.yul\":4255:4261   */\n  dup3\n    /* \"#utility.yul\":4249:4253   */\n  dup6\n    /* \"#utility.yul\":4203:4270   */\n  tag_27\n  jump\t// in\ntag_82:\n    /* \"#utility.yul\":4297:4298   */\n  0x00\n    /* \"#utility.yul\":4321:4325   */\n  0x20\n    /* \"#utility.yul\":4308:4325   */\n  swap1\n  pop\n    /* \"#utility.yul\":4353:4355   */\n  0x1f\n    /* \"#utility.yul\":4345:4351   */\n  dup4\n    /* \"#utility.yul\":4342:4356   */\n  gt\n    /* \"#utility.yul\":4370:4371   */\n  0x01\n    /* \"#utility.yul\":4365:4983   */\n  dup2\n  eq\n  tag_84\n  jumpi\n    /* \"#utility.yul\":5027:5028   */\n  0x00\n    /* \"#utility.yul\":5044:5050   */\n  dup5\n    /* \"#utility.yul\":5041:5118   */\n  iszero\n  tag_85\n  jumpi\n    /* \"#utility.yul\":5093:5102   */\n  dup3\n    /* \"#utility.yul\":5088:5091   */\n  dup8\n    /* \"#utility.yul\":5084:5103   */\n  add\n    /* \"#utility.yul\":5078:5104   */\n  mload\n    /* \"#utility.yul\":5069:5104   */\n  swap1\n  pop\n    /* \"#utility.yul\":5041:5118   */\ntag_85:\n    /* \"#utility.yul\":5144:5211   */\n  tag_86\n    /* \"#utility.yul\":5204:5210   */\n  dup6\n    /* \"#utility.yul\":5197:5202   */\n  dup3\n    /* \"#utility.yul\":5144:5211   */\n  tag_30\n  jump\t// in\ntag_86:\n    /* \"#utility.yul\":5138:5142   */\n  dup7\n    /* \"#utility.yul\":5131:5212   */\n  sstore\n    /* \"#utility.yul\":5000:5222   */\n  pop\n    /* \"#utility.yul\":4335:5222   */\n  jump(tag_83)\n    /* \"#utility.yul\":4365:4983   */\ntag_84:\n    /* \"#utility.yul\":4417:4421   */\n  0x1f\n    /* \"#utility.yul\":4413:4422   */\n  not\n    /* \"#utility.yul\":4405:4411   */\n  dup5\n    /* \"#utility.yul\":4401:4423   */\n  and\n    /* \"#utility.yul\":4451:4488   */\n  tag_87\n    /* \"#utility.yul\":4483:4487   */\n  dup7\n    /* \"#utility.yul\":4451:4488   */\n  tag_15\n  jump\t// in\ntag_87:\n    /* \"#utility.yul\":4510:4511   */\n  0x00\n    /* \"#utility.yul\":4524:4732   */\ntag_88:\n    /* \"#utility.yul\":4538:4545   */\n  dup3\n    /* \"#utility.yul\":4535:4536   */\n  dup2\n    /* \"#utility.yul\":4532:4546   */\n  lt\n    /* \"#utility.yul\":4524:4732   */\n  iszero\n  tag_90\n  jumpi\n    /* \"#utility.yul\":4617:4626   */\n  dup5\n    /* \"#utility.yul\":4612:4615   */\n  dup10\n    /* \"#utility.yul\":4608:4627   */\n  add\n    /* \"#utility.yul\":4602:4628   */\n  mload\n    /* \"#utility.yul\":4594:4600   */\n  dup3\n    /* \"#utility.yul\":4587:4629   */\n  sstore\n    /* \"#utility.yul\":4668:4669   */\n  0x01\n    /* \"#utility.yul\":4660:4666   */\n  dup3\n    /* \"#utility.yul\":4656:4670   */\n  add\n    /* \"#utility.yul\":4646:4670   */\n  swap2\n  pop\n    /* \"#utility.yul\":4715:4717   */\n  0x20\n    /* \"#utility.yul\":4704:4713   */\n  dup6\n    /* \"#utility.yul\":4700:4718   */\n  add\n    /* \"#utility.yul\":4687:4718   */\n  swap5\n  pop\n    /* \"#utility.yul\":4561:4565   */\n  0x20\n    /* \"#utility.yul\":4558:4559   */\n  dup2\n    /* \"#utility.yul\":4554:4566   */\n  add\n    /* \"#utility.yul\":4549:4566   */\n  swap1\n  pop\n    /* \"#utility.yul\":4524:4732   */\n  jump(tag_88)\ntag_90:\n    /* \"#utility.yul\":4760:4766   */\n  dup7\n    /* \"#utility.yul\":4751:4758   */\n  dup4\n    /* \"#utility.yul\":4748:4767   */\n  lt\n    /* \"#utility.yul\":4745:4924   */\n  iszero\n  tag_91\n  jumpi\n    /* \"#utility.yul\":4818:4827   */\n  dup5\n    /* \"#utility.yul\":4813:4816   */\n  dup10\n    /* \"#utility.yul\":4809:4828   */\n  add\n    /* \"#utility.yul\":4803:4829   */\n  mload\n    /* \"#utility.yul\":4861:4909   */\n  tag_92\n    /* \"#utility.yul\":4903:4907   */\n  0x1f\n    /* \"#utility.yul\":4895:4901   */\n  dup10\n    /* \"#utility.yul\":4891:4908   */\n  and\n    /* \"#utility.yul\":4880:4889   */\n  dup3\n    /* \"#utility.yul\":4861:4909   */\n  tag_29\n  jump\t// in\ntag_92:\n    /* \"#utility.yul\":4853:4859   */\n  dup4\n    /* \"#utility.yul\":4846:4910   */\n  sstore\n    /* \"#utility.yul\":4768:4924   */\n  pop\n    /* \"#utility.yul\":4745:4924   */\ntag_91:\n    /* \"#utility.yul\":4970:4971   */\n  0x01\n    /* \"#utility.yul\":4966:4967   */\n  0x02\n    /* \"#utility.yul\":4958:4964   */\n  dup9\n    /* \"#utility.yul\":4954:4968   */\n  mul\n    /* \"#utility.yul\":4950:4972   */\n  add\n    /* \"#utility.yul\":4944:4948   */\n  dup9\n    /* \"#utility.yul\":4937:4973   */\n  sstore\n    /* \"#utility.yul\":4372:4983   */\n  pop\n  pop\n  pop\n    /* \"#utility.yul\":4335:5222   */\ntag_83:\n  pop\n    /* \"#utility.yul\":3925:5228   */\n  pop\n  pop\n  pop\n    /* \"#utility.yul\":3833:5228   */\n  pop\n  pop\n  jump\t// out\n    /* \"contracts/DigitalVotingSystem.sol\":349:4330  contract Election{... */\ntag_7:\n  dataSize(sub_0)\n  dup1\n  dataOffset(sub_0)\n  0x00\n  codecopy\n  0x00\n  return\nstop\n\nsub_0: assembly {\n        /* \"contracts/DigitalVotingSystem.sol\":349:4330  contract Election{... */\n      mstore(0x40, 0x80)\n      callvalue\n      dup1\n      iszero\n      tag_1\n      jumpi\n      0x00\n      dup1\n      revert\n    tag_1:\n      pop\n      jumpi(tag_2, lt(calldatasize, 0x04))\n      shr(0xe0, calldataload(0x00))\n      dup1\n      0x4717f97c\n      gt\n      tag_11\n      jumpi\n      dup1\n      0x4717f97c\n      eq\n      tag_7\n      jumpi\n      dup1\n      0x65422a55\n      eq\n      tag_8\n      jumpi\n      dup1\n      0x6a316c9d\n      eq\n      tag_9\n      jumpi\n      dup1\n      0xb9830ff1\n      eq\n      tag_10\n      jumpi\n      jump(tag_2)\n    tag_11:\n      dup1\n      0x0121b93f\n      eq\n      tag_3\n      jumpi\n      dup1\n      0x09eef43e\n      eq\n      tag_4\n      jumpi\n      dup1\n      0x0d15fd77\n      eq\n      tag_5\n      jumpi\n      dup1\n      0x3477ee2e\n      eq\n      tag_6\n      jumpi\n    tag_2:\n      0x00\n      dup1\n      revert\n        /* \"contracts/DigitalVotingSystem.sol\":1662:2563  function vote(uint _candidateId) public{... */\n    tag_3:\n      tag_12\n      0x04\n      dup1\n      calldatasize\n      sub\n      dup2\n      add\n      swap1\n      tag_13\n      swap2\n      swap1\n      tag_14\n      jump\t// in\n    tag_13:\n      tag_15\n      jump\t// in\n    tag_12:\n      stop\n        /* \"contracts/DigitalVotingSystem.sol\":811:851  mapping(address => bool) public hasVoted */\n    tag_4:\n      tag_16\n      0x04\n      dup1\n      calldatasize\n      sub\n      dup2\n      add\n      swap1\n      tag_17\n      swap2\n      swap1\n      tag_18\n      jump\t// in\n    tag_17:\n      tag_19\n      jump\t// in\n    tag_16:\n      mload(0x40)\n      tag_20\n      swap2\n      swap1\n      tag_21\n      jump\t// in\n    tag_20:\n      mload(0x40)\n      dup1\n      swap2\n      sub\n      swap1\n      return\n        /* \"contracts/DigitalVotingSystem.sol\":911:933  uint public totalVotes */\n    tag_5:\n      tag_22\n      tag_23\n      jump\t// in\n    tag_22:\n      mload(0x40)\n      tag_24\n      swap2\n      swap1\n      tag_25\n      jump\t// in\n    tag_24:\n      mload(0x40)\n      dup1\n      swap2\n      sub\n      swap1\n      return\n        /* \"contracts/DigitalVotingSystem.sol\":697:741  mapping(uint => Candidate) public candidates */\n    tag_6:\n      tag_26\n      0x04\n      dup1\n      calldatasize\n      sub\n      dup2\n      add\n      swap1\n      tag_27\n      swap2\n      swap1\n      tag_14\n      jump\t// in\n    tag_27:\n      tag_28\n      jump\t// in\n    tag_26:\n      mload(0x40)\n      tag_29\n      swap4\n      swap3\n      swap2\n      swap1\n      tag_30\n      jump\t// in\n    tag_29:\n      mload(0x40)\n      dup1\n      swap2\n      sub\n      swap1\n      return\n        /* \"contracts/DigitalVotingSystem.sol\":2714:3291  function getResults() public view returns (string memory) {... */\n    tag_7:\n      tag_31\n      tag_32\n      jump\t// in\n    tag_31:\n      mload(0x40)\n      tag_33\n      swap2\n      swap1\n      tag_34\n      jump\t// in\n    tag_33:\n      mload(0x40)\n      dup1\n      swap2\n      sub\n      swap1\n      return\n        /* \"contracts/DigitalVotingSystem.sol\":4167:4327  function batchVote(uint[] memory candidateIds) public{... */\n    tag_8:\n      tag_35\n      0x04\n      dup1\n      calldatasize\n      sub\n      dup2\n      add\n      swap1\n      tag_36\n      swap2\n      swap1\n      tag_37\n      jump\t// in\n    tag_36:\n      tag_38\n      jump\t// in\n    tag_35:\n      stop\n        /* \"contracts/DigitalVotingSystem.sol\":1017:1039  uint public blankVotes */\n    tag_9:\n      tag_39\n      tag_40\n      jump\t// in\n    tag_39:\n      mload(0x40)\n      tag_41\n      swap2\n      swap1\n      tag_25\n      jump\t// in\n    tag_41:\n      mload(0x40)\n      dup1\n      swap2\n      sub\n      swap1\n      return\n        /* \"contracts/DigitalVotingSystem.sol\":3924:4159  function resetVotes() public{... */\n    tag_10:\n      tag_42\n      tag_43\n      jump\t// in\n    tag_42:\n      stop\n        /* \"contracts/DigitalVotingSystem.sol\":1662:2563  function vote(uint _candidateId) public{... */\n    tag_15:\n        /* \"contracts/DigitalVotingSystem.sol\":1779:1787  hasVoted */\n      0x01\n        /* \"contracts/DigitalVotingSystem.sol\":1779:1799  hasVoted[msg.sender] */\n      0x00\n        /* \"contracts/DigitalVotingSystem.sol\":1788:1798  msg.sender */\n      caller\n        /* \"contracts/DigitalVotingSystem.sol\":1779:1799  hasVoted[msg.sender] */\n      0xffffffffffffffffffffffffffffffffffffffff\n      and\n      0xffffffffffffffffffffffffffffffffffffffff\n      and\n      dup2\n      mstore\n      0x20\n      add\n      swap1\n      dup2\n      mstore\n      0x20\n      add\n      0x00\n      keccak256\n      0x00\n      swap1\n      sload\n      swap1\n      0x0100\n      exp\n      swap1\n      div\n      0xff\n      and\n        /* \"contracts/DigitalVotingSystem.sol\":1778:1799  !hasVoted[msg.sender] */\n      iszero\n        /* \"contracts/DigitalVotingSystem.sol\":1770:1827  require(!hasVoted[msg.sender], \"You have already voted.\") */\n      tag_45\n      jumpi\n      mload(0x40)\n      0x08c379a000000000000000000000000000000000000000000000000000000000\n      dup2\n      mstore\n      0x04\n      add\n      tag_46\n      swap1\n      tag_47\n      jump\t// in\n    tag_46:\n      mload(0x40)\n      dup1\n      swap2\n      sub\n      swap1\n      revert\n    tag_45:\n        /* \"contracts/DigitalVotingSystem.sol\":1933:1935  13 */\n      0x0d\n        /* \"contracts/DigitalVotingSystem.sol\":1918:1930  _candidateId */\n      dup2\n        /* \"contracts/DigitalVotingSystem.sol\":1918:1935  _candidateId ==13 */\n      eq\n        /* \"contracts/DigitalVotingSystem.sol\":1918:1956  _candidateId ==13 || _candidateId ==22 */\n      dup1\n      tag_48\n      jumpi\n      pop\n        /* \"contracts/DigitalVotingSystem.sol\":1954:1956  22 */\n      0x16\n        /* \"contracts/DigitalVotingSystem.sol\":1939:1951  _candidateId */\n      dup2\n        /* \"contracts/DigitalVotingSystem.sol\":1939:1956  _candidateId ==22 */\n      eq\n        /* \"contracts/DigitalVotingSystem.sol\":1918:1956  _candidateId ==13 || _candidateId ==22 */\n    tag_48:\n        /* \"contracts/DigitalVotingSystem.sol\":1918:1976  _candidateId ==13 || _candidateId ==22 || _candidateId ==0 */\n      dup1\n      tag_49\n      jumpi\n      pop\n        /* \"contracts/DigitalVotingSystem.sol\":1975:1976  0 */\n      0x00\n        /* \"contracts/DigitalVotingSystem.sol\":1960:1972  _candidateId */\n      dup2\n        /* \"contracts/DigitalVotingSystem.sol\":1960:1976  _candidateId ==0 */\n      eq\n        /* \"contracts/DigitalVotingSystem.sol\":1918:1976  _candidateId ==13 || _candidateId ==22 || _candidateId ==0 */\n    tag_49:\n        /* \"contracts/DigitalVotingSystem.sol\":1896:2044  require(... */\n      tag_50\n      jumpi\n      mload(0x40)\n      0x08c379a000000000000000000000000000000000000000000000000000000000\n      dup2\n      mstore\n      0x04\n      add\n      tag_51\n      swap1\n      tag_52\n      jump\t// in\n    tag_51:\n      mload(0x40)\n      dup1\n      swap2\n      sub\n      swap1\n      revert\n    tag_50:\n        /* \"contracts/DigitalVotingSystem.sol\":2129:2130  0 */\n      0x00\n        /* \"contracts/DigitalVotingSystem.sol\":2114:2126  _candidateId */\n      dup2\n        /* \"contracts/DigitalVotingSystem.sol\":2114:2130  _candidateId ==0 */\n      sub\n        /* \"contracts/DigitalVotingSystem.sol\":2110:2300  if (_candidateId ==0){... */\n      tag_53\n      jumpi\n        /* \"contracts/DigitalVotingSystem.sol\":2146:2156  blankVotes */\n      0x03\n      0x00\n        /* \"contracts/DigitalVotingSystem.sol\":2146:2158  blankVotes++ */\n      dup2\n      sload\n      dup1\n      swap3\n      swap2\n      swap1\n      tag_54\n      swap1\n      tag_55\n      jump\t// in\n    tag_54:\n      swap2\n      swap1\n      pop\n      sstore\n      pop\n        /* \"contracts/DigitalVotingSystem.sol\":2110:2300  if (_candidateId ==0){... */\n      jump(tag_56)\n    tag_53:\n        /* \"contracts/DigitalVotingSystem.sol\":2252:2262  candidates */\n      0x00\n        /* \"contracts/DigitalVotingSystem.sol\":2252:2276  candidates[_candidateId] */\n      dup1\n        /* \"contracts/DigitalVotingSystem.sol\":2263:2275  _candidateId */\n      dup3\n        /* \"contracts/DigitalVotingSystem.sol\":2252:2276  candidates[_candidateId] */\n      dup2\n      mstore\n      0x20\n      add\n      swap1\n      dup2\n      mstore\n      0x20\n      add\n      0x00\n      keccak256\n        /* \"contracts/DigitalVotingSystem.sol\":2252:2286  candidates[_candidateId].voteCount */\n      0x02\n      add\n      0x00\n        /* \"contracts/DigitalVotingSystem.sol\":2252:2288  candidates[_candidateId].voteCount++ */\n      dup2\n      sload\n      dup1\n      swap3\n      swap2\n      swap1\n      tag_57\n      swap1\n      tag_55\n      jump\t// in\n    tag_57:\n      swap2\n      swap1\n      pop\n      sstore\n      pop\n        /* \"contracts/DigitalVotingSystem.sol\":2110:2300  if (_candidateId ==0){... */\n    tag_56:\n        /* \"contracts/DigitalVotingSystem.sol\":2320:2330  totalVotes */\n      0x02\n      0x00\n        /* \"contracts/DigitalVotingSystem.sol\":2320:2332  totalVotes++ */\n      dup2\n      sload\n      dup1\n      swap3\n      swap2\n      swap1\n      tag_58\n      swap1\n      tag_55\n      jump\t// in\n    tag_58:\n      swap2\n      swap1\n      pop\n      sstore\n      pop\n        /* \"contracts/DigitalVotingSystem.sol\":2403:2407  true */\n      0x01\n        /* \"contracts/DigitalVotingSystem.sol\":2380:2388  hasVoted */\n      dup1\n        /* \"contracts/DigitalVotingSystem.sol\":2380:2400  hasVoted[msg.sender] */\n      0x00\n        /* \"contracts/DigitalVotingSystem.sol\":2389:2399  msg.sender */\n      caller\n        /* \"contracts/DigitalVotingSystem.sol\":2380:2400  hasVoted[msg.sender] */\n      0xffffffffffffffffffffffffffffffffffffffff\n      and\n      0xffffffffffffffffffffffffffffffffffffffff\n      and\n      dup2\n      mstore\n      0x20\n      add\n      swap1\n      dup2\n      mstore\n      0x20\n      add\n      0x00\n      keccak256\n      0x00\n        /* \"contracts/DigitalVotingSystem.sol\":2380:2407  hasVoted[msg.sender] = true */\n      0x0100\n      exp\n      dup2\n      sload\n      dup2\n      0xff\n      mul\n      not\n      and\n      swap1\n      dup4\n      iszero\n      iszero\n      mul\n      or\n      swap1\n      sstore\n      pop\n        /* \"contracts/DigitalVotingSystem.sol\":2458:2494  VoteCasted(msg.sender, _candidateId) */\n      0xd0e6c39f2e086dc49f1524b47725526a56945cd1ff661f37976f1725a1e56986\n        /* \"contracts/DigitalVotingSystem.sol\":2469:2479  msg.sender */\n      caller\n        /* \"contracts/DigitalVotingSystem.sol\":2481:2493  _candidateId */\n      dup3\n        /* \"contracts/DigitalVotingSystem.sol\":2458:2494  VoteCasted(msg.sender, _candidateId) */\n      mload(0x40)\n      tag_59\n      swap3\n      swap2\n      swap1\n      tag_60\n      jump\t// in\n    tag_59:\n      mload(0x40)\n      dup1\n      swap2\n      sub\n      swap1\n      log1\n        /* \"contracts/DigitalVotingSystem.sol\":1662:2563  function vote(uint _candidateId) public{... */\n      pop\n      jump\t// out\n        /* \"contracts/DigitalVotingSystem.sol\":811:851  mapping(address => bool) public hasVoted */\n    tag_19:\n      mstore(0x20, 0x01)\n      dup1\n      0x00\n      mstore\n      keccak256(0x00, 0x40)\n      0x00\n      swap2\n      pop\n      sload\n      swap1\n      0x0100\n      exp\n      swap1\n      div\n      0xff\n      and\n      dup2\n      jump\t// out\n        /* \"contracts/DigitalVotingSystem.sol\":911:933  uint public totalVotes */\n    tag_23:\n      sload(0x02)\n      dup2\n      jump\t// out\n        /* \"contracts/DigitalVotingSystem.sol\":697:741  mapping(uint => Candidate) public candidates */\n    tag_28:\n      mstore(0x20, 0x00)\n      dup1\n      0x00\n      mstore\n      keccak256(0x00, 0x40)\n      0x00\n      swap2\n      pop\n      swap1\n      pop\n      dup1\n      0x00\n      add\n      sload\n      swap1\n      dup1\n      0x01\n      add\n      dup1\n      sload\n      tag_61\n      swap1\n      tag_62\n      jump\t// in\n    tag_61:\n      dup1\n      0x1f\n      add\n      0x20\n      dup1\n      swap2\n      div\n      mul\n      0x20\n      add\n      mload(0x40)\n      swap1\n      dup2\n      add\n      0x40\n      mstore\n      dup1\n      swap3\n      swap2\n      swap1\n      dup2\n      dup2\n      mstore\n      0x20\n      add\n      dup3\n      dup1\n      sload\n      tag_63\n      swap1\n      tag_62\n      jump\t// in\n    tag_63:\n      dup1\n      iszero\n      tag_64\n      jumpi\n      dup1\n      0x1f\n      lt\n      tag_65\n      jumpi\n      0x0100\n      dup1\n      dup4\n      sload\n      div\n      mul\n      dup4\n      mstore\n      swap2\n      0x20\n      add\n      swap2\n      jump(tag_64)\n    tag_65:\n      dup3\n      add\n      swap2\n      swap1\n      0x00\n      mstore\n      keccak256(0x00, 0x20)\n      swap1\n    tag_66:\n      dup2\n      sload\n      dup2\n      mstore\n      swap1\n      0x01\n      add\n      swap1\n      0x20\n      add\n      dup1\n      dup4\n      gt\n      tag_66\n      jumpi\n      dup3\n      swap1\n      sub\n      0x1f\n      and\n      dup3\n      add\n      swap2\n    tag_64:\n      pop\n      pop\n      pop\n      pop\n      pop\n      swap1\n      dup1\n      0x02\n      add\n      sload\n      swap1\n      pop\n      dup4\n      jump\t// out\n        /* \"contracts/DigitalVotingSystem.sol\":2714:3291  function getResults() public view returns (string memory) {... */\n    tag_32:\n        /* \"contracts/DigitalVotingSystem.sol\":2757:2770  string memory */\n      0x60\n        /* \"contracts/DigitalVotingSystem.sol\":2827:2847  uint candidateAVotes */\n      0x00\n        /* \"contracts/DigitalVotingSystem.sol\":2850:2860  candidates */\n      dup1\n        /* \"contracts/DigitalVotingSystem.sol\":2850:2864  candidates[13] */\n      0x00\n        /* \"contracts/DigitalVotingSystem.sol\":2861:2863  13 */\n      0x0d\n        /* \"contracts/DigitalVotingSystem.sol\":2850:2864  candidates[13] */\n      dup2\n      mstore\n      0x20\n      add\n      swap1\n      dup2\n      mstore\n      0x20\n      add\n      0x00\n      keccak256\n        /* \"contracts/DigitalVotingSystem.sol\":2850:2874  candidates[13].voteCount */\n      0x02\n      add\n      sload\n        /* \"contracts/DigitalVotingSystem.sol\":2827:2874  uint candidateAVotes = candidates[13].voteCount */\n      swap1\n      pop\n        /* \"contracts/DigitalVotingSystem.sol\":2881:2901  uint candidateBVotes */\n      0x00\n        /* \"contracts/DigitalVotingSystem.sol\":2904:2914  candidates */\n      dup1\n        /* \"contracts/DigitalVotingSystem.sol\":2904:2918  candidates[22] */\n      0x00\n        /* \"contracts/DigitalVotingSystem.sol\":2915:2917  22 */\n      0x16\n        /* \"contracts/DigitalVotingSystem.sol\":2904:2918  candidates[22] */\n      dup2\n      mstore\n      0x20\n      add\n      swap1\n      dup2\n      mstore\n      0x20\n      add\n      0x00\n      keccak256\n        /* \"contracts/DigitalVotingSystem.sol\":2904:2928  candidates[22].voteCount */\n      0x02\n      add\n      sload\n        /* \"contracts/DigitalVotingSystem.sol\":2881:2928  uint candidateBVotes = candidates[22].voteCount */\n      swap1\n      pop\n        /* \"contracts/DigitalVotingSystem.sol\":2978:2999  string memory results */\n      0x00\n        /* \"contracts/DigitalVotingSystem.sol\":3067:3096  uintToString(candidateAVotes) */\n      tag_68\n        /* \"contracts/DigitalVotingSystem.sol\":3080:3095  candidateAVotes */\n      dup4\n        /* \"contracts/DigitalVotingSystem.sol\":3067:3079  uintToString */\n      tag_69\n        /* \"contracts/DigitalVotingSystem.sol\":3067:3096  uintToString(candidateAVotes) */\n      jump\t// in\n    tag_68:\n        /* \"contracts/DigitalVotingSystem.sol\":3136:3165  uintToString(candidateBVotes) */\n      tag_70\n        /* \"contracts/DigitalVotingSystem.sol\":3149:3164  candidateBVotes */\n      dup4\n        /* \"contracts/DigitalVotingSystem.sol\":3136:3148  uintToString */\n      tag_69\n        /* \"contracts/DigitalVotingSystem.sol\":3136:3165  uintToString(candidateBVotes) */\n      jump\t// in\n    tag_70:\n        /* \"contracts/DigitalVotingSystem.sol\":3199:3223  uintToString(blankVotes) */\n      tag_71\n        /* \"contracts/DigitalVotingSystem.sol\":3212:3222  blankVotes */\n      sload(0x03)\n        /* \"contracts/DigitalVotingSystem.sol\":3199:3211  uintToString */\n      tag_69\n        /* \"contracts/DigitalVotingSystem.sol\":3199:3223  uintToString(blankVotes) */\n      jump\t// in\n    tag_71:\n        /* \"contracts/DigitalVotingSystem.sol\":3019:3257  abi.encodePacked(... */\n      add(0x20, mload(0x40))\n      tag_72\n      swap4\n      swap3\n      swap2\n      swap1\n      tag_73\n      jump\t// in\n    tag_72:\n      mload(0x40)\n      0x20\n      dup2\n      dup4\n      sub\n      sub\n      dup2\n      mstore\n      swap1\n      0x40\n      mstore\n        /* \"contracts/DigitalVotingSystem.sol\":2978:3264  string memory results = string(... */\n      swap1\n      pop\n        /* \"contracts/DigitalVotingSystem.sol\":3280:3287  results */\n      dup1\n        /* \"contracts/DigitalVotingSystem.sol\":3273:3287  return results */\n      swap4\n      pop\n      pop\n      pop\n      pop\n        /* \"contracts/DigitalVotingSystem.sol\":2714:3291  function getResults() public view returns (string memory) {... */\n      swap1\n      jump\t// out\n        /* \"contracts/DigitalVotingSystem.sol\":4167:4327  function batchVote(uint[] memory candidateIds) public{... */\n    tag_38:\n        /* \"contracts/DigitalVotingSystem.sol\":4236:4242  uint i */\n      0x00\n        /* \"contracts/DigitalVotingSystem.sol\":4231:4320  for (uint i=0; i<candidateIds.length;i++){... */\n    tag_75:\n        /* \"contracts/DigitalVotingSystem.sol\":4248:4260  candidateIds */\n      dup2\n        /* \"contracts/DigitalVotingSystem.sol\":4248:4267  candidateIds.length */\n      mload\n        /* \"contracts/DigitalVotingSystem.sol\":4246:4247  i */\n      dup2\n        /* \"contracts/DigitalVotingSystem.sol\":4246:4267  i<candidateIds.length */\n      lt\n        /* \"contracts/DigitalVotingSystem.sol\":4231:4320  for (uint i=0; i<candidateIds.length;i++){... */\n      iszero\n      tag_76\n      jumpi\n        /* \"contracts/DigitalVotingSystem.sol\":4287:4308  vote(candidateIds[i]) */\n      tag_78\n        /* \"contracts/DigitalVotingSystem.sol\":4292:4304  candidateIds */\n      dup3\n        /* \"contracts/DigitalVotingSystem.sol\":4305:4306  i */\n      dup3\n        /* \"contracts/DigitalVotingSystem.sol\":4292:4307  candidateIds[i] */\n      dup2\n      mload\n      dup2\n      lt\n      tag_79\n      jumpi\n      tag_80\n      tag_81\n      jump\t// in\n    tag_80:\n    tag_79:\n      0x20\n      mul\n      0x20\n      add\n      add\n      mload\n        /* \"contracts/DigitalVotingSystem.sol\":4287:4291  vote */\n      tag_15\n        /* \"contracts/DigitalVotingSystem.sol\":4287:4308  vote(candidateIds[i]) */\n      jump\t// in\n    tag_78:\n        /* \"contracts/DigitalVotingSystem.sol\":4268:4271  i++ */\n      dup1\n      dup1\n      0x01\n      add\n      swap2\n      pop\n      pop\n        /* \"contracts/DigitalVotingSystem.sol\":4231:4320  for (uint i=0; i<candidateIds.length;i++){... */\n      jump(tag_75)\n    tag_76:\n      pop\n        /* \"contracts/DigitalVotingSystem.sol\":4167:4327  function batchVote(uint[] memory candidateIds) public{... */\n      pop\n      jump\t// out\n        /* \"contracts/DigitalVotingSystem.sol\":1017:1039  uint public blankVotes */\n    tag_40:\n      sload(0x03)\n      dup2\n      jump\t// out\n        /* \"contracts/DigitalVotingSystem.sol\":3924:4159  function resetVotes() public{... */\n    tag_43:\n        /* \"contracts/DigitalVotingSystem.sol\":3988:3989  0 */\n      0x00\n        /* \"contracts/DigitalVotingSystem.sol\":3963:3973  candidates */\n      dup1\n        /* \"contracts/DigitalVotingSystem.sol\":3963:3977  candidates[13] */\n      0x00\n        /* \"contracts/DigitalVotingSystem.sol\":3974:3976  13 */\n      0x0d\n        /* \"contracts/DigitalVotingSystem.sol\":3963:3977  candidates[13] */\n      dup2\n      mstore\n      0x20\n      add\n      swap1\n      dup2\n      mstore\n      0x20\n      add\n      0x00\n      keccak256\n        /* \"contracts/DigitalVotingSystem.sol\":3963:3987  candidates[13].voteCount */\n      0x02\n      add\n        /* \"contracts/DigitalVotingSystem.sol\":3963:3989  candidates[13].voteCount=0 */\n      dup2\n      swap1\n      sstore\n      pop\n        /* \"contracts/DigitalVotingSystem.sol\":4062:4063  0 */\n      0x00\n        /* \"contracts/DigitalVotingSystem.sol\":4037:4047  candidates */\n      dup1\n        /* \"contracts/DigitalVotingSystem.sol\":4037:4051  candidates[22] */\n      0x00\n        /* \"contracts/DigitalVotingSystem.sol\":4048:4050  22 */\n      0x16\n        /* \"contracts/DigitalVotingSystem.sol\":4037:4051  candidates[22] */\n      dup2\n      mstore\n      0x20\n      add\n      swap1\n      dup2\n      mstore\n      0x20\n      add\n      0x00\n      keccak256\n        /* \"contracts/DigitalVotingSystem.sol\":4037:4061  candidates[22].voteCount */\n      0x02\n      add\n        /* \"contracts/DigitalVotingSystem.sol\":4037:4063  candidates[22].voteCount=0 */\n      dup2\n      swap1\n      sstore\n      pop\n        /* \"contracts/DigitalVotingSystem.sol\":4087:4088  0 */\n      0x00\n        /* \"contracts/DigitalVotingSystem.sol\":4076:4086  blankVotes */\n      0x03\n        /* \"contracts/DigitalVotingSystem.sol\":4076:4088  blankVotes=0 */\n      dup2\n      swap1\n      sstore\n      pop\n        /* \"contracts/DigitalVotingSystem.sol\":4150:4151  0 */\n      0x00\n        /* \"contracts/DigitalVotingSystem.sol\":4139:4149  totalVotes */\n      0x02\n        /* \"contracts/DigitalVotingSystem.sol\":4139:4151  totalVotes=0 */\n      dup2\n      swap1\n      sstore\n      pop\n        /* \"contracts/DigitalVotingSystem.sol\":3924:4159  function resetVotes() public{... */\n      jump\t// out\n        /* \"contracts/DigitalVotingSystem.sol\":3341:3773  function uintToString(uint v) internal pure returns (string memory) {... */\n    tag_69:\n        /* \"contracts/DigitalVotingSystem.sol\":3394:3407  string memory */\n      0x60\n        /* \"contracts/DigitalVotingSystem.sol\":3425:3426  0 */\n      0x00\n        /* \"contracts/DigitalVotingSystem.sol\":3420:3421  v */\n      dup3\n        /* \"contracts/DigitalVotingSystem.sol\":3420:3426  v == 0 */\n      sub\n        /* \"contracts/DigitalVotingSystem.sol\":3416:3457  if (v == 0) {... */\n      tag_84\n      jumpi\n        /* \"contracts/DigitalVotingSystem.sol\":3439:3449  return \"0\" */\n      mload(0x40)\n      dup1\n      0x40\n      add\n      0x40\n      mstore\n      dup1\n      0x01\n      dup2\n      mstore\n      0x20\n      add\n      0x3000000000000000000000000000000000000000000000000000000000000000\n      dup2\n      mstore\n      pop\n      swap1\n      pop\n      jump(tag_83)\n        /* \"contracts/DigitalVotingSystem.sol\":3416:3457  if (v == 0) {... */\n    tag_84:\n        /* \"contracts/DigitalVotingSystem.sol\":3463:3474  uint digits */\n      0x00\n        /* \"contracts/DigitalVotingSystem.sol\":3481:3490  uint temp */\n      dup1\n        /* \"contracts/DigitalVotingSystem.sol\":3493:3494  v */\n      dup4\n        /* \"contracts/DigitalVotingSystem.sol\":3481:3494  uint temp = v */\n      swap1\n      pop\n        /* \"contracts/DigitalVotingSystem.sol\":3501:3567  while (temp != 0) {... */\n    tag_85:\n        /* \"contracts/DigitalVotingSystem.sol\":3516:3517  0 */\n      0x00\n        /* \"contracts/DigitalVotingSystem.sol\":3508:3512  temp */\n      dup2\n        /* \"contracts/DigitalVotingSystem.sol\":3508:3517  temp != 0 */\n      eq\n        /* \"contracts/DigitalVotingSystem.sol\":3501:3567  while (temp != 0) {... */\n      tag_86\n      jumpi\n        /* \"contracts/DigitalVotingSystem.sol\":3530:3538  digits++ */\n      dup2\n      dup1\n      tag_87\n      swap1\n      tag_55\n      jump\t// in\n    tag_87:\n      swap3\n      pop\n      pop\n        /* \"contracts/DigitalVotingSystem.sol\":3557:3559  10 */\n      0x0a\n        /* \"contracts/DigitalVotingSystem.sol\":3549:3559  temp /= 10 */\n      dup2\n      tag_88\n      swap2\n      swap1\n      tag_89\n      jump\t// in\n    tag_88:\n      swap1\n      pop\n        /* \"contracts/DigitalVotingSystem.sol\":3501:3567  while (temp != 0) {... */\n      jump(tag_85)\n    tag_86:\n        /* \"contracts/DigitalVotingSystem.sol\":3573:3592  bytes memory buffer */\n      0x00\n        /* \"contracts/DigitalVotingSystem.sol\":3605:3611  digits */\n      dup3\n        /* \"contracts/DigitalVotingSystem.sol\":3595:3612  new bytes(digits) */\n      0xffffffffffffffff\n      dup2\n      gt\n      iszero\n      tag_90\n      jumpi\n      tag_91\n      tag_92\n      jump\t// in\n    tag_91:\n    tag_90:\n      mload(0x40)\n      swap1\n      dup1\n      dup3\n      mstore\n      dup1\n      0x1f\n      add\n      not(0x1f)\n      and\n      0x20\n      add\n      dup3\n      add\n      0x40\n      mstore\n      dup1\n      iszero\n      tag_93\n      jumpi\n      dup2\n      0x20\n      add\n      0x01\n      dup3\n      mul\n      dup1\n      calldatasize\n      dup4\n      calldatacopy\n      dup1\n      dup3\n      add\n      swap2\n      pop\n      pop\n      swap1\n      pop\n    tag_93:\n      pop\n        /* \"contracts/DigitalVotingSystem.sol\":3573:3612  bytes memory buffer = new bytes(digits) */\n      swap1\n      pop\n        /* \"contracts/DigitalVotingSystem.sol\":3619:3742  while (v != 0) {... */\n    tag_94:\n        /* \"contracts/DigitalVotingSystem.sol\":3631:3632  0 */\n      0x00\n        /* \"contracts/DigitalVotingSystem.sol\":3626:3627  v */\n      dup6\n        /* \"contracts/DigitalVotingSystem.sol\":3626:3632  v != 0 */\n      eq\n        /* \"contracts/DigitalVotingSystem.sol\":3619:3742  while (v != 0) {... */\n      tag_95\n      jumpi\n        /* \"contracts/DigitalVotingSystem.sol\":3655:3656  1 */\n      0x01\n        /* \"contracts/DigitalVotingSystem.sol\":3645:3656  digits -= 1 */\n      dup4\n      tag_96\n      swap2\n      swap1\n      tag_97\n      jump\t// in\n    tag_96:\n      swap3\n      pop\n        /* \"contracts/DigitalVotingSystem.sol\":3711:3713  10 */\n      0x0a\n        /* \"contracts/DigitalVotingSystem.sol\":3707:3708  v */\n      dup6\n        /* \"contracts/DigitalVotingSystem.sol\":3707:3713  v % 10 */\n      tag_98\n      swap2\n      swap1\n      tag_99\n      jump\t// in\n    tag_98:\n        /* \"contracts/DigitalVotingSystem.sol\":3697:3699  48 */\n      0x30\n        /* \"contracts/DigitalVotingSystem.sol\":3697:3714  48 + uint(v % 10) */\n      tag_100\n      swap2\n      swap1\n      tag_101\n      jump\t// in\n    tag_100:\n        /* \"contracts/DigitalVotingSystem.sol\":3684:3716  bytes1(uint8(48 + uint(v % 10))) */\n      0xf8\n      shl\n        /* \"contracts/DigitalVotingSystem.sol\":3667:3673  buffer */\n      dup2\n        /* \"contracts/DigitalVotingSystem.sol\":3674:3680  digits */\n      dup5\n        /* \"contracts/DigitalVotingSystem.sol\":3667:3681  buffer[digits] */\n      dup2\n      mload\n      dup2\n      lt\n      tag_102\n      jumpi\n      tag_103\n      tag_81\n      jump\t// in\n    tag_103:\n    tag_102:\n      0x20\n      add\n      add\n        /* \"contracts/DigitalVotingSystem.sol\":3667:3716  buffer[digits] = bytes1(uint8(48 + uint(v % 10))) */\n      swap1\n      not(0xffffffffffffffffffffffffffffffffffffffffffffffffffffffffffffff)\n      and\n      swap1\n      dup2\n      0x00\n      byte\n      swap1\n      mstore8\n      pop\n        /* \"contracts/DigitalVotingSystem.sol\":3732:3734  10 */\n      0x0a\n        /* \"contracts/DigitalVotingSystem.sol\":3727:3734  v /= 10 */\n      dup6\n      tag_104\n      swap2\n      swap1\n      tag_89\n      jump\t// in\n    tag_104:\n      swap5\n      pop\n        /* \"contracts/DigitalVotingSystem.sol\":3619:3742  while (v != 0) {... */\n      jump(tag_94)\n    tag_95:\n        /* \"contracts/DigitalVotingSystem.sol\":3762:3768  buffer */\n      dup1\n        /* \"contracts/DigitalVotingSystem.sol\":3748:3769  return string(buffer) */\n      swap4\n      pop\n      pop\n      pop\n      pop\n        /* \"contracts/DigitalVotingSystem.sol\":3341:3773  function uintToString(uint v) internal pure returns (string memory) {... */\n    tag_83:\n      swap2\n      swap1\n      pop\n      jump\t// out\n        /* \"#utility.yul\":7:82   */\n    tag_105:\n        /* \"#utility.yul\":40:46   */\n      0x00\n        /* \"#utility.yul\":73:75   */\n      0x40\n        /* \"#utility.yul\":67:76   */\n      mload\n        /* \"#utility.yul\":57:76   */\n      swap1\n      pop\n        /* \"#utility.yul\":7:82   */\n      swap1\n      jump\t// out\n        /* \"#utility.yul\":88:205   */\n    tag_106:\n        /* \"#utility.yul\":197:198   */\n      0x00\n        /* \"#utility.yul\":194:195   */\n      dup1\n        /* \"#utility.yul\":187:199   */\n      revert\n        /* \"#utility.yul\":211:328   */\n    tag_107:\n        /* \"#utility.yul\":320:321   */\n      0x00\n        /* \"#utility.yul\":317:318   */\n      dup1\n        /* \"#utility.yul\":310:322   */\n      revert\n        /* \"#utility.yul\":334:411   */\n    tag_108:\n        /* \"#utility.yul\":371:378   */\n      0x00\n        /* \"#utility.yul\":400:405   */\n      dup2\n        /* \"#utility.yul\":389:405   */\n      swap1\n      pop\n        /* \"#utility.yul\":334:411   */\n      swap2\n      swap1\n      pop\n      jump\t// out\n        /* \"#utility.yul\":417:539   */\n    tag_109:\n        /* \"#utility.yul\":490:514   */\n      tag_154\n        /* \"#utility.yul\":508:513   */\n      dup2\n        /* \"#utility.yul\":490:514   */\n      tag_108\n      jump\t// in\n    tag_154:\n        /* \"#utility.yul\":483:488   */\n      dup2\n        /* \"#utility.yul\":480:515   */\n      eq\n        /* \"#utility.yul\":470:533   */\n      tag_155\n      jumpi\n        /* \"#utility.yul\":529:530   */\n      0x00\n        /* \"#utility.yul\":526:527   */\n      dup1\n        /* \"#utility.yul\":519:531   */\n      revert\n        /* \"#utility.yul\":470:533   */\n    tag_155:\n        /* \"#utility.yul\":417:539   */\n      pop\n      jump\t// out\n        /* \"#utility.yul\":545:684   */\n    tag_110:\n        /* \"#utility.yul\":591:596   */\n      0x00\n        /* \"#utility.yul\":629:635   */\n      dup2\n        /* \"#utility.yul\":616:636   */\n      calldataload\n        /* \"#utility.yul\":607:636   */\n      swap1\n      pop\n        /* \"#utility.yul\":645:678   */\n      tag_157\n        /* \"#utility.yul\":672:677   */\n      dup2\n        /* \"#utility.yul\":645:678   */\n      tag_109\n      jump\t// in\n    tag_157:\n        /* \"#utility.yul\":545:684   */\n      swap3\n      swap2\n      pop\n      pop\n      jump\t// out\n        /* \"#utility.yul\":690:1019   */\n    tag_14:\n        /* \"#utility.yul\":749:755   */\n      0x00\n        /* \"#utility.yul\":798:800   */\n      0x20\n        /* \"#utility.yul\":786:795   */\n      dup3\n        /* \"#utility.yul\":777:784   */\n      dup5\n        /* \"#utility.yul\":773:796   */\n      sub\n        /* \"#utility.yul\":769:801   */\n      slt\n        /* \"#utility.yul\":766:885   */\n      iszero\n      tag_159\n      jumpi\n        /* \"#utility.yul\":804:883   */\n      tag_160\n      tag_106\n      jump\t// in\n    tag_160:\n        /* \"#utility.yul\":766:885   */\n    tag_159:\n        /* \"#utility.yul\":924:925   */\n      0x00\n        /* \"#utility.yul\":949:1002   */\n      tag_161\n        /* \"#utility.yul\":994:1001   */\n      dup5\n        /* \"#utility.yul\":985:991   */\n      dup3\n        /* \"#utility.yul\":974:983   */\n      dup6\n        /* \"#utility.yul\":970:992   */\n      add\n        /* \"#utility.yul\":949:1002   */\n      tag_110\n      jump\t// in\n    tag_161:\n        /* \"#utility.yul\":939:1002   */\n      swap2\n      pop\n        /* \"#utility.yul\":895:1012   */\n      pop\n        /* \"#utility.yul\":690:1019   */\n      swap3\n      swap2\n      pop\n      pop\n      jump\t// out\n        /* \"#utility.yul\":1025:1151   */\n    tag_111:\n        /* \"#utility.yul\":1062:1069   */\n      0x00\n        /* \"#utility.yul\":1102:1144   */\n      0xffffffffffffffffffffffffffffffffffffffff\n        /* \"#utility.yul\":1095:1100   */\n      dup3\n        /* \"#utility.yul\":1091:1145   */\n      and\n        /* \"#utility.yul\":1080:1145   */\n      swap1\n      pop\n        /* \"#utility.yul\":1025:1151   */\n      swap2\n      swap1\n      pop\n      jump\t// out\n        /* \"#utility.yul\":1157:1253   */\n    tag_112:\n        /* \"#utility.yul\":1194:1201   */\n      0x00\n        /* \"#utility.yul\":1223:1247   */\n      tag_164\n        /* \"#utility.yul\":1241:1246   */\n      dup3\n        /* \"#utility.yul\":1223:1247   */\n      tag_111\n      jump\t// in\n    tag_164:\n        /* \"#utility.yul\":1212:1247   */\n      swap1\n      pop\n        /* \"#utility.yul\":1157:1253   */\n      swap2\n      swap1\n      pop\n      jump\t// out\n        /* \"#utility.yul\":1259:1381   */\n    tag_113:\n        /* \"#utility.yul\":1332:1356   */\n      tag_166\n        /* \"#utility.yul\":1350:1355   */\n      dup2\n        /* \"#utility.yul\":1332:1356   */\n      tag_112\n      jump\t// in\n    tag_166:\n        /* \"#utility.yul\":1325:1330   */\n      dup2\n        /* \"#utility.yul\":1322:1357   */\n      eq\n        /* \"#utility.yul\":1312:1375   */\n      tag_167\n      jumpi\n        /* \"#utility.yul\":1371:1372   */\n      0x00\n        /* \"#utility.yul\":1368:1369   */\n      dup1\n        /* \"#utility.yul\":1361:1373   */\n      revert\n        /* \"#utility.yul\":1312:1375   */\n    tag_167:\n        /* \"#utility.yul\":1259:1381   */\n      pop\n      jump\t// out\n        /* \"#utility.yul\":1387:1526   */\n    tag_114:\n        /* \"#utility.yul\":1433:1438   */\n      0x00\n        /* \"#utility.yul\":1471:1477   */\n      dup2\n        /* \"#utility.yul\":1458:1478   */\n      calldataload\n        /* \"#utility.yul\":1449:1478   */\n      swap1\n      pop\n        /* \"#utility.yul\":1487:1520   */\n      tag_169\n        /* \"#utility.yul\":1514:1519   */\n      dup2\n        /* \"#utility.yul\":1487:1520   */\n      tag_113\n      jump\t// in\n    tag_169:\n        /* \"#utility.yul\":1387:1526   */\n      swap3\n      swap2\n      pop\n      pop\n      jump\t// out\n        /* \"#utility.yul\":1532:1861   */\n    tag_18:\n        /* \"#utility.yul\":1591:1597   */\n      0x00\n        /* \"#utility.yul\":1640:1642   */\n      0x20\n        /* \"#utility.yul\":1628:1637   */\n      dup3\n        /* \"#utility.yul\":1619:1626   */\n      dup5\n        /* \"#utility.yul\":1615:1638   */\n      sub\n        /* \"#utility.yul\":1611:1643   */\n      slt\n        /* \"#utility.yul\":1608:1727   */\n      iszero\n      tag_171\n      jumpi\n        /* \"#utility.yul\":1646:1725   */\n      tag_172\n      tag_106\n      jump\t// in\n    tag_172:\n        /* \"#utility.yul\":1608:1727   */\n    tag_171:\n        /* \"#utility.yul\":1766:1767   */\n      0x00\n        /* \"#utility.yul\":1791:1844   */\n      tag_173\n        /* \"#utility.yul\":1836:1843   */\n      dup5\n        /* \"#utility.yul\":1827:1833   */\n      dup3\n        /* \"#utility.yul\":1816:1825   */\n      dup6\n        /* \"#utility.yul\":1812:1834   */\n      add\n        /* \"#utility.yul\":1791:1844   */\n      tag_114\n      jump\t// in\n    tag_173:\n        /* \"#utility.yul\":1781:1844   */\n      swap2\n      pop\n        /* \"#utility.yul\":1737:1854   */\n      pop\n        /* \"#utility.yul\":1532:1861   */\n      swap3\n      swap2\n      pop\n      pop\n      jump\t// out\n        /* \"#utility.yul\":1867:1957   */\n    tag_115:\n        /* \"#utility.yul\":1901:1908   */\n      0x00\n        /* \"#utility.yul\":1944:1949   */\n      dup2\n        /* \"#utility.yul\":1937:1950   */\n      iszero\n        /* \"#utility.yul\":1930:1951   */\n      iszero\n        /* \"#utility.yul\":1919:1951   */\n      swap1\n      pop\n        /* \"#utility.yul\":1867:1957   */\n      swap2\n      swap1\n      pop\n      jump\t// out\n        /* \"#utility.yul\":1963:2072   */\n    tag_116:\n        /* \"#utility.yul\":2044:2065   */\n      tag_176\n        /* \"#utility.yul\":2059:2064   */\n      dup2\n        /* \"#utility.yul\":2044:2065   */\n      tag_115\n      jump\t// in\n    tag_176:\n        /* \"#utility.yul\":2039:2042   */\n      dup3\n        /* \"#utility.yul\":2032:2066   */\n      mstore\n        /* \"#utility.yul\":1963:2072   */\n      pop\n      pop\n      jump\t// out\n        /* \"#utility.yul\":2078:2288   */\n    tag_21:\n        /* \"#utility.yul\":2165:2169   */\n      0x00\n        /* \"#utility.yul\":2203:2205   */\n      0x20\n        /* \"#utility.yul\":2192:2201   */\n      dup3\n        /* \"#utility.yul\":2188:2206   */\n      add\n        /* \"#utility.yul\":2180:2206   */\n      swap1\n      pop\n        /* \"#utility.yul\":2216:2281   */\n      tag_178\n        /* \"#utility.yul\":2278:2279   */\n      0x00\n        /* \"#utility.yul\":2267:2276   */\n      dup4\n        /* \"#utility.yul\":2263:2280   */\n      add\n        /* \"#utility.yul\":2254:2260   */\n      dup5\n        /* \"#utility.yul\":2216:2281   */\n      tag_116\n      jump\t// in\n    tag_178:\n        /* \"#utility.yul\":2078:2288   */\n      swap3\n      swap2\n      pop\n      pop\n      jump\t// out\n        /* \"#utility.yul\":2294:2412   */\n    tag_117:\n        /* \"#utility.yul\":2381:2405   */\n      tag_180\n        /* \"#utility.yul\":2399:2404   */\n      dup2\n        /* \"#utility.yul\":2381:2405   */\n      tag_108\n      jump\t// in\n    tag_180:\n        /* \"#utility.yul\":2376:2379   */\n      dup3\n        /* \"#utility.yul\":2369:2406   */\n      mstore\n        /* \"#utility.yul\":2294:2412   */\n      pop\n      pop\n      jump\t// out\n        /* \"#utility.yul\":2418:2640   */\n    tag_25:\n        /* \"#utility.yul\":2511:2515   */\n      0x00\n        /* \"#utility.yul\":2549:2551   */\n      0x20\n        /* \"#utility.yul\":2538:2547   */\n      dup3\n        /* \"#utility.yul\":2534:2552   */\n      add\n        /* \"#utility.yul\":2526:2552   */\n      swap1\n      pop\n        /* \"#utility.yul\":2562:2633   */\n      tag_182\n        /* \"#utility.yul\":2630:2631   */\n      0x00\n        /* \"#utility.yul\":2619:2628   */\n      dup4\n        /* \"#utility.yul\":2615:2632   */\n      add\n        /* \"#utility.yul\":2606:2612   */\n      dup5\n        /* \"#utility.yul\":2562:2633   */\n      tag_117\n      jump\t// in\n    tag_182:\n        /* \"#utility.yul\":2418:2640   */\n      swap3\n      swap2\n      pop\n      pop\n      jump\t// out\n        /* \"#utility.yul\":2646:2745   */\n    tag_118:\n        /* \"#utility.yul\":2698:2704   */\n      0x00\n        /* \"#utility.yul\":2732:2737   */\n      dup2\n        /* \"#utility.yul\":2726:2738   */\n      mload\n        /* \"#utility.yul\":2716:2738   */\n      swap1\n      pop\n        /* \"#utility.yul\":2646:2745   */\n      swap2\n      swap1\n      pop\n      jump\t// out\n        /* \"#utility.yul\":2751:2920   */\n    tag_119:\n        /* \"#utility.yul\":2835:2846   */\n      0x00\n        /* \"#utility.yul\":2869:2875   */\n      dup3\n        /* \"#utility.yul\":2864:2867   */\n      dup3\n        /* \"#utility.yul\":2857:2876   */\n      mstore\n        /* \"#utility.yul\":2909:2913   */\n      0x20\n        /* \"#utility.yul\":2904:2907   */\n      dup3\n        /* \"#utility.yul\":2900:2914   */\n      add\n        /* \"#utility.yul\":2885:2914   */\n      swap1\n      pop\n        /* \"#utility.yul\":2751:2920   */\n      swap3\n      swap2\n      pop\n      pop\n      jump\t// out\n        /* \"#utility.yul\":2926:3065   */\n    tag_120:\n        /* \"#utility.yul\":3015:3021   */\n      dup3\n        /* \"#utility.yul\":3010:3013   */\n      dup2\n        /* \"#utility.yul\":3005:3008   */\n      dup4\n        /* \"#utility.yul\":2999:3022   */\n      mcopy\n        /* \"#utility.yul\":3056:3057   */\n      0x00\n        /* \"#utility.yul\":3047:3053   */\n      dup4\n        /* \"#utility.yul\":3042:3045   */\n      dup4\n        /* \"#utility.yul\":3038:3054   */\n      add\n        /* \"#utility.yul\":3031:3058   */\n      mstore\n        /* \"#utility.yul\":2926:3065   */\n      pop\n      pop\n      pop\n      jump\t// out\n        /* \"#utility.yul\":3071:3173   */\n    tag_121:\n        /* \"#utility.yul\":3112:3118   */\n      0x00\n        /* \"#utility.yul\":3163:3165   */\n      0x1f\n        /* \"#utility.yul\":3159:3166   */\n      not\n        /* \"#utility.yul\":3154:3156   */\n      0x1f\n        /* \"#utility.yul\":3147:3152   */\n      dup4\n        /* \"#utility.yul\":3143:3157   */\n      add\n        /* \"#utility.yul\":3139:3167   */\n      and\n        /* \"#utility.yul\":3129:3167   */\n      swap1\n      pop\n        /* \"#utility.yul\":3071:3173   */\n      swap2\n      swap1\n      pop\n      jump\t// out\n        /* \"#utility.yul\":3179:3556   */\n    tag_122:\n        /* \"#utility.yul\":3267:3270   */\n      0x00\n        /* \"#utility.yul\":3295:3334   */\n      tag_188\n        /* \"#utility.yul\":3328:3333   */\n      dup3\n        /* \"#utility.yul\":3295:3334   */\n      tag_118\n      jump\t// in\n    tag_188:\n        /* \"#utility.yul\":3350:3421   */\n      tag_189\n        /* \"#utility.yul\":3414:3420   */\n      dup2\n        /* \"#utility.yul\":3409:3412   */\n      dup6\n        /* \"#utility.yul\":3350:3421   */\n      tag_119\n      jump\t// in\n    tag_189:\n        /* \"#utility.yul\":3343:3421   */\n      swap4\n      pop\n        /* \"#utility.yul\":3430:3495   */\n      tag_190\n        /* \"#utility.yul\":3488:3494   */\n      dup2\n        /* \"#utility.yul\":3483:3486   */\n      dup6\n        /* \"#utility.yul\":3476:3480   */\n      0x20\n        /* \"#utility.yul\":3469:3474   */\n      dup7\n        /* \"#utility.yul\":3465:3481   */\n      add\n        /* \"#utility.yul\":3430:3495   */\n      tag_120\n      jump\t// in\n    tag_190:\n        /* \"#utility.yul\":3520:3549   */\n      tag_191\n        /* \"#utility.yul\":3542:3548   */\n      dup2\n        /* \"#utility.yul\":3520:3549   */\n      tag_121\n      jump\t// in\n    tag_191:\n        /* \"#utility.yul\":3515:3518   */\n      dup5\n        /* \"#utility.yul\":3511:3550   */\n      add\n        /* \"#utility.yul\":3504:3550   */\n      swap2\n      pop\n        /* \"#utility.yul\":3271:3556   */\n      pop\n        /* \"#utility.yul\":3179:3556   */\n      swap3\n      swap2\n      pop\n      pop\n      jump\t// out\n        /* \"#utility.yul\":3562:4095   */\n    tag_30:\n        /* \"#utility.yul\":3731:3735   */\n      0x00\n        /* \"#utility.yul\":3769:3771   */\n      0x60\n        /* \"#utility.yul\":3758:3767   */\n      dup3\n        /* \"#utility.yul\":3754:3772   */\n      add\n        /* \"#utility.yul\":3746:3772   */\n      swap1\n      pop\n        /* \"#utility.yul\":3782:3853   */\n      tag_193\n        /* \"#utility.yul\":3850:3851   */\n      0x00\n        /* \"#utility.yul\":3839:3848   */\n      dup4\n        /* \"#utility.yul\":3835:3852   */\n      add\n        /* \"#utility.yul\":3826:3832   */\n      dup7\n        /* \"#utility.yul\":3782:3853   */\n      tag_117\n      jump\t// in\n    tag_193:\n        /* \"#utility.yul\":3900:3909   */\n      dup2\n        /* \"#utility.yul\":3894:3898   */\n      dup2\n        /* \"#utility.yul\":3890:3910   */\n      sub\n        /* \"#utility.yul\":3885:3887   */\n      0x20\n        /* \"#utility.yul\":3874:3883   */\n      dup4\n        /* \"#utility.yul\":3870:3888   */\n      add\n        /* \"#utility.yul\":3863:3911   */\n      mstore\n        /* \"#utility.yul\":3928:4006   */\n      tag_194\n        /* \"#utility.yul\":4001:4005   */\n      dup2\n        /* \"#utility.yul\":3992:3998   */\n      dup6\n        /* \"#utility.yul\":3928:4006   */\n      tag_122\n      jump\t// in\n    tag_194:\n        /* \"#utility.yul\":3920:4006   */\n      swap1\n      pop\n        /* \"#utility.yul\":4016:4088   */\n      tag_195\n        /* \"#utility.yul\":4084:4086   */\n      0x40\n        /* \"#utility.yul\":4073:4082   */\n      dup4\n        /* \"#utility.yul\":4069:4087   */\n      add\n        /* \"#utility.yul\":4060:4066   */\n      dup5\n        /* \"#utility.yul\":4016:4088   */\n      tag_117\n      jump\t// in\n    tag_195:\n        /* \"#utility.yul\":3562:4095   */\n      swap5\n      swap4\n      pop\n      pop\n      pop\n      pop\n      jump\t// out\n        /* \"#utility.yul\":4101:4414   */\n    tag_34:\n        /* \"#utility.yul\":4214:4218   */\n      0x00\n        /* \"#utility.yul\":4252:4254   */\n      0x20\n        /* \"#utility.yul\":4241:4250   */\n      dup3\n        /* \"#utility.yul\":4237:4255   */\n      add\n        /* \"#utility.yul\":4229:4255   */\n      swap1\n      pop\n        /* \"#utility.yul\":4301:4310   */\n      dup2\n        /* \"#utility.yul\":4295:4299   */\n      dup2\n        /* \"#utility.yul\":4291:4311   */\n      sub\n        /* \"#utility.yul\":4287:4288   */\n      0x00\n        /* \"#utility.yul\":4276:4285   */\n      dup4\n        /* \"#utility.yul\":4272:4289   */\n      add\n        /* \"#utility.yul\":4265:4312   */\n      mstore\n        /* \"#utility.yul\":4329:4407   */\n      tag_197\n        /* \"#utility.yul\":4402:4406   */\n      dup2\n        /* \"#utility.yul\":4393:4399   */\n      dup5\n        /* \"#utility.yul\":4329:4407   */\n      tag_122\n      jump\t// in\n    tag_197:\n        /* \"#utility.yul\":4321:4407   */\n      swap1\n      pop\n        /* \"#utility.yul\":4101:4414   */\n      swap3\n      swap2\n      pop\n      pop\n      jump\t// out\n        /* \"#utility.yul\":4420:4537   */\n    tag_123:\n        /* \"#utility.yul\":4529:4530   */\n      0x00\n        /* \"#utility.yul\":4526:4527   */\n      dup1\n        /* \"#utility.yul\":4519:4531   */\n      revert\n        /* \"#utility.yul\":4543:4723   */\n    tag_92:\n        /* \"#utility.yul\":4591:4668   */\n      0x4e487b7100000000000000000000000000000000000000000000000000000000\n        /* \"#utility.yul\":4588:4589   */\n      0x00\n        /* \"#utility.yul\":4581:4669   */\n      mstore\n        /* \"#utility.yul\":4688:4692   */\n      0x41\n        /* \"#utility.yul\":4685:4686   */\n      0x04\n        /* \"#utility.yul\":4678:4693   */\n      mstore\n        /* \"#utility.yul\":4712:4716   */\n      0x24\n        /* \"#utility.yul\":4709:4710   */\n      0x00\n        /* \"#utility.yul\":4702:4717   */\n      revert\n        /* \"#utility.yul\":4729:5010   */\n    tag_124:\n        /* \"#utility.yul\":4812:4839   */\n      tag_201\n        /* \"#utility.yul\":4834:4838   */\n      dup3\n        /* \"#utility.yul\":4812:4839   */\n      tag_121\n      jump\t// in\n    tag_201:\n        /* \"#utility.yul\":4804:4810   */\n      dup2\n        /* \"#utility.yul\":4800:4840   */\n      add\n        /* \"#utility.yul\":4942:4948   */\n      dup2\n        /* \"#utility.yul\":4930:4940   */\n      dup2\n        /* \"#utility.yul\":4927:4949   */\n      lt\n        /* \"#utility.yul\":4906:4924   */\n      0xffffffffffffffff\n        /* \"#utility.yul\":4894:4904   */\n      dup3\n        /* \"#utility.yul\":4891:4925   */\n      gt\n        /* \"#utility.yul\":4888:4950   */\n      or\n        /* \"#utility.yul\":4885:4973   */\n      iszero\n      tag_202\n      jumpi\n        /* \"#utility.yul\":4953:4971   */\n      tag_203\n      tag_92\n      jump\t// in\n    tag_203:\n        /* \"#utility.yul\":4885:4973   */\n    tag_202:\n        /* \"#utility.yul\":4993:5003   */\n      dup1\n        /* \"#utility.yul\":4989:4991   */\n      0x40\n        /* \"#utility.yul\":4982:5004   */\n      mstore\n        /* \"#utility.yul\":4772:5010   */\n      pop\n        /* \"#utility.yul\":4729:5010   */\n      pop\n      pop\n      jump\t// out\n        /* \"#utility.yul\":5016:5145   */\n    tag_125:\n        /* \"#utility.yul\":5050:5056   */\n      0x00\n        /* \"#utility.yul\":5077:5097   */\n      tag_205\n      tag_105\n      jump\t// in\n    tag_205:\n        /* \"#utility.yul\":5067:5097   */\n      swap1\n      pop\n        /* \"#utility.yul\":5106:5139   */\n      tag_206\n        /* \"#utility.yul\":5134:5138   */\n      dup3\n        /* \"#utility.yul\":5126:5132   */\n      dup3\n        /* \"#utility.yul\":5106:5139   */\n      tag_124\n      jump\t// in\n    tag_206:\n        /* \"#utility.yul\":5016:5145   */\n      swap2\n      swap1\n      pop\n      jump\t// out\n        /* \"#utility.yul\":5151:5462   */\n    tag_126:\n        /* \"#utility.yul\":5228:5232   */\n      0x00\n        /* \"#utility.yul\":5318:5336   */\n      0xffffffffffffffff\n        /* \"#utility.yul\":5310:5316   */\n      dup3\n        /* \"#utility.yul\":5307:5337   */\n      gt\n        /* \"#utility.yul\":5304:5360   */\n      iszero\n      tag_208\n      jumpi\n        /* \"#utility.yul\":5340:5358   */\n      tag_209\n      tag_92\n      jump\t// in\n    tag_209:\n        /* \"#utility.yul\":5304:5360   */\n    tag_208:\n        /* \"#utility.yul\":5390:5394   */\n      0x20\n        /* \"#utility.yul\":5382:5388   */\n      dup3\n        /* \"#utility.yul\":5378:5395   */\n      mul\n        /* \"#utility.yul\":5370:5395   */\n      swap1\n      pop\n        /* \"#utility.yul\":5450:5454   */\n      0x20\n        /* \"#utility.yul\":5444:5448   */\n      dup2\n        /* \"#utility.yul\":5440:5455   */\n      add\n        /* \"#utility.yul\":5432:5455   */\n      swap1\n      pop\n        /* \"#utility.yul\":5151:5462   */\n      swap2\n      swap1\n      pop\n      jump\t// out\n        /* \"#utility.yul\":5468:5585   */\n    tag_127:\n        /* \"#utility.yul\":5577:5578   */\n      0x00\n        /* \"#utility.yul\":5574:5575   */\n      dup1\n        /* \"#utility.yul\":5567:5579   */\n      revert\n        /* \"#utility.yul\":5608:6318   */\n    tag_128:\n        /* \"#utility.yul\":5704:5709   */\n      0x00\n        /* \"#utility.yul\":5729:5810   */\n      tag_212\n        /* \"#utility.yul\":5745:5809   */\n      tag_213\n        /* \"#utility.yul\":5802:5808   */\n      dup5\n        /* \"#utility.yul\":5745:5809   */\n      tag_126\n      jump\t// in\n    tag_213:\n        /* \"#utility.yul\":5729:5810   */\n      tag_125\n      jump\t// in\n    tag_212:\n        /* \"#utility.yul\":5720:5810   */\n      swap1\n      pop\n        /* \"#utility.yul\":5830:5835   */\n      dup1\n        /* \"#utility.yul\":5859:5865   */\n      dup4\n        /* \"#utility.yul\":5852:5857   */\n      dup3\n        /* \"#utility.yul\":5845:5866   */\n      mstore\n        /* \"#utility.yul\":5893:5897   */\n      0x20\n        /* \"#utility.yul\":5886:5891   */\n      dup3\n        /* \"#utility.yul\":5882:5898   */\n      add\n        /* \"#utility.yul\":5875:5898   */\n      swap1\n      pop\n        /* \"#utility.yul\":5946:5950   */\n      0x20\n        /* \"#utility.yul\":5938:5944   */\n      dup5\n        /* \"#utility.yul\":5934:5951   */\n      mul\n        /* \"#utility.yul\":5926:5932   */\n      dup4\n        /* \"#utility.yul\":5922:5952   */\n      add\n        /* \"#utility.yul\":5975:5978   */\n      dup6\n        /* \"#utility.yul\":5967:5973   */\n      dup2\n        /* \"#utility.yul\":5964:5979   */\n      gt\n        /* \"#utility.yul\":5961:6083   */\n      iszero\n      tag_214\n      jumpi\n        /* \"#utility.yul\":5994:6073   */\n      tag_215\n      tag_127\n      jump\t// in\n    tag_215:\n        /* \"#utility.yul\":5961:6083   */\n    tag_214:\n        /* \"#utility.yul\":6109:6115   */\n      dup4\n        /* \"#utility.yul\":6092:6312   */\n    tag_216:\n        /* \"#utility.yul\":6126:6132   */\n      dup2\n        /* \"#utility.yul\":6121:6124   */\n      dup2\n        /* \"#utility.yul\":6118:6133   */\n      lt\n        /* \"#utility.yul\":6092:6312   */\n      iszero\n      tag_218\n      jumpi\n        /* \"#utility.yul\":6201:6204   */\n      dup1\n        /* \"#utility.yul\":6230:6267   */\n      tag_219\n        /* \"#utility.yul\":6263:6266   */\n      dup9\n        /* \"#utility.yul\":6251:6261   */\n      dup3\n        /* \"#utility.yul\":6230:6267   */\n      tag_110\n      jump\t// in\n    tag_219:\n        /* \"#utility.yul\":6225:6228   */\n      dup5\n        /* \"#utility.yul\":6218:6268   */\n      mstore\n        /* \"#utility.yul\":6297:6301   */\n      0x20\n        /* \"#utility.yul\":6292:6295   */\n      dup5\n        /* \"#utility.yul\":6288:6302   */\n      add\n        /* \"#utility.yul\":6281:6302   */\n      swap4\n      pop\n        /* \"#utility.yul\":6168:6312   */\n      pop\n        /* \"#utility.yul\":6152:6156   */\n      0x20\n        /* \"#utility.yul\":6147:6150   */\n      dup2\n        /* \"#utility.yul\":6143:6157   */\n      add\n        /* \"#utility.yul\":6136:6157   */\n      swap1\n      pop\n        /* \"#utility.yul\":6092:6312   */\n      jump(tag_216)\n    tag_218:\n        /* \"#utility.yul\":6096:6117   */\n      pop\n        /* \"#utility.yul\":5710:6318   */\n      pop\n      pop\n        /* \"#utility.yul\":5608:6318   */\n      swap4\n      swap3\n      pop\n      pop\n      pop\n      jump\t// out\n        /* \"#utility.yul\":6341:6711   */\n    tag_129:\n        /* \"#utility.yul\":6412:6417   */\n      0x00\n        /* \"#utility.yul\":6461:6464   */\n      dup3\n        /* \"#utility.yul\":6454:6458   */\n      0x1f\n        /* \"#utility.yul\":6446:6452   */\n      dup4\n        /* \"#utility.yul\":6442:6459   */\n      add\n        /* \"#utility.yul\":6438:6465   */\n      slt\n        /* \"#utility.yul\":6428:6550   */\n      tag_221\n      jumpi\n        /* \"#utility.yul\":6469:6548   */\n      tag_222\n      tag_123\n      jump\t// in\n    tag_222:\n        /* \"#utility.yul\":6428:6550   */\n    tag_221:\n        /* \"#utility.yul\":6586:6592   */\n      dup2\n        /* \"#utility.yul\":6573:6593   */\n      calldataload\n        /* \"#utility.yul\":6611:6705   */\n      tag_223\n        /* \"#utility.yul\":6701:6704   */\n      dup5\n        /* \"#utility.yul\":6693:6699   */\n      dup3\n        /* \"#utility.yul\":6686:6690   */\n      0x20\n        /* \"#utility.yul\":6678:6684   */\n      dup7\n        /* \"#utility.yul\":6674:6691   */\n      add\n        /* \"#utility.yul\":6611:6705   */\n      tag_128\n      jump\t// in\n    tag_223:\n        /* \"#utility.yul\":6602:6705   */\n      swap2\n      pop\n        /* \"#utility.yul\":6418:6711   */\n      pop\n        /* \"#utility.yul\":6341:6711   */\n      swap3\n      swap2\n      pop\n      pop\n      jump\t// out\n        /* \"#utility.yul\":6717:7256   */\n    tag_37:\n        /* \"#utility.yul\":6801:6807   */\n      0x00\n        /* \"#utility.yul\":6850:6852   */\n      0x20\n        /* \"#utility.yul\":6838:6847   */\n      dup3\n        /* \"#utility.yul\":6829:6836   */\n      dup5\n        /* \"#utility.yul\":6825:6848   */\n      sub\n        /* \"#utility.yul\":6821:6853   */\n      slt\n        /* \"#utility.yul\":6818:6937   */\n      iszero\n      tag_225\n      jumpi\n        /* \"#utility.yul\":6856:6935   */\n      tag_226\n      tag_106\n      jump\t// in\n    tag_226:\n        /* \"#utility.yul\":6818:6937   */\n    tag_225:\n        /* \"#utility.yul\":7004:7005   */\n      0x00\n        /* \"#utility.yul\":6993:7002   */\n      dup3\n        /* \"#utility.yul\":6989:7006   */\n      add\n        /* \"#utility.yul\":6976:7007   */\n      calldataload\n        /* \"#utility.yul\":7034:7052   */\n      0xffffffffffffffff\n        /* \"#utility.yul\":7026:7032   */\n      dup2\n        /* \"#utility.yul\":7023:7053   */\n      gt\n        /* \"#utility.yul\":7020:7137   */\n      iszero\n      tag_227\n      jumpi\n        /* \"#utility.yul\":7056:7135   */\n      tag_228\n      tag_107\n      jump\t// in\n    tag_228:\n        /* \"#utility.yul\":7020:7137   */\n    tag_227:\n        /* \"#utility.yul\":7161:7239   */\n      tag_229\n        /* \"#utility.yul\":7231:7238   */\n      dup5\n        /* \"#utility.yul\":7222:7228   */\n      dup3\n        /* \"#utility.yul\":7211:7220   */\n      dup6\n        /* \"#utility.yul\":7207:7229   */\n      add\n        /* \"#utility.yul\":7161:7239   */\n      tag_129\n      jump\t// in\n    tag_229:\n        /* \"#utility.yul\":7151:7239   */\n      swap2\n      pop\n        /* \"#utility.yul\":6947:7249   */\n      pop\n        /* \"#utility.yul\":6717:7256   */\n      swap3\n      swap2\n      pop\n      pop\n      jump\t// out\n        /* \"#utility.yul\":7262:7435   */\n    tag_130:\n        /* \"#utility.yul\":7402:7427   */\n      0x596f75206861766520616c726561647920766f7465642e000000000000000000\n        /* \"#utility.yul\":7398:7399   */\n      0x00\n        /* \"#utility.yul\":7390:7396   */\n      dup3\n        /* \"#utility.yul\":7386:7400   */\n      add\n        /* \"#utility.yul\":7379:7428   */\n      mstore\n        /* \"#utility.yul\":7262:7435   */\n      pop\n      jump\t// out\n        /* \"#utility.yul\":7441:7807   */\n    tag_131:\n        /* \"#utility.yul\":7583:7586   */\n      0x00\n        /* \"#utility.yul\":7604:7671   */\n      tag_232\n        /* \"#utility.yul\":7668:7670   */\n      0x17\n        /* \"#utility.yul\":7663:7666   */\n      dup4\n        /* \"#utility.yul\":7604:7671   */\n      tag_119\n      jump\t// in\n    tag_232:\n        /* \"#utility.yul\":7597:7671   */\n      swap2\n      pop\n        /* \"#utility.yul\":7680:7773   */\n      tag_233\n        /* \"#utility.yul\":7769:7772   */\n      dup3\n        /* \"#utility.yul\":7680:7773   */\n      tag_130\n      jump\t// in\n    tag_233:\n        /* \"#utility.yul\":7798:7800   */\n      0x20\n        /* \"#utility.yul\":7793:7796   */\n      dup3\n        /* \"#utility.yul\":7789:7801   */\n      add\n        /* \"#utility.yul\":7782:7801   */\n      swap1\n      pop\n        /* \"#utility.yul\":7441:7807   */\n      swap2\n      swap1\n      pop\n      jump\t// out\n        /* \"#utility.yul\":7813:8232   */\n    tag_47:\n        /* \"#utility.yul\":7979:7983   */\n      0x00\n        /* \"#utility.yul\":8017:8019   */\n      0x20\n        /* \"#utility.yul\":8006:8015   */\n      dup3\n        /* \"#utility.yul\":8002:8020   */\n      add\n        /* \"#utility.yul\":7994:8020   */\n      swap1\n      pop\n        /* \"#utility.yul\":8066:8075   */\n      dup2\n        /* \"#utility.yul\":8060:8064   */\n      dup2\n        /* \"#utility.yul\":8056:8076   */\n      sub\n        /* \"#utility.yul\":8052:8053   */\n      0x00\n        /* \"#utility.yul\":8041:8050   */\n      dup4\n        /* \"#utility.yul\":8037:8054   */\n      add\n        /* \"#utility.yul\":8030:8077   */\n      mstore\n        /* \"#utility.yul\":8094:8225   */\n      tag_235\n        /* \"#utility.yul\":8220:8224   */\n      dup2\n        /* \"#utility.yul\":8094:8225   */\n      tag_131\n      jump\t// in\n    tag_235:\n        /* \"#utility.yul\":8086:8225   */\n      swap1\n      pop\n        /* \"#utility.yul\":7813:8232   */\n      swap2\n      swap1\n      pop\n      jump\t// out\n        /* \"#utility.yul\":8238:8478   */\n    tag_132:\n        /* \"#utility.yul\":8378:8412   */\n      0x496e76616c69642063616e6469646174652049442e2050726573732030206966\n        /* \"#utility.yul\":8374:8375   */\n      0x00\n        /* \"#utility.yul\":8366:8372   */\n      dup3\n        /* \"#utility.yul\":8362:8376   */\n      add\n        /* \"#utility.yul\":8355:8413   */\n      mstore\n        /* \"#utility.yul\":8447:8470   */\n      0x20796f75207769746820746f204162737461696e2e0000000000000000000000\n        /* \"#utility.yul\":8442:8444   */\n      0x20\n        /* \"#utility.yul\":8434:8440   */\n      dup3\n        /* \"#utility.yul\":8430:8445   */\n      add\n        /* \"#utility.yul\":8423:8471   */\n      mstore\n        /* \"#utility.yul\":8238:8478   */\n      pop\n      jump\t// out\n        /* \"#utility.yul\":8484:8850   */\n    tag_133:\n        /* \"#utility.yul\":8626:8629   */\n      0x00\n        /* \"#utility.yul\":8647:8714   */\n      tag_238\n        /* \"#utility.yul\":8711:8713   */\n      0x35\n        /* \"#utility.yul\":8706:8709   */\n      dup4\n        /* \"#utility.yul\":8647:8714   */\n      tag_119\n      jump\t// in\n    tag_238:\n        /* \"#utility.yul\":8640:8714   */\n      swap2\n      pop\n        /* \"#utility.yul\":8723:8816   */\n      tag_239\n        /* \"#utility.yul\":8812:8815   */\n      dup3\n        /* \"#utility.yul\":8723:8816   */\n      tag_132\n      jump\t// in\n    tag_239:\n        /* \"#utility.yul\":8841:8843   */\n      0x40\n        /* \"#utility.yul\":8836:8839   */\n      dup3\n        /* \"#utility.yul\":8832:8844   */\n      add\n        /* \"#utility.yul\":8825:8844   */\n      swap1\n      pop\n        /* \"#utility.yul\":8484:8850   */\n      swap2\n      swap1\n      pop\n      jump\t// out\n        /* \"#utility.yul\":8856:9275   */\n    tag_52:\n        /* \"#utility.yul\":9022:9026   */\n      0x00\n        /* \"#utility.yul\":9060:9062   */\n      0x20\n        /* \"#utility.yul\":9049:9058   */\n      dup3\n        /* \"#utility.yul\":9045:9063   */\n      add\n        /* \"#utility.yul\":9037:9063   */\n      swap1\n      pop\n        /* \"#utility.yul\":9109:9118   */\n      dup2\n        /* \"#utility.yul\":9103:9107   */\n      dup2\n        /* \"#utility.yul\":9099:9119   */\n      sub\n        /* \"#utility.yul\":9095:9096   */\n      0x00\n        /* \"#utility.yul\":9084:9093   */\n      dup4\n        /* \"#utility.yul\":9080:9097   */\n      add\n        /* \"#utility.yul\":9073:9120   */\n      mstore\n        /* \"#utility.yul\":9137:9268   */\n      tag_241\n        /* \"#utility.yul\":9263:9267   */\n      dup2\n        /* \"#utility.yul\":9137:9268   */\n      tag_133\n      jump\t// in\n    tag_241:\n        /* \"#utility.yul\":9129:9268   */\n      swap1\n      pop\n        /* \"#utility.yul\":8856:9275   */\n      swap2\n      swap1\n      pop\n      jump\t// out\n        /* \"#utility.yul\":9281:9461   */\n    tag_134:\n        /* \"#utility.yul\":9329:9406   */\n      0x4e487b7100000000000000000000000000000000000000000000000000000000\n        /* \"#utility.yul\":9326:9327   */\n      0x00\n        /* \"#utility.yul\":9319:9407   */\n      mstore\n        /* \"#utility.yul\":9426:9430   */\n      0x11\n        /* \"#utility.yul\":9423:9424   */\n      0x04\n        /* \"#utility.yul\":9416:9431   */\n      mstore\n        /* \"#utility.yul\":9450:9454   */\n      0x24\n        /* \"#utility.yul\":9447:9448   */\n      0x00\n        /* \"#utility.yul\":9440:9455   */\n      revert\n        /* \"#utility.yul\":9467:9700   */\n    tag_55:\n        /* \"#utility.yul\":9506:9509   */\n      0x00\n        /* \"#utility.yul\":9529:9553   */\n      tag_244\n        /* \"#utility.yul\":9547:9552   */\n      dup3\n        /* \"#utility.yul\":9529:9553   */\n      tag_108\n      jump\t// in\n    tag_244:\n        /* \"#utility.yul\":9520:9553   */\n      swap2\n      pop\n        /* \"#utility.yul\":9575:9641   */\n      0xffffffffffffffffffffffffffffffffffffffffffffffffffffffffffffffff\n        /* \"#utility.yul\":9568:9573   */\n      dup3\n        /* \"#utility.yul\":9565:9642   */\n      sub\n        /* \"#utility.yul\":9562:9665   */\n      tag_245\n      jumpi\n        /* \"#utility.yul\":9645:9663   */\n      tag_246\n      tag_134\n      jump\t// in\n    tag_246:\n        /* \"#utility.yul\":9562:9665   */\n    tag_245:\n        /* \"#utility.yul\":9692:9693   */\n      0x01\n        /* \"#utility.yul\":9685:9690   */\n      dup3\n        /* \"#utility.yul\":9681:9694   */\n      add\n        /* \"#utility.yul\":9674:9694   */\n      swap1\n      pop\n        /* \"#utility.yul\":9467:9700   */\n      swap2\n      swap1\n      pop\n      jump\t// out\n        /* \"#utility.yul\":9706:9824   */\n    tag_135:\n        /* \"#utility.yul\":9793:9817   */\n      tag_248\n        /* \"#utility.yul\":9811:9816   */\n      dup2\n        /* \"#utility.yul\":9793:9817   */\n      tag_112\n      jump\t// in\n    tag_248:\n        /* \"#utility.yul\":9788:9791   */\n      dup3\n        /* \"#utility.yul\":9781:9818   */\n      mstore\n        /* \"#utility.yul\":9706:9824   */\n      pop\n      pop\n      jump\t// out\n        /* \"#utility.yul\":9830:10162   */\n    tag_60:\n        /* \"#utility.yul\":9951:9955   */\n      0x00\n        /* \"#utility.yul\":9989:9991   */\n      0x40\n        /* \"#utility.yul\":9978:9987   */\n      dup3\n        /* \"#utility.yul\":9974:9992   */\n      add\n        /* \"#utility.yul\":9966:9992   */\n      swap1\n      pop\n        /* \"#utility.yul\":10002:10073   */\n      tag_250\n        /* \"#utility.yul\":10070:10071   */\n      0x00\n        /* \"#utility.yul\":10059:10068   */\n      dup4\n        /* \"#utility.yul\":10055:10072   */\n      add\n        /* \"#utility.yul\":10046:10052   */\n      dup6\n        /* \"#utility.yul\":10002:10073   */\n      tag_135\n      jump\t// in\n    tag_250:\n        /* \"#utility.yul\":10083:10155   */\n      tag_251\n        /* \"#utility.yul\":10151:10153   */\n      0x20\n        /* \"#utility.yul\":10140:10149   */\n      dup4\n        /* \"#utility.yul\":10136:10154   */\n      add\n        /* \"#utility.yul\":10127:10133   */\n      dup5\n        /* \"#utility.yul\":10083:10155   */\n      tag_117\n      jump\t// in\n    tag_251:\n        /* \"#utility.yul\":9830:10162   */\n      swap4\n      swap3\n      pop\n      pop\n      pop\n      jump\t// out\n        /* \"#utility.yul\":10168:10348   */\n    tag_136:\n        /* \"#utility.yul\":10216:10293   */\n      0x4e487b7100000000000000000000000000000000000000000000000000000000\n        /* \"#utility.yul\":10213:10214   */\n      0x00\n        /* \"#utility.yul\":10206:10294   */\n      mstore\n        /* \"#utility.yul\":10313:10317   */\n      0x22\n        /* \"#utility.yul\":10310:10311   */\n      0x04\n        /* \"#utility.yul\":10303:10318   */\n      mstore\n        /* \"#utility.yul\":10337:10341   */\n      0x24\n        /* \"#utility.yul\":10334:10335   */\n      0x00\n        /* \"#utility.yul\":10327:10342   */\n      revert\n        /* \"#utility.yul\":10354:10674   */\n    tag_62:\n        /* \"#utility.yul\":10398:10404   */\n      0x00\n        /* \"#utility.yul\":10435:10436   */\n      0x02\n        /* \"#utility.yul\":10429:10433   */\n      dup3\n        /* \"#utility.yul\":10425:10437   */\n      div\n        /* \"#utility.yul\":10415:10437   */\n      swap1\n      pop\n        /* \"#utility.yul\":10482:10483   */\n      0x01\n        /* \"#utility.yul\":10476:10480   */\n      dup3\n        /* \"#utility.yul\":10472:10484   */\n      and\n        /* \"#utility.yul\":10503:10521   */\n      dup1\n        /* \"#utility.yul\":10493:10574   */\n      tag_254\n      jumpi\n        /* \"#utility.yul\":10559:10563   */\n      0x7f\n        /* \"#utility.yul\":10551:10557   */\n      dup3\n        /* \"#utility.yul\":10547:10564   */\n      and\n        /* \"#utility.yul\":10537:10564   */\n      swap2\n      pop\n        /* \"#utility.yul\":10493:10574   */\n    tag_254:\n        /* \"#utility.yul\":10621:10623   */\n      0x20\n        /* \"#utility.yul\":10613:10619   */\n      dup3\n        /* \"#utility.yul\":10610:10624   */\n      lt\n        /* \"#utility.yul\":10590:10608   */\n      dup2\n        /* \"#utility.yul\":10587:10625   */\n      sub\n        /* \"#utility.yul\":10584:10668   */\n      tag_255\n      jumpi\n        /* \"#utility.yul\":10640:10658   */\n      tag_256\n      tag_136\n      jump\t// in\n    tag_256:\n        /* \"#utility.yul\":10584:10668   */\n    tag_255:\n        /* \"#utility.yul\":10405:10674   */\n      pop\n        /* \"#utility.yul\":10354:10674   */\n      swap2\n      swap1\n      pop\n      jump\t// out\n        /* \"#utility.yul\":10680:10828   */\n    tag_137:\n        /* \"#utility.yul\":10782:10793   */\n      0x00\n        /* \"#utility.yul\":10819:10822   */\n      dup2\n        /* \"#utility.yul\":10804:10822   */\n      swap1\n      pop\n        /* \"#utility.yul\":10680:10828   */\n      swap3\n      swap2\n      pop\n      pop\n      jump\t// out\n        /* \"#utility.yul\":10834:10997   */\n    tag_138:\n        /* \"#utility.yul\":10974:10989   */\n      0x43616e64696461746520413a2000000000000000000000000000000000000000\n        /* \"#utility.yul\":10970:10971   */\n      0x00\n        /* \"#utility.yul\":10962:10968   */\n      dup3\n        /* \"#utility.yul\":10958:10972   */\n      add\n        /* \"#utility.yul\":10951:10990   */\n      mstore\n        /* \"#utility.yul\":10834:10997   */\n      pop\n      jump\t// out\n        /* \"#utility.yul\":11003:11405   */\n    tag_139:\n        /* \"#utility.yul\":11163:11166   */\n      0x00\n        /* \"#utility.yul\":11184:11269   */\n      tag_260\n        /* \"#utility.yul\":11266:11268   */\n      0x0d\n        /* \"#utility.yul\":11261:11264   */\n      dup4\n        /* \"#utility.yul\":11184:11269   */\n      tag_137\n      jump\t// in\n    tag_260:\n        /* \"#utility.yul\":11177:11269   */\n      swap2\n      pop\n        /* \"#utility.yul\":11278:11371   */\n      tag_261\n        /* \"#utility.yul\":11367:11370   */\n      dup3\n        /* \"#utility.yul\":11278:11371   */\n      tag_138\n      jump\t// in\n    tag_261:\n        /* \"#utility.yul\":11396:11398   */\n      0x0d\n        /* \"#utility.yul\":11391:11394   */\n      dup3\n        /* \"#utility.yul\":11387:11399   */\n      add\n        /* \"#utility.yul\":11380:11399   */\n      swap1\n      pop\n        /* \"#utility.yul\":11003:11405   */\n      swap2\n      swap1\n      pop\n      jump\t// out\n        /* \"#utility.yul\":11411:11801   */\n    tag_140:\n        /* \"#utility.yul\":11517:11520   */\n      0x00\n        /* \"#utility.yul\":11545:11584   */\n      tag_263\n        /* \"#utility.yul\":11578:11583   */\n      dup3\n        /* \"#utility.yul\":11545:11584   */\n      tag_118\n      jump\t// in\n    tag_263:\n        /* \"#utility.yul\":11600:11689   */\n      tag_264\n        /* \"#utility.yul\":11682:11688   */\n      dup2\n        /* \"#utility.yul\":11677:11680   */\n      dup6\n        /* \"#utility.yul\":11600:11689   */\n      tag_137\n      jump\t// in\n    tag_264:\n        /* \"#utility.yul\":11593:11689   */\n      swap4\n      pop\n        /* \"#utility.yul\":11698:11763   */\n      tag_265\n        /* \"#utility.yul\":11756:11762   */\n      dup2\n        /* \"#utility.yul\":11751:11754   */\n      dup6\n        /* \"#utility.yul\":11744:11748   */\n      0x20\n        /* \"#utility.yul\":11737:11742   */\n      dup7\n        /* \"#utility.yul\":11733:11749   */\n      add\n        /* \"#utility.yul\":11698:11763   */\n      tag_120\n      jump\t// in\n    tag_265:\n        /* \"#utility.yul\":11788:11794   */\n      dup1\n        /* \"#utility.yul\":11783:11786   */\n      dup5\n        /* \"#utility.yul\":11779:11795   */\n      add\n        /* \"#utility.yul\":11772:11795   */\n      swap2\n      pop\n        /* \"#utility.yul\":11521:11801   */\n      pop\n        /* \"#utility.yul\":11411:11801   */\n      swap3\n      swap2\n      pop\n      pop\n      jump\t// out\n        /* \"#utility.yul\":11807:11978   */\n    tag_141:\n        /* \"#utility.yul\":11947:11970   */\n      0x20766f7465732c2043616e64696461746520423a200000000000000000000000\n        /* \"#utility.yul\":11943:11944   */\n      0x00\n        /* \"#utility.yul\":11935:11941   */\n      dup3\n        /* \"#utility.yul\":11931:11945   */\n      add\n        /* \"#utility.yul\":11924:11971   */\n      mstore\n        /* \"#utility.yul\":11807:11978   */\n      pop\n      jump\t// out\n        /* \"#utility.yul\":11984:12386   */\n    tag_142:\n        /* \"#utility.yul\":12144:12147   */\n      0x00\n        /* \"#utility.yul\":12165:12250   */\n      tag_268\n        /* \"#utility.yul\":12247:12249   */\n      0x15\n        /* \"#utility.yul\":12242:12245   */\n      dup4\n        /* \"#utility.yul\":12165:12250   */\n      tag_137\n      jump\t// in\n    tag_268:\n        /* \"#utility.yul\":12158:12250   */\n      swap2\n      pop\n        /* \"#utility.yul\":12259:12352   */\n      tag_269\n        /* \"#utility.yul\":12348:12351   */\n      dup3\n        /* \"#utility.yul\":12259:12352   */\n      tag_141\n      jump\t// in\n    tag_269:\n        /* \"#utility.yul\":12377:12379   */\n      0x15\n        /* \"#utility.yul\":12372:12375   */\n      dup3\n        /* \"#utility.yul\":12368:12380   */\n      add\n        /* \"#utility.yul\":12361:12380   */\n      swap1\n      pop\n        /* \"#utility.yul\":11984:12386   */\n      swap2\n      swap1\n      pop\n      jump\t// out\n        /* \"#utility.yul\":12392:12557   */\n    tag_143:\n        /* \"#utility.yul\":12532:12549   */\n      0x20766f7465732c20426c616e6b3a200000000000000000000000000000000000\n        /* \"#utility.yul\":12528:12529   */\n      0x00\n        /* \"#utility.yul\":12520:12526   */\n      dup3\n        /* \"#utility.yul\":12516:12530   */\n      add\n        /* \"#utility.yul\":12509:12550   */\n      mstore\n        /* \"#utility.yul\":12392:12557   */\n      pop\n      jump\t// out\n        /* \"#utility.yul\":12563:12965   */\n    tag_144:\n        /* \"#utility.yul\":12723:12726   */\n      0x00\n        /* \"#utility.yul\":12744:12829   */\n      tag_272\n        /* \"#utility.yul\":12826:12828   */\n      0x0f\n        /* \"#utility.yul\":12821:12824   */\n      dup4\n        /* \"#utility.yul\":12744:12829   */\n      tag_137\n      jump\t// in\n    tag_272:\n        /* \"#utility.yul\":12737:12829   */\n      swap2\n      pop\n        /* \"#utility.yul\":12838:12931   */\n      tag_273\n        /* \"#utility.yul\":12927:12930   */\n      dup3\n        /* \"#utility.yul\":12838:12931   */\n      tag_143\n      jump\t// in\n    tag_273:\n        /* \"#utility.yul\":12956:12958   */\n      0x0f\n        /* \"#utility.yul\":12951:12954   */\n      dup3\n        /* \"#utility.yul\":12947:12959   */\n      add\n        /* \"#utility.yul\":12940:12959   */\n      swap1\n      pop\n        /* \"#utility.yul\":12563:12965   */\n      swap2\n      swap1\n      pop\n      jump\t// out\n        /* \"#utility.yul\":12971:13127   */\n    tag_145:\n        /* \"#utility.yul\":13111:13119   */\n      0x20766f7465730000000000000000000000000000000000000000000000000000\n        /* \"#utility.yul\":13107:13108   */\n      0x00\n        /* \"#utility.yul\":13099:13105   */\n      dup3\n        /* \"#utility.yul\":13095:13109   */\n      add\n        /* \"#utility.yul\":13088:13120   */\n      mstore\n        /* \"#utility.yul\":12971:13127   */\n      pop\n      jump\t// out\n        /* \"#utility.yul\":13133:13533   */\n    tag_146:\n        /* \"#utility.yul\":13293:13296   */\n      0x00\n        /* \"#utility.yul\":13314:13398   */\n      tag_276\n        /* \"#utility.yul\":13396:13397   */\n      0x06\n        /* \"#utility.yul\":13391:13394   */\n      dup4\n        /* \"#utility.yul\":13314:13398   */\n      tag_137\n      jump\t// in\n    tag_276:\n        /* \"#utility.yul\":13307:13398   */\n      swap2\n      pop\n        /* \"#utility.yul\":13407:13500   */\n      tag_277\n        /* \"#utility.yul\":13496:13499   */\n      dup3\n        /* \"#utility.yul\":13407:13500   */\n      tag_145\n      jump\t// in\n    tag_277:\n        /* \"#utility.yul\":13525:13526   */\n      0x06\n        /* \"#utility.yul\":13520:13523   */\n      dup3\n        /* \"#utility.yul\":13516:13527   */\n      add\n        /* \"#utility.yul\":13509:13527   */\n      swap1\n      pop\n        /* \"#utility.yul\":13133:13533   */\n      swap2\n      swap1\n      pop\n      jump\t// out\n        /* \"#utility.yul\":13539:15198   */\n    tag_73:\n        /* \"#utility.yul\":14171:14174   */\n      0x00\n        /* \"#utility.yul\":14193:14341   */\n      tag_279\n        /* \"#utility.yul\":14337:14340   */\n      dup3\n        /* \"#utility.yul\":14193:14341   */\n      tag_139\n      jump\t// in\n    tag_279:\n        /* \"#utility.yul\":14186:14341   */\n      swap2\n      pop\n        /* \"#utility.yul\":14358:14453   */\n      tag_280\n        /* \"#utility.yul\":14449:14452   */\n      dup3\n        /* \"#utility.yul\":14440:14446   */\n      dup7\n        /* \"#utility.yul\":14358:14453   */\n      tag_140\n      jump\t// in\n    tag_280:\n        /* \"#utility.yul\":14351:14453   */\n      swap2\n      pop\n        /* \"#utility.yul\":14470:14618   */\n      tag_281\n        /* \"#utility.yul\":14614:14617   */\n      dup3\n        /* \"#utility.yul\":14470:14618   */\n      tag_142\n      jump\t// in\n    tag_281:\n        /* \"#utility.yul\":14463:14618   */\n      swap2\n      pop\n        /* \"#utility.yul\":14635:14730   */\n      tag_282\n        /* \"#utility.yul\":14726:14729   */\n      dup3\n        /* \"#utility.yul\":14717:14723   */\n      dup6\n        /* \"#utility.yul\":14635:14730   */\n      tag_140\n      jump\t// in\n    tag_282:\n        /* \"#utility.yul\":14628:14730   */\n      swap2\n      pop\n        /* \"#utility.yul\":14747:14895   */\n      tag_283\n        /* \"#utility.yul\":14891:14894   */\n      dup3\n        /* \"#utility.yul\":14747:14895   */\n      tag_144\n      jump\t// in\n    tag_283:\n        /* \"#utility.yul\":14740:14895   */\n      swap2\n      pop\n        /* \"#utility.yul\":14912:15007   */\n      tag_284\n        /* \"#utility.yul\":15003:15006   */\n      dup3\n        /* \"#utility.yul\":14994:15000   */\n      dup5\n        /* \"#utility.yul\":14912:15007   */\n      tag_140\n      jump\t// in\n    tag_284:\n        /* \"#utility.yul\":14905:15007   */\n      swap2\n      pop\n        /* \"#utility.yul\":15024:15172   */\n      tag_285\n        /* \"#utility.yul\":15168:15171   */\n      dup3\n        /* \"#utility.yul\":15024:15172   */\n      tag_146\n      jump\t// in\n    tag_285:\n        /* \"#utility.yul\":15017:15172   */\n      swap2\n      pop\n        /* \"#utility.yul\":15189:15192   */\n      dup2\n        /* \"#utility.yul\":15182:15192   */\n      swap1\n      pop\n        /* \"#utility.yul\":13539:15198   */\n      swap5\n      swap4\n      pop\n      pop\n      pop\n      pop\n      jump\t// out\n        /* \"#utility.yul\":15204:15384   */\n    tag_81:\n        /* \"#utility.yul\":15252:15329   */\n      0x4e487b7100000000000000000000000000000000000000000000000000000000\n        /* \"#utility.yul\":15249:15250   */\n      0x00\n        /* \"#utility.yul\":15242:15330   */\n      mstore\n        /* \"#utility.yul\":15349:15353   */\n      0x32\n        /* \"#utility.yul\":15346:15347   */\n      0x04\n        /* \"#utility.yul\":15339:15354   */\n      mstore\n        /* \"#utility.yul\":15373:15377   */\n      0x24\n        /* \"#utility.yul\":15370:15371   */\n      0x00\n        /* \"#utility.yul\":15363:15378   */\n      revert\n        /* \"#utility.yul\":15390:15570   */\n    tag_147:\n        /* \"#utility.yul\":15438:15515   */\n      0x4e487b7100000000000000000000000000000000000000000000000000000000\n        /* \"#utility.yul\":15435:15436   */\n      0x00\n        /* \"#utility.yul\":15428:15516   */\n      mstore\n        /* \"#utility.yul\":15535:15539   */\n      0x12\n        /* \"#utility.yul\":15532:15533   */\n      0x04\n        /* \"#utility.yul\":15525:15540   */\n      mstore\n        /* \"#utility.yul\":15559:15563   */\n      0x24\n        /* \"#utility.yul\":15556:15557   */\n      0x00\n        /* \"#utility.yul\":15549:15564   */\n      revert\n        /* \"#utility.yul\":15576:15761   */\n    tag_89:\n        /* \"#utility.yul\":15616:15617   */\n      0x00\n        /* \"#utility.yul\":15633:15653   */\n      tag_289\n        /* \"#utility.yul\":15651:15652   */\n      dup3\n        /* \"#utility.yul\":15633:15653   */\n      tag_108\n      jump\t// in\n    tag_289:\n        /* \"#utility.yul\":15628:15653   */\n      swap2\n      pop\n        /* \"#utility.yul\":15667:15687   */\n      tag_290\n        /* \"#utility.yul\":15685:15686   */\n      dup4\n        /* \"#utility.yul\":15667:15687   */\n      tag_108\n      jump\t// in\n    tag_290:\n        /* \"#utility.yul\":15662:15687   */\n      swap3\n      pop\n        /* \"#utility.yul\":15706:15707   */\n      dup3\n        /* \"#utility.yul\":15696:15731   */\n      tag_291\n      jumpi\n        /* \"#utility.yul\":15711:15729   */\n      tag_292\n      tag_147\n      jump\t// in\n    tag_292:\n        /* \"#utility.yul\":15696:15731   */\n    tag_291:\n        /* \"#utility.yul\":15753:15754   */\n      dup3\n        /* \"#utility.yul\":15750:15751   */\n      dup3\n        /* \"#utility.yul\":15746:15755   */\n      div\n        /* \"#utility.yul\":15741:15755   */\n      swap1\n      pop\n        /* \"#utility.yul\":15576:15761   */\n      swap3\n      swap2\n      pop\n      pop\n      jump\t// out\n        /* \"#utility.yul\":15767:15961   */\n    tag_97:\n        /* \"#utility.yul\":15807:15811   */\n      0x00\n        /* \"#utility.yul\":15827:15847   */\n      tag_294\n        /* \"#utility.yul\":15845:15846   */\n      dup3\n        /* \"#utility.yul\":15827:15847   */\n      tag_108\n      jump\t// in\n    tag_294:\n        /* \"#utility.yul\":15822:15847   */\n      swap2\n      pop\n        /* \"#utility.yul\":15861:15881   */\n      tag_295\n        /* \"#utility.yul\":15879:15880   */\n      dup4\n        /* \"#utility.yul\":15861:15881   */\n      tag_108\n      jump\t// in\n    tag_295:\n        /* \"#utility.yul\":15856:15881   */\n      swap3\n      pop\n        /* \"#utility.yul\":15905:15906   */\n      dup3\n        /* \"#utility.yul\":15902:15903   */\n      dup3\n        /* \"#utility.yul\":15898:15907   */\n      sub\n        /* \"#utility.yul\":15890:15907   */\n      swap1\n      pop\n        /* \"#utility.yul\":15929:15930   */\n      dup2\n        /* \"#utility.yul\":15923:15927   */\n      dup2\n        /* \"#utility.yul\":15920:15931   */\n      gt\n        /* \"#utility.yul\":15917:15954   */\n      iszero\n      tag_296\n      jumpi\n        /* \"#utility.yul\":15934:15952   */\n      tag_297\n      tag_134\n      jump\t// in\n    tag_297:\n        /* \"#utility.yul\":15917:15954   */\n    tag_296:\n        /* \"#utility.yul\":15767:15961   */\n      swap3\n      swap2\n      pop\n      pop\n      jump\t// out\n        /* \"#utility.yul\":15967:16143   */\n    tag_99:\n        /* \"#utility.yul\":15999:16000   */\n      0x00\n        /* \"#utility.yul\":16016:16036   */\n      tag_299\n        /* \"#utility.yul\":16034:16035   */\n      dup3\n        /* \"#utility.yul\":16016:16036   */\n      tag_108\n      jump\t// in\n    tag_299:\n        /* \"#utility.yul\":16011:16036   */\n      swap2\n      pop\n        /* \"#utility.yul\":16050:16070   */\n      tag_300\n        /* \"#utility.yul\":16068:16069   */\n      dup4\n        /* \"#utility.yul\":16050:16070   */\n      tag_108\n      jump\t// in\n    tag_300:\n        /* \"#utility.yul\":16045:16070   */\n      swap3\n      pop\n        /* \"#utility.yul\":16089:16090   */\n      dup3\n        /* \"#utility.yul\":16079:16114   */\n      tag_301\n      jumpi\n        /* \"#utility.yul\":16094:16112   */\n      tag_302\n      tag_147\n      jump\t// in\n    tag_302:\n        /* \"#utility.yul\":16079:16114   */\n    tag_301:\n        /* \"#utility.yul\":16135:16136   */\n      dup3\n        /* \"#utility.yul\":16132:16133   */\n      dup3\n        /* \"#utility.yul\":16128:16137   */\n      mod\n        /* \"#utility.yul\":16123:16137   */\n      swap1\n      pop\n        /* \"#utility.yul\":15967:16143   */\n      swap3\n      swap2\n      pop\n      pop\n      jump\t// out\n        /* \"#utility.yul\":16149:16340   */\n    tag_101:\n        /* \"#utility.yul\":16189:16192   */\n      0x00\n        /* \"#utility.yul\":16208:16228   */\n      tag_304\n        /* \"#utility.yul\":16226:16227   */\n      dup3\n        /* \"#utility.yul\":16208:16228   */\n      tag_108\n      jump\t// in\n    tag_304:\n        /* \"#utility.yul\":16203:16228   */\n      swap2\n      pop\n        /* \"#utility.yul\":16242:16262   */\n      tag_305\n        /* \"#utility.yul\":16260:16261   */\n      dup4\n        /* \"#utility.yul\":16242:16262   */\n      tag_108\n      jump\t// in\n    tag_305:\n        /* \"#utility.yul\":16237:16262   */\n      swap3\n      pop\n        /* \"#utility.yul\":16285:16286   */\n      dup3\n        /* \"#utility.yul\":16282:16283   */\n      dup3\n        /* \"#utility.yul\":16278:16287   */\n      add\n        /* \"#utility.yul\":16271:16287   */\n      swap1\n      pop\n        /* \"#utility.yul\":16306:16309   */\n      dup1\n        /* \"#utility.yul\":16303:16304   */\n      dup3\n        /* \"#utility.yul\":16300:16310   */\n      gt\n        /* \"#utility.yul\":16297:16333   */\n      iszero\n      tag_306\n      jumpi\n        /* \"#utility.yul\":16313:16331   */\n      tag_307\n      tag_134\n      jump\t// in\n    tag_307:\n        /* \"#utility.yul\":16297:16333   */\n    tag_306:\n        /* \"#utility.yul\":16149:16340   */\n      swap3\n      swap2\n      pop\n      pop\n      jump\t// out\n\n    auxdata: 0xa26469706673582212202fb0b89cb9766bcd993e2ef0354e088ddbaa742ad804130d672e128eba40646764736f6c634300081a0033\n}\n",
				"bytecode": {
					"linkReferences": {},
					"object": "608060405234801561000f575f80fd5b50610056600d6040518060400160405280600b81526020017f43616e64696461746520410000000000000000000000000000000000000000008152506100a160201b60201c565b61009c60166040518060400160405280600b81526020017f43616e64696461746520420000000000000000000000000000000000000000008152506100a160201b60201c565b610404565b60405180606001604052808381526020018281526020015f8152505f808481526020019081526020015f205f820151815f015560208201518160010190816100e99190610335565b50604082015181600201559050505050565b5f81519050919050565b7f4e487b71000000000000000000000000000000000000000000000000000000005f52604160045260245ffd5b7f4e487b71000000000000000000000000000000000000000000000000000000005f52602260045260245ffd5b5f600282049050600182168061017657607f821691505b60208210810361018957610188610132565b5b50919050565b5f819050815f5260205f209050919050565b5f6020601f8301049050919050565b5f82821b905092915050565b5f600883026101eb7fffffffffffffffffffffffffffffffffffffffffffffffffffffffffffffffff826101b0565b6101f586836101b0565b95508019841693508086168417925050509392505050565b5f819050919050565b5f819050919050565b5f61023961023461022f8461020d565b610216565b61020d565b9050919050565b5f819050919050565b6102528361021f565b61026661025e82610240565b8484546101bc565b825550505050565b5f90565b61027a61026e565b610285818484610249565b505050565b5b818110156102a85761029d5f82610272565b60018101905061028b565b5050565b601f8211156102ed576102be8161018f565b6102c7846101a1565b810160208510156102d6578190505b6102ea6102e2856101a1565b83018261028a565b50505b505050565b5f82821c905092915050565b5f61030d5f19846008026102f2565b1980831691505092915050565b5f61032583836102fe565b9150826002028217905092915050565b61033e826100fb565b67ffffffffffffffff81111561035757610356610105565b5b610361825461015f565b61036c8282856102ac565b5f60209050601f83116001811461039d575f841561038b578287015190505b610395858261031a565b8655506103fc565b601f1984166103ab8661018f565b5f5b828110156103d2578489015182556001820191506020850194506020810190506103ad565b868310156103ef57848901516103eb601f8916826102fe565b8355505b6001600288020188555050505b505050505050565b610f3a806104115f395ff3fe608060405234801561000f575f80fd5b5060043610610086575f3560e01c80634717f97c116100595780634717f97c1461012657806365422a55146101445780636a316c9d14610160578063b9830ff11461017e57610086565b80630121b93f1461008a57806309eef43e146100a65780630d15fd77146100d65780633477ee2e146100f4575b5f80fd5b6100a4600480360381019061009f91906106cb565b610188565b005b6100c060048036038101906100bb9190610750565b61035d565b6040516100cd9190610795565b60405180910390f35b6100de61037a565b6040516100eb91906107bd565b60405180910390f35b61010e600480360381019061010991906106cb565b610380565b60405161011d93929190610846565b60405180910390f35b61012e61042b565b60405161013b9190610882565b60405180910390f35b61015e600480360381019061015991906109e2565b6104a7565b005b6101686104e6565b60405161017591906107bd565b60405180910390f35b6101866104ec565b005b60015f3373ffffffffffffffffffffffffffffffffffffffff1673ffffffffffffffffffffffffffffffffffffffff1681526020019081526020015f205f9054906101000a900460ff1615610212576040517f08c379a000000000000000000000000000000000000000000000000000000000815260040161020990610a73565b60405180910390fd5b600d8114806102215750601681145b8061022b57505f81145b61026a576040517f08c379a000000000000000000000000000000000000000000000000000000000815260040161026190610b01565b60405180910390fd5b5f810361028d5760035f81548092919061028390610b4c565b91905055506102b6565b5f808281526020019081526020015f206002015f8154809291906102b090610b4c565b91905055505b60025f8154809291906102c890610b4c565b91905055506001805f3373ffffffffffffffffffffffffffffffffffffffff1673ffffffffffffffffffffffffffffffffffffffff1681526020019081526020015f205f6101000a81548160ff0219169083151502179055507fd0e6c39f2e086dc49f1524b47725526a56945cd1ff661f37976f1725a1e569863382604051610352929190610ba2565b60405180910390a150565b6001602052805f5260405f205f915054906101000a900460ff1681565b60025481565b5f602052805f5260405f205f91509050805f0154908060010180546103a490610bf6565b80601f01602080910402602001604051908101604052809291908181526020018280546103d090610bf6565b801561041b5780601f106103f25761010080835404028352916020019161041b565b820191905f5260205f20905b8154815290600101906020018083116103fe57829003601f168201915b5050505050908060020154905083565b60605f805f600d81526020019081526020015f206002015490505f805f601681526020019081526020015f206002015490505f6104678361052e565b6104708361052e565b61047b60035461052e565b60405160200161048d93929190610d88565b604051602081830303815290604052905080935050505090565b5f5b81518110156104e2576104d58282815181106104c8576104c7610de4565b5b6020026020010151610188565b80806001019150506104a9565b5050565b60035481565b5f805f600d81526020019081526020015f20600201819055505f805f601681526020019081526020015f20600201819055505f6003819055505f600281905550565b60605f8203610574576040518060400160405280600181526020017f30000000000000000000000000000000000000000000000000000000000000008152509050610682565b5f808390505b5f81146105a357818061058c90610b4c565b925050600a8161059c9190610e3e565b905061057a565b5f8267ffffffffffffffff8111156105be576105bd6108a6565b5b6040519080825280601f01601f1916602001820160405280156105f05781602001600182028036833780820191505090505b5090505b5f851461067b576001836106089190610e6e565b9250600a856106179190610ea1565b60306106239190610ed1565b60f81b81848151811061063957610638610de4565b5b60200101907effffffffffffffffffffffffffffffffffffffffffffffffffffffffffffff191690815f1a905350600a856106749190610e3e565b94506105f4565b8093505050505b919050565b5f604051905090565b5f80fd5b5f80fd5b5f819050919050565b6106aa81610698565b81146106b4575f80fd5b50565b5f813590506106c5816106a1565b92915050565b5f602082840312156106e0576106df610690565b5b5f6106ed848285016106b7565b91505092915050565b5f73ffffffffffffffffffffffffffffffffffffffff82169050919050565b5f61071f826106f6565b9050919050565b61072f81610715565b8114610739575f80fd5b50565b5f8135905061074a81610726565b92915050565b5f6020828403121561076557610764610690565b5b5f6107728482850161073c565b91505092915050565b5f8115159050919050565b61078f8161077b565b82525050565b5f6020820190506107a85f830184610786565b92915050565b6107b781610698565b82525050565b5f6020820190506107d05f8301846107ae565b92915050565b5f81519050919050565b5f82825260208201905092915050565b8281835e5f83830152505050565b5f601f19601f8301169050919050565b5f610818826107d6565b61082281856107e0565b93506108328185602086016107f0565b61083b816107fe565b840191505092915050565b5f6060820190506108595f8301866107ae565b818103602083015261086b818561080e565b905061087a60408301846107ae565b949350505050565b5f6020820190508181035f83015261089a818461080e565b905092915050565b5f80fd5b7f4e487b71000000000000000000000000000000000000000000000000000000005f52604160045260245ffd5b6108dc826107fe565b810181811067ffffffffffffffff821117156108fb576108fa6108a6565b5b80604052505050565b5f61090d610687565b905061091982826108d3565b919050565b5f67ffffffffffffffff821115610938576109376108a6565b5b602082029050602081019050919050565b5f80fd5b5f61095f61095a8461091e565b610904565b9050808382526020820190506020840283018581111561098257610981610949565b5b835b818110156109ab578061099788826106b7565b845260208401935050602081019050610984565b5050509392505050565b5f82601f8301126109c9576109c86108a2565b5b81356109d984826020860161094d565b91505092915050565b5f602082840312156109f7576109f6610690565b5b5f82013567ffffffffffffffff811115610a1457610a13610694565b5b610a20848285016109b5565b91505092915050565b7f596f75206861766520616c726561647920766f7465642e0000000000000000005f82015250565b5f610a5d6017836107e0565b9150610a6882610a29565b602082019050919050565b5f6020820190508181035f830152610a8a81610a51565b9050919050565b7f496e76616c69642063616e6469646174652049442e20507265737320302069665f8201527f20796f75207769746820746f204162737461696e2e0000000000000000000000602082015250565b5f610aeb6035836107e0565b9150610af682610a91565b604082019050919050565b5f6020820190508181035f830152610b1881610adf565b9050919050565b7f4e487b71000000000000000000000000000000000000000000000000000000005f52601160045260245ffd5b5f610b5682610698565b91507fffffffffffffffffffffffffffffffffffffffffffffffffffffffffffffffff8203610b8857610b87610b1f565b5b600182019050919050565b610b9c81610715565b82525050565b5f604082019050610bb55f830185610b93565b610bc260208301846107ae565b9392505050565b7f4e487b71000000000000000000000000000000000000000000000000000000005f52602260045260245ffd5b5f6002820490506001821680610c0d57607f821691505b602082108103610c2057610c1f610bc9565b5b50919050565b5f81905092915050565b7f43616e64696461746520413a20000000000000000000000000000000000000005f82015250565b5f610c64600d83610c26565b9150610c6f82610c30565b600d82019050919050565b5f610c84826107d6565b610c8e8185610c26565b9350610c9e8185602086016107f0565b80840191505092915050565b7f20766f7465732c2043616e64696461746520423a2000000000000000000000005f82015250565b5f610cde601583610c26565b9150610ce982610caa565b601582019050919050565b7f20766f7465732c20426c616e6b3a2000000000000000000000000000000000005f82015250565b5f610d28600f83610c26565b9150610d3382610cf4565b600f82019050919050565b7f20766f74657300000000000000000000000000000000000000000000000000005f82015250565b5f610d72600683610c26565b9150610d7d82610d3e565b600682019050919050565b5f610d9282610c58565b9150610d9e8286610c7a565b9150610da982610cd2565b9150610db58285610c7a565b9150610dc082610d1c565b9150610dcc8284610c7a565b9150610dd782610d66565b9150819050949350505050565b7f4e487b71000000000000000000000000000000000000000000000000000000005f52603260045260245ffd5b7f4e487b71000000000000000000000000000000000000000000000000000000005f52601260045260245ffd5b5f610e4882610698565b9150610e5383610698565b925082610e6357610e62610e11565b5b828204905092915050565b5f610e7882610698565b9150610e8383610698565b9250828203905081811115610e9b57610e9a610b1f565b5b92915050565b5f610eab82610698565b9150610eb683610698565b925082610ec657610ec5610e11565b5b828206905092915050565b5f610edb82610698565b9150610ee683610698565b9250828201905080821115610efe57610efd610b1f565b5b9291505056fea26469706673582212202fb0b89cb9766bcd993e2ef0354e088ddbaa742ad804130d672e128eba40646764736f6c634300081a0033",
					"opcodes": "PUSH1 0x80 PUSH1 0x40 MSTORE CALLVALUE DUP1 ISZERO PUSH2 0xF JUMPI PUSH0 DUP1 REVERT JUMPDEST POP PUSH2 0x56 PUSH1 0xD PUSH1 0x40 MLOAD DUP1 PUSH1 0x40 ADD PUSH1 0x40 MSTORE DUP1 PUSH1 0xB DUP2 MSTORE PUSH1 0x20 ADD PUSH32 0x43616E6469646174652041000000000000000000000000000000000000000000 DUP2 MSTORE POP PUSH2 0xA1 PUSH1 0x20 SHL PUSH1 0x20 SHR JUMP JUMPDEST PUSH2 0x9C PUSH1 0x16 PUSH1 0x40 MLOAD DUP1 PUSH1 0x40 ADD PUSH1 0x40 MSTORE DUP1 PUSH1 0xB DUP2 MSTORE PUSH1 0x20 ADD PUSH32 0x43616E6469646174652042000000000000000000000000000000000000000000 DUP2 MSTORE POP PUSH2 0xA1 PUSH1 0x20 SHL PUSH1 0x20 SHR JUMP JUMPDEST PUSH2 0x404 JUMP JUMPDEST PUSH1 0x40 MLOAD DUP1 PUSH1 0x60 ADD PUSH1 0x40 MSTORE DUP1 DUP4 DUP2 MSTORE PUSH1 0x20 ADD DUP3 DUP2 MSTORE PUSH1 0x20 ADD PUSH0 DUP2 MSTORE POP PUSH0 DUP1 DUP5 DUP2 MSTORE PUSH1 0x20 ADD SWAP1 DUP2 MSTORE PUSH1 0x20 ADD PUSH0 KECCAK256 PUSH0 DUP3 ADD MLOAD DUP2 PUSH0 ADD SSTORE PUSH1 0x20 DUP3 ADD MLOAD DUP2 PUSH1 0x1 ADD SWAP1 DUP2 PUSH2 0xE9 SWAP2 SWAP1 PUSH2 0x335 JUMP JUMPDEST POP PUSH1 0x40 DUP3 ADD MLOAD DUP2 PUSH1 0x2 ADD SSTORE SWAP1 POP POP POP POP JUMP JUMPDEST PUSH0 DUP2 MLOAD SWAP1 POP SWAP2 SWAP1 POP JUMP JUMPDEST PUSH32 0x4E487B7100000000000000000000000000000000000000000000000000000000 PUSH0 MSTORE PUSH1 0x41 PUSH1 0x4 MSTORE PUSH1 0x24 PUSH0 REVERT JUMPDEST PUSH32 0x4E487B7100000000000000000000000000000000000000000000000000000000 PUSH0 MSTORE PUSH1 0x22 PUSH1 0x4 MSTORE PUSH1 0x24 PUSH0 REVERT JUMPDEST PUSH0 PUSH1 0x2 DUP3 DIV SWAP1 POP PUSH1 0x1 DUP3 AND DUP1 PUSH2 0x176 JUMPI PUSH1 0x7F DUP3 AND SWAP2 POP JUMPDEST PUSH1 0x20 DUP3 LT DUP2 SUB PUSH2 0x189 JUMPI PUSH2 0x188 PUSH2 0x132 JUMP JUMPDEST JUMPDEST POP SWAP2 SWAP1 POP JUMP JUMPDEST PUSH0 DUP2 SWAP1 POP DUP2 PUSH0 MSTORE PUSH1 0x20 PUSH0 KECCAK256 SWAP1 POP SWAP2 SWAP1 POP JUMP JUMPDEST PUSH0 PUSH1 0x20 PUSH1 0x1F DUP4 ADD DIV SWAP1 POP SWAP2 SWAP1 POP JUMP JUMPDEST PUSH0 DUP3 DUP3 SHL SWAP1 POP SWAP3 SWAP2 POP POP JUMP JUMPDEST PUSH0 PUSH1 0x8 DUP4 MUL PUSH2 0x1EB PUSH32 0xFFFFFFFFFFFFFFFFFFFFFFFFFFFFFFFFFFFFFFFFFFFFFFFFFFFFFFFFFFFFFFFF DUP3 PUSH2 0x1B0 JUMP JUMPDEST PUSH2 0x1F5 DUP7 DUP4 PUSH2 0x1B0 JUMP JUMPDEST SWAP6 POP DUP1 NOT DUP5 AND SWAP4 POP DUP1 DUP7 AND DUP5 OR SWAP3 POP POP POP SWAP4 SWAP3 POP POP POP JUMP JUMPDEST PUSH0 DUP2 SWAP1 POP SWAP2 SWAP1 POP JUMP JUMPDEST PUSH0 DUP2 SWAP1 POP SWAP2 SWAP1 POP JUMP JUMPDEST PUSH0 PUSH2 0x239 PUSH2 0x234 PUSH2 0x22F DUP5 PUSH2 0x20D JUMP JUMPDEST PUSH2 0x216 JUMP JUMPDEST PUSH2 0x20D JUMP JUMPDEST SWAP1 POP SWAP2 SWAP1 POP JUMP JUMPDEST PUSH0 DUP2 SWAP1 POP SWAP2 SWAP1 POP JUMP JUMPDEST PUSH2 0x252 DUP4 PUSH2 0x21F JUMP JUMPDEST PUSH2 0x266 PUSH2 0x25E DUP3 PUSH2 0x240 JUMP JUMPDEST DUP5 DUP5 SLOAD PUSH2 0x1BC JUMP JUMPDEST DUP3 SSTORE POP POP POP POP JUMP JUMPDEST PUSH0 SWAP1 JUMP JUMPDEST PUSH2 0x27A PUSH2 0x26E JUMP JUMPDEST PUSH2 0x285 DUP2 DUP5 DUP5 PUSH2 0x249 JUMP JUMPDEST POP POP POP JUMP JUMPDEST JUMPDEST DUP2 DUP2 LT ISZERO PUSH2 0x2A8 JUMPI PUSH2 0x29D PUSH0 DUP3 PUSH2 0x272 JUMP JUMPDEST PUSH1 0x1 DUP2 ADD SWAP1 POP PUSH2 0x28B JUMP JUMPDEST POP POP JUMP JUMPDEST PUSH1 0x1F DUP3 GT ISZERO PUSH2 0x2ED JUMPI PUSH2 0x2BE DUP2 PUSH2 0x18F JUMP JUMPDEST PUSH2 0x2C7 DUP5 PUSH2 0x1A1 JUMP JUMPDEST DUP2 ADD PUSH1 0x20 DUP6 LT ISZERO PUSH2 0x2D6 JUMPI DUP2 SWAP1 POP JUMPDEST PUSH2 0x2EA PUSH2 0x2E2 DUP6 PUSH2 0x1A1 JUMP JUMPDEST DUP4 ADD DUP3 PUSH2 0x28A JUMP JUMPDEST POP POP JUMPDEST POP POP POP JUMP JUMPDEST PUSH0 DUP3 DUP3 SHR SWAP1 POP SWAP3 SWAP2 POP POP JUMP JUMPDEST PUSH0 PUSH2 0x30D PUSH0 NOT DUP5 PUSH1 0x8 MUL PUSH2 0x2F2 JUMP JUMPDEST NOT DUP1 DUP4 AND SWAP2 POP POP SWAP3 SWAP2 POP POP JUMP JUMPDEST PUSH0 PUSH2 0x325 DUP4 DUP4 PUSH2 0x2FE JUMP JUMPDEST SWAP2 POP DUP3 PUSH1 0x2 MUL DUP3 OR SWAP1 POP SWAP3 SWAP2 POP POP JUMP JUMPDEST PUSH2 0x33E DUP3 PUSH2 0xFB JUMP JUMPDEST PUSH8 0xFFFFFFFFFFFFFFFF DUP2 GT ISZERO PUSH2 0x357 JUMPI PUSH2 0x356 PUSH2 0x105 JUMP JUMPDEST JUMPDEST PUSH2 0x361 DUP3 SLOAD PUSH2 0x15F JUMP JUMPDEST PUSH2 0x36C DUP3 DUP3 DUP6 PUSH2 0x2AC JUMP JUMPDEST PUSH0 PUSH1 0x20 SWAP1 POP PUSH1 0x1F DUP4 GT PUSH1 0x1 DUP2 EQ PUSH2 0x39D JUMPI PUSH0 DUP5 ISZERO PUSH2 0x38B JUMPI DUP3 DUP8 ADD MLOAD SWAP1 POP JUMPDEST PUSH2 0x395 DUP6 DUP3 PUSH2 0x31A JUMP JUMPDEST DUP7 SSTORE POP PUSH2 0x3FC JUMP JUMPDEST PUSH1 0x1F NOT DUP5 AND PUSH2 0x3AB DUP7 PUSH2 0x18F JUMP JUMPDEST PUSH0 JUMPDEST DUP3 DUP2 LT ISZERO PUSH2 0x3D2 JUMPI DUP5 DUP10 ADD MLOAD DUP3 SSTORE PUSH1 0x1 DUP3 ADD SWAP2 POP PUSH1 0x20 DUP6 ADD SWAP5 POP PUSH1 0x20 DUP2 ADD SWAP1 POP PUSH2 0x3AD JUMP JUMPDEST DUP7 DUP4 LT ISZERO PUSH2 0x3EF JUMPI DUP5 DUP10 ADD MLOAD PUSH2 0x3EB PUSH1 0x1F DUP10 AND DUP3 PUSH2 0x2FE JUMP JUMPDEST DUP4 SSTORE POP JUMPDEST PUSH1 0x1 PUSH1 0x2 DUP9 MUL ADD DUP9 SSTORE POP POP POP JUMPDEST POP POP POP POP POP POP JUMP JUMPDEST PUSH2 0xF3A DUP1 PUSH2 0x411 PUSH0 CODECOPY PUSH0 RETURN INVALID PUSH1 0x80 PUSH1 0x40 MSTORE CALLVALUE DUP1 ISZERO PUSH2 0xF JUMPI PUSH0 DUP1 REVERT JUMPDEST POP PUSH1 0x4 CALLDATASIZE LT PUSH2 0x86 JUMPI PUSH0 CALLDATALOAD PUSH1 0xE0 SHR DUP1 PUSH4 0x4717F97C GT PUSH2 0x59 JUMPI DUP1 PUSH4 0x4717F97C EQ PUSH2 0x126 JUMPI DUP1 PUSH4 0x65422A55 EQ PUSH2 0x144 JUMPI DUP1 PUSH4 0x6A316C9D EQ PUSH2 0x160 JUMPI DUP1 PUSH4 0xB9830FF1 EQ PUSH2 0x17E JUMPI PUSH2 0x86 JUMP JUMPDEST DUP1 PUSH4 0x121B93F EQ PUSH2 0x8A JUMPI DUP1 PUSH4 0x9EEF43E EQ PUSH2 0xA6 JUMPI DUP1 PUSH4 0xD15FD77 EQ PUSH2 0xD6 JUMPI DUP1 PUSH4 0x3477EE2E EQ PUSH2 0xF4 JUMPI JUMPDEST PUSH0 DUP1 REVERT JUMPDEST PUSH2 0xA4 PUSH1 0x4 DUP1 CALLDATASIZE SUB DUP2 ADD SWAP1 PUSH2 0x9F SWAP2 SWAP1 PUSH2 0x6CB JUMP JUMPDEST PUSH2 0x188 JUMP JUMPDEST STOP JUMPDEST PUSH2 0xC0 PUSH1 0x4 DUP1 CALLDATASIZE SUB DUP2 ADD SWAP1 PUSH2 0xBB SWAP2 SWAP1 PUSH2 0x750 JUMP JUMPDEST PUSH2 0x35D JUMP JUMPDEST PUSH1 0x40 MLOAD PUSH2 0xCD SWAP2 SWAP1 PUSH2 0x795 JUMP JUMPDEST PUSH1 0x40 MLOAD DUP1 SWAP2 SUB SWAP1 RETURN JUMPDEST PUSH2 0xDE PUSH2 0x37A JUMP JUMPDEST PUSH1 0x40 MLOAD PUSH2 0xEB SWAP2 SWAP1 PUSH2 0x7BD JUMP JUMPDEST PUSH1 0x40 MLOAD DUP1 SWAP2 SUB SWAP1 RETURN JUMPDEST PUSH2 0x10E PUSH1 0x4 DUP1 CALLDATASIZE SUB DUP2 ADD SWAP1 PUSH2 0x109 SWAP2 SWAP1 PUSH2 0x6CB JUMP JUMPDEST PUSH2 0x380 JUMP JUMPDEST PUSH1 0x40 MLOAD PUSH2 0x11D SWAP4 SWAP3 SWAP2 SWAP1 PUSH2 0x846 JUMP JUMPDEST PUSH1 0x40 MLOAD DUP1 SWAP2 SUB SWAP1 RETURN JUMPDEST PUSH2 0x12E PUSH2 0x42B JUMP JUMPDEST PUSH1 0x40 MLOAD PUSH2 0x13B SWAP2 SWAP1 PUSH2 0x882 JUMP JUMPDEST PUSH1 0x40 MLOAD DUP1 SWAP2 SUB SWAP1 RETURN JUMPDEST PUSH2 0x15E PUSH1 0x4 DUP1 CALLDATASIZE SUB DUP2 ADD SWAP1 PUSH2 0x159 SWAP2 SWAP1 PUSH2 0x9E2 JUMP JUMPDEST PUSH2 0x4A7 JUMP JUMPDEST STOP JUMPDEST PUSH2 0x168 PUSH2 0x4E6 JUMP JUMPDEST PUSH1 0x40 MLOAD PUSH2 0x175 SWAP2 SWAP1 PUSH2 0x7BD JUMP JUMPDEST PUSH1 0x40 MLOAD DUP1 SWAP2 SUB SWAP1 RETURN JUMPDEST PUSH2 0x186 PUSH2 0x4EC JUMP JUMPDEST STOP JUMPDEST PUSH1 0x1 PUSH0 CALLER PUSH20 0xFFFFFFFFFFFFFFFFFFFFFFFFFFFFFFFFFFFFFFFF AND PUSH20 0xFFFFFFFFFFFFFFFFFFFFFFFFFFFFFFFFFFFFFFFF AND DUP2 MSTORE PUSH1 0x20 ADD SWAP1 DUP2 MSTORE PUSH1 0x20 ADD PUSH0 KECCAK256 PUSH0 SWAP1 SLOAD SWAP1 PUSH2 0x100 EXP SWAP1 DIV PUSH1 0xFF AND ISZERO PUSH2 0x212 JUMPI PUSH1 0x40 MLOAD PUSH32 0x8C379A000000000000000000000000000000000000000000000000000000000 DUP2 MSTORE PUSH1 0x4 ADD PUSH2 0x209 SWAP1 PUSH2 0xA73 JUMP JUMPDEST PUSH1 0x40 MLOAD DUP1 SWAP2 SUB SWAP1 REVERT JUMPDEST PUSH1 0xD DUP2 EQ DUP1 PUSH2 0x221 JUMPI POP PUSH1 0x16 DUP2 EQ JUMPDEST DUP1 PUSH2 0x22B JUMPI POP PUSH0 DUP2 EQ JUMPDEST PUSH2 0x26A JUMPI PUSH1 0x40 MLOAD PUSH32 0x8C379A000000000000000000000000000000000000000000000000000000000 DUP2 MSTORE PUSH1 0x4 ADD PUSH2 0x261 SWAP1 PUSH2 0xB01 JUMP JUMPDEST PUSH1 0x40 MLOAD DUP1 SWAP2 SUB SWAP1 REVERT JUMPDEST PUSH0 DUP2 SUB PUSH2 0x28D JUMPI PUSH1 0x3 PUSH0 DUP2 SLOAD DUP1 SWAP3 SWAP2 SWAP1 PUSH2 0x283 SWAP1 PUSH2 0xB4C JUMP JUMPDEST SWAP2 SWAP1 POP SSTORE POP PUSH2 0x2B6 JUMP JUMPDEST PUSH0 DUP1 DUP3 DUP2 MSTORE PUSH1 0x20 ADD SWAP1 DUP2 MSTORE PUSH1 0x20 ADD PUSH0 KECCAK256 PUSH1 0x2 ADD PUSH0 DUP2 SLOAD DUP1 SWAP3 SWAP2 SWAP1 PUSH2 0x2B0 SWAP1 PUSH2 0xB4C JUMP JUMPDEST SWAP2 SWAP1 POP SSTORE POP JUMPDEST PUSH1 0x2 PUSH0 DUP2 SLOAD DUP1 SWAP3 SWAP2 SWAP1 PUSH2 0x2C8 SWAP1 PUSH2 0xB4C JUMP JUMPDEST SWAP2 SWAP1 POP SSTORE POP PUSH1 0x1 DUP1 PUSH0 CALLER PUSH20 0xFFFFFFFFFFFFFFFFFFFFFFFFFFFFFFFFFFFFFFFF AND PUSH20 0xFFFFFFFFFFFFFFFFFFFFFFFFFFFFFFFFFFFFFFFF AND DUP2 MSTORE PUSH1 0x20 ADD SWAP1 DUP2 MSTORE PUSH1 0x20 ADD PUSH0 KECCAK256 PUSH0 PUSH2 0x100 EXP DUP2 SLOAD DUP2 PUSH1 0xFF MUL NOT AND SWAP1 DUP4 ISZERO ISZERO MUL OR SWAP1 SSTORE POP PUSH32 0xD0E6C39F2E086DC49F1524B47725526A56945CD1FF661F37976F1725A1E56986 CALLER DUP3 PUSH1 0x40 MLOAD PUSH2 0x352 SWAP3 SWAP2 SWAP1 PUSH2 0xBA2 JUMP JUMPDEST PUSH1 0x40 MLOAD DUP1 SWAP2 SUB SWAP1 LOG1 POP JUMP JUMPDEST PUSH1 0x1 PUSH1 0x20 MSTORE DUP1 PUSH0 MSTORE PUSH1 0x40 PUSH0 KECCAK256 PUSH0 SWAP2 POP SLOAD SWAP1 PUSH2 0x100 EXP SWAP1 DIV PUSH1 0xFF AND DUP2 JUMP JUMPDEST PUSH1 0x2 SLOAD DUP2 JUMP JUMPDEST PUSH0 PUSH1 0x20 MSTORE DUP1 PUSH0 MSTORE PUSH1 0x40 PUSH0 KECCAK256 PUSH0 SWAP2 POP SWAP1 POP DUP1 PUSH0 ADD SLOAD SWAP1 DUP1 PUSH1 0x1 ADD DUP1 SLOAD PUSH2 0x3A4 SWAP1 PUSH2 0xBF6 JUMP JUMPDEST DUP1 PUSH1 0x1F ADD PUSH1 0x20 DUP1 SWAP2 DIV MUL PUSH1 0x20 ADD PUSH1 0x40 MLOAD SWAP1 DUP2 ADD PUSH1 0x40 MSTORE DUP1 SWAP3 SWAP2 SWAP1 DUP2 DUP2 MSTORE PUSH1 0x20 ADD DUP3 DUP1 SLOAD PUSH2 0x3D0 SWAP1 PUSH2 0xBF6 JUMP JUMPDEST DUP1 ISZERO PUSH2 0x41B JUMPI DUP1 PUSH1 0x1F LT PUSH2 0x3F2 JUMPI PUSH2 0x100 DUP1 DUP4 SLOAD DIV MUL DUP4 MSTORE SWAP2 PUSH1 0x20 ADD SWAP2 PUSH2 0x41B JUMP JUMPDEST DUP3 ADD SWAP2 SWAP1 PUSH0 MSTORE PUSH1 0x20 PUSH0 KECCAK256 SWAP1 JUMPDEST DUP2 SLOAD DUP2 MSTORE SWAP1 PUSH1 0x1 ADD SWAP1 PUSH1 0x20 ADD DUP1 DUP4 GT PUSH2 0x3FE JUMPI DUP3 SWAP1 SUB PUSH1 0x1F AND DUP3 ADD SWAP2 JUMPDEST POP POP POP POP POP SWAP1 DUP1 PUSH1 0x2 ADD SLOAD SWAP1 POP DUP4 JUMP JUMPDEST PUSH1 0x60 PUSH0 DUP1 PUSH0 PUSH1 0xD DUP2 MSTORE PUSH1 0x20 ADD SWAP1 DUP2 MSTORE PUSH1 0x20 ADD PUSH0 KECCAK256 PUSH1 0x2 ADD SLOAD SWAP1 POP PUSH0 DUP1 PUSH0 PUSH1 0x16 DUP2 MSTORE PUSH1 0x20 ADD SWAP1 DUP2 MSTORE PUSH1 0x20 ADD PUSH0 KECCAK256 PUSH1 0x2 ADD SLOAD SWAP1 POP PUSH0 PUSH2 0x467 DUP4 PUSH2 0x52E JUMP JUMPDEST PUSH2 0x470 DUP4 PUSH2 0x52E JUMP JUMPDEST PUSH2 0x47B PUSH1 0x3 SLOAD PUSH2 0x52E JUMP JUMPDEST PUSH1 0x40 MLOAD PUSH1 0x20 ADD PUSH2 0x48D SWAP4 SWAP3 SWAP2 SWAP1 PUSH2 0xD88 JUMP JUMPDEST PUSH1 0x40 MLOAD PUSH1 0x20 DUP2 DUP4 SUB SUB DUP2 MSTORE SWAP1 PUSH1 0x40 MSTORE SWAP1 POP DUP1 SWAP4 POP POP POP POP SWAP1 JUMP JUMPDEST PUSH0 JUMPDEST DUP2 MLOAD DUP2 LT ISZERO PUSH2 0x4E2 JUMPI PUSH2 0x4D5 DUP3 DUP3 DUP2 MLOAD DUP2 LT PUSH2 0x4C8 JUMPI PUSH2 0x4C7 PUSH2 0xDE4 JUMP JUMPDEST JUMPDEST PUSH1 0x20 MUL PUSH1 0x20 ADD ADD MLOAD PUSH2 0x188 JUMP JUMPDEST DUP1 DUP1 PUSH1 0x1 ADD SWAP2 POP POP PUSH2 0x4A9 JUMP JUMPDEST POP POP JUMP JUMPDEST PUSH1 0x3 SLOAD DUP2 JUMP JUMPDEST PUSH0 DUP1 PUSH0 PUSH1 0xD DUP2 MSTORE PUSH1 0x20 ADD SWAP1 DUP2 MSTORE PUSH1 0x20 ADD PUSH0 KECCAK256 PUSH1 0x2 ADD DUP2 SWAP1 SSTORE POP PUSH0 DUP1 PUSH0 PUSH1 0x16 DUP2 MSTORE PUSH1 0x20 ADD SWAP1 DUP2 MSTORE PUSH1 0x20 ADD PUSH0 KECCAK256 PUSH1 0x2 ADD DUP2 SWAP1 SSTORE POP PUSH0 PUSH1 0x3 DUP2 SWAP1 SSTORE POP PUSH0 PUSH1 0x2 DUP2 SWAP1 SSTORE POP JUMP JUMPDEST PUSH1 0x60 PUSH0 DUP3 SUB PUSH2 0x574 JUMPI PUSH1 0x40 MLOAD DUP1 PUSH1 0x40 ADD PUSH1 0x40 MSTORE DUP1 PUSH1 0x1 DUP2 MSTORE PUSH1 0x20 ADD PUSH32 0x3000000000000000000000000000000000000000000000000000000000000000 DUP2 MSTORE POP SWAP1 POP PUSH2 0x682 JUMP JUMPDEST PUSH0 DUP1 DUP4 SWAP1 POP JUMPDEST PUSH0 DUP2 EQ PUSH2 0x5A3 JUMPI DUP2 DUP1 PUSH2 0x58C SWAP1 PUSH2 0xB4C JUMP JUMPDEST SWAP3 POP POP PUSH1 0xA DUP2 PUSH2 0x59C SWAP2 SWAP1 PUSH2 0xE3E JUMP JUMPDEST SWAP1 POP PUSH2 0x57A JUMP JUMPDEST PUSH0 DUP3 PUSH8 0xFFFFFFFFFFFFFFFF DUP2 GT ISZERO PUSH2 0x5BE JUMPI PUSH2 0x5BD PUSH2 0x8A6 JUMP JUMPDEST JUMPDEST PUSH1 0x40 MLOAD SWAP1 DUP1 DUP3 MSTORE DUP1 PUSH1 0x1F ADD PUSH1 0x1F NOT AND PUSH1 0x20 ADD DUP3 ADD PUSH1 0x40 MSTORE DUP1 ISZERO PUSH2 0x5F0 JUMPI DUP2 PUSH1 0x20 ADD PUSH1 0x1 DUP3 MUL DUP1 CALLDATASIZE DUP4 CALLDATACOPY DUP1 DUP3 ADD SWAP2 POP POP SWAP1 POP JUMPDEST POP SWAP1 POP JUMPDEST PUSH0 DUP6 EQ PUSH2 0x67B JUMPI PUSH1 0x1 DUP4 PUSH2 0x608 SWAP2 SWAP1 PUSH2 0xE6E JUMP JUMPDEST SWAP3 POP PUSH1 0xA DUP6 PUSH2 0x617 SWAP2 SWAP1 PUSH2 0xEA1 JUMP JUMPDEST PUSH1 0x30 PUSH2 0x623 SWAP2 SWAP1 PUSH2 0xED1 JUMP JUMPDEST PUSH1 0xF8 SHL DUP2 DUP5 DUP2 MLOAD DUP2 LT PUSH2 0x639 JUMPI PUSH2 0x638 PUSH2 0xDE4 JUMP JUMPDEST JUMPDEST PUSH1 0x20 ADD ADD SWAP1 PUSH31 0xFFFFFFFFFFFFFFFFFFFFFFFFFFFFFFFFFFFFFFFFFFFFFFFFFFFFFFFFFFFFFF NOT AND SWAP1 DUP2 PUSH0 BYTE SWAP1 MSTORE8 POP PUSH1 0xA DUP6 PUSH2 0x674 SWAP2 SWAP1 PUSH2 0xE3E JUMP JUMPDEST SWAP5 POP PUSH2 0x5F4 JUMP JUMPDEST DUP1 SWAP4 POP POP POP POP JUMPDEST SWAP2 SWAP1 POP JUMP JUMPDEST PUSH0 PUSH1 0x40 MLOAD SWAP1 POP SWAP1 JUMP JUMPDEST PUSH0 DUP1 REVERT JUMPDEST PUSH0 DUP1 REVERT JUMPDEST PUSH0 DUP2 SWAP1 POP SWAP2 SWAP1 POP JUMP JUMPDEST PUSH2 0x6AA DUP2 PUSH2 0x698 JUMP JUMPDEST DUP2 EQ PUSH2 0x6B4 JUMPI PUSH0 DUP1 REVERT JUMPDEST POP JUMP JUMPDEST PUSH0 DUP2 CALLDATALOAD SWAP1 POP PUSH2 0x6C5 DUP2 PUSH2 0x6A1 JUMP JUMPDEST SWAP3 SWAP2 POP POP JUMP JUMPDEST PUSH0 PUSH1 0x20 DUP3 DUP5 SUB SLT ISZERO PUSH2 0x6E0 JUMPI PUSH2 0x6DF PUSH2 0x690 JUMP JUMPDEST JUMPDEST PUSH0 PUSH2 0x6ED DUP5 DUP3 DUP6 ADD PUSH2 0x6B7 JUMP JUMPDEST SWAP2 POP POP SWAP3 SWAP2 POP POP JUMP JUMPDEST PUSH0 PUSH20 0xFFFFFFFFFFFFFFFFFFFFFFFFFFFFFFFFFFFFFFFF DUP3 AND SWAP1 POP SWAP2 SWAP1 POP JUMP JUMPDEST PUSH0 PUSH2 0x71F DUP3 PUSH2 0x6F6 JUMP JUMPDEST SWAP1 POP SWAP2 SWAP1 POP JUMP JUMPDEST PUSH2 0x72F DUP2 PUSH2 0x715 JUMP JUMPDEST DUP2 EQ PUSH2 0x739 JUMPI PUSH0 DUP1 REVERT JUMPDEST POP JUMP JUMPDEST PUSH0 DUP2 CALLDATALOAD SWAP1 POP PUSH2 0x74A DUP2 PUSH2 0x726 JUMP JUMPDEST SWAP3 SWAP2 POP POP JUMP JUMPDEST PUSH0 PUSH1 0x20 DUP3 DUP5 SUB SLT ISZERO PUSH2 0x765 JUMPI PUSH2 0x764 PUSH2 0x690 JUMP JUMPDEST JUMPDEST PUSH0 PUSH2 0x772 DUP5 DUP3 DUP6 ADD PUSH2 0x73C JUMP JUMPDEST SWAP2 POP POP SWAP3 SWAP2 POP POP JUMP JUMPDEST PUSH0 DUP2 ISZERO ISZERO SWAP1 POP SWAP2 SWAP1 POP JUMP JUMPDEST PUSH2 0x78F DUP2 PUSH2 0x77B JUMP JUMPDEST DUP3 MSTORE POP POP JUMP JUMPDEST PUSH0 PUSH1 0x20 DUP3 ADD SWAP1 POP PUSH2 0x7A8 PUSH0 DUP4 ADD DUP5 PUSH2 0x786 JUMP JUMPDEST SWAP3 SWAP2 POP POP JUMP JUMPDEST PUSH2 0x7B7 DUP2 PUSH2 0x698 JUMP JUMPDEST DUP3 MSTORE POP POP JUMP JUMPDEST PUSH0 PUSH1 0x20 DUP3 ADD SWAP1 POP PUSH2 0x7D0 PUSH0 DUP4 ADD DUP5 PUSH2 0x7AE JUMP JUMPDEST SWAP3 SWAP2 POP POP JUMP JUMPDEST PUSH0 DUP2 MLOAD SWAP1 POP SWAP2 SWAP1 POP JUMP JUMPDEST PUSH0 DUP3 DUP3 MSTORE PUSH1 0x20 DUP3 ADD SWAP1 POP SWAP3 SWAP2 POP POP JUMP JUMPDEST DUP3 DUP2 DUP4 MCOPY PUSH0 DUP4 DUP4 ADD MSTORE POP POP POP JUMP JUMPDEST PUSH0 PUSH1 0x1F NOT PUSH1 0x1F DUP4 ADD AND SWAP1 POP SWAP2 SWAP1 POP JUMP JUMPDEST PUSH0 PUSH2 0x818 DUP3 PUSH2 0x7D6 JUMP JUMPDEST PUSH2 0x822 DUP2 DUP6 PUSH2 0x7E0 JUMP JUMPDEST SWAP4 POP PUSH2 0x832 DUP2 DUP6 PUSH1 0x20 DUP7 ADD PUSH2 0x7F0 JUMP JUMPDEST PUSH2 0x83B DUP2 PUSH2 0x7FE JUMP JUMPDEST DUP5 ADD SWAP2 POP POP SWAP3 SWAP2 POP POP JUMP JUMPDEST PUSH0 PUSH1 0x60 DUP3 ADD SWAP1 POP PUSH2 0x859 PUSH0 DUP4 ADD DUP7 PUSH2 0x7AE JUMP JUMPDEST DUP2 DUP2 SUB PUSH1 0x20 DUP4 ADD MSTORE PUSH2 0x86B DUP2 DUP6 PUSH2 0x80E JUMP JUMPDEST SWAP1 POP PUSH2 0x87A PUSH1 0x40 DUP4 ADD DUP5 PUSH2 0x7AE JUMP JUMPDEST SWAP5 SWAP4 POP POP POP POP JUMP JUMPDEST PUSH0 PUSH1 0x20 DUP3 ADD SWAP1 POP DUP2 DUP2 SUB PUSH0 DUP4 ADD MSTORE PUSH2 0x89A DUP2 DUP5 PUSH2 0x80E JUMP JUMPDEST SWAP1 POP SWAP3 SWAP2 POP POP JUMP JUMPDEST PUSH0 DUP1 REVERT JUMPDEST PUSH32 0x4E487B7100000000000000000000000000000000000000000000000000000000 PUSH0 MSTORE PUSH1 0x41 PUSH1 0x4 MSTORE PUSH1 0x24 PUSH0 REVERT JUMPDEST PUSH2 0x8DC DUP3 PUSH2 0x7FE JUMP JUMPDEST DUP2 ADD DUP2 DUP2 LT PUSH8 0xFFFFFFFFFFFFFFFF DUP3 GT OR ISZERO PUSH2 0x8FB JUMPI PUSH2 0x8FA PUSH2 0x8A6 JUMP JUMPDEST JUMPDEST DUP1 PUSH1 0x40 MSTORE POP POP POP JUMP JUMPDEST PUSH0 PUSH2 0x90D PUSH2 0x687 JUMP JUMPDEST SWAP1 POP PUSH2 0x919 DUP3 DUP3 PUSH2 0x8D3 JUMP JUMPDEST SWAP2 SWAP1 POP JUMP JUMPDEST PUSH0 PUSH8 0xFFFFFFFFFFFFFFFF DUP3 GT ISZERO PUSH2 0x938 JUMPI PUSH2 0x937 PUSH2 0x8A6 JUMP JUMPDEST JUMPDEST PUSH1 0x20 DUP3 MUL SWAP1 POP PUSH1 0x20 DUP2 ADD SWAP1 POP SWAP2 SWAP1 POP JUMP JUMPDEST PUSH0 DUP1 REVERT JUMPDEST PUSH0 PUSH2 0x95F PUSH2 0x95A DUP5 PUSH2 0x91E JUMP JUMPDEST PUSH2 0x904 JUMP JUMPDEST SWAP1 POP DUP1 DUP4 DUP3 MSTORE PUSH1 0x20 DUP3 ADD SWAP1 POP PUSH1 0x20 DUP5 MUL DUP4 ADD DUP6 DUP2 GT ISZERO PUSH2 0x982 JUMPI PUSH2 0x981 PUSH2 0x949 JUMP JUMPDEST JUMPDEST DUP4 JUMPDEST DUP2 DUP2 LT ISZERO PUSH2 0x9AB JUMPI DUP1 PUSH2 0x997 DUP9 DUP3 PUSH2 0x6B7 JUMP JUMPDEST DUP5 MSTORE PUSH1 0x20 DUP5 ADD SWAP4 POP POP PUSH1 0x20 DUP2 ADD SWAP1 POP PUSH2 0x984 JUMP JUMPDEST POP POP POP SWAP4 SWAP3 POP POP POP JUMP JUMPDEST PUSH0 DUP3 PUSH1 0x1F DUP4 ADD SLT PUSH2 0x9C9 JUMPI PUSH2 0x9C8 PUSH2 0x8A2 JUMP JUMPDEST JUMPDEST DUP2 CALLDATALOAD PUSH2 0x9D9 DUP5 DUP3 PUSH1 0x20 DUP7 ADD PUSH2 0x94D JUMP JUMPDEST SWAP2 POP POP SWAP3 SWAP2 POP POP JUMP JUMPDEST PUSH0 PUSH1 0x20 DUP3 DUP5 SUB SLT ISZERO PUSH2 0x9F7 JUMPI PUSH2 0x9F6 PUSH2 0x690 JUMP JUMPDEST JUMPDEST PUSH0 DUP3 ADD CALLDATALOAD PUSH8 0xFFFFFFFFFFFFFFFF DUP2 GT ISZERO PUSH2 0xA14 JUMPI PUSH2 0xA13 PUSH2 0x694 JUMP JUMPDEST JUMPDEST PUSH2 0xA20 DUP5 DUP3 DUP6 ADD PUSH2 0x9B5 JUMP JUMPDEST SWAP2 POP POP SWAP3 SWAP2 POP POP JUMP JUMPDEST PUSH32 0x596F75206861766520616C726561647920766F7465642E000000000000000000 PUSH0 DUP3 ADD MSTORE POP JUMP JUMPDEST PUSH0 PUSH2 0xA5D PUSH1 0x17 DUP4 PUSH2 0x7E0 JUMP JUMPDEST SWAP2 POP PUSH2 0xA68 DUP3 PUSH2 0xA29 JUMP JUMPDEST PUSH1 0x20 DUP3 ADD SWAP1 POP SWAP2 SWAP1 POP JUMP JUMPDEST PUSH0 PUSH1 0x20 DUP3 ADD SWAP1 POP DUP2 DUP2 SUB PUSH0 DUP4 ADD MSTORE PUSH2 0xA8A DUP2 PUSH2 0xA51 JUMP JUMPDEST SWAP1 POP SWAP2 SWAP1 POP JUMP JUMPDEST PUSH32 0x496E76616C69642063616E6469646174652049442E2050726573732030206966 PUSH0 DUP3 ADD MSTORE PUSH32 0x20796F75207769746820746F204162737461696E2E0000000000000000000000 PUSH1 0x20 DUP3 ADD MSTORE POP JUMP JUMPDEST PUSH0 PUSH2 0xAEB PUSH1 0x35 DUP4 PUSH2 0x7E0 JUMP JUMPDEST SWAP2 POP PUSH2 0xAF6 DUP3 PUSH2 0xA91 JUMP JUMPDEST PUSH1 0x40 DUP3 ADD SWAP1 POP SWAP2 SWAP1 POP JUMP JUMPDEST PUSH0 PUSH1 0x20 DUP3 ADD SWAP1 POP DUP2 DUP2 SUB PUSH0 DUP4 ADD MSTORE PUSH2 0xB18 DUP2 PUSH2 0xADF JUMP JUMPDEST SWAP1 POP SWAP2 SWAP1 POP JUMP JUMPDEST PUSH32 0x4E487B7100000000000000000000000000000000000000000000000000000000 PUSH0 MSTORE PUSH1 0x11 PUSH1 0x4 MSTORE PUSH1 0x24 PUSH0 REVERT JUMPDEST PUSH0 PUSH2 0xB56 DUP3 PUSH2 0x698 JUMP JUMPDEST SWAP2 POP PUSH32 0xFFFFFFFFFFFFFFFFFFFFFFFFFFFFFFFFFFFFFFFFFFFFFFFFFFFFFFFFFFFFFFFF DUP3 SUB PUSH2 0xB88 JUMPI PUSH2 0xB87 PUSH2 0xB1F JUMP JUMPDEST JUMPDEST PUSH1 0x1 DUP3 ADD SWAP1 POP SWAP2 SWAP1 POP JUMP JUMPDEST PUSH2 0xB9C DUP2 PUSH2 0x715 JUMP JUMPDEST DUP3 MSTORE POP POP JUMP JUMPDEST PUSH0 PUSH1 0x40 DUP3 ADD SWAP1 POP PUSH2 0xBB5 PUSH0 DUP4 ADD DUP6 PUSH2 0xB93 JUMP JUMPDEST PUSH2 0xBC2 PUSH1 0x20 DUP4 ADD DUP5 PUSH2 0x7AE JUMP JUMPDEST SWAP4 SWAP3 POP POP POP JUMP JUMPDEST PUSH32 0x4E487B7100000000000000000000000000000000000000000000000000000000 PUSH0 MSTORE PUSH1 0x22 PUSH1 0x4 MSTORE PUSH1 0x24 PUSH0 REVERT JUMPDEST PUSH0 PUSH1 0x2 DUP3 DIV SWAP1 POP PUSH1 0x1 DUP3 AND DUP1 PUSH2 0xC0D JUMPI PUSH1 0x7F DUP3 AND SWAP2 POP JUMPDEST PUSH1 0x20 DUP3 LT DUP2 SUB PUSH2 0xC20 JUMPI PUSH2 0xC1F PUSH2 0xBC9 JUMP JUMPDEST JUMPDEST POP SWAP2 SWAP1 POP JUMP JUMPDEST PUSH0 DUP2 SWAP1 POP SWAP3 SWAP2 POP POP JUMP JUMPDEST PUSH32 0x43616E64696461746520413A2000000000000000000000000000000000000000 PUSH0 DUP3 ADD MSTORE POP JUMP JUMPDEST PUSH0 PUSH2 0xC64 PUSH1 0xD DUP4 PUSH2 0xC26 JUMP JUMPDEST SWAP2 POP PUSH2 0xC6F DUP3 PUSH2 0xC30 JUMP JUMPDEST PUSH1 0xD DUP3 ADD SWAP1 POP SWAP2 SWAP1 POP JUMP JUMPDEST PUSH0 PUSH2 0xC84 DUP3 PUSH2 0x7D6 JUMP JUMPDEST PUSH2 0xC8E DUP2 DUP6 PUSH2 0xC26 JUMP JUMPDEST SWAP4 POP PUSH2 0xC9E DUP2 DUP6 PUSH1 0x20 DUP7 ADD PUSH2 0x7F0 JUMP JUMPDEST DUP1 DUP5 ADD SWAP2 POP POP SWAP3 SWAP2 POP POP JUMP JUMPDEST PUSH32 0x20766F7465732C2043616E64696461746520423A200000000000000000000000 PUSH0 DUP3 ADD MSTORE POP JUMP JUMPDEST PUSH0 PUSH2 0xCDE PUSH1 0x15 DUP4 PUSH2 0xC26 JUMP JUMPDEST SWAP2 POP PUSH2 0xCE9 DUP3 PUSH2 0xCAA JUMP JUMPDEST PUSH1 0x15 DUP3 ADD SWAP1 POP SWAP2 SWAP1 POP JUMP JUMPDEST PUSH32 0x20766F7465732C20426C616E6B3A200000000000000000000000000000000000 PUSH0 DUP3 ADD MSTORE POP JUMP JUMPDEST PUSH0 PUSH2 0xD28 PUSH1 0xF DUP4 PUSH2 0xC26 JUMP JUMPDEST SWAP2 POP PUSH2 0xD33 DUP3 PUSH2 0xCF4 JUMP JUMPDEST PUSH1 0xF DUP3 ADD SWAP1 POP SWAP2 SWAP1 POP JUMP JUMPDEST PUSH32 0x20766F7465730000000000000000000000000000000000000000000000000000 PUSH0 DUP3 ADD MSTORE POP JUMP JUMPDEST PUSH0 PUSH2 0xD72 PUSH1 0x6 DUP4 PUSH2 0xC26 JUMP JUMPDEST SWAP2 POP PUSH2 0xD7D DUP3 PUSH2 0xD3E JUMP JUMPDEST PUSH1 0x6 DUP3 ADD SWAP1 POP SWAP2 SWAP1 POP JUMP JUMPDEST PUSH0 PUSH2 0xD92 DUP3 PUSH2 0xC58 JUMP JUMPDEST SWAP2 POP PUSH2 0xD9E DUP3 DUP7 PUSH2 0xC7A JUMP JUMPDEST SWAP2 POP PUSH2 0xDA9 DUP3 PUSH2 0xCD2 JUMP JUMPDEST SWAP2 POP PUSH2 0xDB5 DUP3 DUP6 PUSH2 0xC7A JUMP JUMPDEST SWAP2 POP PUSH2 0xDC0 DUP3 PUSH2 0xD1C JUMP JUMPDEST SWAP2 POP PUSH2 0xDCC DUP3 DUP5 PUSH2 0xC7A JUMP JUMPDEST SWAP2 POP PUSH2 0xDD7 DUP3 PUSH2 0xD66 JUMP JUMPDEST SWAP2 POP DUP2 SWAP1 POP SWAP5 SWAP4 POP POP POP POP JUMP JUMPDEST PUSH32 0x4E487B7100000000000000000000000000000000000000000000000000000000 PUSH0 MSTORE PUSH1 0x32 PUSH1 0x4 MSTORE PUSH1 0x24 PUSH0 REVERT JUMPDEST PUSH32 0x4E487B7100000000000000000000000000000000000000000000000000000000 PUSH0 MSTORE PUSH1 0x12 PUSH1 0x4 MSTORE PUSH1 0x24 PUSH0 REVERT JUMPDEST PUSH0 PUSH2 0xE48 DUP3 PUSH2 0x698 JUMP JUMPDEST SWAP2 POP PUSH2 0xE53 DUP4 PUSH2 0x698 JUMP JUMPDEST SWAP3 POP DUP3 PUSH2 0xE63 JUMPI PUSH2 0xE62 PUSH2 0xE11 JUMP JUMPDEST JUMPDEST DUP3 DUP3 DIV SWAP1 POP SWAP3 SWAP2 POP POP JUMP JUMPDEST PUSH0 PUSH2 0xE78 DUP3 PUSH2 0x698 JUMP JUMPDEST SWAP2 POP PUSH2 0xE83 DUP4 PUSH2 0x698 JUMP JUMPDEST SWAP3 POP DUP3 DUP3 SUB SWAP1 POP DUP2 DUP2 GT ISZERO PUSH2 0xE9B JUMPI PUSH2 0xE9A PUSH2 0xB1F JUMP JUMPDEST JUMPDEST SWAP3 SWAP2 POP POP JUMP JUMPDEST PUSH0 PUSH2 0xEAB DUP3 PUSH2 0x698 JUMP JUMPDEST SWAP2 POP PUSH2 0xEB6 DUP4 PUSH2 0x698 JUMP JUMPDEST SWAP3 POP DUP3 PUSH2 0xEC6 JUMPI PUSH2 0xEC5 PUSH2 0xE11 JUMP JUMPDEST JUMPDEST DUP3 DUP3 MOD SWAP1 POP SWAP3 SWAP2 POP POP JUMP JUMPDEST PUSH0 PUSH2 0xEDB DUP3 PUSH2 0x698 JUMP JUMPDEST SWAP2 POP PUSH2 0xEE6 DUP4 PUSH2 0x698 JUMP JUMPDEST SWAP3 POP DUP3 DUP3 ADD SWAP1 POP DUP1 DUP3 GT ISZERO PUSH2 0xEFE JUMPI PUSH2 0xEFD PUSH2 0xB1F JUMP JUMPDEST JUMPDEST SWAP3 SWAP2 POP POP JUMP INVALID LOG2 PUSH5 0x6970667358 0x22 SLT KECCAK256 0x2F 0xB0 0xB8 SWAP13 0xB9 PUSH23 0x6BCD993E2EF0354E088DDBAA742AD804130D672E128EBA BLOCKHASH PUSH5 0x6764736F6C PUSH4 0x4300081A STOP CALLER "
				},
				"gasEstimates": {
					"creation": {
						"codeDepositCost": "779600",
						"executionCost": "infinite",
						"totalCost": "infinite"
					},
					"external": {
						"batchVote(uint256[])": "infinite",
						"blankVotes()": "2469",
						"candidates(uint256)": "infinite",
						"getResults()": "infinite",
						"hasVoted(address)": "2856",
						"resetVotes()": "20425",
						"totalVotes()": "2470",
						"vote(uint256)": "infinite"
					},
					"internal": {
						"addCandidate(uint256,string memory)": "infinite",
						"uintToString(uint256)": "infinite"
					}
				},
				"methodIdentifiers": {
					"batchVote(uint256[])": "65422a55",
					"blankVotes()": "6a316c9d",
					"candidates(uint256)": "3477ee2e",
					"getResults()": "4717f97c",
					"hasVoted(address)": "09eef43e",
					"resetVotes()": "b9830ff1",
					"totalVotes()": "0d15fd77",
					"vote(uint256)": "0121b93f"
				}
			},
			"storageLayout": {
				"storage": [
					{
						"astId": 13,
						"contract": "contracts/DigitalVotingSystem.sol:Election",
						"label": "candidates",
						"offset": 0,
						"slot": "0",
						"type": "t_mapping(t_uint256,t_struct(Candidate)8_storage)"
					},
					{
						"astId": 17,
						"contract": "contracts/DigitalVotingSystem.sol:Election",
						"label": "hasVoted",
						"offset": 0,
						"slot": "1",
						"type": "t_mapping(t_address,t_bool)"
					},
					{
						"astId": 19,
						"contract": "contracts/DigitalVotingSystem.sol:Election",
						"label": "totalVotes",
						"offset": 0,
						"slot": "2",
						"type": "t_uint256"
					},
					{
						"astId": 21,
						"contract": "contracts/DigitalVotingSystem.sol:Election",
						"label": "blankVotes",
						"offset": 0,
						"slot": "3",
						"type": "t_uint256"
					}
				],
				"types": {
					"t_address": {
						"encoding": "inplace",
						"label": "address",
						"numberOfBytes": "20"
					},
					"t_bool": {
						"encoding": "inplace",
						"label": "bool",
						"numberOfBytes": "1"
					},
					"t_mapping(t_address,t_bool)": {
						"encoding": "mapping",
						"key": "t_address",
						"label": "mapping(address => bool)",
						"numberOfBytes": "32",
						"value": "t_bool"
					},
					"t_mapping(t_uint256,t_struct(Candidate)8_storage)": {
						"encoding": "mapping",
						"key": "t_uint256",
						"label": "mapping(uint256 => struct Election.Candidate)",
						"numberOfBytes": "32",
						"value": "t_struct(Candidate)8_storage"
					},
					"t_string_storage": {
						"encoding": "bytes",
						"label": "string",
						"numberOfBytes": "32"
					},
					"t_struct(Candidate)8_storage": {
						"encoding": "inplace",
						"label": "struct Election.Candidate",
						"members": [
							{
								"astId": 3,
								"contract": "contracts/DigitalVotingSystem.sol:Election",
								"label": "id",
								"offset": 0,
								"slot": "0",
								"type": "t_uint256"
							},
							{
								"astId": 5,
								"contract": "contracts/DigitalVotingSystem.sol:Election",
								"label": "name",
								"offset": 0,
								"slot": "1",
								"type": "t_string_storage"
							},
							{
								"astId": 7,
								"contract": "contracts/DigitalVotingSystem.sol:Election",
								"label": "voteCount",
								"offset": 0,
								"slot": "2",
								"type": "t_uint256"
							}
						],
						"numberOfBytes": "96"
					},
					"t_uint256": {
						"encoding": "inplace",
						"label": "uint256",
						"numberOfBytes": "32"
					}
				}
			},
			"userdoc": {
				"kind": "user",
				"methods": {},
				"version": 1
			}
		}
	}
}