{
	"contracts/DigitalVotingSystem.sol": {
		"Election": {
			"abi": [
				{
					"inputs": [],
					"stateMutability": "nonpayable",
					"type": "constructor"
				},
				{
					"anonymous": false,
					"inputs": [
						{
							"indexed": false,
							"internalType": "address",
							"name": "voter",
							"type": "address"
						},
						{
							"indexed": false,
							"internalType": "uint256",
							"name": "candidateId",
							"type": "uint256"
						}
					],
					"name": "VoteCasted",
					"type": "event"
				},
				{
					"inputs": [],
					"name": "blankVotes",
					"outputs": [
						{
							"internalType": "uint256",
							"name": "",
							"type": "uint256"
						}
					],
					"stateMutability": "view",
					"type": "function"
				},
				{
					"inputs": [
						{
							"internalType": "uint256",
							"name": "",
							"type": "uint256"
						}
					],
					"name": "candidates",
					"outputs": [
						{
							"internalType": "uint256",
							"name": "id",
							"type": "uint256"
						},
						{
							"internalType": "string",
							"name": "name",
							"type": "string"
						},
						{
							"internalType": "uint256",
							"name": "voteCount",
							"type": "uint256"
						}
					],
					"stateMutability": "view",
					"type": "function"
				},
				{
					"inputs": [],
					"name": "getResults",
					"outputs": [
						{
							"internalType": "string",
							"name": "",
							"type": "string"
						}
					],
					"stateMutability": "view",
					"type": "function"
				},
				{
					"inputs": [
						{
							"internalType": "address",
							"name": "",
							"type": "address"
						}
					],
					"name": "hasVoted",
					"outputs": [
						{
							"internalType": "bool",
							"name": "",
							"type": "bool"
						}
					],
					"stateMutability": "view",
					"type": "function"
				},
				{
					"inputs": [],
					"name": "resetVotes",
					"outputs": [],
					"stateMutability": "nonpayable",
					"type": "function"
				},
				{
					"inputs": [],
					"name": "totalVotes",
					"outputs": [
						{
							"internalType": "uint256",
							"name": "",
							"type": "uint256"
						}
					],
					"stateMutability": "view",
					"type": "function"
				},
				{
					"inputs": [
						{
							"internalType": "uint256",
							"name": "_candidateId",
							"type": "uint256"
						}
					],
					"name": "vote",
					"outputs": [],
					"stateMutability": "nonpayable",
					"type": "function"
				}
			],
			"devdoc": {
				"kind": "dev",
				"methods": {},
				"version": 1
			},
			"evm": {
				"assembly": "    /* \"contracts/DigitalVotingSystem.sol\":349:4345  contract Election{... */\n  mstore(0x40, 0x80)\n    /* \"contracts/DigitalVotingSystem.sol\":1187:1357  constructor(){... */\n  callvalue\n  dup1\n  iszero\n  tag_1\n  jumpi\n  0x00\n  dup1\n  revert\ntag_1:\n  pop\n    /* \"contracts/DigitalVotingSystem.sol\":1276:1307  addCandidate(13, \"Candidate A\") */\n  tag_4\n    /* \"contracts/DigitalVotingSystem.sol\":1289:1291  13 */\n  0x0d\n    /* \"contracts/DigitalVotingSystem.sol\":1276:1307  addCandidate(13, \"Candidate A\") */\n  mload(0x40)\n  dup1\n  0x40\n  add\n  0x40\n  mstore\n  dup1\n  0x0b\n  dup2\n  mstore\n  0x20\n  add\n  0x43616e6469646174652041000000000000000000000000000000000000000000\n  dup2\n  mstore\n  pop\n    /* \"contracts/DigitalVotingSystem.sol\":1276:1288  addCandidate */\n  shl(0x20, tag_5)\n    /* \"contracts/DigitalVotingSystem.sol\":1276:1307  addCandidate(13, \"Candidate A\") */\n  0x20\n  shr\n  jump\t// in\ntag_4:\n    /* \"contracts/DigitalVotingSystem.sol\":1318:1349  addCandidate(22, \"Candidate B\") */\n  tag_6\n    /* \"contracts/DigitalVotingSystem.sol\":1331:1333  22 */\n  0x16\n    /* \"contracts/DigitalVotingSystem.sol\":1318:1349  addCandidate(22, \"Candidate B\") */\n  mload(0x40)\n  dup1\n  0x40\n  add\n  0x40\n  mstore\n  dup1\n  0x0b\n  dup2\n  mstore\n  0x20\n  add\n  0x43616e6469646174652042000000000000000000000000000000000000000000\n  dup2\n  mstore\n  pop\n    /* \"contracts/DigitalVotingSystem.sol\":1318:1330  addCandidate */\n  shl(0x20, tag_5)\n    /* \"contracts/DigitalVotingSystem.sol\":1318:1349  addCandidate(22, \"Candidate B\") */\n  0x20\n  shr\n  jump\t// in\ntag_6:\n    /* \"contracts/DigitalVotingSystem.sol\":349:4345  contract Election{... */\n  jump(tag_7)\n    /* \"contracts/DigitalVotingSystem.sol\":1424:1576  function addCandidate(uint _id, string memory _name) internal {... */\ntag_5:\n    /* \"contracts/DigitalVotingSystem.sol\":1515:1539  Candidate(_id, _name, 0) */\n  mload(0x40)\n  dup1\n  0x60\n  add\n  0x40\n  mstore\n  dup1\n    /* \"contracts/DigitalVotingSystem.sol\":1525:1528  _id */\n  dup4\n    /* \"contracts/DigitalVotingSystem.sol\":1515:1539  Candidate(_id, _name, 0) */\n  dup2\n  mstore\n  0x20\n  add\n    /* \"contracts/DigitalVotingSystem.sol\":1530:1535  _name */\n  dup3\n    /* \"contracts/DigitalVotingSystem.sol\":1515:1539  Candidate(_id, _name, 0) */\n  dup2\n  mstore\n  0x20\n  add\n    /* \"contracts/DigitalVotingSystem.sol\":1537:1538  0 */\n  0x00\n    /* \"contracts/DigitalVotingSystem.sol\":1515:1539  Candidate(_id, _name, 0) */\n  dup2\n  mstore\n  pop\n    /* \"contracts/DigitalVotingSystem.sol\":1497:1507  candidates */\n  0x00\n    /* \"contracts/DigitalVotingSystem.sol\":1497:1512  candidates[_id] */\n  dup1\n    /* \"contracts/DigitalVotingSystem.sol\":1508:1511  _id */\n  dup5\n    /* \"contracts/DigitalVotingSystem.sol\":1497:1512  candidates[_id] */\n  dup2\n  mstore\n  0x20\n  add\n  swap1\n  dup2\n  mstore\n  0x20\n  add\n  0x00\n  keccak256\n    /* \"contracts/DigitalVotingSystem.sol\":1497:1539  candidates[_id] = Candidate(_id, _name, 0) */\n  0x00\n  dup3\n  add\n  mload\n  dup2\n  0x00\n  add\n  sstore\n  0x20\n  dup3\n  add\n  mload\n  dup2\n  0x01\n  add\n  swap1\n  dup2\n  tag_9\n  swap2\n  swap1\n  tag_10\n  jump\t// in\ntag_9:\n  pop\n  0x40\n  dup3\n  add\n  mload\n  dup2\n  0x02\n  add\n  sstore\n  swap1\n  pop\n  pop\n    /* \"contracts/DigitalVotingSystem.sol\":1424:1576  function addCandidate(uint _id, string memory _name) internal {... */\n  pop\n  pop\n  jump\t// out\n    /* \"#utility.yul\":7:106   */\ntag_11:\n    /* \"#utility.yul\":59:65   */\n  0x00\n    /* \"#utility.yul\":93:98   */\n  dup2\n    /* \"#utility.yul\":87:99   */\n  mload\n    /* \"#utility.yul\":77:99   */\n  swap1\n  pop\n    /* \"#utility.yul\":7:106   */\n  swap2\n  swap1\n  pop\n  jump\t// out\n    /* \"#utility.yul\":112:292   */\ntag_12:\n    /* \"#utility.yul\":160:237   */\n  0x4e487b7100000000000000000000000000000000000000000000000000000000\n    /* \"#utility.yul\":157:158   */\n  0x00\n    /* \"#utility.yul\":150:238   */\n  mstore\n    /* \"#utility.yul\":257:261   */\n  0x41\n    /* \"#utility.yul\":254:255   */\n  0x04\n    /* \"#utility.yul\":247:262   */\n  mstore\n    /* \"#utility.yul\":281:285   */\n  0x24\n    /* \"#utility.yul\":278:279   */\n  0x00\n    /* \"#utility.yul\":271:286   */\n  revert\n    /* \"#utility.yul\":298:478   */\ntag_13:\n    /* \"#utility.yul\":346:423   */\n  0x4e487b7100000000000000000000000000000000000000000000000000000000\n    /* \"#utility.yul\":343:344   */\n  0x00\n    /* \"#utility.yul\":336:424   */\n  mstore\n    /* \"#utility.yul\":443:447   */\n  0x22\n    /* \"#utility.yul\":440:441   */\n  0x04\n    /* \"#utility.yul\":433:448   */\n  mstore\n    /* \"#utility.yul\":467:471   */\n  0x24\n    /* \"#utility.yul\":464:465   */\n  0x00\n    /* \"#utility.yul\":457:472   */\n  revert\n    /* \"#utility.yul\":484:804   */\ntag_14:\n    /* \"#utility.yul\":528:534   */\n  0x00\n    /* \"#utility.yul\":565:566   */\n  0x02\n    /* \"#utility.yul\":559:563   */\n  dup3\n    /* \"#utility.yul\":555:567   */\n  div\n    /* \"#utility.yul\":545:567   */\n  swap1\n  pop\n    /* \"#utility.yul\":612:613   */\n  0x01\n    /* \"#utility.yul\":606:610   */\n  dup3\n    /* \"#utility.yul\":602:614   */\n  and\n    /* \"#utility.yul\":633:651   */\n  dup1\n    /* \"#utility.yul\":623:704   */\n  tag_36\n  jumpi\n    /* \"#utility.yul\":689:693   */\n  0x7f\n    /* \"#utility.yul\":681:687   */\n  dup3\n    /* \"#utility.yul\":677:694   */\n  and\n    /* \"#utility.yul\":667:694   */\n  swap2\n  pop\n    /* \"#utility.yul\":623:704   */\ntag_36:\n    /* \"#utility.yul\":751:753   */\n  0x20\n    /* \"#utility.yul\":743:749   */\n  dup3\n    /* \"#utility.yul\":740:754   */\n  lt\n    /* \"#utility.yul\":720:738   */\n  dup2\n    /* \"#utility.yul\":717:755   */\n  sub\n    /* \"#utility.yul\":714:798   */\n  tag_37\n  jumpi\n    /* \"#utility.yul\":770:788   */\n  tag_38\n  tag_13\n  jump\t// in\ntag_38:\n    /* \"#utility.yul\":714:798   */\ntag_37:\n    /* \"#utility.yul\":535:804   */\n  pop\n    /* \"#utility.yul\":484:804   */\n  swap2\n  swap1\n  pop\n  jump\t// out\n    /* \"#utility.yul\":810:951   */\ntag_15:\n    /* \"#utility.yul\":859:863   */\n  0x00\n    /* \"#utility.yul\":882:885   */\n  dup2\n    /* \"#utility.yul\":874:885   */\n  swap1\n  pop\n    /* \"#utility.yul\":905:908   */\n  dup2\n    /* \"#utility.yul\":902:903   */\n  0x00\n    /* \"#utility.yul\":895:909   */\n  mstore\n    /* \"#utility.yul\":939:943   */\n  0x20\n    /* \"#utility.yul\":936:937   */\n  0x00\n    /* \"#utility.yul\":926:944   */\n  keccak256\n    /* \"#utility.yul\":918:944   */\n  swap1\n  pop\n    /* \"#utility.yul\":810:951   */\n  swap2\n  swap1\n  pop\n  jump\t// out\n    /* \"#utility.yul\":957:1050   */\ntag_16:\n    /* \"#utility.yul\":994:1000   */\n  0x00\n    /* \"#utility.yul\":1041:1043   */\n  0x20\n    /* \"#utility.yul\":1036:1038   */\n  0x1f\n    /* \"#utility.yul\":1029:1034   */\n  dup4\n    /* \"#utility.yul\":1025:1039   */\n  add\n    /* \"#utility.yul\":1021:1044   */\n  div\n    /* \"#utility.yul\":1011:1044   */\n  swap1\n  pop\n    /* \"#utility.yul\":957:1050   */\n  swap2\n  swap1\n  pop\n  jump\t// out\n    /* \"#utility.yul\":1056:1163   */\ntag_17:\n    /* \"#utility.yul\":1100:1108   */\n  0x00\n    /* \"#utility.yul\":1150:1155   */\n  dup3\n    /* \"#utility.yul\":1144:1148   */\n  dup3\n    /* \"#utility.yul\":1140:1156   */\n  shl\n    /* \"#utility.yul\":1119:1156   */\n  swap1\n  pop\n    /* \"#utility.yul\":1056:1163   */\n  swap3\n  swap2\n  pop\n  pop\n  jump\t// out\n    /* \"#utility.yul\":1169:1562   */\ntag_18:\n    /* \"#utility.yul\":1238:1244   */\n  0x00\n    /* \"#utility.yul\":1288:1289   */\n  0x08\n    /* \"#utility.yul\":1276:1286   */\n  dup4\n    /* \"#utility.yul\":1272:1290   */\n  mul\n    /* \"#utility.yul\":1311:1408   */\n  tag_43\n    /* \"#utility.yul\":1341:1407   */\n  0xffffffffffffffffffffffffffffffffffffffffffffffffffffffffffffffff\n    /* \"#utility.yul\":1330:1339   */\n  dup3\n    /* \"#utility.yul\":1311:1408   */\n  tag_17\n  jump\t// in\ntag_43:\n    /* \"#utility.yul\":1429:1468   */\n  tag_44\n    /* \"#utility.yul\":1459:1467   */\n  dup7\n    /* \"#utility.yul\":1448:1457   */\n  dup4\n    /* \"#utility.yul\":1429:1468   */\n  tag_17\n  jump\t// in\ntag_44:\n    /* \"#utility.yul\":1417:1468   */\n  swap6\n  pop\n    /* \"#utility.yul\":1501:1505   */\n  dup1\n    /* \"#utility.yul\":1497:1506   */\n  not\n    /* \"#utility.yul\":1490:1495   */\n  dup5\n    /* \"#utility.yul\":1486:1507   */\n  and\n    /* \"#utility.yul\":1477:1507   */\n  swap4\n  pop\n    /* \"#utility.yul\":1550:1554   */\n  dup1\n    /* \"#utility.yul\":1540:1548   */\n  dup7\n    /* \"#utility.yul\":1536:1555   */\n  and\n    /* \"#utility.yul\":1529:1534   */\n  dup5\n    /* \"#utility.yul\":1526:1556   */\n  or\n    /* \"#utility.yul\":1516:1556   */\n  swap3\n  pop\n    /* \"#utility.yul\":1245:1562   */\n  pop\n  pop\n    /* \"#utility.yul\":1169:1562   */\n  swap4\n  swap3\n  pop\n  pop\n  pop\n  jump\t// out\n    /* \"#utility.yul\":1568:1645   */\ntag_19:\n    /* \"#utility.yul\":1605:1612   */\n  0x00\n    /* \"#utility.yul\":1634:1639   */\n  dup2\n    /* \"#utility.yul\":1623:1639   */\n  swap1\n  pop\n    /* \"#utility.yul\":1568:1645   */\n  swap2\n  swap1\n  pop\n  jump\t// out\n    /* \"#utility.yul\":1651:1711   */\ntag_20:\n    /* \"#utility.yul\":1679:1682   */\n  0x00\n    /* \"#utility.yul\":1700:1705   */\n  dup2\n    /* \"#utility.yul\":1693:1705   */\n  swap1\n  pop\n    /* \"#utility.yul\":1651:1711   */\n  swap2\n  swap1\n  pop\n  jump\t// out\n    /* \"#utility.yul\":1717:1859   */\ntag_21:\n    /* \"#utility.yul\":1767:1776   */\n  0x00\n    /* \"#utility.yul\":1800:1853   */\n  tag_48\n    /* \"#utility.yul\":1818:1852   */\n  tag_49\n    /* \"#utility.yul\":1827:1851   */\n  tag_50\n    /* \"#utility.yul\":1845:1850   */\n  dup5\n    /* \"#utility.yul\":1827:1851   */\n  tag_19\n  jump\t// in\ntag_50:\n    /* \"#utility.yul\":1818:1852   */\n  tag_20\n  jump\t// in\ntag_49:\n    /* \"#utility.yul\":1800:1853   */\n  tag_19\n  jump\t// in\ntag_48:\n    /* \"#utility.yul\":1787:1853   */\n  swap1\n  pop\n    /* \"#utility.yul\":1717:1859   */\n  swap2\n  swap1\n  pop\n  jump\t// out\n    /* \"#utility.yul\":1865:1940   */\ntag_22:\n    /* \"#utility.yul\":1908:1911   */\n  0x00\n    /* \"#utility.yul\":1929:1934   */\n  dup2\n    /* \"#utility.yul\":1922:1934   */\n  swap1\n  pop\n    /* \"#utility.yul\":1865:1940   */\n  swap2\n  swap1\n  pop\n  jump\t// out\n    /* \"#utility.yul\":1946:2215   */\ntag_23:\n    /* \"#utility.yul\":2056:2095   */\n  tag_53\n    /* \"#utility.yul\":2087:2094   */\n  dup4\n    /* \"#utility.yul\":2056:2095   */\n  tag_21\n  jump\t// in\ntag_53:\n    /* \"#utility.yul\":2117:2208   */\n  tag_54\n    /* \"#utility.yul\":2166:2207   */\n  tag_55\n    /* \"#utility.yul\":2190:2206   */\n  dup3\n    /* \"#utility.yul\":2166:2207   */\n  tag_22\n  jump\t// in\ntag_55:\n    /* \"#utility.yul\":2158:2164   */\n  dup5\n    /* \"#utility.yul\":2151:2155   */\n  dup5\n    /* \"#utility.yul\":2145:2156   */\n  sload\n    /* \"#utility.yul\":2117:2208   */\n  tag_18\n  jump\t// in\ntag_54:\n    /* \"#utility.yul\":2111:2115   */\n  dup3\n    /* \"#utility.yul\":2104:2209   */\n  sstore\n    /* \"#utility.yul\":2022:2215   */\n  pop\n    /* \"#utility.yul\":1946:2215   */\n  pop\n  pop\n  pop\n  jump\t// out\n    /* \"#utility.yul\":2221:2294   */\ntag_24:\n    /* \"#utility.yul\":2266:2269   */\n  0x00\n    /* \"#utility.yul\":2221:2294   */\n  swap1\n  jump\t// out\n    /* \"#utility.yul\":2300:2489   */\ntag_25:\n    /* \"#utility.yul\":2377:2409   */\n  tag_58\n  tag_24\n  jump\t// in\ntag_58:\n    /* \"#utility.yul\":2418:2483   */\n  tag_59\n    /* \"#utility.yul\":2476:2482   */\n  dup2\n    /* \"#utility.yul\":2468:2474   */\n  dup5\n    /* \"#utility.yul\":2462:2466   */\n  dup5\n    /* \"#utility.yul\":2418:2483   */\n  tag_23\n  jump\t// in\ntag_59:\n    /* \"#utility.yul\":2353:2489   */\n  pop\n    /* \"#utility.yul\":2300:2489   */\n  pop\n  pop\n  jump\t// out\n    /* \"#utility.yul\":2495:2681   */\ntag_26:\n    /* \"#utility.yul\":2555:2675   */\ntag_61:\n    /* \"#utility.yul\":2572:2575   */\n  dup2\n    /* \"#utility.yul\":2565:2570   */\n  dup2\n    /* \"#utility.yul\":2562:2576   */\n  lt\n    /* \"#utility.yul\":2555:2675   */\n  iszero\n  tag_63\n  jumpi\n    /* \"#utility.yul\":2626:2665   */\n  tag_64\n    /* \"#utility.yul\":2663:2664   */\n  0x00\n    /* \"#utility.yul\":2656:2661   */\n  dup3\n    /* \"#utility.yul\":2626:2665   */\n  tag_25\n  jump\t// in\ntag_64:\n    /* \"#utility.yul\":2599:2600   */\n  0x01\n    /* \"#utility.yul\":2592:2597   */\n  dup2\n    /* \"#utility.yul\":2588:2601   */\n  add\n    /* \"#utility.yul\":2579:2601   */\n  swap1\n  pop\n    /* \"#utility.yul\":2555:2675   */\n  jump(tag_61)\ntag_63:\n    /* \"#utility.yul\":2495:2681   */\n  pop\n  pop\n  jump\t// out\n    /* \"#utility.yul\":2687:3230   */\ntag_27:\n    /* \"#utility.yul\":2788:2790   */\n  0x1f\n    /* \"#utility.yul\":2783:2786   */\n  dup3\n    /* \"#utility.yul\":2780:2791   */\n  gt\n    /* \"#utility.yul\":2777:3223   */\n  iszero\n  tag_66\n  jumpi\n    /* \"#utility.yul\":2822:2860   */\n  tag_67\n    /* \"#utility.yul\":2854:2859   */\n  dup2\n    /* \"#utility.yul\":2822:2860   */\n  tag_15\n  jump\t// in\ntag_67:\n    /* \"#utility.yul\":2906:2935   */\n  tag_68\n    /* \"#utility.yul\":2924:2934   */\n  dup5\n    /* \"#utility.yul\":2906:2935   */\n  tag_16\n  jump\t// in\ntag_68:\n    /* \"#utility.yul\":2896:2904   */\n  dup2\n    /* \"#utility.yul\":2892:2936   */\n  add\n    /* \"#utility.yul\":3089:3091   */\n  0x20\n    /* \"#utility.yul\":3077:3087   */\n  dup6\n    /* \"#utility.yul\":3074:3092   */\n  lt\n    /* \"#utility.yul\":3071:3120   */\n  iszero\n  tag_69\n  jumpi\n    /* \"#utility.yul\":3110:3118   */\n  dup2\n    /* \"#utility.yul\":3095:3118   */\n  swap1\n  pop\n    /* \"#utility.yul\":3071:3120   */\ntag_69:\n    /* \"#utility.yul\":3133:3213   */\n  tag_70\n    /* \"#utility.yul\":3189:3211   */\n  tag_71\n    /* \"#utility.yul\":3207:3210   */\n  dup6\n    /* \"#utility.yul\":3189:3211   */\n  tag_16\n  jump\t// in\ntag_71:\n    /* \"#utility.yul\":3179:3187   */\n  dup4\n    /* \"#utility.yul\":3175:3212   */\n  add\n    /* \"#utility.yul\":3162:3173   */\n  dup3\n    /* \"#utility.yul\":3133:3213   */\n  tag_26\n  jump\t// in\ntag_70:\n    /* \"#utility.yul\":2792:3223   */\n  pop\n  pop\n    /* \"#utility.yul\":2777:3223   */\ntag_66:\n    /* \"#utility.yul\":2687:3230   */\n  pop\n  pop\n  pop\n  jump\t// out\n    /* \"#utility.yul\":3236:3353   */\ntag_28:\n    /* \"#utility.yul\":3290:3298   */\n  0x00\n    /* \"#utility.yul\":3340:3345   */\n  dup3\n    /* \"#utility.yul\":3334:3338   */\n  dup3\n    /* \"#utility.yul\":3330:3346   */\n  shr\n    /* \"#utility.yul\":3309:3346   */\n  swap1\n  pop\n    /* \"#utility.yul\":3236:3353   */\n  swap3\n  swap2\n  pop\n  pop\n  jump\t// out\n    /* \"#utility.yul\":3359:3528   */\ntag_29:\n    /* \"#utility.yul\":3403:3409   */\n  0x00\n    /* \"#utility.yul\":3436:3487   */\n  tag_74\n    /* \"#utility.yul\":3484:3485   */\n  0x00\n    /* \"#utility.yul\":3480:3486   */\n  not\n    /* \"#utility.yul\":3472:3477   */\n  dup5\n    /* \"#utility.yul\":3469:3470   */\n  0x08\n    /* \"#utility.yul\":3465:3478   */\n  mul\n    /* \"#utility.yul\":3436:3487   */\n  tag_28\n  jump\t// in\ntag_74:\n    /* \"#utility.yul\":3432:3488   */\n  not\n    /* \"#utility.yul\":3517:3521   */\n  dup1\n    /* \"#utility.yul\":3511:3515   */\n  dup4\n    /* \"#utility.yul\":3507:3522   */\n  and\n    /* \"#utility.yul\":3497:3522   */\n  swap2\n  pop\n    /* \"#utility.yul\":3410:3528   */\n  pop\n    /* \"#utility.yul\":3359:3528   */\n  swap3\n  swap2\n  pop\n  pop\n  jump\t// out\n    /* \"#utility.yul\":3533:3828   */\ntag_30:\n    /* \"#utility.yul\":3609:3613   */\n  0x00\n    /* \"#utility.yul\":3755:3784   */\n  tag_76\n    /* \"#utility.yul\":3780:3783   */\n  dup4\n    /* \"#utility.yul\":3774:3778   */\n  dup4\n    /* \"#utility.yul\":3755:3784   */\n  tag_29\n  jump\t// in\ntag_76:\n    /* \"#utility.yul\":3747:3784   */\n  swap2\n  pop\n    /* \"#utility.yul\":3817:3820   */\n  dup3\n    /* \"#utility.yul\":3814:3815   */\n  0x02\n    /* \"#utility.yul\":3810:3821   */\n  mul\n    /* \"#utility.yul\":3804:3808   */\n  dup3\n    /* \"#utility.yul\":3801:3822   */\n  or\n    /* \"#utility.yul\":3793:3822   */\n  swap1\n  pop\n    /* \"#utility.yul\":3533:3828   */\n  swap3\n  swap2\n  pop\n  pop\n  jump\t// out\n    /* \"#utility.yul\":3833:5228   */\ntag_10:\n    /* \"#utility.yul\":3950:3987   */\n  tag_78\n    /* \"#utility.yul\":3983:3986   */\n  dup3\n    /* \"#utility.yul\":3950:3987   */\n  tag_11\n  jump\t// in\ntag_78:\n    /* \"#utility.yul\":4052:4070   */\n  0xffffffffffffffff\n    /* \"#utility.yul\":4044:4050   */\n  dup2\n    /* \"#utility.yul\":4041:4071   */\n  gt\n    /* \"#utility.yul\":4038:4094   */\n  iszero\n  tag_79\n  jumpi\n    /* \"#utility.yul\":4074:4092   */\n  tag_80\n  tag_12\n  jump\t// in\ntag_80:\n    /* \"#utility.yul\":4038:4094   */\ntag_79:\n    /* \"#utility.yul\":4118:4156   */\n  tag_81\n    /* \"#utility.yul\":4150:4154   */\n  dup3\n    /* \"#utility.yul\":4144:4155   */\n  sload\n    /* \"#utility.yul\":4118:4156   */\n  tag_14\n  jump\t// in\ntag_81:\n    /* \"#utility.yul\":4203:4270   */\n  tag_82\n    /* \"#utility.yul\":4263:4269   */\n  dup3\n    /* \"#utility.yul\":4255:4261   */\n  dup3\n    /* \"#utility.yul\":4249:4253   */\n  dup6\n    /* \"#utility.yul\":4203:4270   */\n  tag_27\n  jump\t// in\ntag_82:\n    /* \"#utility.yul\":4297:4298   */\n  0x00\n    /* \"#utility.yul\":4321:4325   */\n  0x20\n    /* \"#utility.yul\":4308:4325   */\n  swap1\n  pop\n    /* \"#utility.yul\":4353:4355   */\n  0x1f\n    /* \"#utility.yul\":4345:4351   */\n  dup4\n    /* \"#utility.yul\":4342:4356   */\n  gt\n    /* \"#utility.yul\":4370:4371   */\n  0x01\n    /* \"#utility.yul\":4365:4983   */\n  dup2\n  eq\n  tag_84\n  jumpi\n    /* \"#utility.yul\":5027:5028   */\n  0x00\n    /* \"#utility.yul\":5044:5050   */\n  dup5\n    /* \"#utility.yul\":5041:5118   */\n  iszero\n  tag_85\n  jumpi\n    /* \"#utility.yul\":5093:5102   */\n  dup3\n    /* \"#utility.yul\":5088:5091   */\n  dup8\n    /* \"#utility.yul\":5084:5103   */\n  add\n    /* \"#utility.yul\":5078:5104   */\n  mload\n    /* \"#utility.yul\":5069:5104   */\n  swap1\n  pop\n    /* \"#utility.yul\":5041:5118   */\ntag_85:\n    /* \"#utility.yul\":5144:5211   */\n  tag_86\n    /* \"#utility.yul\":5204:5210   */\n  dup6\n    /* \"#utility.yul\":5197:5202   */\n  dup3\n    /* \"#utility.yul\":5144:5211   */\n  tag_30\n  jump\t// in\ntag_86:\n    /* \"#utility.yul\":5138:5142   */\n  dup7\n    /* \"#utility.yul\":5131:5212   */\n  sstore\n    /* \"#utility.yul\":5000:5222   */\n  pop\n    /* \"#utility.yul\":4335:5222   */\n  jump(tag_83)\n    /* \"#utility.yul\":4365:4983   */\ntag_84:\n    /* \"#utility.yul\":4417:4421   */\n  0x1f\n    /* \"#utility.yul\":4413:4422   */\n  not\n    /* \"#utility.yul\":4405:4411   */\n  dup5\n    /* \"#utility.yul\":4401:4423   */\n  and\n    /* \"#utility.yul\":4451:4488   */\n  tag_87\n    /* \"#utility.yul\":4483:4487   */\n  dup7\n    /* \"#utility.yul\":4451:4488   */\n  tag_15\n  jump\t// in\ntag_87:\n    /* \"#utility.yul\":4510:4511   */\n  0x00\n    /* \"#utility.yul\":4524:4732   */\ntag_88:\n    /* \"#utility.yul\":4538:4545   */\n  dup3\n    /* \"#utility.yul\":4535:4536   */\n  dup2\n    /* \"#utility.yul\":4532:4546   */\n  lt\n    /* \"#utility.yul\":4524:4732   */\n  iszero\n  tag_90\n  jumpi\n    /* \"#utility.yul\":4617:4626   */\n  dup5\n    /* \"#utility.yul\":4612:4615   */\n  dup10\n    /* \"#utility.yul\":4608:4627   */\n  add\n    /* \"#utility.yul\":4602:4628   */\n  mload\n    /* \"#utility.yul\":4594:4600   */\n  dup3\n    /* \"#utility.yul\":4587:4629   */\n  sstore\n    /* \"#utility.yul\":4668:4669   */\n  0x01\n    /* \"#utility.yul\":4660:4666   */\n  dup3\n    /* \"#utility.yul\":4656:4670   */\n  add\n    /* \"#utility.yul\":4646:4670   */\n  swap2\n  pop\n    /* \"#utility.yul\":4715:4717   */\n  0x20\n    /* \"#utility.yul\":4704:4713   */\n  dup6\n    /* \"#utility.yul\":4700:4718   */\n  add\n    /* \"#utility.yul\":4687:4718   */\n  swap5\n  pop\n    /* \"#utility.yul\":4561:4565   */\n  0x20\n    /* \"#utility.yul\":4558:4559   */\n  dup2\n    /* \"#utility.yul\":4554:4566   */\n  add\n    /* \"#utility.yul\":4549:4566   */\n  swap1\n  pop\n    /* \"#utility.yul\":4524:4732   */\n  jump(tag_88)\ntag_90:\n    /* \"#utility.yul\":4760:4766   */\n  dup7\n    /* \"#utility.yul\":4751:4758   */\n  dup4\n    /* \"#utility.yul\":4748:4767   */\n  lt\n    /* \"#utility.yul\":4745:4924   */\n  iszero\n  tag_91\n  jumpi\n    /* \"#utility.yul\":4818:4827   */\n  dup5\n    /* \"#utility.yul\":4813:4816   */\n  dup10\n    /* \"#utility.yul\":4809:4828   */\n  add\n    /* \"#utility.yul\":4803:4829   */\n  mload\n    /* \"#utility.yul\":4861:4909   */\n  tag_92\n    /* \"#utility.yul\":4903:4907   */\n  0x1f\n    /* \"#utility.yul\":4895:4901   */\n  dup10\n    /* \"#utility.yul\":4891:4908   */\n  and\n    /* \"#utility.yul\":4880:4889   */\n  dup3\n    /* \"#utility.yul\":4861:4909   */\n  tag_29\n  jump\t// in\ntag_92:\n    /* \"#utility.yul\":4853:4859   */\n  dup4\n    /* \"#utility.yul\":4846:4910   */\n  sstore\n    /* \"#utility.yul\":4768:4924   */\n  pop\n    /* \"#utility.yul\":4745:4924   */\ntag_91:\n    /* \"#utility.yul\":4970:4971   */\n  0x01\n    /* \"#utility.yul\":4966:4967   */\n  0x02\n    /* \"#utility.yul\":4958:4964   */\n  dup9\n    /* \"#utility.yul\":4954:4968   */\n  mul\n    /* \"#utility.yul\":4950:4972   */\n  add\n    /* \"#utility.yul\":4944:4948   */\n  dup9\n    /* \"#utility.yul\":4937:4973   */\n  sstore\n    /* \"#utility.yul\":4372:4983   */\n  pop\n  pop\n  pop\n    /* \"#utility.yul\":4335:5222   */\ntag_83:\n  pop\n    /* \"#utility.yul\":3925:5228   */\n  pop\n  pop\n  pop\n    /* \"#utility.yul\":3833:5228   */\n  pop\n  pop\n  jump\t// out\n    /* \"contracts/DigitalVotingSystem.sol\":349:4345  contract Election{... */\ntag_7:\n  dataSize(sub_0)\n  dup1\n  dataOffset(sub_0)\n  0x00\n  codecopy\n  0x00\n  return\nstop\n\nsub_0: assembly {\n        /* \"contracts/DigitalVotingSystem.sol\":349:4345  contract Election{... */\n      mstore(0x40, 0x80)\n      callvalue\n      dup1\n      iszero\n      tag_1\n      jumpi\n      0x00\n      dup1\n      revert\n    tag_1:\n      pop\n      jumpi(tag_2, lt(calldatasize, 0x04))\n      shr(0xe0, calldataload(0x00))\n      dup1\n      0x3477ee2e\n      gt\n      tag_10\n      jumpi\n      dup1\n      0x3477ee2e\n      eq\n      tag_6\n      jumpi\n      dup1\n      0x4717f97c\n      eq\n      tag_7\n      jumpi\n      dup1\n      0x6a316c9d\n      eq\n      tag_8\n      jumpi\n      dup1\n      0xb9830ff1\n      eq\n      tag_9\n      jumpi\n      jump(tag_2)\n    tag_10:\n      dup1\n      0x0121b93f\n      eq\n      tag_3\n      jumpi\n      dup1\n      0x09eef43e\n      eq\n      tag_4\n      jumpi\n      dup1\n      0x0d15fd77\n      eq\n      tag_5\n      jumpi\n    tag_2:\n      0x00\n      dup1\n      revert\n        /* \"contracts/DigitalVotingSystem.sol\":1662:2563  function vote(uint _candidateId) public{... */\n    tag_3:\n      tag_11\n      0x04\n      dup1\n      calldatasize\n      sub\n      dup2\n      add\n      swap1\n      tag_12\n      swap2\n      swap1\n      tag_13\n      jump\t// in\n    tag_12:\n      tag_14\n      jump\t// in\n    tag_11:\n      stop\n        /* \"contracts/DigitalVotingSystem.sol\":811:851  mapping(address => bool) public hasVoted */\n    tag_4:\n      tag_15\n      0x04\n      dup1\n      calldatasize\n      sub\n      dup2\n      add\n      swap1\n      tag_16\n      swap2\n      swap1\n      tag_17\n      jump\t// in\n    tag_16:\n      tag_18\n      jump\t// in\n    tag_15:\n      mload(0x40)\n      tag_19\n      swap2\n      swap1\n      tag_20\n      jump\t// in\n    tag_19:\n      mload(0x40)\n      dup1\n      swap2\n      sub\n      swap1\n      return\n        /* \"contracts/DigitalVotingSystem.sol\":911:933  uint public totalVotes */\n    tag_5:\n      tag_21\n      tag_22\n      jump\t// in\n    tag_21:\n      mload(0x40)\n      tag_23\n      swap2\n      swap1\n      tag_24\n      jump\t// in\n    tag_23:\n      mload(0x40)\n      dup1\n      swap2\n      sub\n      swap1\n      return\n        /* \"contracts/DigitalVotingSystem.sol\":697:741  mapping(uint => Candidate) public candidates */\n    tag_6:\n      tag_25\n      0x04\n      dup1\n      calldatasize\n      sub\n      dup2\n      add\n      swap1\n      tag_26\n      swap2\n      swap1\n      tag_13\n      jump\t// in\n    tag_26:\n      tag_27\n      jump\t// in\n    tag_25:\n      mload(0x40)\n      tag_28\n      swap4\n      swap3\n      swap2\n      swap1\n      tag_29\n      jump\t// in\n    tag_28:\n      mload(0x40)\n      dup1\n      swap2\n      sub\n      swap1\n      return\n        /* \"contracts/DigitalVotingSystem.sol\":2714:3291  function getResults() public view returns (string memory) {... */\n    tag_7:\n      tag_30\n      tag_31\n      jump\t// in\n    tag_30:\n      mload(0x40)\n      tag_32\n      swap2\n      swap1\n      tag_33\n      jump\t// in\n    tag_32:\n      mload(0x40)\n      dup1\n      swap2\n      sub\n      swap1\n      return\n        /* \"contracts/DigitalVotingSystem.sol\":1017:1039  uint public blankVotes */\n    tag_8:\n      tag_34\n      tag_35\n      jump\t// in\n    tag_34:\n      mload(0x40)\n      tag_36\n      swap2\n      swap1\n      tag_24\n      jump\t// in\n    tag_36:\n      mload(0x40)\n      dup1\n      swap2\n      sub\n      swap1\n      return\n        /* \"contracts/DigitalVotingSystem.sol\":3924:4159  function resetVotes() public{... */\n    tag_9:\n      tag_37\n      tag_38\n      jump\t// in\n    tag_37:\n      stop\n        /* \"contracts/DigitalVotingSystem.sol\":1662:2563  function vote(uint _candidateId) public{... */\n    tag_14:\n        /* \"contracts/DigitalVotingSystem.sol\":1779:1787  hasVoted */\n      0x01\n        /* \"contracts/DigitalVotingSystem.sol\":1779:1799  hasVoted[msg.sender] */\n      0x00\n        /* \"contracts/DigitalVotingSystem.sol\":1788:1798  msg.sender */\n      caller\n        /* \"contracts/DigitalVotingSystem.sol\":1779:1799  hasVoted[msg.sender] */\n      0xffffffffffffffffffffffffffffffffffffffff\n      and\n      0xffffffffffffffffffffffffffffffffffffffff\n      and\n      dup2\n      mstore\n      0x20\n      add\n      swap1\n      dup2\n      mstore\n      0x20\n      add\n      0x00\n      keccak256\n      0x00\n      swap1\n      sload\n      swap1\n      0x0100\n      exp\n      swap1\n      div\n      0xff\n      and\n        /* \"contracts/DigitalVotingSystem.sol\":1778:1799  !hasVoted[msg.sender] */\n      iszero\n        /* \"contracts/DigitalVotingSystem.sol\":1770:1827  require(!hasVoted[msg.sender], \"You have already voted.\") */\n      tag_40\n      jumpi\n      mload(0x40)\n      0x08c379a000000000000000000000000000000000000000000000000000000000\n      dup2\n      mstore\n      0x04\n      add\n      tag_41\n      swap1\n      tag_42\n      jump\t// in\n    tag_41:\n      mload(0x40)\n      dup1\n      swap2\n      sub\n      swap1\n      revert\n    tag_40:\n        /* \"contracts/DigitalVotingSystem.sol\":1933:1935  13 */\n      0x0d\n        /* \"contracts/DigitalVotingSystem.sol\":1918:1930  _candidateId */\n      dup2\n        /* \"contracts/DigitalVotingSystem.sol\":1918:1935  _candidateId ==13 */\n      eq\n        /* \"contracts/DigitalVotingSystem.sol\":1918:1956  _candidateId ==13 || _candidateId ==22 */\n      dup1\n      tag_43\n      jumpi\n      pop\n        /* \"contracts/DigitalVotingSystem.sol\":1954:1956  22 */\n      0x16\n        /* \"contracts/DigitalVotingSystem.sol\":1939:1951  _candidateId */\n      dup2\n        /* \"contracts/DigitalVotingSystem.sol\":1939:1956  _candidateId ==22 */\n      eq\n        /* \"contracts/DigitalVotingSystem.sol\":1918:1956  _candidateId ==13 || _candidateId ==22 */\n    tag_43:\n        /* \"contracts/DigitalVotingSystem.sol\":1918:1976  _candidateId ==13 || _candidateId ==22 || _candidateId ==0 */\n      dup1\n      tag_44\n      jumpi\n      pop\n        /* \"contracts/DigitalVotingSystem.sol\":1975:1976  0 */\n      0x00\n        /* \"contracts/DigitalVotingSystem.sol\":1960:1972  _candidateId */\n      dup2\n        /* \"contracts/DigitalVotingSystem.sol\":1960:1976  _candidateId ==0 */\n      eq\n        /* \"contracts/DigitalVotingSystem.sol\":1918:1976  _candidateId ==13 || _candidateId ==22 || _candidateId ==0 */\n    tag_44:\n        /* \"contracts/DigitalVotingSystem.sol\":1896:2044  require(... */\n      tag_45\n      jumpi\n      mload(0x40)\n      0x08c379a000000000000000000000000000000000000000000000000000000000\n      dup2\n      mstore\n      0x04\n      add\n      tag_46\n      swap1\n      tag_47\n      jump\t// in\n    tag_46:\n      mload(0x40)\n      dup1\n      swap2\n      sub\n      swap1\n      revert\n    tag_45:\n        /* \"contracts/DigitalVotingSystem.sol\":2129:2130  0 */\n      0x00\n        /* \"contracts/DigitalVotingSystem.sol\":2114:2126  _candidateId */\n      dup2\n        /* \"contracts/DigitalVotingSystem.sol\":2114:2130  _candidateId ==0 */\n      sub\n        /* \"contracts/DigitalVotingSystem.sol\":2110:2300  if (_candidateId ==0){... */\n      tag_48\n      jumpi\n        /* \"contracts/DigitalVotingSystem.sol\":2146:2156  blankVotes */\n      0x03\n      0x00\n        /* \"contracts/DigitalVotingSystem.sol\":2146:2158  blankVotes++ */\n      dup2\n      sload\n      dup1\n      swap3\n      swap2\n      swap1\n      tag_49\n      swap1\n      tag_50\n      jump\t// in\n    tag_49:\n      swap2\n      swap1\n      pop\n      sstore\n      pop\n        /* \"contracts/DigitalVotingSystem.sol\":2110:2300  if (_candidateId ==0){... */\n      jump(tag_51)\n    tag_48:\n        /* \"contracts/DigitalVotingSystem.sol\":2252:2262  candidates */\n      0x00\n        /* \"contracts/DigitalVotingSystem.sol\":2252:2276  candidates[_candidateId] */\n      dup1\n        /* \"contracts/DigitalVotingSystem.sol\":2263:2275  _candidateId */\n      dup3\n        /* \"contracts/DigitalVotingSystem.sol\":2252:2276  candidates[_candidateId] */\n      dup2\n      mstore\n      0x20\n      add\n      swap1\n      dup2\n      mstore\n      0x20\n      add\n      0x00\n      keccak256\n        /* \"contracts/DigitalVotingSystem.sol\":2252:2286  candidates[_candidateId].voteCount */\n      0x02\n      add\n      0x00\n        /* \"contracts/DigitalVotingSystem.sol\":2252:2288  candidates[_candidateId].voteCount++ */\n      dup2\n      sload\n      dup1\n      swap3\n      swap2\n      swap1\n      tag_52\n      swap1\n      tag_50\n      jump\t// in\n    tag_52:\n      swap2\n      swap1\n      pop\n      sstore\n      pop\n        /* \"contracts/DigitalVotingSystem.sol\":2110:2300  if (_candidateId ==0){... */\n    tag_51:\n        /* \"contracts/DigitalVotingSystem.sol\":2320:2330  totalVotes */\n      0x02\n      0x00\n        /* \"contracts/DigitalVotingSystem.sol\":2320:2332  totalVotes++ */\n      dup2\n      sload\n      dup1\n      swap3\n      swap2\n      swap1\n      tag_53\n      swap1\n      tag_50\n      jump\t// in\n    tag_53:\n      swap2\n      swap1\n      pop\n      sstore\n      pop\n        /* \"contracts/DigitalVotingSystem.sol\":2403:2407  true */\n      0x01\n        /* \"contracts/DigitalVotingSystem.sol\":2380:2388  hasVoted */\n      dup1\n        /* \"contracts/DigitalVotingSystem.sol\":2380:2400  hasVoted[msg.sender] */\n      0x00\n        /* \"contracts/DigitalVotingSystem.sol\":2389:2399  msg.sender */\n      caller\n        /* \"contracts/DigitalVotingSystem.sol\":2380:2400  hasVoted[msg.sender] */\n      0xffffffffffffffffffffffffffffffffffffffff\n      and\n      0xffffffffffffffffffffffffffffffffffffffff\n      and\n      dup2\n      mstore\n      0x20\n      add\n      swap1\n      dup2\n      mstore\n      0x20\n      add\n      0x00\n      keccak256\n      0x00\n        /* \"contracts/DigitalVotingSystem.sol\":2380:2407  hasVoted[msg.sender] = true */\n      0x0100\n      exp\n      dup2\n      sload\n      dup2\n      0xff\n      mul\n      not\n      and\n      swap1\n      dup4\n      iszero\n      iszero\n      mul\n      or\n      swap1\n      sstore\n      pop\n        /* \"contracts/DigitalVotingSystem.sol\":2458:2494  VoteCasted(msg.sender, _candidateId) */\n      0xd0e6c39f2e086dc49f1524b47725526a56945cd1ff661f37976f1725a1e56986\n        /* \"contracts/DigitalVotingSystem.sol\":2469:2479  msg.sender */\n      caller\n        /* \"contracts/DigitalVotingSystem.sol\":2481:2493  _candidateId */\n      dup3\n        /* \"contracts/DigitalVotingSystem.sol\":2458:2494  VoteCasted(msg.sender, _candidateId) */\n      mload(0x40)\n      tag_54\n      swap3\n      swap2\n      swap1\n      tag_55\n      jump\t// in\n    tag_54:\n      mload(0x40)\n      dup1\n      swap2\n      sub\n      swap1\n      log1\n        /* \"contracts/DigitalVotingSystem.sol\":1662:2563  function vote(uint _candidateId) public{... */\n      pop\n      jump\t// out\n        /* \"contracts/DigitalVotingSystem.sol\":811:851  mapping(address => bool) public hasVoted */\n    tag_18:\n      mstore(0x20, 0x01)\n      dup1\n      0x00\n      mstore\n      keccak256(0x00, 0x40)\n      0x00\n      swap2\n      pop\n      sload\n      swap1\n      0x0100\n      exp\n      swap1\n      div\n      0xff\n      and\n      dup2\n      jump\t// out\n        /* \"contracts/DigitalVotingSystem.sol\":911:933  uint public totalVotes */\n    tag_22:\n      sload(0x02)\n      dup2\n      jump\t// out\n        /* \"contracts/DigitalVotingSystem.sol\":697:741  mapping(uint => Candidate) public candidates */\n    tag_27:\n      mstore(0x20, 0x00)\n      dup1\n      0x00\n      mstore\n      keccak256(0x00, 0x40)\n      0x00\n      swap2\n      pop\n      swap1\n      pop\n      dup1\n      0x00\n      add\n      sload\n      swap1\n      dup1\n      0x01\n      add\n      dup1\n      sload\n      tag_56\n      swap1\n      tag_57\n      jump\t// in\n    tag_56:\n      dup1\n      0x1f\n      add\n      0x20\n      dup1\n      swap2\n      div\n      mul\n      0x20\n      add\n      mload(0x40)\n      swap1\n      dup2\n      add\n      0x40\n      mstore\n      dup1\n      swap3\n      swap2\n      swap1\n      dup2\n      dup2\n      mstore\n      0x20\n      add\n      dup3\n      dup1\n      sload\n      tag_58\n      swap1\n      tag_57\n      jump\t// in\n    tag_58:\n      dup1\n      iszero\n      tag_59\n      jumpi\n      dup1\n      0x1f\n      lt\n      tag_60\n      jumpi\n      0x0100\n      dup1\n      dup4\n      sload\n      div\n      mul\n      dup4\n      mstore\n      swap2\n      0x20\n      add\n      swap2\n      jump(tag_59)\n    tag_60:\n      dup3\n      add\n      swap2\n      swap1\n      0x00\n      mstore\n      keccak256(0x00, 0x20)\n      swap1\n    tag_61:\n      dup2\n      sload\n      dup2\n      mstore\n      swap1\n      0x01\n      add\n      swap1\n      0x20\n      add\n      dup1\n      dup4\n      gt\n      tag_61\n      jumpi\n      dup3\n      swap1\n      sub\n      0x1f\n      and\n      dup3\n      add\n      swap2\n    tag_59:\n      pop\n      pop\n      pop\n      pop\n      pop\n      swap1\n      dup1\n      0x02\n      add\n      sload\n      swap1\n      pop\n      dup4\n      jump\t// out\n        /* \"contracts/DigitalVotingSystem.sol\":2714:3291  function getResults() public view returns (string memory) {... */\n    tag_31:\n        /* \"contracts/DigitalVotingSystem.sol\":2757:2770  string memory */\n      0x60\n        /* \"contracts/DigitalVotingSystem.sol\":2827:2847  uint candidateAVotes */\n      0x00\n        /* \"contracts/DigitalVotingSystem.sol\":2850:2860  candidates */\n      dup1\n        /* \"contracts/DigitalVotingSystem.sol\":2850:2864  candidates[13] */\n      0x00\n        /* \"contracts/DigitalVotingSystem.sol\":2861:2863  13 */\n      0x0d\n        /* \"contracts/DigitalVotingSystem.sol\":2850:2864  candidates[13] */\n      dup2\n      mstore\n      0x20\n      add\n      swap1\n      dup2\n      mstore\n      0x20\n      add\n      0x00\n      keccak256\n        /* \"contracts/DigitalVotingSystem.sol\":2850:2874  candidates[13].voteCount */\n      0x02\n      add\n      sload\n        /* \"contracts/DigitalVotingSystem.sol\":2827:2874  uint candidateAVotes = candidates[13].voteCount */\n      swap1\n      pop\n        /* \"contracts/DigitalVotingSystem.sol\":2881:2901  uint candidateBVotes */\n      0x00\n        /* \"contracts/DigitalVotingSystem.sol\":2904:2914  candidates */\n      dup1\n        /* \"contracts/DigitalVotingSystem.sol\":2904:2918  candidates[22] */\n      0x00\n        /* \"contracts/DigitalVotingSystem.sol\":2915:2917  22 */\n      0x16\n        /* \"contracts/DigitalVotingSystem.sol\":2904:2918  candidates[22] */\n      dup2\n      mstore\n      0x20\n      add\n      swap1\n      dup2\n      mstore\n      0x20\n      add\n      0x00\n      keccak256\n        /* \"contracts/DigitalVotingSystem.sol\":2904:2928  candidates[22].voteCount */\n      0x02\n      add\n      sload\n        /* \"contracts/DigitalVotingSystem.sol\":2881:2928  uint candidateBVotes = candidates[22].voteCount */\n      swap1\n      pop\n        /* \"contracts/DigitalVotingSystem.sol\":2978:2999  string memory results */\n      0x00\n        /* \"contracts/DigitalVotingSystem.sol\":3067:3096  uintToString(candidateAVotes) */\n      tag_63\n        /* \"contracts/DigitalVotingSystem.sol\":3080:3095  candidateAVotes */\n      dup4\n        /* \"contracts/DigitalVotingSystem.sol\":3067:3079  uintToString */\n      tag_64\n        /* \"contracts/DigitalVotingSystem.sol\":3067:3096  uintToString(candidateAVotes) */\n      jump\t// in\n    tag_63:\n        /* \"contracts/DigitalVotingSystem.sol\":3136:3165  uintToString(candidateBVotes) */\n      tag_65\n        /* \"contracts/DigitalVotingSystem.sol\":3149:3164  candidateBVotes */\n      dup4\n        /* \"contracts/DigitalVotingSystem.sol\":3136:3148  uintToString */\n      tag_64\n        /* \"contracts/DigitalVotingSystem.sol\":3136:3165  uintToString(candidateBVotes) */\n      jump\t// in\n    tag_65:\n        /* \"contracts/DigitalVotingSystem.sol\":3199:3223  uintToString(blankVotes) */\n      tag_66\n        /* \"contracts/DigitalVotingSystem.sol\":3212:3222  blankVotes */\n      sload(0x03)\n        /* \"contracts/DigitalVotingSystem.sol\":3199:3211  uintToString */\n      tag_64\n        /* \"contracts/DigitalVotingSystem.sol\":3199:3223  uintToString(blankVotes) */\n      jump\t// in\n    tag_66:\n        /* \"contracts/DigitalVotingSystem.sol\":3019:3257  abi.encodePacked(... */\n      add(0x20, mload(0x40))\n      tag_67\n      swap4\n      swap3\n      swap2\n      swap1\n      tag_68\n      jump\t// in\n    tag_67:\n      mload(0x40)\n      0x20\n      dup2\n      dup4\n      sub\n      sub\n      dup2\n      mstore\n      swap1\n      0x40\n      mstore\n        /* \"contracts/DigitalVotingSystem.sol\":2978:3264  string memory results = string(... */\n      swap1\n      pop\n        /* \"contracts/DigitalVotingSystem.sol\":3280:3287  results */\n      dup1\n        /* \"contracts/DigitalVotingSystem.sol\":3273:3287  return results */\n      swap4\n      pop\n      pop\n      pop\n      pop\n        /* \"contracts/DigitalVotingSystem.sol\":2714:3291  function getResults() public view returns (string memory) {... */\n      swap1\n      jump\t// out\n        /* \"contracts/DigitalVotingSystem.sol\":1017:1039  uint public blankVotes */\n    tag_35:\n      sload(0x03)\n      dup2\n      jump\t// out\n        /* \"contracts/DigitalVotingSystem.sol\":3924:4159  function resetVotes() public{... */\n    tag_38:\n        /* \"contracts/DigitalVotingSystem.sol\":3988:3989  0 */\n      0x00\n        /* \"contracts/DigitalVotingSystem.sol\":3963:3973  candidates */\n      dup1\n        /* \"contracts/DigitalVotingSystem.sol\":3963:3977  candidates[13] */\n      0x00\n        /* \"contracts/DigitalVotingSystem.sol\":3974:3976  13 */\n      0x0d\n        /* \"contracts/DigitalVotingSystem.sol\":3963:3977  candidates[13] */\n      dup2\n      mstore\n      0x20\n      add\n      swap1\n      dup2\n      mstore\n      0x20\n      add\n      0x00\n      keccak256\n        /* \"contracts/DigitalVotingSystem.sol\":3963:3987  candidates[13].voteCount */\n      0x02\n      add\n        /* \"contracts/DigitalVotingSystem.sol\":3963:3989  candidates[13].voteCount=0 */\n      dup2\n      swap1\n      sstore\n      pop\n        /* \"contracts/DigitalVotingSystem.sol\":4062:4063  0 */\n      0x00\n        /* \"contracts/DigitalVotingSystem.sol\":4037:4047  candidates */\n      dup1\n        /* \"contracts/DigitalVotingSystem.sol\":4037:4051  candidates[22] */\n      0x00\n        /* \"contracts/DigitalVotingSystem.sol\":4048:4050  22 */\n      0x16\n        /* \"contracts/DigitalVotingSystem.sol\":4037:4051  candidates[22] */\n      dup2\n      mstore\n      0x20\n      add\n      swap1\n      dup2\n      mstore\n      0x20\n      add\n      0x00\n      keccak256\n        /* \"contracts/DigitalVotingSystem.sol\":4037:4061  candidates[22].voteCount */\n      0x02\n      add\n        /* \"contracts/DigitalVotingSystem.sol\":4037:4063  candidates[22].voteCount=0 */\n      dup2\n      swap1\n      sstore\n      pop\n        /* \"contracts/DigitalVotingSystem.sol\":4087:4088  0 */\n      0x00\n        /* \"contracts/DigitalVotingSystem.sol\":4076:4086  blankVotes */\n      0x03\n        /* \"contracts/DigitalVotingSystem.sol\":4076:4088  blankVotes=0 */\n      dup2\n      swap1\n      sstore\n      pop\n        /* \"contracts/DigitalVotingSystem.sol\":4150:4151  0 */\n      0x00\n        /* \"contracts/DigitalVotingSystem.sol\":4139:4149  totalVotes */\n      0x02\n        /* \"contracts/DigitalVotingSystem.sol\":4139:4151  totalVotes=0 */\n      dup2\n      swap1\n      sstore\n      pop\n        /* \"contracts/DigitalVotingSystem.sol\":3924:4159  function resetVotes() public{... */\n      jump\t// out\n        /* \"contracts/DigitalVotingSystem.sol\":3341:3773  function uintToString(uint v) internal pure returns (string memory) {... */\n    tag_64:\n        /* \"contracts/DigitalVotingSystem.sol\":3394:3407  string memory */\n      0x60\n        /* \"contracts/DigitalVotingSystem.sol\":3425:3426  0 */\n      0x00\n        /* \"contracts/DigitalVotingSystem.sol\":3420:3421  v */\n      dup3\n        /* \"contracts/DigitalVotingSystem.sol\":3420:3426  v == 0 */\n      sub\n        /* \"contracts/DigitalVotingSystem.sol\":3416:3457  if (v == 0) {... */\n      tag_71\n      jumpi\n        /* \"contracts/DigitalVotingSystem.sol\":3439:3449  return \"0\" */\n      mload(0x40)\n      dup1\n      0x40\n      add\n      0x40\n      mstore\n      dup1\n      0x01\n      dup2\n      mstore\n      0x20\n      add\n      0x3000000000000000000000000000000000000000000000000000000000000000\n      dup2\n      mstore\n      pop\n      swap1\n      pop\n      jump(tag_70)\n        /* \"contracts/DigitalVotingSystem.sol\":3416:3457  if (v == 0) {... */\n    tag_71:\n        /* \"contracts/DigitalVotingSystem.sol\":3463:3474  uint digits */\n      0x00\n        /* \"contracts/DigitalVotingSystem.sol\":3481:3490  uint temp */\n      dup1\n        /* \"contracts/DigitalVotingSystem.sol\":3493:3494  v */\n      dup4\n        /* \"contracts/DigitalVotingSystem.sol\":3481:3494  uint temp = v */\n      swap1\n      pop\n        /* \"contracts/DigitalVotingSystem.sol\":3501:3567  while (temp != 0) {... */\n    tag_72:\n        /* \"contracts/DigitalVotingSystem.sol\":3516:3517  0 */\n      0x00\n        /* \"contracts/DigitalVotingSystem.sol\":3508:3512  temp */\n      dup2\n        /* \"contracts/DigitalVotingSystem.sol\":3508:3517  temp != 0 */\n      eq\n        /* \"contracts/DigitalVotingSystem.sol\":3501:3567  while (temp != 0) {... */\n      tag_73\n      jumpi\n        /* \"contracts/DigitalVotingSystem.sol\":3530:3538  digits++ */\n      dup2\n      dup1\n      tag_74\n      swap1\n      tag_50\n      jump\t// in\n    tag_74:\n      swap3\n      pop\n      pop\n        /* \"contracts/DigitalVotingSystem.sol\":3557:3559  10 */\n      0x0a\n        /* \"contracts/DigitalVotingSystem.sol\":3549:3559  temp /= 10 */\n      dup2\n      tag_75\n      swap2\n      swap1\n      tag_76\n      jump\t// in\n    tag_75:\n      swap1\n      pop\n        /* \"contracts/DigitalVotingSystem.sol\":3501:3567  while (temp != 0) {... */\n      jump(tag_72)\n    tag_73:\n        /* \"contracts/DigitalVotingSystem.sol\":3573:3592  bytes memory buffer */\n      0x00\n        /* \"contracts/DigitalVotingSystem.sol\":3605:3611  digits */\n      dup3\n        /* \"contracts/DigitalVotingSystem.sol\":3595:3612  new bytes(digits) */\n      0xffffffffffffffff\n      dup2\n      gt\n      iszero\n      tag_77\n      jumpi\n      tag_78\n      tag_79\n      jump\t// in\n    tag_78:\n    tag_77:\n      mload(0x40)\n      swap1\n      dup1\n      dup3\n      mstore\n      dup1\n      0x1f\n      add\n      not(0x1f)\n      and\n      0x20\n      add\n      dup3\n      add\n      0x40\n      mstore\n      dup1\n      iszero\n      tag_80\n      jumpi\n      dup2\n      0x20\n      add\n      0x01\n      dup3\n      mul\n      dup1\n      calldatasize\n      dup4\n      calldatacopy\n      dup1\n      dup3\n      add\n      swap2\n      pop\n      pop\n      swap1\n      pop\n    tag_80:\n      pop\n        /* \"contracts/DigitalVotingSystem.sol\":3573:3612  bytes memory buffer = new bytes(digits) */\n      swap1\n      pop\n        /* \"contracts/DigitalVotingSystem.sol\":3619:3742  while (v != 0) {... */\n    tag_81:\n        /* \"contracts/DigitalVotingSystem.sol\":3631:3632  0 */\n      0x00\n        /* \"contracts/DigitalVotingSystem.sol\":3626:3627  v */\n      dup6\n        /* \"contracts/DigitalVotingSystem.sol\":3626:3632  v != 0 */\n      eq\n        /* \"contracts/DigitalVotingSystem.sol\":3619:3742  while (v != 0) {... */\n      tag_82\n      jumpi\n        /* \"contracts/DigitalVotingSystem.sol\":3655:3656  1 */\n      0x01\n        /* \"contracts/DigitalVotingSystem.sol\":3645:3656  digits -= 1 */\n      dup4\n      tag_83\n      swap2\n      swap1\n      tag_84\n      jump\t// in\n    tag_83:\n      swap3\n      pop\n        /* \"contracts/DigitalVotingSystem.sol\":3711:3713  10 */\n      0x0a\n        /* \"contracts/DigitalVotingSystem.sol\":3707:3708  v */\n      dup6\n        /* \"contracts/DigitalVotingSystem.sol\":3707:3713  v % 10 */\n      tag_85\n      swap2\n      swap1\n      tag_86\n      jump\t// in\n    tag_85:\n        /* \"contracts/DigitalVotingSystem.sol\":3697:3699  48 */\n      0x30\n        /* \"contracts/DigitalVotingSystem.sol\":3697:3714  48 + uint(v % 10) */\n      tag_87\n      swap2\n      swap1\n      tag_88\n      jump\t// in\n    tag_87:\n        /* \"contracts/DigitalVotingSystem.sol\":3684:3716  bytes1(uint8(48 + uint(v % 10))) */\n      0xf8\n      shl\n        /* \"contracts/DigitalVotingSystem.sol\":3667:3673  buffer */\n      dup2\n        /* \"contracts/DigitalVotingSystem.sol\":3674:3680  digits */\n      dup5\n        /* \"contracts/DigitalVotingSystem.sol\":3667:3681  buffer[digits] */\n      dup2\n      mload\n      dup2\n      lt\n      tag_89\n      jumpi\n      tag_90\n      tag_91\n      jump\t// in\n    tag_90:\n    tag_89:\n      0x20\n      add\n      add\n        /* \"contracts/DigitalVotingSystem.sol\":3667:3716  buffer[digits] = bytes1(uint8(48 + uint(v % 10))) */\n      swap1\n      not(0xffffffffffffffffffffffffffffffffffffffffffffffffffffffffffffff)\n      and\n      swap1\n      dup2\n      0x00\n      byte\n      swap1\n      mstore8\n      pop\n        /* \"contracts/DigitalVotingSystem.sol\":3732:3734  10 */\n      0x0a\n        /* \"contracts/DigitalVotingSystem.sol\":3727:3734  v /= 10 */\n      dup6\n      tag_92\n      swap2\n      swap1\n      tag_76\n      jump\t// in\n    tag_92:\n      swap5\n      pop\n        /* \"contracts/DigitalVotingSystem.sol\":3619:3742  while (v != 0) {... */\n      jump(tag_81)\n    tag_82:\n        /* \"contracts/DigitalVotingSystem.sol\":3762:3768  buffer */\n      dup1\n        /* \"contracts/DigitalVotingSystem.sol\":3748:3769  return string(buffer) */\n      swap4\n      pop\n      pop\n      pop\n      pop\n        /* \"contracts/DigitalVotingSystem.sol\":3341:3773  function uintToString(uint v) internal pure returns (string memory) {... */\n    tag_70:\n      swap2\n      swap1\n      pop\n      jump\t// out\n        /* \"#utility.yul\":88:205   */\n    tag_94:\n        /* \"#utility.yul\":197:198   */\n      0x00\n        /* \"#utility.yul\":194:195   */\n      dup1\n        /* \"#utility.yul\":187:199   */\n      revert\n        /* \"#utility.yul\":334:411   */\n    tag_96:\n        /* \"#utility.yul\":371:378   */\n      0x00\n        /* \"#utility.yul\":400:405   */\n      dup2\n        /* \"#utility.yul\":389:405   */\n      swap1\n      pop\n        /* \"#utility.yul\":334:411   */\n      swap2\n      swap1\n      pop\n      jump\t// out\n        /* \"#utility.yul\":417:539   */\n    tag_97:\n        /* \"#utility.yul\":490:514   */\n      tag_135\n        /* \"#utility.yul\":508:513   */\n      dup2\n        /* \"#utility.yul\":490:514   */\n      tag_96\n      jump\t// in\n    tag_135:\n        /* \"#utility.yul\":483:488   */\n      dup2\n        /* \"#utility.yul\":480:515   */\n      eq\n        /* \"#utility.yul\":470:533   */\n      tag_136\n      jumpi\n        /* \"#utility.yul\":529:530   */\n      0x00\n        /* \"#utility.yul\":526:527   */\n      dup1\n        /* \"#utility.yul\":519:531   */\n      revert\n        /* \"#utility.yul\":470:533   */\n    tag_136:\n        /* \"#utility.yul\":417:539   */\n      pop\n      jump\t// out\n        /* \"#utility.yul\":545:684   */\n    tag_98:\n        /* \"#utility.yul\":591:596   */\n      0x00\n        /* \"#utility.yul\":629:635   */\n      dup2\n        /* \"#utility.yul\":616:636   */\n      calldataload\n        /* \"#utility.yul\":607:636   */\n      swap1\n      pop\n        /* \"#utility.yul\":645:678   */\n      tag_138\n        /* \"#utility.yul\":672:677   */\n      dup2\n        /* \"#utility.yul\":645:678   */\n      tag_97\n      jump\t// in\n    tag_138:\n        /* \"#utility.yul\":545:684   */\n      swap3\n      swap2\n      pop\n      pop\n      jump\t// out\n        /* \"#utility.yul\":690:1019   */\n    tag_13:\n        /* \"#utility.yul\":749:755   */\n      0x00\n        /* \"#utility.yul\":798:800   */\n      0x20\n        /* \"#utility.yul\":786:795   */\n      dup3\n        /* \"#utility.yul\":777:784   */\n      dup5\n        /* \"#utility.yul\":773:796   */\n      sub\n        /* \"#utility.yul\":769:801   */\n      slt\n        /* \"#utility.yul\":766:885   */\n      iszero\n      tag_140\n      jumpi\n        /* \"#utility.yul\":804:883   */\n      tag_141\n      tag_94\n      jump\t// in\n    tag_141:\n        /* \"#utility.yul\":766:885   */\n    tag_140:\n        /* \"#utility.yul\":924:925   */\n      0x00\n        /* \"#utility.yul\":949:1002   */\n      tag_142\n        /* \"#utility.yul\":994:1001   */\n      dup5\n        /* \"#utility.yul\":985:991   */\n      dup3\n        /* \"#utility.yul\":974:983   */\n      dup6\n        /* \"#utility.yul\":970:992   */\n      add\n        /* \"#utility.yul\":949:1002   */\n      tag_98\n      jump\t// in\n    tag_142:\n        /* \"#utility.yul\":939:1002   */\n      swap2\n      pop\n        /* \"#utility.yul\":895:1012   */\n      pop\n        /* \"#utility.yul\":690:1019   */\n      swap3\n      swap2\n      pop\n      pop\n      jump\t// out\n        /* \"#utility.yul\":1025:1151   */\n    tag_99:\n        /* \"#utility.yul\":1062:1069   */\n      0x00\n        /* \"#utility.yul\":1102:1144   */\n      0xffffffffffffffffffffffffffffffffffffffff\n        /* \"#utility.yul\":1095:1100   */\n      dup3\n        /* \"#utility.yul\":1091:1145   */\n      and\n        /* \"#utility.yul\":1080:1145   */\n      swap1\n      pop\n        /* \"#utility.yul\":1025:1151   */\n      swap2\n      swap1\n      pop\n      jump\t// out\n        /* \"#utility.yul\":1157:1253   */\n    tag_100:\n        /* \"#utility.yul\":1194:1201   */\n      0x00\n        /* \"#utility.yul\":1223:1247   */\n      tag_145\n        /* \"#utility.yul\":1241:1246   */\n      dup3\n        /* \"#utility.yul\":1223:1247   */\n      tag_99\n      jump\t// in\n    tag_145:\n        /* \"#utility.yul\":1212:1247   */\n      swap1\n      pop\n        /* \"#utility.yul\":1157:1253   */\n      swap2\n      swap1\n      pop\n      jump\t// out\n        /* \"#utility.yul\":1259:1381   */\n    tag_101:\n        /* \"#utility.yul\":1332:1356   */\n      tag_147\n        /* \"#utility.yul\":1350:1355   */\n      dup2\n        /* \"#utility.yul\":1332:1356   */\n      tag_100\n      jump\t// in\n    tag_147:\n        /* \"#utility.yul\":1325:1330   */\n      dup2\n        /* \"#utility.yul\":1322:1357   */\n      eq\n        /* \"#utility.yul\":1312:1375   */\n      tag_148\n      jumpi\n        /* \"#utility.yul\":1371:1372   */\n      0x00\n        /* \"#utility.yul\":1368:1369   */\n      dup1\n        /* \"#utility.yul\":1361:1373   */\n      revert\n        /* \"#utility.yul\":1312:1375   */\n    tag_148:\n        /* \"#utility.yul\":1259:1381   */\n      pop\n      jump\t// out\n        /* \"#utility.yul\":1387:1526   */\n    tag_102:\n        /* \"#utility.yul\":1433:1438   */\n      0x00\n        /* \"#utility.yul\":1471:1477   */\n      dup2\n        /* \"#utility.yul\":1458:1478   */\n      calldataload\n        /* \"#utility.yul\":1449:1478   */\n      swap1\n      pop\n        /* \"#utility.yul\":1487:1520   */\n      tag_150\n        /* \"#utility.yul\":1514:1519   */\n      dup2\n        /* \"#utility.yul\":1487:1520   */\n      tag_101\n      jump\t// in\n    tag_150:\n        /* \"#utility.yul\":1387:1526   */\n      swap3\n      swap2\n      pop\n      pop\n      jump\t// out\n        /* \"#utility.yul\":1532:1861   */\n    tag_17:\n        /* \"#utility.yul\":1591:1597   */\n      0x00\n        /* \"#utility.yul\":1640:1642   */\n      0x20\n        /* \"#utility.yul\":1628:1637   */\n      dup3\n        /* \"#utility.yul\":1619:1626   */\n      dup5\n        /* \"#utility.yul\":1615:1638   */\n      sub\n        /* \"#utility.yul\":1611:1643   */\n      slt\n        /* \"#utility.yul\":1608:1727   */\n      iszero\n      tag_152\n      jumpi\n        /* \"#utility.yul\":1646:1725   */\n      tag_153\n      tag_94\n      jump\t// in\n    tag_153:\n        /* \"#utility.yul\":1608:1727   */\n    tag_152:\n        /* \"#utility.yul\":1766:1767   */\n      0x00\n        /* \"#utility.yul\":1791:1844   */\n      tag_154\n        /* \"#utility.yul\":1836:1843   */\n      dup5\n        /* \"#utility.yul\":1827:1833   */\n      dup3\n        /* \"#utility.yul\":1816:1825   */\n      dup6\n        /* \"#utility.yul\":1812:1834   */\n      add\n        /* \"#utility.yul\":1791:1844   */\n      tag_102\n      jump\t// in\n    tag_154:\n        /* \"#utility.yul\":1781:1844   */\n      swap2\n      pop\n        /* \"#utility.yul\":1737:1854   */\n      pop\n        /* \"#utility.yul\":1532:1861   */\n      swap3\n      swap2\n      pop\n      pop\n      jump\t// out\n        /* \"#utility.yul\":1867:1957   */\n    tag_103:\n        /* \"#utility.yul\":1901:1908   */\n      0x00\n        /* \"#utility.yul\":1944:1949   */\n      dup2\n        /* \"#utility.yul\":1937:1950   */\n      iszero\n        /* \"#utility.yul\":1930:1951   */\n      iszero\n        /* \"#utility.yul\":1919:1951   */\n      swap1\n      pop\n        /* \"#utility.yul\":1867:1957   */\n      swap2\n      swap1\n      pop\n      jump\t// out\n        /* \"#utility.yul\":1963:2072   */\n    tag_104:\n        /* \"#utility.yul\":2044:2065   */\n      tag_157\n        /* \"#utility.yul\":2059:2064   */\n      dup2\n        /* \"#utility.yul\":2044:2065   */\n      tag_103\n      jump\t// in\n    tag_157:\n        /* \"#utility.yul\":2039:2042   */\n      dup3\n        /* \"#utility.yul\":2032:2066   */\n      mstore\n        /* \"#utility.yul\":1963:2072   */\n      pop\n      pop\n      jump\t// out\n        /* \"#utility.yul\":2078:2288   */\n    tag_20:\n        /* \"#utility.yul\":2165:2169   */\n      0x00\n        /* \"#utility.yul\":2203:2205   */\n      0x20\n        /* \"#utility.yul\":2192:2201   */\n      dup3\n        /* \"#utility.yul\":2188:2206   */\n      add\n        /* \"#utility.yul\":2180:2206   */\n      swap1\n      pop\n        /* \"#utility.yul\":2216:2281   */\n      tag_159\n        /* \"#utility.yul\":2278:2279   */\n      0x00\n        /* \"#utility.yul\":2267:2276   */\n      dup4\n        /* \"#utility.yul\":2263:2280   */\n      add\n        /* \"#utility.yul\":2254:2260   */\n      dup5\n        /* \"#utility.yul\":2216:2281   */\n      tag_104\n      jump\t// in\n    tag_159:\n        /* \"#utility.yul\":2078:2288   */\n      swap3\n      swap2\n      pop\n      pop\n      jump\t// out\n        /* \"#utility.yul\":2294:2412   */\n    tag_105:\n        /* \"#utility.yul\":2381:2405   */\n      tag_161\n        /* \"#utility.yul\":2399:2404   */\n      dup2\n        /* \"#utility.yul\":2381:2405   */\n      tag_96\n      jump\t// in\n    tag_161:\n        /* \"#utility.yul\":2376:2379   */\n      dup3\n        /* \"#utility.yul\":2369:2406   */\n      mstore\n        /* \"#utility.yul\":2294:2412   */\n      pop\n      pop\n      jump\t// out\n        /* \"#utility.yul\":2418:2640   */\n    tag_24:\n        /* \"#utility.yul\":2511:2515   */\n      0x00\n        /* \"#utility.yul\":2549:2551   */\n      0x20\n        /* \"#utility.yul\":2538:2547   */\n      dup3\n        /* \"#utility.yul\":2534:2552   */\n      add\n        /* \"#utility.yul\":2526:2552   */\n      swap1\n      pop\n        /* \"#utility.yul\":2562:2633   */\n      tag_163\n        /* \"#utility.yul\":2630:2631   */\n      0x00\n        /* \"#utility.yul\":2619:2628   */\n      dup4\n        /* \"#utility.yul\":2615:2632   */\n      add\n        /* \"#utility.yul\":2606:2612   */\n      dup5\n        /* \"#utility.yul\":2562:2633   */\n      tag_105\n      jump\t// in\n    tag_163:\n        /* \"#utility.yul\":2418:2640   */\n      swap3\n      swap2\n      pop\n      pop\n      jump\t// out\n        /* \"#utility.yul\":2646:2745   */\n    tag_106:\n        /* \"#utility.yul\":2698:2704   */\n      0x00\n        /* \"#utility.yul\":2732:2737   */\n      dup2\n        /* \"#utility.yul\":2726:2738   */\n      mload\n        /* \"#utility.yul\":2716:2738   */\n      swap1\n      pop\n        /* \"#utility.yul\":2646:2745   */\n      swap2\n      swap1\n      pop\n      jump\t// out\n        /* \"#utility.yul\":2751:2920   */\n    tag_107:\n        /* \"#utility.yul\":2835:2846   */\n      0x00\n        /* \"#utility.yul\":2869:2875   */\n      dup3\n        /* \"#utility.yul\":2864:2867   */\n      dup3\n        /* \"#utility.yul\":2857:2876   */\n      mstore\n        /* \"#utility.yul\":2909:2913   */\n      0x20\n        /* \"#utility.yul\":2904:2907   */\n      dup3\n        /* \"#utility.yul\":2900:2914   */\n      add\n        /* \"#utility.yul\":2885:2914   */\n      swap1\n      pop\n        /* \"#utility.yul\":2751:2920   */\n      swap3\n      swap2\n      pop\n      pop\n      jump\t// out\n        /* \"#utility.yul\":2926:3065   */\n    tag_108:\n        /* \"#utility.yul\":3015:3021   */\n      dup3\n        /* \"#utility.yul\":3010:3013   */\n      dup2\n        /* \"#utility.yul\":3005:3008   */\n      dup4\n        /* \"#utility.yul\":2999:3022   */\n      mcopy\n        /* \"#utility.yul\":3056:3057   */\n      0x00\n        /* \"#utility.yul\":3047:3053   */\n      dup4\n        /* \"#utility.yul\":3042:3045   */\n      dup4\n        /* \"#utility.yul\":3038:3054   */\n      add\n        /* \"#utility.yul\":3031:3058   */\n      mstore\n        /* \"#utility.yul\":2926:3065   */\n      pop\n      pop\n      pop\n      jump\t// out\n        /* \"#utility.yul\":3071:3173   */\n    tag_109:\n        /* \"#utility.yul\":3112:3118   */\n      0x00\n        /* \"#utility.yul\":3163:3165   */\n      0x1f\n        /* \"#utility.yul\":3159:3166   */\n      not\n        /* \"#utility.yul\":3154:3156   */\n      0x1f\n        /* \"#utility.yul\":3147:3152   */\n      dup4\n        /* \"#utility.yul\":3143:3157   */\n      add\n        /* \"#utility.yul\":3139:3167   */\n      and\n        /* \"#utility.yul\":3129:3167   */\n      swap1\n      pop\n        /* \"#utility.yul\":3071:3173   */\n      swap2\n      swap1\n      pop\n      jump\t// out\n        /* \"#utility.yul\":3179:3556   */\n    tag_110:\n        /* \"#utility.yul\":3267:3270   */\n      0x00\n        /* \"#utility.yul\":3295:3334   */\n      tag_169\n        /* \"#utility.yul\":3328:3333   */\n      dup3\n        /* \"#utility.yul\":3295:3334   */\n      tag_106\n      jump\t// in\n    tag_169:\n        /* \"#utility.yul\":3350:3421   */\n      tag_170\n        /* \"#utility.yul\":3414:3420   */\n      dup2\n        /* \"#utility.yul\":3409:3412   */\n      dup6\n        /* \"#utility.yul\":3350:3421   */\n      tag_107\n      jump\t// in\n    tag_170:\n        /* \"#utility.yul\":3343:3421   */\n      swap4\n      pop\n        /* \"#utility.yul\":3430:3495   */\n      tag_171\n        /* \"#utility.yul\":3488:3494   */\n      dup2\n        /* \"#utility.yul\":3483:3486   */\n      dup6\n        /* \"#utility.yul\":3476:3480   */\n      0x20\n        /* \"#utility.yul\":3469:3474   */\n      dup7\n        /* \"#utility.yul\":3465:3481   */\n      add\n        /* \"#utility.yul\":3430:3495   */\n      tag_108\n      jump\t// in\n    tag_171:\n        /* \"#utility.yul\":3520:3549   */\n      tag_172\n        /* \"#utility.yul\":3542:3548   */\n      dup2\n        /* \"#utility.yul\":3520:3549   */\n      tag_109\n      jump\t// in\n    tag_172:\n        /* \"#utility.yul\":3515:3518   */\n      dup5\n        /* \"#utility.yul\":3511:3550   */\n      add\n        /* \"#utility.yul\":3504:3550   */\n      swap2\n      pop\n        /* \"#utility.yul\":3271:3556   */\n      pop\n        /* \"#utility.yul\":3179:3556   */\n      swap3\n      swap2\n      pop\n      pop\n      jump\t// out\n        /* \"#utility.yul\":3562:4095   */\n    tag_29:\n        /* \"#utility.yul\":3731:3735   */\n      0x00\n        /* \"#utility.yul\":3769:3771   */\n      0x60\n        /* \"#utility.yul\":3758:3767   */\n      dup3\n        /* \"#utility.yul\":3754:3772   */\n      add\n        /* \"#utility.yul\":3746:3772   */\n      swap1\n      pop\n        /* \"#utility.yul\":3782:3853   */\n      tag_174\n        /* \"#utility.yul\":3850:3851   */\n      0x00\n        /* \"#utility.yul\":3839:3848   */\n      dup4\n        /* \"#utility.yul\":3835:3852   */\n      add\n        /* \"#utility.yul\":3826:3832   */\n      dup7\n        /* \"#utility.yul\":3782:3853   */\n      tag_105\n      jump\t// in\n    tag_174:\n        /* \"#utility.yul\":3900:3909   */\n      dup2\n        /* \"#utility.yul\":3894:3898   */\n      dup2\n        /* \"#utility.yul\":3890:3910   */\n      sub\n        /* \"#utility.yul\":3885:3887   */\n      0x20\n        /* \"#utility.yul\":3874:3883   */\n      dup4\n        /* \"#utility.yul\":3870:3888   */\n      add\n        /* \"#utility.yul\":3863:3911   */\n      mstore\n        /* \"#utility.yul\":3928:4006   */\n      tag_175\n        /* \"#utility.yul\":4001:4005   */\n      dup2\n        /* \"#utility.yul\":3992:3998   */\n      dup6\n        /* \"#utility.yul\":3928:4006   */\n      tag_110\n      jump\t// in\n    tag_175:\n        /* \"#utility.yul\":3920:4006   */\n      swap1\n      pop\n        /* \"#utility.yul\":4016:4088   */\n      tag_176\n        /* \"#utility.yul\":4084:4086   */\n      0x40\n        /* \"#utility.yul\":4073:4082   */\n      dup4\n        /* \"#utility.yul\":4069:4087   */\n      add\n        /* \"#utility.yul\":4060:4066   */\n      dup5\n        /* \"#utility.yul\":4016:4088   */\n      tag_105\n      jump\t// in\n    tag_176:\n        /* \"#utility.yul\":3562:4095   */\n      swap5\n      swap4\n      pop\n      pop\n      pop\n      pop\n      jump\t// out\n        /* \"#utility.yul\":4101:4414   */\n    tag_33:\n        /* \"#utility.yul\":4214:4218   */\n      0x00\n        /* \"#utility.yul\":4252:4254   */\n      0x20\n        /* \"#utility.yul\":4241:4250   */\n      dup3\n        /* \"#utility.yul\":4237:4255   */\n      add\n        /* \"#utility.yul\":4229:4255   */\n      swap1\n      pop\n        /* \"#utility.yul\":4301:4310   */\n      dup2\n        /* \"#utility.yul\":4295:4299   */\n      dup2\n        /* \"#utility.yul\":4291:4311   */\n      sub\n        /* \"#utility.yul\":4287:4288   */\n      0x00\n        /* \"#utility.yul\":4276:4285   */\n      dup4\n        /* \"#utility.yul\":4272:4289   */\n      add\n        /* \"#utility.yul\":4265:4312   */\n      mstore\n        /* \"#utility.yul\":4329:4407   */\n      tag_178\n        /* \"#utility.yul\":4402:4406   */\n      dup2\n        /* \"#utility.yul\":4393:4399   */\n      dup5\n        /* \"#utility.yul\":4329:4407   */\n      tag_110\n      jump\t// in\n    tag_178:\n        /* \"#utility.yul\":4321:4407   */\n      swap1\n      pop\n        /* \"#utility.yul\":4101:4414   */\n      swap3\n      swap2\n      pop\n      pop\n      jump\t// out\n        /* \"#utility.yul\":4420:4593   */\n    tag_111:\n        /* \"#utility.yul\":4560:4585   */\n      0x596f75206861766520616c726561647920766f7465642e000000000000000000\n        /* \"#utility.yul\":4556:4557   */\n      0x00\n        /* \"#utility.yul\":4548:4554   */\n      dup3\n        /* \"#utility.yul\":4544:4558   */\n      add\n        /* \"#utility.yul\":4537:4586   */\n      mstore\n        /* \"#utility.yul\":4420:4593   */\n      pop\n      jump\t// out\n        /* \"#utility.yul\":4599:4965   */\n    tag_112:\n        /* \"#utility.yul\":4741:4744   */\n      0x00\n        /* \"#utility.yul\":4762:4829   */\n      tag_181\n        /* \"#utility.yul\":4826:4828   */\n      0x17\n        /* \"#utility.yul\":4821:4824   */\n      dup4\n        /* \"#utility.yul\":4762:4829   */\n      tag_107\n      jump\t// in\n    tag_181:\n        /* \"#utility.yul\":4755:4829   */\n      swap2\n      pop\n        /* \"#utility.yul\":4838:4931   */\n      tag_182\n        /* \"#utility.yul\":4927:4930   */\n      dup3\n        /* \"#utility.yul\":4838:4931   */\n      tag_111\n      jump\t// in\n    tag_182:\n        /* \"#utility.yul\":4956:4958   */\n      0x20\n        /* \"#utility.yul\":4951:4954   */\n      dup3\n        /* \"#utility.yul\":4947:4959   */\n      add\n        /* \"#utility.yul\":4940:4959   */\n      swap1\n      pop\n        /* \"#utility.yul\":4599:4965   */\n      swap2\n      swap1\n      pop\n      jump\t// out\n        /* \"#utility.yul\":4971:5390   */\n    tag_42:\n        /* \"#utility.yul\":5137:5141   */\n      0x00\n        /* \"#utility.yul\":5175:5177   */\n      0x20\n        /* \"#utility.yul\":5164:5173   */\n      dup3\n        /* \"#utility.yul\":5160:5178   */\n      add\n        /* \"#utility.yul\":5152:5178   */\n      swap1\n      pop\n        /* \"#utility.yul\":5224:5233   */\n      dup2\n        /* \"#utility.yul\":5218:5222   */\n      dup2\n        /* \"#utility.yul\":5214:5234   */\n      sub\n        /* \"#utility.yul\":5210:5211   */\n      0x00\n        /* \"#utility.yul\":5199:5208   */\n      dup4\n        /* \"#utility.yul\":5195:5212   */\n      add\n        /* \"#utility.yul\":5188:5235   */\n      mstore\n        /* \"#utility.yul\":5252:5383   */\n      tag_184\n        /* \"#utility.yul\":5378:5382   */\n      dup2\n        /* \"#utility.yul\":5252:5383   */\n      tag_112\n      jump\t// in\n    tag_184:\n        /* \"#utility.yul\":5244:5383   */\n      swap1\n      pop\n        /* \"#utility.yul\":4971:5390   */\n      swap2\n      swap1\n      pop\n      jump\t// out\n        /* \"#utility.yul\":5396:5636   */\n    tag_113:\n        /* \"#utility.yul\":5536:5570   */\n      0x496e76616c69642063616e6469646174652049442e2050726573732030206966\n        /* \"#utility.yul\":5532:5533   */\n      0x00\n        /* \"#utility.yul\":5524:5530   */\n      dup3\n        /* \"#utility.yul\":5520:5534   */\n      add\n        /* \"#utility.yul\":5513:5571   */\n      mstore\n        /* \"#utility.yul\":5605:5628   */\n      0x20796f75207769746820746f204162737461696e2e0000000000000000000000\n        /* \"#utility.yul\":5600:5602   */\n      0x20\n        /* \"#utility.yul\":5592:5598   */\n      dup3\n        /* \"#utility.yul\":5588:5603   */\n      add\n        /* \"#utility.yul\":5581:5629   */\n      mstore\n        /* \"#utility.yul\":5396:5636   */\n      pop\n      jump\t// out\n        /* \"#utility.yul\":5642:6008   */\n    tag_114:\n        /* \"#utility.yul\":5784:5787   */\n      0x00\n        /* \"#utility.yul\":5805:5872   */\n      tag_187\n        /* \"#utility.yul\":5869:5871   */\n      0x35\n        /* \"#utility.yul\":5864:5867   */\n      dup4\n        /* \"#utility.yul\":5805:5872   */\n      tag_107\n      jump\t// in\n    tag_187:\n        /* \"#utility.yul\":5798:5872   */\n      swap2\n      pop\n        /* \"#utility.yul\":5881:5974   */\n      tag_188\n        /* \"#utility.yul\":5970:5973   */\n      dup3\n        /* \"#utility.yul\":5881:5974   */\n      tag_113\n      jump\t// in\n    tag_188:\n        /* \"#utility.yul\":5999:6001   */\n      0x40\n        /* \"#utility.yul\":5994:5997   */\n      dup3\n        /* \"#utility.yul\":5990:6002   */\n      add\n        /* \"#utility.yul\":5983:6002   */\n      swap1\n      pop\n        /* \"#utility.yul\":5642:6008   */\n      swap2\n      swap1\n      pop\n      jump\t// out\n        /* \"#utility.yul\":6014:6433   */\n    tag_47:\n        /* \"#utility.yul\":6180:6184   */\n      0x00\n        /* \"#utility.yul\":6218:6220   */\n      0x20\n        /* \"#utility.yul\":6207:6216   */\n      dup3\n        /* \"#utility.yul\":6203:6221   */\n      add\n        /* \"#utility.yul\":6195:6221   */\n      swap1\n      pop\n        /* \"#utility.yul\":6267:6276   */\n      dup2\n        /* \"#utility.yul\":6261:6265   */\n      dup2\n        /* \"#utility.yul\":6257:6277   */\n      sub\n        /* \"#utility.yul\":6253:6254   */\n      0x00\n        /* \"#utility.yul\":6242:6251   */\n      dup4\n        /* \"#utility.yul\":6238:6255   */\n      add\n        /* \"#utility.yul\":6231:6278   */\n      mstore\n        /* \"#utility.yul\":6295:6426   */\n      tag_190\n        /* \"#utility.yul\":6421:6425   */\n      dup2\n        /* \"#utility.yul\":6295:6426   */\n      tag_114\n      jump\t// in\n    tag_190:\n        /* \"#utility.yul\":6287:6426   */\n      swap1\n      pop\n        /* \"#utility.yul\":6014:6433   */\n      swap2\n      swap1\n      pop\n      jump\t// out\n        /* \"#utility.yul\":6439:6619   */\n    tag_115:\n        /* \"#utility.yul\":6487:6564   */\n      0x4e487b7100000000000000000000000000000000000000000000000000000000\n        /* \"#utility.yul\":6484:6485   */\n      0x00\n        /* \"#utility.yul\":6477:6565   */\n      mstore\n        /* \"#utility.yul\":6584:6588   */\n      0x11\n        /* \"#utility.yul\":6581:6582   */\n      0x04\n        /* \"#utility.yul\":6574:6589   */\n      mstore\n        /* \"#utility.yul\":6608:6612   */\n      0x24\n        /* \"#utility.yul\":6605:6606   */\n      0x00\n        /* \"#utility.yul\":6598:6613   */\n      revert\n        /* \"#utility.yul\":6625:6858   */\n    tag_50:\n        /* \"#utility.yul\":6664:6667   */\n      0x00\n        /* \"#utility.yul\":6687:6711   */\n      tag_193\n        /* \"#utility.yul\":6705:6710   */\n      dup3\n        /* \"#utility.yul\":6687:6711   */\n      tag_96\n      jump\t// in\n    tag_193:\n        /* \"#utility.yul\":6678:6711   */\n      swap2\n      pop\n        /* \"#utility.yul\":6733:6799   */\n      0xffffffffffffffffffffffffffffffffffffffffffffffffffffffffffffffff\n        /* \"#utility.yul\":6726:6731   */\n      dup3\n        /* \"#utility.yul\":6723:6800   */\n      sub\n        /* \"#utility.yul\":6720:6823   */\n      tag_194\n      jumpi\n        /* \"#utility.yul\":6803:6821   */\n      tag_195\n      tag_115\n      jump\t// in\n    tag_195:\n        /* \"#utility.yul\":6720:6823   */\n    tag_194:\n        /* \"#utility.yul\":6850:6851   */\n      0x01\n        /* \"#utility.yul\":6843:6848   */\n      dup3\n        /* \"#utility.yul\":6839:6852   */\n      add\n        /* \"#utility.yul\":6832:6852   */\n      swap1\n      pop\n        /* \"#utility.yul\":6625:6858   */\n      swap2\n      swap1\n      pop\n      jump\t// out\n        /* \"#utility.yul\":6864:6982   */\n    tag_116:\n        /* \"#utility.yul\":6951:6975   */\n      tag_197\n        /* \"#utility.yul\":6969:6974   */\n      dup2\n        /* \"#utility.yul\":6951:6975   */\n      tag_100\n      jump\t// in\n    tag_197:\n        /* \"#utility.yul\":6946:6949   */\n      dup3\n        /* \"#utility.yul\":6939:6976   */\n      mstore\n        /* \"#utility.yul\":6864:6982   */\n      pop\n      pop\n      jump\t// out\n        /* \"#utility.yul\":6988:7320   */\n    tag_55:\n        /* \"#utility.yul\":7109:7113   */\n      0x00\n        /* \"#utility.yul\":7147:7149   */\n      0x40\n        /* \"#utility.yul\":7136:7145   */\n      dup3\n        /* \"#utility.yul\":7132:7150   */\n      add\n        /* \"#utility.yul\":7124:7150   */\n      swap1\n      pop\n        /* \"#utility.yul\":7160:7231   */\n      tag_199\n        /* \"#utility.yul\":7228:7229   */\n      0x00\n        /* \"#utility.yul\":7217:7226   */\n      dup4\n        /* \"#utility.yul\":7213:7230   */\n      add\n        /* \"#utility.yul\":7204:7210   */\n      dup6\n        /* \"#utility.yul\":7160:7231   */\n      tag_116\n      jump\t// in\n    tag_199:\n        /* \"#utility.yul\":7241:7313   */\n      tag_200\n        /* \"#utility.yul\":7309:7311   */\n      0x20\n        /* \"#utility.yul\":7298:7307   */\n      dup4\n        /* \"#utility.yul\":7294:7312   */\n      add\n        /* \"#utility.yul\":7285:7291   */\n      dup5\n        /* \"#utility.yul\":7241:7313   */\n      tag_105\n      jump\t// in\n    tag_200:\n        /* \"#utility.yul\":6988:7320   */\n      swap4\n      swap3\n      pop\n      pop\n      pop\n      jump\t// out\n        /* \"#utility.yul\":7326:7506   */\n    tag_117:\n        /* \"#utility.yul\":7374:7451   */\n      0x4e487b7100000000000000000000000000000000000000000000000000000000\n        /* \"#utility.yul\":7371:7372   */\n      0x00\n        /* \"#utility.yul\":7364:7452   */\n      mstore\n        /* \"#utility.yul\":7471:7475   */\n      0x22\n        /* \"#utility.yul\":7468:7469   */\n      0x04\n        /* \"#utility.yul\":7461:7476   */\n      mstore\n        /* \"#utility.yul\":7495:7499   */\n      0x24\n        /* \"#utility.yul\":7492:7493   */\n      0x00\n        /* \"#utility.yul\":7485:7500   */\n      revert\n        /* \"#utility.yul\":7512:7832   */\n    tag_57:\n        /* \"#utility.yul\":7556:7562   */\n      0x00\n        /* \"#utility.yul\":7593:7594   */\n      0x02\n        /* \"#utility.yul\":7587:7591   */\n      dup3\n        /* \"#utility.yul\":7583:7595   */\n      div\n        /* \"#utility.yul\":7573:7595   */\n      swap1\n      pop\n        /* \"#utility.yul\":7640:7641   */\n      0x01\n        /* \"#utility.yul\":7634:7638   */\n      dup3\n        /* \"#utility.yul\":7630:7642   */\n      and\n        /* \"#utility.yul\":7661:7679   */\n      dup1\n        /* \"#utility.yul\":7651:7732   */\n      tag_203\n      jumpi\n        /* \"#utility.yul\":7717:7721   */\n      0x7f\n        /* \"#utility.yul\":7709:7715   */\n      dup3\n        /* \"#utility.yul\":7705:7722   */\n      and\n        /* \"#utility.yul\":7695:7722   */\n      swap2\n      pop\n        /* \"#utility.yul\":7651:7732   */\n    tag_203:\n        /* \"#utility.yul\":7779:7781   */\n      0x20\n        /* \"#utility.yul\":7771:7777   */\n      dup3\n        /* \"#utility.yul\":7768:7782   */\n      lt\n        /* \"#utility.yul\":7748:7766   */\n      dup2\n        /* \"#utility.yul\":7745:7783   */\n      sub\n        /* \"#utility.yul\":7742:7826   */\n      tag_204\n      jumpi\n        /* \"#utility.yul\":7798:7816   */\n      tag_205\n      tag_117\n      jump\t// in\n    tag_205:\n        /* \"#utility.yul\":7742:7826   */\n    tag_204:\n        /* \"#utility.yul\":7563:7832   */\n      pop\n        /* \"#utility.yul\":7512:7832   */\n      swap2\n      swap1\n      pop\n      jump\t// out\n        /* \"#utility.yul\":7838:7986   */\n    tag_118:\n        /* \"#utility.yul\":7940:7951   */\n      0x00\n        /* \"#utility.yul\":7977:7980   */\n      dup2\n        /* \"#utility.yul\":7962:7980   */\n      swap1\n      pop\n        /* \"#utility.yul\":7838:7986   */\n      swap3\n      swap2\n      pop\n      pop\n      jump\t// out\n        /* \"#utility.yul\":7992:8155   */\n    tag_119:\n        /* \"#utility.yul\":8132:8147   */\n      0x43616e64696461746520413a2000000000000000000000000000000000000000\n        /* \"#utility.yul\":8128:8129   */\n      0x00\n        /* \"#utility.yul\":8120:8126   */\n      dup3\n        /* \"#utility.yul\":8116:8130   */\n      add\n        /* \"#utility.yul\":8109:8148   */\n      mstore\n        /* \"#utility.yul\":7992:8155   */\n      pop\n      jump\t// out\n        /* \"#utility.yul\":8161:8563   */\n    tag_120:\n        /* \"#utility.yul\":8321:8324   */\n      0x00\n        /* \"#utility.yul\":8342:8427   */\n      tag_209\n        /* \"#utility.yul\":8424:8426   */\n      0x0d\n        /* \"#utility.yul\":8419:8422   */\n      dup4\n        /* \"#utility.yul\":8342:8427   */\n      tag_118\n      jump\t// in\n    tag_209:\n        /* \"#utility.yul\":8335:8427   */\n      swap2\n      pop\n        /* \"#utility.yul\":8436:8529   */\n      tag_210\n        /* \"#utility.yul\":8525:8528   */\n      dup3\n        /* \"#utility.yul\":8436:8529   */\n      tag_119\n      jump\t// in\n    tag_210:\n        /* \"#utility.yul\":8554:8556   */\n      0x0d\n        /* \"#utility.yul\":8549:8552   */\n      dup3\n        /* \"#utility.yul\":8545:8557   */\n      add\n        /* \"#utility.yul\":8538:8557   */\n      swap1\n      pop\n        /* \"#utility.yul\":8161:8563   */\n      swap2\n      swap1\n      pop\n      jump\t// out\n        /* \"#utility.yul\":8569:8959   */\n    tag_121:\n        /* \"#utility.yul\":8675:8678   */\n      0x00\n        /* \"#utility.yul\":8703:8742   */\n      tag_212\n        /* \"#utility.yul\":8736:8741   */\n      dup3\n        /* \"#utility.yul\":8703:8742   */\n      tag_106\n      jump\t// in\n    tag_212:\n        /* \"#utility.yul\":8758:8847   */\n      tag_213\n        /* \"#utility.yul\":8840:8846   */\n      dup2\n        /* \"#utility.yul\":8835:8838   */\n      dup6\n        /* \"#utility.yul\":8758:8847   */\n      tag_118\n      jump\t// in\n    tag_213:\n        /* \"#utility.yul\":8751:8847   */\n      swap4\n      pop\n        /* \"#utility.yul\":8856:8921   */\n      tag_214\n        /* \"#utility.yul\":8914:8920   */\n      dup2\n        /* \"#utility.yul\":8909:8912   */\n      dup6\n        /* \"#utility.yul\":8902:8906   */\n      0x20\n        /* \"#utility.yul\":8895:8900   */\n      dup7\n        /* \"#utility.yul\":8891:8907   */\n      add\n        /* \"#utility.yul\":8856:8921   */\n      tag_108\n      jump\t// in\n    tag_214:\n        /* \"#utility.yul\":8946:8952   */\n      dup1\n        /* \"#utility.yul\":8941:8944   */\n      dup5\n        /* \"#utility.yul\":8937:8953   */\n      add\n        /* \"#utility.yul\":8930:8953   */\n      swap2\n      pop\n        /* \"#utility.yul\":8679:8959   */\n      pop\n        /* \"#utility.yul\":8569:8959   */\n      swap3\n      swap2\n      pop\n      pop\n      jump\t// out\n        /* \"#utility.yul\":8965:9136   */\n    tag_122:\n        /* \"#utility.yul\":9105:9128   */\n      0x20766f7465732c2043616e64696461746520423a200000000000000000000000\n        /* \"#utility.yul\":9101:9102   */\n      0x00\n        /* \"#utility.yul\":9093:9099   */\n      dup3\n        /* \"#utility.yul\":9089:9103   */\n      add\n        /* \"#utility.yul\":9082:9129   */\n      mstore\n        /* \"#utility.yul\":8965:9136   */\n      pop\n      jump\t// out\n        /* \"#utility.yul\":9142:9544   */\n    tag_123:\n        /* \"#utility.yul\":9302:9305   */\n      0x00\n        /* \"#utility.yul\":9323:9408   */\n      tag_217\n        /* \"#utility.yul\":9405:9407   */\n      0x15\n        /* \"#utility.yul\":9400:9403   */\n      dup4\n        /* \"#utility.yul\":9323:9408   */\n      tag_118\n      jump\t// in\n    tag_217:\n        /* \"#utility.yul\":9316:9408   */\n      swap2\n      pop\n        /* \"#utility.yul\":9417:9510   */\n      tag_218\n        /* \"#utility.yul\":9506:9509   */\n      dup3\n        /* \"#utility.yul\":9417:9510   */\n      tag_122\n      jump\t// in\n    tag_218:\n        /* \"#utility.yul\":9535:9537   */\n      0x15\n        /* \"#utility.yul\":9530:9533   */\n      dup3\n        /* \"#utility.yul\":9526:9538   */\n      add\n        /* \"#utility.yul\":9519:9538   */\n      swap1\n      pop\n        /* \"#utility.yul\":9142:9544   */\n      swap2\n      swap1\n      pop\n      jump\t// out\n        /* \"#utility.yul\":9550:9715   */\n    tag_124:\n        /* \"#utility.yul\":9690:9707   */\n      0x20766f7465732c20426c616e6b3a200000000000000000000000000000000000\n        /* \"#utility.yul\":9686:9687   */\n      0x00\n        /* \"#utility.yul\":9678:9684   */\n      dup3\n        /* \"#utility.yul\":9674:9688   */\n      add\n        /* \"#utility.yul\":9667:9708   */\n      mstore\n        /* \"#utility.yul\":9550:9715   */\n      pop\n      jump\t// out\n        /* \"#utility.yul\":9721:10123   */\n    tag_125:\n        /* \"#utility.yul\":9881:9884   */\n      0x00\n        /* \"#utility.yul\":9902:9987   */\n      tag_221\n        /* \"#utility.yul\":9984:9986   */\n      0x0f\n        /* \"#utility.yul\":9979:9982   */\n      dup4\n        /* \"#utility.yul\":9902:9987   */\n      tag_118\n      jump\t// in\n    tag_221:\n        /* \"#utility.yul\":9895:9987   */\n      swap2\n      pop\n        /* \"#utility.yul\":9996:10089   */\n      tag_222\n        /* \"#utility.yul\":10085:10088   */\n      dup3\n        /* \"#utility.yul\":9996:10089   */\n      tag_124\n      jump\t// in\n    tag_222:\n        /* \"#utility.yul\":10114:10116   */\n      0x0f\n        /* \"#utility.yul\":10109:10112   */\n      dup3\n        /* \"#utility.yul\":10105:10117   */\n      add\n        /* \"#utility.yul\":10098:10117   */\n      swap1\n      pop\n        /* \"#utility.yul\":9721:10123   */\n      swap2\n      swap1\n      pop\n      jump\t// out\n        /* \"#utility.yul\":10129:10285   */\n    tag_126:\n        /* \"#utility.yul\":10269:10277   */\n      0x20766f7465730000000000000000000000000000000000000000000000000000\n        /* \"#utility.yul\":10265:10266   */\n      0x00\n        /* \"#utility.yul\":10257:10263   */\n      dup3\n        /* \"#utility.yul\":10253:10267   */\n      add\n        /* \"#utility.yul\":10246:10278   */\n      mstore\n        /* \"#utility.yul\":10129:10285   */\n      pop\n      jump\t// out\n        /* \"#utility.yul\":10291:10691   */\n    tag_127:\n        /* \"#utility.yul\":10451:10454   */\n      0x00\n        /* \"#utility.yul\":10472:10556   */\n      tag_225\n        /* \"#utility.yul\":10554:10555   */\n      0x06\n        /* \"#utility.yul\":10549:10552   */\n      dup4\n        /* \"#utility.yul\":10472:10556   */\n      tag_118\n      jump\t// in\n    tag_225:\n        /* \"#utility.yul\":10465:10556   */\n      swap2\n      pop\n        /* \"#utility.yul\":10565:10658   */\n      tag_226\n        /* \"#utility.yul\":10654:10657   */\n      dup3\n        /* \"#utility.yul\":10565:10658   */\n      tag_126\n      jump\t// in\n    tag_226:\n        /* \"#utility.yul\":10683:10684   */\n      0x06\n        /* \"#utility.yul\":10678:10681   */\n      dup3\n        /* \"#utility.yul\":10674:10685   */\n      add\n        /* \"#utility.yul\":10667:10685   */\n      swap1\n      pop\n        /* \"#utility.yul\":10291:10691   */\n      swap2\n      swap1\n      pop\n      jump\t// out\n        /* \"#utility.yul\":10697:12356   */\n    tag_68:\n        /* \"#utility.yul\":11329:11332   */\n      0x00\n        /* \"#utility.yul\":11351:11499   */\n      tag_228\n        /* \"#utility.yul\":11495:11498   */\n      dup3\n        /* \"#utility.yul\":11351:11499   */\n      tag_120\n      jump\t// in\n    tag_228:\n        /* \"#utility.yul\":11344:11499   */\n      swap2\n      pop\n        /* \"#utility.yul\":11516:11611   */\n      tag_229\n        /* \"#utility.yul\":11607:11610   */\n      dup3\n        /* \"#utility.yul\":11598:11604   */\n      dup7\n        /* \"#utility.yul\":11516:11611   */\n      tag_121\n      jump\t// in\n    tag_229:\n        /* \"#utility.yul\":11509:11611   */\n      swap2\n      pop\n        /* \"#utility.yul\":11628:11776   */\n      tag_230\n        /* \"#utility.yul\":11772:11775   */\n      dup3\n        /* \"#utility.yul\":11628:11776   */\n      tag_123\n      jump\t// in\n    tag_230:\n        /* \"#utility.yul\":11621:11776   */\n      swap2\n      pop\n        /* \"#utility.yul\":11793:11888   */\n      tag_231\n        /* \"#utility.yul\":11884:11887   */\n      dup3\n        /* \"#utility.yul\":11875:11881   */\n      dup6\n        /* \"#utility.yul\":11793:11888   */\n      tag_121\n      jump\t// in\n    tag_231:\n        /* \"#utility.yul\":11786:11888   */\n      swap2\n      pop\n        /* \"#utility.yul\":11905:12053   */\n      tag_232\n        /* \"#utility.yul\":12049:12052   */\n      dup3\n        /* \"#utility.yul\":11905:12053   */\n      tag_125\n      jump\t// in\n    tag_232:\n        /* \"#utility.yul\":11898:12053   */\n      swap2\n      pop\n        /* \"#utility.yul\":12070:12165   */\n      tag_233\n        /* \"#utility.yul\":12161:12164   */\n      dup3\n        /* \"#utility.yul\":12152:12158   */\n      dup5\n        /* \"#utility.yul\":12070:12165   */\n      tag_121\n      jump\t// in\n    tag_233:\n        /* \"#utility.yul\":12063:12165   */\n      swap2\n      pop\n        /* \"#utility.yul\":12182:12330   */\n      tag_234\n        /* \"#utility.yul\":12326:12329   */\n      dup3\n        /* \"#utility.yul\":12182:12330   */\n      tag_127\n      jump\t// in\n    tag_234:\n        /* \"#utility.yul\":12175:12330   */\n      swap2\n      pop\n        /* \"#utility.yul\":12347:12350   */\n      dup2\n        /* \"#utility.yul\":12340:12350   */\n      swap1\n      pop\n        /* \"#utility.yul\":10697:12356   */\n      swap5\n      swap4\n      pop\n      pop\n      pop\n      pop\n      jump\t// out\n        /* \"#utility.yul\":12362:12542   */\n    tag_128:\n        /* \"#utility.yul\":12410:12487   */\n      0x4e487b7100000000000000000000000000000000000000000000000000000000\n        /* \"#utility.yul\":12407:12408   */\n      0x00\n        /* \"#utility.yul\":12400:12488   */\n      mstore\n        /* \"#utility.yul\":12507:12511   */\n      0x12\n        /* \"#utility.yul\":12504:12505   */\n      0x04\n        /* \"#utility.yul\":12497:12512   */\n      mstore\n        /* \"#utility.yul\":12531:12535   */\n      0x24\n        /* \"#utility.yul\":12528:12529   */\n      0x00\n        /* \"#utility.yul\":12521:12536   */\n      revert\n        /* \"#utility.yul\":12548:12733   */\n    tag_76:\n        /* \"#utility.yul\":12588:12589   */\n      0x00\n        /* \"#utility.yul\":12605:12625   */\n      tag_237\n        /* \"#utility.yul\":12623:12624   */\n      dup3\n        /* \"#utility.yul\":12605:12625   */\n      tag_96\n      jump\t// in\n    tag_237:\n        /* \"#utility.yul\":12600:12625   */\n      swap2\n      pop\n        /* \"#utility.yul\":12639:12659   */\n      tag_238\n        /* \"#utility.yul\":12657:12658   */\n      dup4\n        /* \"#utility.yul\":12639:12659   */\n      tag_96\n      jump\t// in\n    tag_238:\n        /* \"#utility.yul\":12634:12659   */\n      swap3\n      pop\n        /* \"#utility.yul\":12678:12679   */\n      dup3\n        /* \"#utility.yul\":12668:12703   */\n      tag_239\n      jumpi\n        /* \"#utility.yul\":12683:12701   */\n      tag_240\n      tag_128\n      jump\t// in\n    tag_240:\n        /* \"#utility.yul\":12668:12703   */\n    tag_239:\n        /* \"#utility.yul\":12725:12726   */\n      dup3\n        /* \"#utility.yul\":12722:12723   */\n      dup3\n        /* \"#utility.yul\":12718:12727   */\n      div\n        /* \"#utility.yul\":12713:12727   */\n      swap1\n      pop\n        /* \"#utility.yul\":12548:12733   */\n      swap3\n      swap2\n      pop\n      pop\n      jump\t// out\n        /* \"#utility.yul\":12739:12919   */\n    tag_79:\n        /* \"#utility.yul\":12787:12864   */\n      0x4e487b7100000000000000000000000000000000000000000000000000000000\n        /* \"#utility.yul\":12784:12785   */\n      0x00\n        /* \"#utility.yul\":12777:12865   */\n      mstore\n        /* \"#utility.yul\":12884:12888   */\n      0x41\n        /* \"#utility.yul\":12881:12882   */\n      0x04\n        /* \"#utility.yul\":12874:12889   */\n      mstore\n        /* \"#utility.yul\":12908:12912   */\n      0x24\n        /* \"#utility.yul\":12905:12906   */\n      0x00\n        /* \"#utility.yul\":12898:12913   */\n      revert\n        /* \"#utility.yul\":12925:13119   */\n    tag_84:\n        /* \"#utility.yul\":12965:12969   */\n      0x00\n        /* \"#utility.yul\":12985:13005   */\n      tag_243\n        /* \"#utility.yul\":13003:13004   */\n      dup3\n        /* \"#utility.yul\":12985:13005   */\n      tag_96\n      jump\t// in\n    tag_243:\n        /* \"#utility.yul\":12980:13005   */\n      swap2\n      pop\n        /* \"#utility.yul\":13019:13039   */\n      tag_244\n        /* \"#utility.yul\":13037:13038   */\n      dup4\n        /* \"#utility.yul\":13019:13039   */\n      tag_96\n      jump\t// in\n    tag_244:\n        /* \"#utility.yul\":13014:13039   */\n      swap3\n      pop\n        /* \"#utility.yul\":13063:13064   */\n      dup3\n        /* \"#utility.yul\":13060:13061   */\n      dup3\n        /* \"#utility.yul\":13056:13065   */\n      sub\n        /* \"#utility.yul\":13048:13065   */\n      swap1\n      pop\n        /* \"#utility.yul\":13087:13088   */\n      dup2\n        /* \"#utility.yul\":13081:13085   */\n      dup2\n        /* \"#utility.yul\":13078:13089   */\n      gt\n        /* \"#utility.yul\":13075:13112   */\n      iszero\n      tag_245\n      jumpi\n        /* \"#utility.yul\":13092:13110   */\n      tag_246\n      tag_115\n      jump\t// in\n    tag_246:\n        /* \"#utility.yul\":13075:13112   */\n    tag_245:\n        /* \"#utility.yul\":12925:13119   */\n      swap3\n      swap2\n      pop\n      pop\n      jump\t// out\n        /* \"#utility.yul\":13125:13301   */\n    tag_86:\n        /* \"#utility.yul\":13157:13158   */\n      0x00\n        /* \"#utility.yul\":13174:13194   */\n      tag_248\n        /* \"#utility.yul\":13192:13193   */\n      dup3\n        /* \"#utility.yul\":13174:13194   */\n      tag_96\n      jump\t// in\n    tag_248:\n        /* \"#utility.yul\":13169:13194   */\n      swap2\n      pop\n        /* \"#utility.yul\":13208:13228   */\n      tag_249\n        /* \"#utility.yul\":13226:13227   */\n      dup4\n        /* \"#utility.yul\":13208:13228   */\n      tag_96\n      jump\t// in\n    tag_249:\n        /* \"#utility.yul\":13203:13228   */\n      swap3\n      pop\n        /* \"#utility.yul\":13247:13248   */\n      dup3\n        /* \"#utility.yul\":13237:13272   */\n      tag_250\n      jumpi\n        /* \"#utility.yul\":13252:13270   */\n      tag_251\n      tag_128\n      jump\t// in\n    tag_251:\n        /* \"#utility.yul\":13237:13272   */\n    tag_250:\n        /* \"#utility.yul\":13293:13294   */\n      dup3\n        /* \"#utility.yul\":13290:13291   */\n      dup3\n        /* \"#utility.yul\":13286:13295   */\n      mod\n        /* \"#utility.yul\":13281:13295   */\n      swap1\n      pop\n        /* \"#utility.yul\":13125:13301   */\n      swap3\n      swap2\n      pop\n      pop\n      jump\t// out\n        /* \"#utility.yul\":13307:13498   */\n    tag_88:\n        /* \"#utility.yul\":13347:13350   */\n      0x00\n        /* \"#utility.yul\":13366:13386   */\n      tag_253\n        /* \"#utility.yul\":13384:13385   */\n      dup3\n        /* \"#utility.yul\":13366:13386   */\n      tag_96\n      jump\t// in\n    tag_253:\n        /* \"#utility.yul\":13361:13386   */\n      swap2\n      pop\n        /* \"#utility.yul\":13400:13420   */\n      tag_254\n        /* \"#utility.yul\":13418:13419   */\n      dup4\n        /* \"#utility.yul\":13400:13420   */\n      tag_96\n      jump\t// in\n    tag_254:\n        /* \"#utility.yul\":13395:13420   */\n      swap3\n      pop\n        /* \"#utility.yul\":13443:13444   */\n      dup3\n        /* \"#utility.yul\":13440:13441   */\n      dup3\n        /* \"#utility.yul\":13436:13445   */\n      add\n        /* \"#utility.yul\":13429:13445   */\n      swap1\n      pop\n        /* \"#utility.yul\":13464:13467   */\n      dup1\n        /* \"#utility.yul\":13461:13462   */\n      dup3\n        /* \"#utility.yul\":13458:13468   */\n      gt\n        /* \"#utility.yul\":13455:13491   */\n      iszero\n      tag_255\n      jumpi\n        /* \"#utility.yul\":13471:13489   */\n      tag_256\n      tag_115\n      jump\t// in\n    tag_256:\n        /* \"#utility.yul\":13455:13491   */\n    tag_255:\n        /* \"#utility.yul\":13307:13498   */\n      swap3\n      swap2\n      pop\n      pop\n      jump\t// out\n        /* \"#utility.yul\":13504:13684   */\n    tag_91:\n        /* \"#utility.yul\":13552:13629   */\n      0x4e487b7100000000000000000000000000000000000000000000000000000000\n        /* \"#utility.yul\":13549:13550   */\n      0x00\n        /* \"#utility.yul\":13542:13630   */\n      mstore\n        /* \"#utility.yul\":13649:13653   */\n      0x32\n        /* \"#utility.yul\":13646:13647   */\n      0x04\n        /* \"#utility.yul\":13639:13654   */\n      mstore\n        /* \"#utility.yul\":13673:13677   */\n      0x24\n        /* \"#utility.yul\":13670:13671   */\n      0x00\n        /* \"#utility.yul\":13663:13678   */\n      revert\n\n    auxdata: 0xa26469706673582212204d6a5678dcd95d282d9c44c833080d15161fd20b70bd7caae286d50ce9561da264736f6c634300081a0033\n}\n",
				"bytecode": {
					"linkReferences": {},
					"object": "608060405234801561000f575f80fd5b50610056600d6040518060400160405280600b81526020017f43616e64696461746520410000000000000000000000000000000000000000008152506100a160201b60201c565b61009c60166040518060400160405280600b81526020017f43616e64696461746520420000000000000000000000000000000000000000008152506100a160201b60201c565b610404565b60405180606001604052808381526020018281526020015f8152505f808481526020019081526020015f205f820151815f015560208201518160010190816100e99190610335565b50604082015181600201559050505050565b5f81519050919050565b7f4e487b71000000000000000000000000000000000000000000000000000000005f52604160045260245ffd5b7f4e487b71000000000000000000000000000000000000000000000000000000005f52602260045260245ffd5b5f600282049050600182168061017657607f821691505b60208210810361018957610188610132565b5b50919050565b5f819050815f5260205f209050919050565b5f6020601f8301049050919050565b5f82821b905092915050565b5f600883026101eb7fffffffffffffffffffffffffffffffffffffffffffffffffffffffffffffffff826101b0565b6101f586836101b0565b95508019841693508086168417925050509392505050565b5f819050919050565b5f819050919050565b5f61023961023461022f8461020d565b610216565b61020d565b9050919050565b5f819050919050565b6102528361021f565b61026661025e82610240565b8484546101bc565b825550505050565b5f90565b61027a61026e565b610285818484610249565b505050565b5b818110156102a85761029d5f82610272565b60018101905061028b565b5050565b601f8211156102ed576102be8161018f565b6102c7846101a1565b810160208510156102d6578190505b6102ea6102e2856101a1565b83018261028a565b50505b505050565b5f82821c905092915050565b5f61030d5f19846008026102f2565b1980831691505092915050565b5f61032583836102fe565b9150826002028217905092915050565b61033e826100fb565b67ffffffffffffffff81111561035757610356610105565b5b610361825461015f565b61036c8282856102ac565b5f60209050601f83116001811461039d575f841561038b578287015190505b610395858261031a565b8655506103fc565b601f1984166103ab8661018f565b5f5b828110156103d2578489015182556001820191506020850194506020810190506103ad565b868310156103ef57848901516103eb601f8916826102fe565b8355505b6001600288020188555050505b505050505050565b610d6d806104115f395ff3fe608060405234801561000f575f80fd5b506004361061007b575f3560e01c80633477ee2e116100595780633477ee2e146100e95780634717f97c1461011b5780636a316c9d14610139578063b9830ff1146101575761007b565b80630121b93f1461007f57806309eef43e1461009b5780630d15fd77146100cb575b5f80fd5b61009960048036038101906100949190610658565b610161565b005b6100b560048036038101906100b091906106dd565b610336565b6040516100c29190610722565b60405180910390f35b6100d3610353565b6040516100e0919061074a565b60405180910390f35b61010360048036038101906100fe9190610658565b610359565b604051610112939291906107d3565b60405180910390f35b610123610404565b604051610130919061080f565b60405180910390f35b610141610480565b60405161014e919061074a565b60405180910390f35b61015f610486565b005b60015f3373ffffffffffffffffffffffffffffffffffffffff1673ffffffffffffffffffffffffffffffffffffffff1681526020019081526020015f205f9054906101000a900460ff16156101eb576040517f08c379a00000000000000000000000000000000000000000000000000000000081526004016101e290610879565b60405180910390fd5b600d8114806101fa5750601681145b8061020457505f81145b610243576040517f08c379a000000000000000000000000000000000000000000000000000000000815260040161023a90610907565b60405180910390fd5b5f81036102665760035f81548092919061025c90610952565b919050555061028f565b5f808281526020019081526020015f206002015f81548092919061028990610952565b91905055505b60025f8154809291906102a190610952565b91905055506001805f3373ffffffffffffffffffffffffffffffffffffffff1673ffffffffffffffffffffffffffffffffffffffff1681526020019081526020015f205f6101000a81548160ff0219169083151502179055507fd0e6c39f2e086dc49f1524b47725526a56945cd1ff661f37976f1725a1e56986338260405161032b9291906109a8565b60405180910390a150565b6001602052805f5260405f205f915054906101000a900460ff1681565b60025481565b5f602052805f5260405f205f91509050805f01549080600101805461037d906109fc565b80601f01602080910402602001604051908101604052809291908181526020018280546103a9906109fc565b80156103f45780601f106103cb576101008083540402835291602001916103f4565b820191905f5260205f20905b8154815290600101906020018083116103d757829003601f168201915b5050505050908060020154905083565b60605f805f600d81526020019081526020015f206002015490505f805f601681526020019081526020015f206002015490505f610440836104c8565b610449836104c8565b6104546003546104c8565b60405160200161046693929190610b8e565b604051602081830303815290604052905080935050505090565b60035481565b5f805f600d81526020019081526020015f20600201819055505f805f601681526020019081526020015f20600201819055505f6003819055505f600281905550565b60605f820361050e576040518060400160405280600181526020017f3000000000000000000000000000000000000000000000000000000000000000815250905061061c565b5f808390505b5f811461053d57818061052690610952565b925050600a816105369190610c17565b9050610514565b5f8267ffffffffffffffff81111561055857610557610c47565b5b6040519080825280601f01601f19166020018201604052801561058a5781602001600182028036833780820191505090505b5090505b5f8514610615576001836105a29190610c74565b9250600a856105b19190610ca7565b60306105bd9190610cd7565b60f81b8184815181106105d3576105d2610d0a565b5b60200101907effffffffffffffffffffffffffffffffffffffffffffffffffffffffffffff191690815f1a905350600a8561060e9190610c17565b945061058e565b8093505050505b919050565b5f80fd5b5f819050919050565b61063781610625565b8114610641575f80fd5b50565b5f813590506106528161062e565b92915050565b5f6020828403121561066d5761066c610621565b5b5f61067a84828501610644565b91505092915050565b5f73ffffffffffffffffffffffffffffffffffffffff82169050919050565b5f6106ac82610683565b9050919050565b6106bc816106a2565b81146106c6575f80fd5b50565b5f813590506106d7816106b3565b92915050565b5f602082840312156106f2576106f1610621565b5b5f6106ff848285016106c9565b91505092915050565b5f8115159050919050565b61071c81610708565b82525050565b5f6020820190506107355f830184610713565b92915050565b61074481610625565b82525050565b5f60208201905061075d5f83018461073b565b92915050565b5f81519050919050565b5f82825260208201905092915050565b8281835e5f83830152505050565b5f601f19601f8301169050919050565b5f6107a582610763565b6107af818561076d565b93506107bf81856020860161077d565b6107c88161078b565b840191505092915050565b5f6060820190506107e65f83018661073b565b81810360208301526107f8818561079b565b9050610807604083018461073b565b949350505050565b5f6020820190508181035f830152610827818461079b565b905092915050565b7f596f75206861766520616c726561647920766f7465642e0000000000000000005f82015250565b5f61086360178361076d565b915061086e8261082f565b602082019050919050565b5f6020820190508181035f83015261089081610857565b9050919050565b7f496e76616c69642063616e6469646174652049442e20507265737320302069665f8201527f20796f75207769746820746f204162737461696e2e0000000000000000000000602082015250565b5f6108f160358361076d565b91506108fc82610897565b604082019050919050565b5f6020820190508181035f83015261091e816108e5565b9050919050565b7f4e487b71000000000000000000000000000000000000000000000000000000005f52601160045260245ffd5b5f61095c82610625565b91507fffffffffffffffffffffffffffffffffffffffffffffffffffffffffffffffff820361098e5761098d610925565b5b600182019050919050565b6109a2816106a2565b82525050565b5f6040820190506109bb5f830185610999565b6109c8602083018461073b565b9392505050565b7f4e487b71000000000000000000000000000000000000000000000000000000005f52602260045260245ffd5b5f6002820490506001821680610a1357607f821691505b602082108103610a2657610a256109cf565b5b50919050565b5f81905092915050565b7f43616e64696461746520413a20000000000000000000000000000000000000005f82015250565b5f610a6a600d83610a2c565b9150610a7582610a36565b600d82019050919050565b5f610a8a82610763565b610a948185610a2c565b9350610aa481856020860161077d565b80840191505092915050565b7f20766f7465732c2043616e64696461746520423a2000000000000000000000005f82015250565b5f610ae4601583610a2c565b9150610aef82610ab0565b601582019050919050565b7f20766f7465732c20426c616e6b3a2000000000000000000000000000000000005f82015250565b5f610b2e600f83610a2c565b9150610b3982610afa565b600f82019050919050565b7f20766f74657300000000000000000000000000000000000000000000000000005f82015250565b5f610b78600683610a2c565b9150610b8382610b44565b600682019050919050565b5f610b9882610a5e565b9150610ba48286610a80565b9150610baf82610ad8565b9150610bbb8285610a80565b9150610bc682610b22565b9150610bd28284610a80565b9150610bdd82610b6c565b9150819050949350505050565b7f4e487b71000000000000000000000000000000000000000000000000000000005f52601260045260245ffd5b5f610c2182610625565b9150610c2c83610625565b925082610c3c57610c3b610bea565b5b828204905092915050565b7f4e487b71000000000000000000000000000000000000000000000000000000005f52604160045260245ffd5b5f610c7e82610625565b9150610c8983610625565b9250828203905081811115610ca157610ca0610925565b5b92915050565b5f610cb182610625565b9150610cbc83610625565b925082610ccc57610ccb610bea565b5b828206905092915050565b5f610ce182610625565b9150610cec83610625565b9250828201905080821115610d0457610d03610925565b5b92915050565b7f4e487b71000000000000000000000000000000000000000000000000000000005f52603260045260245ffdfea26469706673582212204d6a5678dcd95d282d9c44c833080d15161fd20b70bd7caae286d50ce9561da264736f6c634300081a0033",
					"opcodes": "PUSH1 0x80 PUSH1 0x40 MSTORE CALLVALUE DUP1 ISZERO PUSH2 0xF JUMPI PUSH0 DUP1 REVERT JUMPDEST POP PUSH2 0x56 PUSH1 0xD PUSH1 0x40 MLOAD DUP1 PUSH1 0x40 ADD PUSH1 0x40 MSTORE DUP1 PUSH1 0xB DUP2 MSTORE PUSH1 0x20 ADD PUSH32 0x43616E6469646174652041000000000000000000000000000000000000000000 DUP2 MSTORE POP PUSH2 0xA1 PUSH1 0x20 SHL PUSH1 0x20 SHR JUMP JUMPDEST PUSH2 0x9C PUSH1 0x16 PUSH1 0x40 MLOAD DUP1 PUSH1 0x40 ADD PUSH1 0x40 MSTORE DUP1 PUSH1 0xB DUP2 MSTORE PUSH1 0x20 ADD PUSH32 0x43616E6469646174652042000000000000000000000000000000000000000000 DUP2 MSTORE POP PUSH2 0xA1 PUSH1 0x20 SHL PUSH1 0x20 SHR JUMP JUMPDEST PUSH2 0x404 JUMP JUMPDEST PUSH1 0x40 MLOAD DUP1 PUSH1 0x60 ADD PUSH1 0x40 MSTORE DUP1 DUP4 DUP2 MSTORE PUSH1 0x20 ADD DUP3 DUP2 MSTORE PUSH1 0x20 ADD PUSH0 DUP2 MSTORE POP PUSH0 DUP1 DUP5 DUP2 MSTORE PUSH1 0x20 ADD SWAP1 DUP2 MSTORE PUSH1 0x20 ADD PUSH0 KECCAK256 PUSH0 DUP3 ADD MLOAD DUP2 PUSH0 ADD SSTORE PUSH1 0x20 DUP3 ADD MLOAD DUP2 PUSH1 0x1 ADD SWAP1 DUP2 PUSH2 0xE9 SWAP2 SWAP1 PUSH2 0x335 JUMP JUMPDEST POP PUSH1 0x40 DUP3 ADD MLOAD DUP2 PUSH1 0x2 ADD SSTORE SWAP1 POP POP POP POP JUMP JUMPDEST PUSH0 DUP2 MLOAD SWAP1 POP SWAP2 SWAP1 POP JUMP JUMPDEST PUSH32 0x4E487B7100000000000000000000000000000000000000000000000000000000 PUSH0 MSTORE PUSH1 0x41 PUSH1 0x4 MSTORE PUSH1 0x24 PUSH0 REVERT JUMPDEST PUSH32 0x4E487B7100000000000000000000000000000000000000000000000000000000 PUSH0 MSTORE PUSH1 0x22 PUSH1 0x4 MSTORE PUSH1 0x24 PUSH0 REVERT JUMPDEST PUSH0 PUSH1 0x2 DUP3 DIV SWAP1 POP PUSH1 0x1 DUP3 AND DUP1 PUSH2 0x176 JUMPI PUSH1 0x7F DUP3 AND SWAP2 POP JUMPDEST PUSH1 0x20 DUP3 LT DUP2 SUB PUSH2 0x189 JUMPI PUSH2 0x188 PUSH2 0x132 JUMP JUMPDEST JUMPDEST POP SWAP2 SWAP1 POP JUMP JUMPDEST PUSH0 DUP2 SWAP1 POP DUP2 PUSH0 MSTORE PUSH1 0x20 PUSH0 KECCAK256 SWAP1 POP SWAP2 SWAP1 POP JUMP JUMPDEST PUSH0 PUSH1 0x20 PUSH1 0x1F DUP4 ADD DIV SWAP1 POP SWAP2 SWAP1 POP JUMP JUMPDEST PUSH0 DUP3 DUP3 SHL SWAP1 POP SWAP3 SWAP2 POP POP JUMP JUMPDEST PUSH0 PUSH1 0x8 DUP4 MUL PUSH2 0x1EB PUSH32 0xFFFFFFFFFFFFFFFFFFFFFFFFFFFFFFFFFFFFFFFFFFFFFFFFFFFFFFFFFFFFFFFF DUP3 PUSH2 0x1B0 JUMP JUMPDEST PUSH2 0x1F5 DUP7 DUP4 PUSH2 0x1B0 JUMP JUMPDEST SWAP6 POP DUP1 NOT DUP5 AND SWAP4 POP DUP1 DUP7 AND DUP5 OR SWAP3 POP POP POP SWAP4 SWAP3 POP POP POP JUMP JUMPDEST PUSH0 DUP2 SWAP1 POP SWAP2 SWAP1 POP JUMP JUMPDEST PUSH0 DUP2 SWAP1 POP SWAP2 SWAP1 POP JUMP JUMPDEST PUSH0 PUSH2 0x239 PUSH2 0x234 PUSH2 0x22F DUP5 PUSH2 0x20D JUMP JUMPDEST PUSH2 0x216 JUMP JUMPDEST PUSH2 0x20D JUMP JUMPDEST SWAP1 POP SWAP2 SWAP1 POP JUMP JUMPDEST PUSH0 DUP2 SWAP1 POP SWAP2 SWAP1 POP JUMP JUMPDEST PUSH2 0x252 DUP4 PUSH2 0x21F JUMP JUMPDEST PUSH2 0x266 PUSH2 0x25E DUP3 PUSH2 0x240 JUMP JUMPDEST DUP5 DUP5 SLOAD PUSH2 0x1BC JUMP JUMPDEST DUP3 SSTORE POP POP POP POP JUMP JUMPDEST PUSH0 SWAP1 JUMP JUMPDEST PUSH2 0x27A PUSH2 0x26E JUMP JUMPDEST PUSH2 0x285 DUP2 DUP5 DUP5 PUSH2 0x249 JUMP JUMPDEST POP POP POP JUMP JUMPDEST JUMPDEST DUP2 DUP2 LT ISZERO PUSH2 0x2A8 JUMPI PUSH2 0x29D PUSH0 DUP3 PUSH2 0x272 JUMP JUMPDEST PUSH1 0x1 DUP2 ADD SWAP1 POP PUSH2 0x28B JUMP JUMPDEST POP POP JUMP JUMPDEST PUSH1 0x1F DUP3 GT ISZERO PUSH2 0x2ED JUMPI PUSH2 0x2BE DUP2 PUSH2 0x18F JUMP JUMPDEST PUSH2 0x2C7 DUP5 PUSH2 0x1A1 JUMP JUMPDEST DUP2 ADD PUSH1 0x20 DUP6 LT ISZERO PUSH2 0x2D6 JUMPI DUP2 SWAP1 POP JUMPDEST PUSH2 0x2EA PUSH2 0x2E2 DUP6 PUSH2 0x1A1 JUMP JUMPDEST DUP4 ADD DUP3 PUSH2 0x28A JUMP JUMPDEST POP POP JUMPDEST POP POP POP JUMP JUMPDEST PUSH0 DUP3 DUP3 SHR SWAP1 POP SWAP3 SWAP2 POP POP JUMP JUMPDEST PUSH0 PUSH2 0x30D PUSH0 NOT DUP5 PUSH1 0x8 MUL PUSH2 0x2F2 JUMP JUMPDEST NOT DUP1 DUP4 AND SWAP2 POP POP SWAP3 SWAP2 POP POP JUMP JUMPDEST PUSH0 PUSH2 0x325 DUP4 DUP4 PUSH2 0x2FE JUMP JUMPDEST SWAP2 POP DUP3 PUSH1 0x2 MUL DUP3 OR SWAP1 POP SWAP3 SWAP2 POP POP JUMP JUMPDEST PUSH2 0x33E DUP3 PUSH2 0xFB JUMP JUMPDEST PUSH8 0xFFFFFFFFFFFFFFFF DUP2 GT ISZERO PUSH2 0x357 JUMPI PUSH2 0x356 PUSH2 0x105 JUMP JUMPDEST JUMPDEST PUSH2 0x361 DUP3 SLOAD PUSH2 0x15F JUMP JUMPDEST PUSH2 0x36C DUP3 DUP3 DUP6 PUSH2 0x2AC JUMP JUMPDEST PUSH0 PUSH1 0x20 SWAP1 POP PUSH1 0x1F DUP4 GT PUSH1 0x1 DUP2 EQ PUSH2 0x39D JUMPI PUSH0 DUP5 ISZERO PUSH2 0x38B JUMPI DUP3 DUP8 ADD MLOAD SWAP1 POP JUMPDEST PUSH2 0x395 DUP6 DUP3 PUSH2 0x31A JUMP JUMPDEST DUP7 SSTORE POP PUSH2 0x3FC JUMP JUMPDEST PUSH1 0x1F NOT DUP5 AND PUSH2 0x3AB DUP7 PUSH2 0x18F JUMP JUMPDEST PUSH0 JUMPDEST DUP3 DUP2 LT ISZERO PUSH2 0x3D2 JUMPI DUP5 DUP10 ADD MLOAD DUP3 SSTORE PUSH1 0x1 DUP3 ADD SWAP2 POP PUSH1 0x20 DUP6 ADD SWAP5 POP PUSH1 0x20 DUP2 ADD SWAP1 POP PUSH2 0x3AD JUMP JUMPDEST DUP7 DUP4 LT ISZERO PUSH2 0x3EF JUMPI DUP5 DUP10 ADD MLOAD PUSH2 0x3EB PUSH1 0x1F DUP10 AND DUP3 PUSH2 0x2FE JUMP JUMPDEST DUP4 SSTORE POP JUMPDEST PUSH1 0x1 PUSH1 0x2 DUP9 MUL ADD DUP9 SSTORE POP POP POP JUMPDEST POP POP POP POP POP POP JUMP JUMPDEST PUSH2 0xD6D DUP1 PUSH2 0x411 PUSH0 CODECOPY PUSH0 RETURN INVALID PUSH1 0x80 PUSH1 0x40 MSTORE CALLVALUE DUP1 ISZERO PUSH2 0xF JUMPI PUSH0 DUP1 REVERT JUMPDEST POP PUSH1 0x4 CALLDATASIZE LT PUSH2 0x7B JUMPI PUSH0 CALLDATALOAD PUSH1 0xE0 SHR DUP1 PUSH4 0x3477EE2E GT PUSH2 0x59 JUMPI DUP1 PUSH4 0x3477EE2E EQ PUSH2 0xE9 JUMPI DUP1 PUSH4 0x4717F97C EQ PUSH2 0x11B JUMPI DUP1 PUSH4 0x6A316C9D EQ PUSH2 0x139 JUMPI DUP1 PUSH4 0xB9830FF1 EQ PUSH2 0x157 JUMPI PUSH2 0x7B JUMP JUMPDEST DUP1 PUSH4 0x121B93F EQ PUSH2 0x7F JUMPI DUP1 PUSH4 0x9EEF43E EQ PUSH2 0x9B JUMPI DUP1 PUSH4 0xD15FD77 EQ PUSH2 0xCB JUMPI JUMPDEST PUSH0 DUP1 REVERT JUMPDEST PUSH2 0x99 PUSH1 0x4 DUP1 CALLDATASIZE SUB DUP2 ADD SWAP1 PUSH2 0x94 SWAP2 SWAP1 PUSH2 0x658 JUMP JUMPDEST PUSH2 0x161 JUMP JUMPDEST STOP JUMPDEST PUSH2 0xB5 PUSH1 0x4 DUP1 CALLDATASIZE SUB DUP2 ADD SWAP1 PUSH2 0xB0 SWAP2 SWAP1 PUSH2 0x6DD JUMP JUMPDEST PUSH2 0x336 JUMP JUMPDEST PUSH1 0x40 MLOAD PUSH2 0xC2 SWAP2 SWAP1 PUSH2 0x722 JUMP JUMPDEST PUSH1 0x40 MLOAD DUP1 SWAP2 SUB SWAP1 RETURN JUMPDEST PUSH2 0xD3 PUSH2 0x353 JUMP JUMPDEST PUSH1 0x40 MLOAD PUSH2 0xE0 SWAP2 SWAP1 PUSH2 0x74A JUMP JUMPDEST PUSH1 0x40 MLOAD DUP1 SWAP2 SUB SWAP1 RETURN JUMPDEST PUSH2 0x103 PUSH1 0x4 DUP1 CALLDATASIZE SUB DUP2 ADD SWAP1 PUSH2 0xFE SWAP2 SWAP1 PUSH2 0x658 JUMP JUMPDEST PUSH2 0x359 JUMP JUMPDEST PUSH1 0x40 MLOAD PUSH2 0x112 SWAP4 SWAP3 SWAP2 SWAP1 PUSH2 0x7D3 JUMP JUMPDEST PUSH1 0x40 MLOAD DUP1 SWAP2 SUB SWAP1 RETURN JUMPDEST PUSH2 0x123 PUSH2 0x404 JUMP JUMPDEST PUSH1 0x40 MLOAD PUSH2 0x130 SWAP2 SWAP1 PUSH2 0x80F JUMP JUMPDEST PUSH1 0x40 MLOAD DUP1 SWAP2 SUB SWAP1 RETURN JUMPDEST PUSH2 0x141 PUSH2 0x480 JUMP JUMPDEST PUSH1 0x40 MLOAD PUSH2 0x14E SWAP2 SWAP1 PUSH2 0x74A JUMP JUMPDEST PUSH1 0x40 MLOAD DUP1 SWAP2 SUB SWAP1 RETURN JUMPDEST PUSH2 0x15F PUSH2 0x486 JUMP JUMPDEST STOP JUMPDEST PUSH1 0x1 PUSH0 CALLER PUSH20 0xFFFFFFFFFFFFFFFFFFFFFFFFFFFFFFFFFFFFFFFF AND PUSH20 0xFFFFFFFFFFFFFFFFFFFFFFFFFFFFFFFFFFFFFFFF AND DUP2 MSTORE PUSH1 0x20 ADD SWAP1 DUP2 MSTORE PUSH1 0x20 ADD PUSH0 KECCAK256 PUSH0 SWAP1 SLOAD SWAP1 PUSH2 0x100 EXP SWAP1 DIV PUSH1 0xFF AND ISZERO PUSH2 0x1EB JUMPI PUSH1 0x40 MLOAD PUSH32 0x8C379A000000000000000000000000000000000000000000000000000000000 DUP2 MSTORE PUSH1 0x4 ADD PUSH2 0x1E2 SWAP1 PUSH2 0x879 JUMP JUMPDEST PUSH1 0x40 MLOAD DUP1 SWAP2 SUB SWAP1 REVERT JUMPDEST PUSH1 0xD DUP2 EQ DUP1 PUSH2 0x1FA JUMPI POP PUSH1 0x16 DUP2 EQ JUMPDEST DUP1 PUSH2 0x204 JUMPI POP PUSH0 DUP2 EQ JUMPDEST PUSH2 0x243 JUMPI PUSH1 0x40 MLOAD PUSH32 0x8C379A000000000000000000000000000000000000000000000000000000000 DUP2 MSTORE PUSH1 0x4 ADD PUSH2 0x23A SWAP1 PUSH2 0x907 JUMP JUMPDEST PUSH1 0x40 MLOAD DUP1 SWAP2 SUB SWAP1 REVERT JUMPDEST PUSH0 DUP2 SUB PUSH2 0x266 JUMPI PUSH1 0x3 PUSH0 DUP2 SLOAD DUP1 SWAP3 SWAP2 SWAP1 PUSH2 0x25C SWAP1 PUSH2 0x952 JUMP JUMPDEST SWAP2 SWAP1 POP SSTORE POP PUSH2 0x28F JUMP JUMPDEST PUSH0 DUP1 DUP3 DUP2 MSTORE PUSH1 0x20 ADD SWAP1 DUP2 MSTORE PUSH1 0x20 ADD PUSH0 KECCAK256 PUSH1 0x2 ADD PUSH0 DUP2 SLOAD DUP1 SWAP3 SWAP2 SWAP1 PUSH2 0x289 SWAP1 PUSH2 0x952 JUMP JUMPDEST SWAP2 SWAP1 POP SSTORE POP JUMPDEST PUSH1 0x2 PUSH0 DUP2 SLOAD DUP1 SWAP3 SWAP2 SWAP1 PUSH2 0x2A1 SWAP1 PUSH2 0x952 JUMP JUMPDEST SWAP2 SWAP1 POP SSTORE POP PUSH1 0x1 DUP1 PUSH0 CALLER PUSH20 0xFFFFFFFFFFFFFFFFFFFFFFFFFFFFFFFFFFFFFFFF AND PUSH20 0xFFFFFFFFFFFFFFFFFFFFFFFFFFFFFFFFFFFFFFFF AND DUP2 MSTORE PUSH1 0x20 ADD SWAP1 DUP2 MSTORE PUSH1 0x20 ADD PUSH0 KECCAK256 PUSH0 PUSH2 0x100 EXP DUP2 SLOAD DUP2 PUSH1 0xFF MUL NOT AND SWAP1 DUP4 ISZERO ISZERO MUL OR SWAP1 SSTORE POP PUSH32 0xD0E6C39F2E086DC49F1524B47725526A56945CD1FF661F37976F1725A1E56986 CALLER DUP3 PUSH1 0x40 MLOAD PUSH2 0x32B SWAP3 SWAP2 SWAP1 PUSH2 0x9A8 JUMP JUMPDEST PUSH1 0x40 MLOAD DUP1 SWAP2 SUB SWAP1 LOG1 POP JUMP JUMPDEST PUSH1 0x1 PUSH1 0x20 MSTORE DUP1 PUSH0 MSTORE PUSH1 0x40 PUSH0 KECCAK256 PUSH0 SWAP2 POP SLOAD SWAP1 PUSH2 0x100 EXP SWAP1 DIV PUSH1 0xFF AND DUP2 JUMP JUMPDEST PUSH1 0x2 SLOAD DUP2 JUMP JUMPDEST PUSH0 PUSH1 0x20 MSTORE DUP1 PUSH0 MSTORE PUSH1 0x40 PUSH0 KECCAK256 PUSH0 SWAP2 POP SWAP1 POP DUP1 PUSH0 ADD SLOAD SWAP1 DUP1 PUSH1 0x1 ADD DUP1 SLOAD PUSH2 0x37D SWAP1 PUSH2 0x9FC JUMP JUMPDEST DUP1 PUSH1 0x1F ADD PUSH1 0x20 DUP1 SWAP2 DIV MUL PUSH1 0x20 ADD PUSH1 0x40 MLOAD SWAP1 DUP2 ADD PUSH1 0x40 MSTORE DUP1 SWAP3 SWAP2 SWAP1 DUP2 DUP2 MSTORE PUSH1 0x20 ADD DUP3 DUP1 SLOAD PUSH2 0x3A9 SWAP1 PUSH2 0x9FC JUMP JUMPDEST DUP1 ISZERO PUSH2 0x3F4 JUMPI DUP1 PUSH1 0x1F LT PUSH2 0x3CB JUMPI PUSH2 0x100 DUP1 DUP4 SLOAD DIV MUL DUP4 MSTORE SWAP2 PUSH1 0x20 ADD SWAP2 PUSH2 0x3F4 JUMP JUMPDEST DUP3 ADD SWAP2 SWAP1 PUSH0 MSTORE PUSH1 0x20 PUSH0 KECCAK256 SWAP1 JUMPDEST DUP2 SLOAD DUP2 MSTORE SWAP1 PUSH1 0x1 ADD SWAP1 PUSH1 0x20 ADD DUP1 DUP4 GT PUSH2 0x3D7 JUMPI DUP3 SWAP1 SUB PUSH1 0x1F AND DUP3 ADD SWAP2 JUMPDEST POP POP POP POP POP SWAP1 DUP1 PUSH1 0x2 ADD SLOAD SWAP1 POP DUP4 JUMP JUMPDEST PUSH1 0x60 PUSH0 DUP1 PUSH0 PUSH1 0xD DUP2 MSTORE PUSH1 0x20 ADD SWAP1 DUP2 MSTORE PUSH1 0x20 ADD PUSH0 KECCAK256 PUSH1 0x2 ADD SLOAD SWAP1 POP PUSH0 DUP1 PUSH0 PUSH1 0x16 DUP2 MSTORE PUSH1 0x20 ADD SWAP1 DUP2 MSTORE PUSH1 0x20 ADD PUSH0 KECCAK256 PUSH1 0x2 ADD SLOAD SWAP1 POP PUSH0 PUSH2 0x440 DUP4 PUSH2 0x4C8 JUMP JUMPDEST PUSH2 0x449 DUP4 PUSH2 0x4C8 JUMP JUMPDEST PUSH2 0x454 PUSH1 0x3 SLOAD PUSH2 0x4C8 JUMP JUMPDEST PUSH1 0x40 MLOAD PUSH1 0x20 ADD PUSH2 0x466 SWAP4 SWAP3 SWAP2 SWAP1 PUSH2 0xB8E JUMP JUMPDEST PUSH1 0x40 MLOAD PUSH1 0x20 DUP2 DUP4 SUB SUB DUP2 MSTORE SWAP1 PUSH1 0x40 MSTORE SWAP1 POP DUP1 SWAP4 POP POP POP POP SWAP1 JUMP JUMPDEST PUSH1 0x3 SLOAD DUP2 JUMP JUMPDEST PUSH0 DUP1 PUSH0 PUSH1 0xD DUP2 MSTORE PUSH1 0x20 ADD SWAP1 DUP2 MSTORE PUSH1 0x20 ADD PUSH0 KECCAK256 PUSH1 0x2 ADD DUP2 SWAP1 SSTORE POP PUSH0 DUP1 PUSH0 PUSH1 0x16 DUP2 MSTORE PUSH1 0x20 ADD SWAP1 DUP2 MSTORE PUSH1 0x20 ADD PUSH0 KECCAK256 PUSH1 0x2 ADD DUP2 SWAP1 SSTORE POP PUSH0 PUSH1 0x3 DUP2 SWAP1 SSTORE POP PUSH0 PUSH1 0x2 DUP2 SWAP1 SSTORE POP JUMP JUMPDEST PUSH1 0x60 PUSH0 DUP3 SUB PUSH2 0x50E JUMPI PUSH1 0x40 MLOAD DUP1 PUSH1 0x40 ADD PUSH1 0x40 MSTORE DUP1 PUSH1 0x1 DUP2 MSTORE PUSH1 0x20 ADD PUSH32 0x3000000000000000000000000000000000000000000000000000000000000000 DUP2 MSTORE POP SWAP1 POP PUSH2 0x61C JUMP JUMPDEST PUSH0 DUP1 DUP4 SWAP1 POP JUMPDEST PUSH0 DUP2 EQ PUSH2 0x53D JUMPI DUP2 DUP1 PUSH2 0x526 SWAP1 PUSH2 0x952 JUMP JUMPDEST SWAP3 POP POP PUSH1 0xA DUP2 PUSH2 0x536 SWAP2 SWAP1 PUSH2 0xC17 JUMP JUMPDEST SWAP1 POP PUSH2 0x514 JUMP JUMPDEST PUSH0 DUP3 PUSH8 0xFFFFFFFFFFFFFFFF DUP2 GT ISZERO PUSH2 0x558 JUMPI PUSH2 0x557 PUSH2 0xC47 JUMP JUMPDEST JUMPDEST PUSH1 0x40 MLOAD SWAP1 DUP1 DUP3 MSTORE DUP1 PUSH1 0x1F ADD PUSH1 0x1F NOT AND PUSH1 0x20 ADD DUP3 ADD PUSH1 0x40 MSTORE DUP1 ISZERO PUSH2 0x58A JUMPI DUP2 PUSH1 0x20 ADD PUSH1 0x1 DUP3 MUL DUP1 CALLDATASIZE DUP4 CALLDATACOPY DUP1 DUP3 ADD SWAP2 POP POP SWAP1 POP JUMPDEST POP SWAP1 POP JUMPDEST PUSH0 DUP6 EQ PUSH2 0x615 JUMPI PUSH1 0x1 DUP4 PUSH2 0x5A2 SWAP2 SWAP1 PUSH2 0xC74 JUMP JUMPDEST SWAP3 POP PUSH1 0xA DUP6 PUSH2 0x5B1 SWAP2 SWAP1 PUSH2 0xCA7 JUMP JUMPDEST PUSH1 0x30 PUSH2 0x5BD SWAP2 SWAP1 PUSH2 0xCD7 JUMP JUMPDEST PUSH1 0xF8 SHL DUP2 DUP5 DUP2 MLOAD DUP2 LT PUSH2 0x5D3 JUMPI PUSH2 0x5D2 PUSH2 0xD0A JUMP JUMPDEST JUMPDEST PUSH1 0x20 ADD ADD SWAP1 PUSH31 0xFFFFFFFFFFFFFFFFFFFFFFFFFFFFFFFFFFFFFFFFFFFFFFFFFFFFFFFFFFFFFF NOT AND SWAP1 DUP2 PUSH0 BYTE SWAP1 MSTORE8 POP PUSH1 0xA DUP6 PUSH2 0x60E SWAP2 SWAP1 PUSH2 0xC17 JUMP JUMPDEST SWAP5 POP PUSH2 0x58E JUMP JUMPDEST DUP1 SWAP4 POP POP POP POP JUMPDEST SWAP2 SWAP1 POP JUMP JUMPDEST PUSH0 DUP1 REVERT JUMPDEST PUSH0 DUP2 SWAP1 POP SWAP2 SWAP1 POP JUMP JUMPDEST PUSH2 0x637 DUP2 PUSH2 0x625 JUMP JUMPDEST DUP2 EQ PUSH2 0x641 JUMPI PUSH0 DUP1 REVERT JUMPDEST POP JUMP JUMPDEST PUSH0 DUP2 CALLDATALOAD SWAP1 POP PUSH2 0x652 DUP2 PUSH2 0x62E JUMP JUMPDEST SWAP3 SWAP2 POP POP JUMP JUMPDEST PUSH0 PUSH1 0x20 DUP3 DUP5 SUB SLT ISZERO PUSH2 0x66D JUMPI PUSH2 0x66C PUSH2 0x621 JUMP JUMPDEST JUMPDEST PUSH0 PUSH2 0x67A DUP5 DUP3 DUP6 ADD PUSH2 0x644 JUMP JUMPDEST SWAP2 POP POP SWAP3 SWAP2 POP POP JUMP JUMPDEST PUSH0 PUSH20 0xFFFFFFFFFFFFFFFFFFFFFFFFFFFFFFFFFFFFFFFF DUP3 AND SWAP1 POP SWAP2 SWAP1 POP JUMP JUMPDEST PUSH0 PUSH2 0x6AC DUP3 PUSH2 0x683 JUMP JUMPDEST SWAP1 POP SWAP2 SWAP1 POP JUMP JUMPDEST PUSH2 0x6BC DUP2 PUSH2 0x6A2 JUMP JUMPDEST DUP2 EQ PUSH2 0x6C6 JUMPI PUSH0 DUP1 REVERT JUMPDEST POP JUMP JUMPDEST PUSH0 DUP2 CALLDATALOAD SWAP1 POP PUSH2 0x6D7 DUP2 PUSH2 0x6B3 JUMP JUMPDEST SWAP3 SWAP2 POP POP JUMP JUMPDEST PUSH0 PUSH1 0x20 DUP3 DUP5 SUB SLT ISZERO PUSH2 0x6F2 JUMPI PUSH2 0x6F1 PUSH2 0x621 JUMP JUMPDEST JUMPDEST PUSH0 PUSH2 0x6FF DUP5 DUP3 DUP6 ADD PUSH2 0x6C9 JUMP JUMPDEST SWAP2 POP POP SWAP3 SWAP2 POP POP JUMP JUMPDEST PUSH0 DUP2 ISZERO ISZERO SWAP1 POP SWAP2 SWAP1 POP JUMP JUMPDEST PUSH2 0x71C DUP2 PUSH2 0x708 JUMP JUMPDEST DUP3 MSTORE POP POP JUMP JUMPDEST PUSH0 PUSH1 0x20 DUP3 ADD SWAP1 POP PUSH2 0x735 PUSH0 DUP4 ADD DUP5 PUSH2 0x713 JUMP JUMPDEST SWAP3 SWAP2 POP POP JUMP JUMPDEST PUSH2 0x744 DUP2 PUSH2 0x625 JUMP JUMPDEST DUP3 MSTORE POP POP JUMP JUMPDEST PUSH0 PUSH1 0x20 DUP3 ADD SWAP1 POP PUSH2 0x75D PUSH0 DUP4 ADD DUP5 PUSH2 0x73B JUMP JUMPDEST SWAP3 SWAP2 POP POP JUMP JUMPDEST PUSH0 DUP2 MLOAD SWAP1 POP SWAP2 SWAP1 POP JUMP JUMPDEST PUSH0 DUP3 DUP3 MSTORE PUSH1 0x20 DUP3 ADD SWAP1 POP SWAP3 SWAP2 POP POP JUMP JUMPDEST DUP3 DUP2 DUP4 MCOPY PUSH0 DUP4 DUP4 ADD MSTORE POP POP POP JUMP JUMPDEST PUSH0 PUSH1 0x1F NOT PUSH1 0x1F DUP4 ADD AND SWAP1 POP SWAP2 SWAP1 POP JUMP JUMPDEST PUSH0 PUSH2 0x7A5 DUP3 PUSH2 0x763 JUMP JUMPDEST PUSH2 0x7AF DUP2 DUP6 PUSH2 0x76D JUMP JUMPDEST SWAP4 POP PUSH2 0x7BF DUP2 DUP6 PUSH1 0x20 DUP7 ADD PUSH2 0x77D JUMP JUMPDEST PUSH2 0x7C8 DUP2 PUSH2 0x78B JUMP JUMPDEST DUP5 ADD SWAP2 POP POP SWAP3 SWAP2 POP POP JUMP JUMPDEST PUSH0 PUSH1 0x60 DUP3 ADD SWAP1 POP PUSH2 0x7E6 PUSH0 DUP4 ADD DUP7 PUSH2 0x73B JUMP JUMPDEST DUP2 DUP2 SUB PUSH1 0x20 DUP4 ADD MSTORE PUSH2 0x7F8 DUP2 DUP6 PUSH2 0x79B JUMP JUMPDEST SWAP1 POP PUSH2 0x807 PUSH1 0x40 DUP4 ADD DUP5 PUSH2 0x73B JUMP JUMPDEST SWAP5 SWAP4 POP POP POP POP JUMP JUMPDEST PUSH0 PUSH1 0x20 DUP3 ADD SWAP1 POP DUP2 DUP2 SUB PUSH0 DUP4 ADD MSTORE PUSH2 0x827 DUP2 DUP5 PUSH2 0x79B JUMP JUMPDEST SWAP1 POP SWAP3 SWAP2 POP POP JUMP JUMPDEST PUSH32 0x596F75206861766520616C726561647920766F7465642E000000000000000000 PUSH0 DUP3 ADD MSTORE POP JUMP JUMPDEST PUSH0 PUSH2 0x863 PUSH1 0x17 DUP4 PUSH2 0x76D JUMP JUMPDEST SWAP2 POP PUSH2 0x86E DUP3 PUSH2 0x82F JUMP JUMPDEST PUSH1 0x20 DUP3 ADD SWAP1 POP SWAP2 SWAP1 POP JUMP JUMPDEST PUSH0 PUSH1 0x20 DUP3 ADD SWAP1 POP DUP2 DUP2 SUB PUSH0 DUP4 ADD MSTORE PUSH2 0x890 DUP2 PUSH2 0x857 JUMP JUMPDEST SWAP1 POP SWAP2 SWAP1 POP JUMP JUMPDEST PUSH32 0x496E76616C69642063616E6469646174652049442E2050726573732030206966 PUSH0 DUP3 ADD MSTORE PUSH32 0x20796F75207769746820746F204162737461696E2E0000000000000000000000 PUSH1 0x20 DUP3 ADD MSTORE POP JUMP JUMPDEST PUSH0 PUSH2 0x8F1 PUSH1 0x35 DUP4 PUSH2 0x76D JUMP JUMPDEST SWAP2 POP PUSH2 0x8FC DUP3 PUSH2 0x897 JUMP JUMPDEST PUSH1 0x40 DUP3 ADD SWAP1 POP SWAP2 SWAP1 POP JUMP JUMPDEST PUSH0 PUSH1 0x20 DUP3 ADD SWAP1 POP DUP2 DUP2 SUB PUSH0 DUP4 ADD MSTORE PUSH2 0x91E DUP2 PUSH2 0x8E5 JUMP JUMPDEST SWAP1 POP SWAP2 SWAP1 POP JUMP JUMPDEST PUSH32 0x4E487B7100000000000000000000000000000000000000000000000000000000 PUSH0 MSTORE PUSH1 0x11 PUSH1 0x4 MSTORE PUSH1 0x24 PUSH0 REVERT JUMPDEST PUSH0 PUSH2 0x95C DUP3 PUSH2 0x625 JUMP JUMPDEST SWAP2 POP PUSH32 0xFFFFFFFFFFFFFFFFFFFFFFFFFFFFFFFFFFFFFFFFFFFFFFFFFFFFFFFFFFFFFFFF DUP3 SUB PUSH2 0x98E JUMPI PUSH2 0x98D PUSH2 0x925 JUMP JUMPDEST JUMPDEST PUSH1 0x1 DUP3 ADD SWAP1 POP SWAP2 SWAP1 POP JUMP JUMPDEST PUSH2 0x9A2 DUP2 PUSH2 0x6A2 JUMP JUMPDEST DUP3 MSTORE POP POP JUMP JUMPDEST PUSH0 PUSH1 0x40 DUP3 ADD SWAP1 POP PUSH2 0x9BB PUSH0 DUP4 ADD DUP6 PUSH2 0x999 JUMP JUMPDEST PUSH2 0x9C8 PUSH1 0x20 DUP4 ADD DUP5 PUSH2 0x73B JUMP JUMPDEST SWAP4 SWAP3 POP POP POP JUMP JUMPDEST PUSH32 0x4E487B7100000000000000000000000000000000000000000000000000000000 PUSH0 MSTORE PUSH1 0x22 PUSH1 0x4 MSTORE PUSH1 0x24 PUSH0 REVERT JUMPDEST PUSH0 PUSH1 0x2 DUP3 DIV SWAP1 POP PUSH1 0x1 DUP3 AND DUP1 PUSH2 0xA13 JUMPI PUSH1 0x7F DUP3 AND SWAP2 POP JUMPDEST PUSH1 0x20 DUP3 LT DUP2 SUB PUSH2 0xA26 JUMPI PUSH2 0xA25 PUSH2 0x9CF JUMP JUMPDEST JUMPDEST POP SWAP2 SWAP1 POP JUMP JUMPDEST PUSH0 DUP2 SWAP1 POP SWAP3 SWAP2 POP POP JUMP JUMPDEST PUSH32 0x43616E64696461746520413A2000000000000000000000000000000000000000 PUSH0 DUP3 ADD MSTORE POP JUMP JUMPDEST PUSH0 PUSH2 0xA6A PUSH1 0xD DUP4 PUSH2 0xA2C JUMP JUMPDEST SWAP2 POP PUSH2 0xA75 DUP3 PUSH2 0xA36 JUMP JUMPDEST PUSH1 0xD DUP3 ADD SWAP1 POP SWAP2 SWAP1 POP JUMP JUMPDEST PUSH0 PUSH2 0xA8A DUP3 PUSH2 0x763 JUMP JUMPDEST PUSH2 0xA94 DUP2 DUP6 PUSH2 0xA2C JUMP JUMPDEST SWAP4 POP PUSH2 0xAA4 DUP2 DUP6 PUSH1 0x20 DUP7 ADD PUSH2 0x77D JUMP JUMPDEST DUP1 DUP5 ADD SWAP2 POP POP SWAP3 SWAP2 POP POP JUMP JUMPDEST PUSH32 0x20766F7465732C2043616E64696461746520423A200000000000000000000000 PUSH0 DUP3 ADD MSTORE POP JUMP JUMPDEST PUSH0 PUSH2 0xAE4 PUSH1 0x15 DUP4 PUSH2 0xA2C JUMP JUMPDEST SWAP2 POP PUSH2 0xAEF DUP3 PUSH2 0xAB0 JUMP JUMPDEST PUSH1 0x15 DUP3 ADD SWAP1 POP SWAP2 SWAP1 POP JUMP JUMPDEST PUSH32 0x20766F7465732C20426C616E6B3A200000000000000000000000000000000000 PUSH0 DUP3 ADD MSTORE POP JUMP JUMPDEST PUSH0 PUSH2 0xB2E PUSH1 0xF DUP4 PUSH2 0xA2C JUMP JUMPDEST SWAP2 POP PUSH2 0xB39 DUP3 PUSH2 0xAFA JUMP JUMPDEST PUSH1 0xF DUP3 ADD SWAP1 POP SWAP2 SWAP1 POP JUMP JUMPDEST PUSH32 0x20766F7465730000000000000000000000000000000000000000000000000000 PUSH0 DUP3 ADD MSTORE POP JUMP JUMPDEST PUSH0 PUSH2 0xB78 PUSH1 0x6 DUP4 PUSH2 0xA2C JUMP JUMPDEST SWAP2 POP PUSH2 0xB83 DUP3 PUSH2 0xB44 JUMP JUMPDEST PUSH1 0x6 DUP3 ADD SWAP1 POP SWAP2 SWAP1 POP JUMP JUMPDEST PUSH0 PUSH2 0xB98 DUP3 PUSH2 0xA5E JUMP JUMPDEST SWAP2 POP PUSH2 0xBA4 DUP3 DUP7 PUSH2 0xA80 JUMP JUMPDEST SWAP2 POP PUSH2 0xBAF DUP3 PUSH2 0xAD8 JUMP JUMPDEST SWAP2 POP PUSH2 0xBBB DUP3 DUP6 PUSH2 0xA80 JUMP JUMPDEST SWAP2 POP PUSH2 0xBC6 DUP3 PUSH2 0xB22 JUMP JUMPDEST SWAP2 POP PUSH2 0xBD2 DUP3 DUP5 PUSH2 0xA80 JUMP JUMPDEST SWAP2 POP PUSH2 0xBDD DUP3 PUSH2 0xB6C JUMP JUMPDEST SWAP2 POP DUP2 SWAP1 POP SWAP5 SWAP4 POP POP POP POP JUMP JUMPDEST PUSH32 0x4E487B7100000000000000000000000000000000000000000000000000000000 PUSH0 MSTORE PUSH1 0x12 PUSH1 0x4 MSTORE PUSH1 0x24 PUSH0 REVERT JUMPDEST PUSH0 PUSH2 0xC21 DUP3 PUSH2 0x625 JUMP JUMPDEST SWAP2 POP PUSH2 0xC2C DUP4 PUSH2 0x625 JUMP JUMPDEST SWAP3 POP DUP3 PUSH2 0xC3C JUMPI PUSH2 0xC3B PUSH2 0xBEA JUMP JUMPDEST JUMPDEST DUP3 DUP3 DIV SWAP1 POP SWAP3 SWAP2 POP POP JUMP JUMPDEST PUSH32 0x4E487B7100000000000000000000000000000000000000000000000000000000 PUSH0 MSTORE PUSH1 0x41 PUSH1 0x4 MSTORE PUSH1 0x24 PUSH0 REVERT JUMPDEST PUSH0 PUSH2 0xC7E DUP3 PUSH2 0x625 JUMP JUMPDEST SWAP2 POP PUSH2 0xC89 DUP4 PUSH2 0x625 JUMP JUMPDEST SWAP3 POP DUP3 DUP3 SUB SWAP1 POP DUP2 DUP2 GT ISZERO PUSH2 0xCA1 JUMPI PUSH2 0xCA0 PUSH2 0x925 JUMP JUMPDEST JUMPDEST SWAP3 SWAP2 POP POP JUMP JUMPDEST PUSH0 PUSH2 0xCB1 DUP3 PUSH2 0x625 JUMP JUMPDEST SWAP2 POP PUSH2 0xCBC DUP4 PUSH2 0x625 JUMP JUMPDEST SWAP3 POP DUP3 PUSH2 0xCCC JUMPI PUSH2 0xCCB PUSH2 0xBEA JUMP JUMPDEST JUMPDEST DUP3 DUP3 MOD SWAP1 POP SWAP3 SWAP2 POP POP JUMP JUMPDEST PUSH0 PUSH2 0xCE1 DUP3 PUSH2 0x625 JUMP JUMPDEST SWAP2 POP PUSH2 0xCEC DUP4 PUSH2 0x625 JUMP JUMPDEST SWAP3 POP DUP3 DUP3 ADD SWAP1 POP DUP1 DUP3 GT ISZERO PUSH2 0xD04 JUMPI PUSH2 0xD03 PUSH2 0x925 JUMP JUMPDEST JUMPDEST SWAP3 SWAP2 POP POP JUMP JUMPDEST PUSH32 0x4E487B7100000000000000000000000000000000000000000000000000000000 PUSH0 MSTORE PUSH1 0x32 PUSH1 0x4 MSTORE PUSH1 0x24 PUSH0 REVERT INVALID LOG2 PUSH5 0x6970667358 0x22 SLT KECCAK256 0x4D PUSH11 0x5678DCD95D282D9C44C833 ADDMOD 0xD ISZERO AND 0x1F 0xD2 SIGNEXTEND PUSH17 0xBD7CAAE286D50CE9561DA264736F6C6343 STOP ADDMOD BYTE STOP CALLER "
				},
				"gasEstimates": {
					"creation": {
						"codeDepositCost": "687400",
						"executionCost": "infinite",
						"totalCost": "infinite"
					},
					"external": {
						"blankVotes()": "2469",
						"candidates(uint256)": "infinite",
						"getResults()": "infinite",
						"hasVoted(address)": "2856",
						"resetVotes()": "20425",
						"totalVotes()": "2470",
						"vote(uint256)": "infinite"
					},
					"internal": {
						"addCandidate(uint256,string memory)": "infinite",
						"uintToString(uint256)": "infinite"
					}
				},
				"methodIdentifiers": {
					"blankVotes()": "6a316c9d",
					"candidates(uint256)": "3477ee2e",
					"getResults()": "4717f97c",
					"hasVoted(address)": "09eef43e",
					"resetVotes()": "b9830ff1",
					"totalVotes()": "0d15fd77",
					"vote(uint256)": "0121b93f"
				}
			},
			"storageLayout": {
				"storage": [
					{
						"astId": 13,
						"contract": "contracts/DigitalVotingSystem.sol:Election",
						"label": "candidates",
						"offset": 0,
						"slot": "0",
						"type": "t_mapping(t_uint256,t_struct(Candidate)8_storage)"
					},
					{
						"astId": 17,
						"contract": "contracts/DigitalVotingSystem.sol:Election",
						"label": "hasVoted",
						"offset": 0,
						"slot": "1",
						"type": "t_mapping(t_address,t_bool)"
					},
					{
						"astId": 19,
						"contract": "contracts/DigitalVotingSystem.sol:Election",
						"label": "totalVotes",
						"offset": 0,
						"slot": "2",
						"type": "t_uint256"
					},
					{
						"astId": 21,
						"contract": "contracts/DigitalVotingSystem.sol:Election",
						"label": "blankVotes",
						"offset": 0,
						"slot": "3",
						"type": "t_uint256"
					}
				],
				"types": {
					"t_address": {
						"encoding": "inplace",
						"label": "address",
						"numberOfBytes": "20"
					},
					"t_bool": {
						"encoding": "inplace",
						"label": "bool",
						"numberOfBytes": "1"
					},
					"t_mapping(t_address,t_bool)": {
						"encoding": "mapping",
						"key": "t_address",
						"label": "mapping(address => bool)",
						"numberOfBytes": "32",
						"value": "t_bool"
					},
					"t_mapping(t_uint256,t_struct(Candidate)8_storage)": {
						"encoding": "mapping",
						"key": "t_uint256",
						"label": "mapping(uint256 => struct Election.Candidate)",
						"numberOfBytes": "32",
						"value": "t_struct(Candidate)8_storage"
					},
					"t_string_storage": {
						"encoding": "bytes",
						"label": "string",
						"numberOfBytes": "32"
					},
					"t_struct(Candidate)8_storage": {
						"encoding": "inplace",
						"label": "struct Election.Candidate",
						"members": [
							{
								"astId": 3,
								"contract": "contracts/DigitalVotingSystem.sol:Election",
								"label": "id",
								"offset": 0,
								"slot": "0",
								"type": "t_uint256"
							},
							{
								"astId": 5,
								"contract": "contracts/DigitalVotingSystem.sol:Election",
								"label": "name",
								"offset": 0,
								"slot": "1",
								"type": "t_string_storage"
							},
							{
								"astId": 7,
								"contract": "contracts/DigitalVotingSystem.sol:Election",
								"label": "voteCount",
								"offset": 0,
								"slot": "2",
								"type": "t_uint256"
							}
						],
						"numberOfBytes": "96"
					},
					"t_uint256": {
						"encoding": "inplace",
						"label": "uint256",
						"numberOfBytes": "32"
					}
				}
			},
			"userdoc": {
				"kind": "user",
				"methods": {},
				"version": 1
			}
		}
	}
}