{
	"data": {
		"bytecode": {
			"linkReferences": {},
			"object": "608060405234801561000f575f80fd5b50610056600d6040518060400160405280600b81526020017f43616e64696461746520410000000000000000000000000000000000000000008152506100a160201b60201c565b61009c60166040518060400160405280600b81526020017f43616e64696461746520420000000000000000000000000000000000000000008152506100a160201b60201c565b610404565b60405180606001604052808381526020018281526020015f8152505f808481526020019081526020015f205f820151815f015560208201518160010190816100e99190610335565b50604082015181600201559050505050565b5f81519050919050565b7f4e487b71000000000000000000000000000000000000000000000000000000005f52604160045260245ffd5b7f4e487b71000000000000000000000000000000000000000000000000000000005f52602260045260245ffd5b5f600282049050600182168061017657607f821691505b60208210810361018957610188610132565b5b50919050565b5f819050815f5260205f209050919050565b5f6020601f8301049050919050565b5f82821b905092915050565b5f600883026101eb7fffffffffffffffffffffffffffffffffffffffffffffffffffffffffffffffff826101b0565b6101f586836101b0565b95508019841693508086168417925050509392505050565b5f819050919050565b5f819050919050565b5f61023961023461022f8461020d565b610216565b61020d565b9050919050565b5f819050919050565b6102528361021f565b61026661025e82610240565b8484546101bc565b825550505050565b5f90565b61027a61026e565b610285818484610249565b505050565b5b818110156102a85761029d5f82610272565b60018101905061028b565b5050565b601f8211156102ed576102be8161018f565b6102c7846101a1565b810160208510156102d6578190505b6102ea6102e2856101a1565b83018261028a565b50505b505050565b5f82821c905092915050565b5f61030d5f19846008026102f2565b1980831691505092915050565b5f61032583836102fe565b9150826002028217905092915050565b61033e826100fb565b67ffffffffffffffff81111561035757610356610105565b5b610361825461015f565b61036c8282856102ac565b5f60209050601f83116001811461039d575f841561038b578287015190505b610395858261031a565b8655506103fc565b601f1984166103ab8661018f565b5f5b828110156103d2578489015182556001820191506020850194506020810190506103ad565b868310156103ef57848901516103eb601f8916826102fe565b8355505b6001600288020188555050505b505050505050565b610d6d806104115f395ff3fe608060405234801561000f575f80fd5b506004361061007b575f3560e01c80633477ee2e116100595780633477ee2e146100e95780634717f97c1461011b5780636a316c9d14610139578063b9830ff1146101575761007b565b80630121b93f1461007f57806309eef43e1461009b5780630d15fd77146100cb575b5f80fd5b61009960048036038101906100949190610658565b610161565b005b6100b560048036038101906100b091906106dd565b610336565b6040516100c29190610722565b60405180910390f35b6100d3610353565b6040516100e0919061074a565b60405180910390f35b61010360048036038101906100fe9190610658565b610359565b604051610112939291906107d3565b60405180910390f35b610123610404565b604051610130919061080f565b60405180910390f35b610141610480565b60405161014e919061074a565b60405180910390f35b61015f610486565b005b60015f3373ffffffffffffffffffffffffffffffffffffffff1673ffffffffffffffffffffffffffffffffffffffff1681526020019081526020015f205f9054906101000a900460ff16156101eb576040517f08c379a00000000000000000000000000000000000000000000000000000000081526004016101e290610879565b60405180910390fd5b600d8114806101fa5750601681145b8061020457505f81145b610243576040517f08c379a000000000000000000000000000000000000000000000000000000000815260040161023a90610907565b60405180910390fd5b5f81036102665760035f81548092919061025c90610952565b919050555061028f565b5f808281526020019081526020015f206002015f81548092919061028990610952565b91905055505b60025f8154809291906102a190610952565b91905055506001805f3373ffffffffffffffffffffffffffffffffffffffff1673ffffffffffffffffffffffffffffffffffffffff1681526020019081526020015f205f6101000a81548160ff0219169083151502179055507fd0e6c39f2e086dc49f1524b47725526a56945cd1ff661f37976f1725a1e56986338260405161032b9291906109a8565b60405180910390a150565b6001602052805f5260405f205f915054906101000a900460ff1681565b60025481565b5f602052805f5260405f205f91509050805f01549080600101805461037d906109fc565b80601f01602080910402602001604051908101604052809291908181526020018280546103a9906109fc565b80156103f45780601f106103cb576101008083540402835291602001916103f4565b820191905f5260205f20905b8154815290600101906020018083116103d757829003601f168201915b5050505050908060020154905083565b60605f805f600d81526020019081526020015f206002015490505f805f601681526020019081526020015f206002015490505f610440836104c8565b610449836104c8565b6104546003546104c8565b60405160200161046693929190610b8e565b604051602081830303815290604052905080935050505090565b60035481565b5f805f600d81526020019081526020015f20600201819055505f805f601681526020019081526020015f20600201819055505f6003819055505f600281905550565b60605f820361050e576040518060400160405280600181526020017f3000000000000000000000000000000000000000000000000000000000000000815250905061061c565b5f808390505b5f811461053d57818061052690610952565b925050600a816105369190610c17565b9050610514565b5f8267ffffffffffffffff81111561055857610557610c47565b5b6040519080825280601f01601f19166020018201604052801561058a5781602001600182028036833780820191505090505b5090505b5f8514610615576001836105a29190610c74565b9250600a856105b19190610ca7565b60306105bd9190610cd7565b60f81b8184815181106105d3576105d2610d0a565b5b60200101907effffffffffffffffffffffffffffffffffffffffffffffffffffffffffffff191690815f1a905350600a8561060e9190610c17565b945061058e565b8093505050505b919050565b5f80fd5b5f819050919050565b61063781610625565b8114610641575f80fd5b50565b5f813590506106528161062e565b92915050565b5f6020828403121561066d5761066c610621565b5b5f61067a84828501610644565b91505092915050565b5f73ffffffffffffffffffffffffffffffffffffffff82169050919050565b5f6106ac82610683565b9050919050565b6106bc816106a2565b81146106c6575f80fd5b50565b5f813590506106d7816106b3565b92915050565b5f602082840312156106f2576106f1610621565b5b5f6106ff848285016106c9565b91505092915050565b5f8115159050919050565b61071c81610708565b82525050565b5f6020820190506107355f830184610713565b92915050565b61074481610625565b82525050565b5f60208201905061075d5f83018461073b565b92915050565b5f81519050919050565b5f82825260208201905092915050565b8281835e5f83830152505050565b5f601f19601f8301169050919050565b5f6107a582610763565b6107af818561076d565b93506107bf81856020860161077d565b6107c88161078b565b840191505092915050565b5f6060820190506107e65f83018661073b565b81810360208301526107f8818561079b565b9050610807604083018461073b565b949350505050565b5f6020820190508181035f830152610827818461079b565b905092915050565b7f596f75206861766520616c726561647920766f7465642e0000000000000000005f82015250565b5f61086360178361076d565b915061086e8261082f565b602082019050919050565b5f6020820190508181035f83015261089081610857565b9050919050565b7f496e76616c69642063616e6469646174652049442e20507265737320302069665f8201527f20796f75207769746820746f204162737461696e2e0000000000000000000000602082015250565b5f6108f160358361076d565b91506108fc82610897565b604082019050919050565b5f6020820190508181035f83015261091e816108e5565b9050919050565b7f4e487b71000000000000000000000000000000000000000000000000000000005f52601160045260245ffd5b5f61095c82610625565b91507fffffffffffffffffffffffffffffffffffffffffffffffffffffffffffffffff820361098e5761098d610925565b5b600182019050919050565b6109a2816106a2565b82525050565b5f6040820190506109bb5f830185610999565b6109c8602083018461073b565b9392505050565b7f4e487b71000000000000000000000000000000000000000000000000000000005f52602260045260245ffd5b5f6002820490506001821680610a1357607f821691505b602082108103610a2657610a256109cf565b5b50919050565b5f81905092915050565b7f43616e64696461746520413a20000000000000000000000000000000000000005f82015250565b5f610a6a600d83610a2c565b9150610a7582610a36565b600d82019050919050565b5f610a8a82610763565b610a948185610a2c565b9350610aa481856020860161077d565b80840191505092915050565b7f20766f7465732c2043616e64696461746520423a2000000000000000000000005f82015250565b5f610ae4601583610a2c565b9150610aef82610ab0565b601582019050919050565b7f20766f7465732c20426c616e6b3a2000000000000000000000000000000000005f82015250565b5f610b2e600f83610a2c565b9150610b3982610afa565b600f82019050919050565b7f20766f74657300000000000000000000000000000000000000000000000000005f82015250565b5f610b78600683610a2c565b9150610b8382610b44565b600682019050919050565b5f610b9882610a5e565b9150610ba48286610a80565b9150610baf82610ad8565b9150610bbb8285610a80565b9150610bc682610b22565b9150610bd28284610a80565b9150610bdd82610b6c565b9150819050949350505050565b7f4e487b71000000000000000000000000000000000000000000000000000000005f52601260045260245ffd5b5f610c2182610625565b9150610c2c83610625565b925082610c3c57610c3b610bea565b5b828204905092915050565b7f4e487b71000000000000000000000000000000000000000000000000000000005f52604160045260245ffd5b5f610c7e82610625565b9150610c8983610625565b9250828203905081811115610ca157610ca0610925565b5b92915050565b5f610cb182610625565b9150610cbc83610625565b925082610ccc57610ccb610bea565b5b828206905092915050565b5f610ce182610625565b9150610cec83610625565b9250828201905080821115610d0457610d03610925565b5b92915050565b7f4e487b71000000000000000000000000000000000000000000000000000000005f52603260045260245ffdfea26469706673582212204d6a5678dcd95d282d9c44c833080d15161fd20b70bd7caae286d50ce9561da264736f6c634300081a0033",
			"opcodes": "PUSH1 0x80 PUSH1 0x40 MSTORE CALLVALUE DUP1 ISZERO PUSH2 0xF JUMPI PUSH0 DUP1 REVERT JUMPDEST POP PUSH2 0x56 PUSH1 0xD PUSH1 0x40 MLOAD DUP1 PUSH1 0x40 ADD PUSH1 0x40 MSTORE DUP1 PUSH1 0xB DUP2 MSTORE PUSH1 0x20 ADD PUSH32 0x43616E6469646174652041000000000000000000000000000000000000000000 DUP2 MSTORE POP PUSH2 0xA1 PUSH1 0x20 SHL PUSH1 0x20 SHR JUMP JUMPDEST PUSH2 0x9C PUSH1 0x16 PUSH1 0x40 MLOAD DUP1 PUSH1 0x40 ADD PUSH1 0x40 MSTORE DUP1 PUSH1 0xB DUP2 MSTORE PUSH1 0x20 ADD PUSH32 0x43616E6469646174652042000000000000000000000000000000000000000000 DUP2 MSTORE POP PUSH2 0xA1 PUSH1 0x20 SHL PUSH1 0x20 SHR JUMP JUMPDEST PUSH2 0x404 JUMP JUMPDEST PUSH1 0x40 MLOAD DUP1 PUSH1 0x60 ADD PUSH1 0x40 MSTORE DUP1 DUP4 DUP2 MSTORE PUSH1 0x20 ADD DUP3 DUP2 MSTORE PUSH1 0x20 ADD PUSH0 DUP2 MSTORE POP PUSH0 DUP1 DUP5 DUP2 MSTORE PUSH1 0x20 ADD SWAP1 DUP2 MSTORE PUSH1 0x20 ADD PUSH0 KECCAK256 PUSH0 DUP3 ADD MLOAD DUP2 PUSH0 ADD SSTORE PUSH1 0x20 DUP3 ADD MLOAD DUP2 PUSH1 0x1 ADD SWAP1 DUP2 PUSH2 0xE9 SWAP2 SWAP1 PUSH2 0x335 JUMP JUMPDEST POP PUSH1 0x40 DUP3 ADD MLOAD DUP2 PUSH1 0x2 ADD SSTORE SWAP1 POP POP POP POP JUMP JUMPDEST PUSH0 DUP2 MLOAD SWAP1 POP SWAP2 SWAP1 POP JUMP JUMPDEST PUSH32 0x4E487B7100000000000000000000000000000000000000000000000000000000 PUSH0 MSTORE PUSH1 0x41 PUSH1 0x4 MSTORE PUSH1 0x24 PUSH0 REVERT JUMPDEST PUSH32 0x4E487B7100000000000000000000000000000000000000000000000000000000 PUSH0 MSTORE PUSH1 0x22 PUSH1 0x4 MSTORE PUSH1 0x24 PUSH0 REVERT JUMPDEST PUSH0 PUSH1 0x2 DUP3 DIV SWAP1 POP PUSH1 0x1 DUP3 AND DUP1 PUSH2 0x176 JUMPI PUSH1 0x7F DUP3 AND SWAP2 POP JUMPDEST PUSH1 0x20 DUP3 LT DUP2 SUB PUSH2 0x189 JUMPI PUSH2 0x188 PUSH2 0x132 JUMP JUMPDEST JUMPDEST POP SWAP2 SWAP1 POP JUMP JUMPDEST PUSH0 DUP2 SWAP1 POP DUP2 PUSH0 MSTORE PUSH1 0x20 PUSH0 KECCAK256 SWAP1 POP SWAP2 SWAP1 POP JUMP JUMPDEST PUSH0 PUSH1 0x20 PUSH1 0x1F DUP4 ADD DIV SWAP1 POP SWAP2 SWAP1 POP JUMP JUMPDEST PUSH0 DUP3 DUP3 SHL SWAP1 POP SWAP3 SWAP2 POP POP JUMP JUMPDEST PUSH0 PUSH1 0x8 DUP4 MUL PUSH2 0x1EB PUSH32 0xFFFFFFFFFFFFFFFFFFFFFFFFFFFFFFFFFFFFFFFFFFFFFFFFFFFFFFFFFFFFFFFF DUP3 PUSH2 0x1B0 JUMP JUMPDEST PUSH2 0x1F5 DUP7 DUP4 PUSH2 0x1B0 JUMP JUMPDEST SWAP6 POP DUP1 NOT DUP5 AND SWAP4 POP DUP1 DUP7 AND DUP5 OR SWAP3 POP POP POP SWAP4 SWAP3 POP POP POP JUMP JUMPDEST PUSH0 DUP2 SWAP1 POP SWAP2 SWAP1 POP JUMP JUMPDEST PUSH0 DUP2 SWAP1 POP SWAP2 SWAP1 POP JUMP JUMPDEST PUSH0 PUSH2 0x239 PUSH2 0x234 PUSH2 0x22F DUP5 PUSH2 0x20D JUMP JUMPDEST PUSH2 0x216 JUMP JUMPDEST PUSH2 0x20D JUMP JUMPDEST SWAP1 POP SWAP2 SWAP1 POP JUMP JUMPDEST PUSH0 DUP2 SWAP1 POP SWAP2 SWAP1 POP JUMP JUMPDEST PUSH2 0x252 DUP4 PUSH2 0x21F JUMP JUMPDEST PUSH2 0x266 PUSH2 0x25E DUP3 PUSH2 0x240 JUMP JUMPDEST DUP5 DUP5 SLOAD PUSH2 0x1BC JUMP JUMPDEST DUP3 SSTORE POP POP POP POP JUMP JUMPDEST PUSH0 SWAP1 JUMP JUMPDEST PUSH2 0x27A PUSH2 0x26E JUMP JUMPDEST PUSH2 0x285 DUP2 DUP5 DUP5 PUSH2 0x249 JUMP JUMPDEST POP POP POP JUMP JUMPDEST JUMPDEST DUP2 DUP2 LT ISZERO PUSH2 0x2A8 JUMPI PUSH2 0x29D PUSH0 DUP3 PUSH2 0x272 JUMP JUMPDEST PUSH1 0x1 DUP2 ADD SWAP1 POP PUSH2 0x28B JUMP JUMPDEST POP POP JUMP JUMPDEST PUSH1 0x1F DUP3 GT ISZERO PUSH2 0x2ED JUMPI PUSH2 0x2BE DUP2 PUSH2 0x18F JUMP JUMPDEST PUSH2 0x2C7 DUP5 PUSH2 0x1A1 JUMP JUMPDEST DUP2 ADD PUSH1 0x20 DUP6 LT ISZERO PUSH2 0x2D6 JUMPI DUP2 SWAP1 POP JUMPDEST PUSH2 0x2EA PUSH2 0x2E2 DUP6 PUSH2 0x1A1 JUMP JUMPDEST DUP4 ADD DUP3 PUSH2 0x28A JUMP JUMPDEST POP POP JUMPDEST POP POP POP JUMP JUMPDEST PUSH0 DUP3 DUP3 SHR SWAP1 POP SWAP3 SWAP2 POP POP JUMP JUMPDEST PUSH0 PUSH2 0x30D PUSH0 NOT DUP5 PUSH1 0x8 MUL PUSH2 0x2F2 JUMP JUMPDEST NOT DUP1 DUP4 AND SWAP2 POP POP SWAP3 SWAP2 POP POP JUMP JUMPDEST PUSH0 PUSH2 0x325 DUP4 DUP4 PUSH2 0x2FE JUMP JUMPDEST SWAP2 POP DUP3 PUSH1 0x2 MUL DUP3 OR SWAP1 POP SWAP3 SWAP2 POP POP JUMP JUMPDEST PUSH2 0x33E DUP3 PUSH2 0xFB JUMP JUMPDEST PUSH8 0xFFFFFFFFFFFFFFFF DUP2 GT ISZERO PUSH2 0x357 JUMPI PUSH2 0x356 PUSH2 0x105 JUMP JUMPDEST JUMPDEST PUSH2 0x361 DUP3 SLOAD PUSH2 0x15F JUMP JUMPDEST PUSH2 0x36C DUP3 DUP3 DUP6 PUSH2 0x2AC JUMP JUMPDEST PUSH0 PUSH1 0x20 SWAP1 POP PUSH1 0x1F DUP4 GT PUSH1 0x1 DUP2 EQ PUSH2 0x39D JUMPI PUSH0 DUP5 ISZERO PUSH2 0x38B JUMPI DUP3 DUP8 ADD MLOAD SWAP1 POP JUMPDEST PUSH2 0x395 DUP6 DUP3 PUSH2 0x31A JUMP JUMPDEST DUP7 SSTORE POP PUSH2 0x3FC JUMP JUMPDEST PUSH1 0x1F NOT DUP5 AND PUSH2 0x3AB DUP7 PUSH2 0x18F JUMP JUMPDEST PUSH0 JUMPDEST DUP3 DUP2 LT ISZERO PUSH2 0x3D2 JUMPI DUP5 DUP10 ADD MLOAD DUP3 SSTORE PUSH1 0x1 DUP3 ADD SWAP2 POP PUSH1 0x20 DUP6 ADD SWAP5 POP PUSH1 0x20 DUP2 ADD SWAP1 POP PUSH2 0x3AD JUMP JUMPDEST DUP7 DUP4 LT ISZERO PUSH2 0x3EF JUMPI DUP5 DUP10 ADD MLOAD PUSH2 0x3EB PUSH1 0x1F DUP10 AND DUP3 PUSH2 0x2FE JUMP JUMPDEST DUP4 SSTORE POP JUMPDEST PUSH1 0x1 PUSH1 0x2 DUP9 MUL ADD DUP9 SSTORE POP POP POP JUMPDEST POP POP POP POP POP POP JUMP JUMPDEST PUSH2 0xD6D DUP1 PUSH2 0x411 PUSH0 CODECOPY PUSH0 RETURN INVALID PUSH1 0x80 PUSH1 0x40 MSTORE CALLVALUE DUP1 ISZERO PUSH2 0xF JUMPI PUSH0 DUP1 REVERT JUMPDEST POP PUSH1 0x4 CALLDATASIZE LT PUSH2 0x7B JUMPI PUSH0 CALLDATALOAD PUSH1 0xE0 SHR DUP1 PUSH4 0x3477EE2E GT PUSH2 0x59 JUMPI DUP1 PUSH4 0x3477EE2E EQ PUSH2 0xE9 JUMPI DUP1 PUSH4 0x4717F97C EQ PUSH2 0x11B JUMPI DUP1 PUSH4 0x6A316C9D EQ PUSH2 0x139 JUMPI DUP1 PUSH4 0xB9830FF1 EQ PUSH2 0x157 JUMPI PUSH2 0x7B JUMP JUMPDEST DUP1 PUSH4 0x121B93F EQ PUSH2 0x7F JUMPI DUP1 PUSH4 0x9EEF43E EQ PUSH2 0x9B JUMPI DUP1 PUSH4 0xD15FD77 EQ PUSH2 0xCB JUMPI JUMPDEST PUSH0 DUP1 REVERT JUMPDEST PUSH2 0x99 PUSH1 0x4 DUP1 CALLDATASIZE SUB DUP2 ADD SWAP1 PUSH2 0x94 SWAP2 SWAP1 PUSH2 0x658 JUMP JUMPDEST PUSH2 0x161 JUMP JUMPDEST STOP JUMPDEST PUSH2 0xB5 PUSH1 0x4 DUP1 CALLDATASIZE SUB DUP2 ADD SWAP1 PUSH2 0xB0 SWAP2 SWAP1 PUSH2 0x6DD JUMP JUMPDEST PUSH2 0x336 JUMP JUMPDEST PUSH1 0x40 MLOAD PUSH2 0xC2 SWAP2 SWAP1 PUSH2 0x722 JUMP JUMPDEST PUSH1 0x40 MLOAD DUP1 SWAP2 SUB SWAP1 RETURN JUMPDEST PUSH2 0xD3 PUSH2 0x353 JUMP JUMPDEST PUSH1 0x40 MLOAD PUSH2 0xE0 SWAP2 SWAP1 PUSH2 0x74A JUMP JUMPDEST PUSH1 0x40 MLOAD DUP1 SWAP2 SUB SWAP1 RETURN JUMPDEST PUSH2 0x103 PUSH1 0x4 DUP1 CALLDATASIZE SUB DUP2 ADD SWAP1 PUSH2 0xFE SWAP2 SWAP1 PUSH2 0x658 JUMP JUMPDEST PUSH2 0x359 JUMP JUMPDEST PUSH1 0x40 MLOAD PUSH2 0x112 SWAP4 SWAP3 SWAP2 SWAP1 PUSH2 0x7D3 JUMP JUMPDEST PUSH1 0x40 MLOAD DUP1 SWAP2 SUB SWAP1 RETURN JUMPDEST PUSH2 0x123 PUSH2 0x404 JUMP JUMPDEST PUSH1 0x40 MLOAD PUSH2 0x130 SWAP2 SWAP1 PUSH2 0x80F JUMP JUMPDEST PUSH1 0x40 MLOAD DUP1 SWAP2 SUB SWAP1 RETURN JUMPDEST PUSH2 0x141 PUSH2 0x480 JUMP JUMPDEST PUSH1 0x40 MLOAD PUSH2 0x14E SWAP2 SWAP1 PUSH2 0x74A JUMP JUMPDEST PUSH1 0x40 MLOAD DUP1 SWAP2 SUB SWAP1 RETURN JUMPDEST PUSH2 0x15F PUSH2 0x486 JUMP JUMPDEST STOP JUMPDEST PUSH1 0x1 PUSH0 CALLER PUSH20 0xFFFFFFFFFFFFFFFFFFFFFFFFFFFFFFFFFFFFFFFF AND PUSH20 0xFFFFFFFFFFFFFFFFFFFFFFFFFFFFFFFFFFFFFFFF AND DUP2 MSTORE PUSH1 0x20 ADD SWAP1 DUP2 MSTORE PUSH1 0x20 ADD PUSH0 KECCAK256 PUSH0 SWAP1 SLOAD SWAP1 PUSH2 0x100 EXP SWAP1 DIV PUSH1 0xFF AND ISZERO PUSH2 0x1EB JUMPI PUSH1 0x40 MLOAD PUSH32 0x8C379A000000000000000000000000000000000000000000000000000000000 DUP2 MSTORE PUSH1 0x4 ADD PUSH2 0x1E2 SWAP1 PUSH2 0x879 JUMP JUMPDEST PUSH1 0x40 MLOAD DUP1 SWAP2 SUB SWAP1 REVERT JUMPDEST PUSH1 0xD DUP2 EQ DUP1 PUSH2 0x1FA JUMPI POP PUSH1 0x16 DUP2 EQ JUMPDEST DUP1 PUSH2 0x204 JUMPI POP PUSH0 DUP2 EQ JUMPDEST PUSH2 0x243 JUMPI PUSH1 0x40 MLOAD PUSH32 0x8C379A000000000000000000000000000000000000000000000000000000000 DUP2 MSTORE PUSH1 0x4 ADD PUSH2 0x23A SWAP1 PUSH2 0x907 JUMP JUMPDEST PUSH1 0x40 MLOAD DUP1 SWAP2 SUB SWAP1 REVERT JUMPDEST PUSH0 DUP2 SUB PUSH2 0x266 JUMPI PUSH1 0x3 PUSH0 DUP2 SLOAD DUP1 SWAP3 SWAP2 SWAP1 PUSH2 0x25C SWAP1 PUSH2 0x952 JUMP JUMPDEST SWAP2 SWAP1 POP SSTORE POP PUSH2 0x28F JUMP JUMPDEST PUSH0 DUP1 DUP3 DUP2 MSTORE PUSH1 0x20 ADD SWAP1 DUP2 MSTORE PUSH1 0x20 ADD PUSH0 KECCAK256 PUSH1 0x2 ADD PUSH0 DUP2 SLOAD DUP1 SWAP3 SWAP2 SWAP1 PUSH2 0x289 SWAP1 PUSH2 0x952 JUMP JUMPDEST SWAP2 SWAP1 POP SSTORE POP JUMPDEST PUSH1 0x2 PUSH0 DUP2 SLOAD DUP1 SWAP3 SWAP2 SWAP1 PUSH2 0x2A1 SWAP1 PUSH2 0x952 JUMP JUMPDEST SWAP2 SWAP1 POP SSTORE POP PUSH1 0x1 DUP1 PUSH0 CALLER PUSH20 0xFFFFFFFFFFFFFFFFFFFFFFFFFFFFFFFFFFFFFFFF AND PUSH20 0xFFFFFFFFFFFFFFFFFFFFFFFFFFFFFFFFFFFFFFFF AND DUP2 MSTORE PUSH1 0x20 ADD SWAP1 DUP2 MSTORE PUSH1 0x20 ADD PUSH0 KECCAK256 PUSH0 PUSH2 0x100 EXP DUP2 SLOAD DUP2 PUSH1 0xFF MUL NOT AND SWAP1 DUP4 ISZERO ISZERO MUL OR SWAP1 SSTORE POP PUSH32 0xD0E6C39F2E086DC49F1524B47725526A56945CD1FF661F37976F1725A1E56986 CALLER DUP3 PUSH1 0x40 MLOAD PUSH2 0x32B SWAP3 SWAP2 SWAP1 PUSH2 0x9A8 JUMP JUMPDEST PUSH1 0x40 MLOAD DUP1 SWAP2 SUB SWAP1 LOG1 POP JUMP JUMPDEST PUSH1 0x1 PUSH1 0x20 MSTORE DUP1 PUSH0 MSTORE PUSH1 0x40 PUSH0 KECCAK256 PUSH0 SWAP2 POP SLOAD SWAP1 PUSH2 0x100 EXP SWAP1 DIV PUSH1 0xFF AND DUP2 JUMP JUMPDEST PUSH1 0x2 SLOAD DUP2 JUMP JUMPDEST PUSH0 PUSH1 0x20 MSTORE DUP1 PUSH0 MSTORE PUSH1 0x40 PUSH0 KECCAK256 PUSH0 SWAP2 POP SWAP1 POP DUP1 PUSH0 ADD SLOAD SWAP1 DUP1 PUSH1 0x1 ADD DUP1 SLOAD PUSH2 0x37D SWAP1 PUSH2 0x9FC JUMP JUMPDEST DUP1 PUSH1 0x1F ADD PUSH1 0x20 DUP1 SWAP2 DIV MUL PUSH1 0x20 ADD PUSH1 0x40 MLOAD SWAP1 DUP2 ADD PUSH1 0x40 MSTORE DUP1 SWAP3 SWAP2 SWAP1 DUP2 DUP2 MSTORE PUSH1 0x20 ADD DUP3 DUP1 SLOAD PUSH2 0x3A9 SWAP1 PUSH2 0x9FC JUMP JUMPDEST DUP1 ISZERO PUSH2 0x3F4 JUMPI DUP1 PUSH1 0x1F LT PUSH2 0x3CB JUMPI PUSH2 0x100 DUP1 DUP4 SLOAD DIV MUL DUP4 MSTORE SWAP2 PUSH1 0x20 ADD SWAP2 PUSH2 0x3F4 JUMP JUMPDEST DUP3 ADD SWAP2 SWAP1 PUSH0 MSTORE PUSH1 0x20 PUSH0 KECCAK256 SWAP1 JUMPDEST DUP2 SLOAD DUP2 MSTORE SWAP1 PUSH1 0x1 ADD SWAP1 PUSH1 0x20 ADD DUP1 DUP4 GT PUSH2 0x3D7 JUMPI DUP3 SWAP1 SUB PUSH1 0x1F AND DUP3 ADD SWAP2 JUMPDEST POP POP POP POP POP SWAP1 DUP1 PUSH1 0x2 ADD SLOAD SWAP1 POP DUP4 JUMP JUMPDEST PUSH1 0x60 PUSH0 DUP1 PUSH0 PUSH1 0xD DUP2 MSTORE PUSH1 0x20 ADD SWAP1 DUP2 MSTORE PUSH1 0x20 ADD PUSH0 KECCAK256 PUSH1 0x2 ADD SLOAD SWAP1 POP PUSH0 DUP1 PUSH0 PUSH1 0x16 DUP2 MSTORE PUSH1 0x20 ADD SWAP1 DUP2 MSTORE PUSH1 0x20 ADD PUSH0 KECCAK256 PUSH1 0x2 ADD SLOAD SWAP1 POP PUSH0 PUSH2 0x440 DUP4 PUSH2 0x4C8 JUMP JUMPDEST PUSH2 0x449 DUP4 PUSH2 0x4C8 JUMP JUMPDEST PUSH2 0x454 PUSH1 0x3 SLOAD PUSH2 0x4C8 JUMP JUMPDEST PUSH1 0x40 MLOAD PUSH1 0x20 ADD PUSH2 0x466 SWAP4 SWAP3 SWAP2 SWAP1 PUSH2 0xB8E JUMP JUMPDEST PUSH1 0x40 MLOAD PUSH1 0x20 DUP2 DUP4 SUB SUB DUP2 MSTORE SWAP1 PUSH1 0x40 MSTORE SWAP1 POP DUP1 SWAP4 POP POP POP POP SWAP1 JUMP JUMPDEST PUSH1 0x3 SLOAD DUP2 JUMP JUMPDEST PUSH0 DUP1 PUSH0 PUSH1 0xD DUP2 MSTORE PUSH1 0x20 ADD SWAP1 DUP2 MSTORE PUSH1 0x20 ADD PUSH0 KECCAK256 PUSH1 0x2 ADD DUP2 SWAP1 SSTORE POP PUSH0 DUP1 PUSH0 PUSH1 0x16 DUP2 MSTORE PUSH1 0x20 ADD SWAP1 DUP2 MSTORE PUSH1 0x20 ADD PUSH0 KECCAK256 PUSH1 0x2 ADD DUP2 SWAP1 SSTORE POP PUSH0 PUSH1 0x3 DUP2 SWAP1 SSTORE POP PUSH0 PUSH1 0x2 DUP2 SWAP1 SSTORE POP JUMP JUMPDEST PUSH1 0x60 PUSH0 DUP3 SUB PUSH2 0x50E JUMPI PUSH1 0x40 MLOAD DUP1 PUSH1 0x40 ADD PUSH1 0x40 MSTORE DUP1 PUSH1 0x1 DUP2 MSTORE PUSH1 0x20 ADD PUSH32 0x3000000000000000000000000000000000000000000000000000000000000000 DUP2 MSTORE POP SWAP1 POP PUSH2 0x61C JUMP JUMPDEST PUSH0 DUP1 DUP4 SWAP1 POP JUMPDEST PUSH0 DUP2 EQ PUSH2 0x53D JUMPI DUP2 DUP1 PUSH2 0x526 SWAP1 PUSH2 0x952 JUMP JUMPDEST SWAP3 POP POP PUSH1 0xA DUP2 PUSH2 0x536 SWAP2 SWAP1 PUSH2 0xC17 JUMP JUMPDEST SWAP1 POP PUSH2 0x514 JUMP JUMPDEST PUSH0 DUP3 PUSH8 0xFFFFFFFFFFFFFFFF DUP2 GT ISZERO PUSH2 0x558 JUMPI PUSH2 0x557 PUSH2 0xC47 JUMP JUMPDEST JUMPDEST PUSH1 0x40 MLOAD SWAP1 DUP1 DUP3 MSTORE DUP1 PUSH1 0x1F ADD PUSH1 0x1F NOT AND PUSH1 0x20 ADD DUP3 ADD PUSH1 0x40 MSTORE DUP1 ISZERO PUSH2 0x58A JUMPI DUP2 PUSH1 0x20 ADD PUSH1 0x1 DUP3 MUL DUP1 CALLDATASIZE DUP4 CALLDATACOPY DUP1 DUP3 ADD SWAP2 POP POP SWAP1 POP JUMPDEST POP SWAP1 POP JUMPDEST PUSH0 DUP6 EQ PUSH2 0x615 JUMPI PUSH1 0x1 DUP4 PUSH2 0x5A2 SWAP2 SWAP1 PUSH2 0xC74 JUMP JUMPDEST SWAP3 POP PUSH1 0xA DUP6 PUSH2 0x5B1 SWAP2 SWAP1 PUSH2 0xCA7 JUMP JUMPDEST PUSH1 0x30 PUSH2 0x5BD SWAP2 SWAP1 PUSH2 0xCD7 JUMP JUMPDEST PUSH1 0xF8 SHL DUP2 DUP5 DUP2 MLOAD DUP2 LT PUSH2 0x5D3 JUMPI PUSH2 0x5D2 PUSH2 0xD0A JUMP JUMPDEST JUMPDEST PUSH1 0x20 ADD ADD SWAP1 PUSH31 0xFFFFFFFFFFFFFFFFFFFFFFFFFFFFFFFFFFFFFFFFFFFFFFFFFFFFFFFFFFFFFF NOT AND SWAP1 DUP2 PUSH0 BYTE SWAP1 MSTORE8 POP PUSH1 0xA DUP6 PUSH2 0x60E SWAP2 SWAP1 PUSH2 0xC17 JUMP JUMPDEST SWAP5 POP PUSH2 0x58E JUMP JUMPDEST DUP1 SWAP4 POP POP POP POP JUMPDEST SWAP2 SWAP1 POP JUMP JUMPDEST PUSH0 DUP1 REVERT JUMPDEST PUSH0 DUP2 SWAP1 POP SWAP2 SWAP1 POP JUMP JUMPDEST PUSH2 0x637 DUP2 PUSH2 0x625 JUMP JUMPDEST DUP2 EQ PUSH2 0x641 JUMPI PUSH0 DUP1 REVERT JUMPDEST POP JUMP JUMPDEST PUSH0 DUP2 CALLDATALOAD SWAP1 POP PUSH2 0x652 DUP2 PUSH2 0x62E JUMP JUMPDEST SWAP3 SWAP2 POP POP JUMP JUMPDEST PUSH0 PUSH1 0x20 DUP3 DUP5 SUB SLT ISZERO PUSH2 0x66D JUMPI PUSH2 0x66C PUSH2 0x621 JUMP JUMPDEST JUMPDEST PUSH0 PUSH2 0x67A DUP5 DUP3 DUP6 ADD PUSH2 0x644 JUMP JUMPDEST SWAP2 POP POP SWAP3 SWAP2 POP POP JUMP JUMPDEST PUSH0 PUSH20 0xFFFFFFFFFFFFFFFFFFFFFFFFFFFFFFFFFFFFFFFF DUP3 AND SWAP1 POP SWAP2 SWAP1 POP JUMP JUMPDEST PUSH0 PUSH2 0x6AC DUP3 PUSH2 0x683 JUMP JUMPDEST SWAP1 POP SWAP2 SWAP1 POP JUMP JUMPDEST PUSH2 0x6BC DUP2 PUSH2 0x6A2 JUMP JUMPDEST DUP2 EQ PUSH2 0x6C6 JUMPI PUSH0 DUP1 REVERT JUMPDEST POP JUMP JUMPDEST PUSH0 DUP2 CALLDATALOAD SWAP1 POP PUSH2 0x6D7 DUP2 PUSH2 0x6B3 JUMP JUMPDEST SWAP3 SWAP2 POP POP JUMP JUMPDEST PUSH0 PUSH1 0x20 DUP3 DUP5 SUB SLT ISZERO PUSH2 0x6F2 JUMPI PUSH2 0x6F1 PUSH2 0x621 JUMP JUMPDEST JUMPDEST PUSH0 PUSH2 0x6FF DUP5 DUP3 DUP6 ADD PUSH2 0x6C9 JUMP JUMPDEST SWAP2 POP POP SWAP3 SWAP2 POP POP JUMP JUMPDEST PUSH0 DUP2 ISZERO ISZERO SWAP1 POP SWAP2 SWAP1 POP JUMP JUMPDEST PUSH2 0x71C DUP2 PUSH2 0x708 JUMP JUMPDEST DUP3 MSTORE POP POP JUMP JUMPDEST PUSH0 PUSH1 0x20 DUP3 ADD SWAP1 POP PUSH2 0x735 PUSH0 DUP4 ADD DUP5 PUSH2 0x713 JUMP JUMPDEST SWAP3 SWAP2 POP POP JUMP JUMPDEST PUSH2 0x744 DUP2 PUSH2 0x625 JUMP JUMPDEST DUP3 MSTORE POP POP JUMP JUMPDEST PUSH0 PUSH1 0x20 DUP3 ADD SWAP1 POP PUSH2 0x75D PUSH0 DUP4 ADD DUP5 PUSH2 0x73B JUMP JUMPDEST SWAP3 SWAP2 POP POP JUMP JUMPDEST PUSH0 DUP2 MLOAD SWAP1 POP SWAP2 SWAP1 POP JUMP JUMPDEST PUSH0 DUP3 DUP3 MSTORE PUSH1 0x20 DUP3 ADD SWAP1 POP SWAP3 SWAP2 POP POP JUMP JUMPDEST DUP3 DUP2 DUP4 MCOPY PUSH0 DUP4 DUP4 ADD MSTORE POP POP POP JUMP JUMPDEST PUSH0 PUSH1 0x1F NOT PUSH1 0x1F DUP4 ADD AND SWAP1 POP SWAP2 SWAP1 POP JUMP JUMPDEST PUSH0 PUSH2 0x7A5 DUP3 PUSH2 0x763 JUMP JUMPDEST PUSH2 0x7AF DUP2 DUP6 PUSH2 0x76D JUMP JUMPDEST SWAP4 POP PUSH2 0x7BF DUP2 DUP6 PUSH1 0x20 DUP7 ADD PUSH2 0x77D JUMP JUMPDEST PUSH2 0x7C8 DUP2 PUSH2 0x78B JUMP JUMPDEST DUP5 ADD SWAP2 POP POP SWAP3 SWAP2 POP POP JUMP JUMPDEST PUSH0 PUSH1 0x60 DUP3 ADD SWAP1 POP PUSH2 0x7E6 PUSH0 DUP4 ADD DUP7 PUSH2 0x73B JUMP JUMPDEST DUP2 DUP2 SUB PUSH1 0x20 DUP4 ADD MSTORE PUSH2 0x7F8 DUP2 DUP6 PUSH2 0x79B JUMP JUMPDEST SWAP1 POP PUSH2 0x807 PUSH1 0x40 DUP4 ADD DUP5 PUSH2 0x73B JUMP JUMPDEST SWAP5 SWAP4 POP POP POP POP JUMP JUMPDEST PUSH0 PUSH1 0x20 DUP3 ADD SWAP1 POP DUP2 DUP2 SUB PUSH0 DUP4 ADD MSTORE PUSH2 0x827 DUP2 DUP5 PUSH2 0x79B JUMP JUMPDEST SWAP1 POP SWAP3 SWAP2 POP POP JUMP JUMPDEST PUSH32 0x596F75206861766520616C726561647920766F7465642E000000000000000000 PUSH0 DUP3 ADD MSTORE POP JUMP JUMPDEST PUSH0 PUSH2 0x863 PUSH1 0x17 DUP4 PUSH2 0x76D JUMP JUMPDEST SWAP2 POP PUSH2 0x86E DUP3 PUSH2 0x82F JUMP JUMPDEST PUSH1 0x20 DUP3 ADD SWAP1 POP SWAP2 SWAP1 POP JUMP JUMPDEST PUSH0 PUSH1 0x20 DUP3 ADD SWAP1 POP DUP2 DUP2 SUB PUSH0 DUP4 ADD MSTORE PUSH2 0x890 DUP2 PUSH2 0x857 JUMP JUMPDEST SWAP1 POP SWAP2 SWAP1 POP JUMP JUMPDEST PUSH32 0x496E76616C69642063616E6469646174652049442E2050726573732030206966 PUSH0 DUP3 ADD MSTORE PUSH32 0x20796F75207769746820746F204162737461696E2E0000000000000000000000 PUSH1 0x20 DUP3 ADD MSTORE POP JUMP JUMPDEST PUSH0 PUSH2 0x8F1 PUSH1 0x35 DUP4 PUSH2 0x76D JUMP JUMPDEST SWAP2 POP PUSH2 0x8FC DUP3 PUSH2 0x897 JUMP JUMPDEST PUSH1 0x40 DUP3 ADD SWAP1 POP SWAP2 SWAP1 POP JUMP JUMPDEST PUSH0 PUSH1 0x20 DUP3 ADD SWAP1 POP DUP2 DUP2 SUB PUSH0 DUP4 ADD MSTORE PUSH2 0x91E DUP2 PUSH2 0x8E5 JUMP JUMPDEST SWAP1 POP SWAP2 SWAP1 POP JUMP JUMPDEST PUSH32 0x4E487B7100000000000000000000000000000000000000000000000000000000 PUSH0 MSTORE PUSH1 0x11 PUSH1 0x4 MSTORE PUSH1 0x24 PUSH0 REVERT JUMPDEST PUSH0 PUSH2 0x95C DUP3 PUSH2 0x625 JUMP JUMPDEST SWAP2 POP PUSH32 0xFFFFFFFFFFFFFFFFFFFFFFFFFFFFFFFFFFFFFFFFFFFFFFFFFFFFFFFFFFFFFFFF DUP3 SUB PUSH2 0x98E JUMPI PUSH2 0x98D PUSH2 0x925 JUMP JUMPDEST JUMPDEST PUSH1 0x1 DUP3 ADD SWAP1 POP SWAP2 SWAP1 POP JUMP JUMPDEST PUSH2 0x9A2 DUP2 PUSH2 0x6A2 JUMP JUMPDEST DUP3 MSTORE POP POP JUMP JUMPDEST PUSH0 PUSH1 0x40 DUP3 ADD SWAP1 POP PUSH2 0x9BB PUSH0 DUP4 ADD DUP6 PUSH2 0x999 JUMP JUMPDEST PUSH2 0x9C8 PUSH1 0x20 DUP4 ADD DUP5 PUSH2 0x73B JUMP JUMPDEST SWAP4 SWAP3 POP POP POP JUMP JUMPDEST PUSH32 0x4E487B7100000000000000000000000000000000000000000000000000000000 PUSH0 MSTORE PUSH1 0x22 PUSH1 0x4 MSTORE PUSH1 0x24 PUSH0 REVERT JUMPDEST PUSH0 PUSH1 0x2 DUP3 DIV SWAP1 POP PUSH1 0x1 DUP3 AND DUP1 PUSH2 0xA13 JUMPI PUSH1 0x7F DUP3 AND SWAP2 POP JUMPDEST PUSH1 0x20 DUP3 LT DUP2 SUB PUSH2 0xA26 JUMPI PUSH2 0xA25 PUSH2 0x9CF JUMP JUMPDEST JUMPDEST POP SWAP2 SWAP1 POP JUMP JUMPDEST PUSH0 DUP2 SWAP1 POP SWAP3 SWAP2 POP POP JUMP JUMPDEST PUSH32 0x43616E64696461746520413A2000000000000000000000000000000000000000 PUSH0 DUP3 ADD MSTORE POP JUMP JUMPDEST PUSH0 PUSH2 0xA6A PUSH1 0xD DUP4 PUSH2 0xA2C JUMP JUMPDEST SWAP2 POP PUSH2 0xA75 DUP3 PUSH2 0xA36 JUMP JUMPDEST PUSH1 0xD DUP3 ADD SWAP1 POP SWAP2 SWAP1 POP JUMP JUMPDEST PUSH0 PUSH2 0xA8A DUP3 PUSH2 0x763 JUMP JUMPDEST PUSH2 0xA94 DUP2 DUP6 PUSH2 0xA2C JUMP JUMPDEST SWAP4 POP PUSH2 0xAA4 DUP2 DUP6 PUSH1 0x20 DUP7 ADD PUSH2 0x77D JUMP JUMPDEST DUP1 DUP5 ADD SWAP2 POP POP SWAP3 SWAP2 POP POP JUMP JUMPDEST PUSH32 0x20766F7465732C2043616E64696461746520423A200000000000000000000000 PUSH0 DUP3 ADD MSTORE POP JUMP JUMPDEST PUSH0 PUSH2 0xAE4 PUSH1 0x15 DUP4 PUSH2 0xA2C JUMP JUMPDEST SWAP2 POP PUSH2 0xAEF DUP3 PUSH2 0xAB0 JUMP JUMPDEST PUSH1 0x15 DUP3 ADD SWAP1 POP SWAP2 SWAP1 POP JUMP JUMPDEST PUSH32 0x20766F7465732C20426C616E6B3A200000000000000000000000000000000000 PUSH0 DUP3 ADD MSTORE POP JUMP JUMPDEST PUSH0 PUSH2 0xB2E PUSH1 0xF DUP4 PUSH2 0xA2C JUMP JUMPDEST SWAP2 POP PUSH2 0xB39 DUP3 PUSH2 0xAFA JUMP JUMPDEST PUSH1 0xF DUP3 ADD SWAP1 POP SWAP2 SWAP1 POP JUMP JUMPDEST PUSH32 0x20766F7465730000000000000000000000000000000000000000000000000000 PUSH0 DUP3 ADD MSTORE POP JUMP JUMPDEST PUSH0 PUSH2 0xB78 PUSH1 0x6 DUP4 PUSH2 0xA2C JUMP JUMPDEST SWAP2 POP PUSH2 0xB83 DUP3 PUSH2 0xB44 JUMP JUMPDEST PUSH1 0x6 DUP3 ADD SWAP1 POP SWAP2 SWAP1 POP JUMP JUMPDEST PUSH0 PUSH2 0xB98 DUP3 PUSH2 0xA5E JUMP JUMPDEST SWAP2 POP PUSH2 0xBA4 DUP3 DUP7 PUSH2 0xA80 JUMP JUMPDEST SWAP2 POP PUSH2 0xBAF DUP3 PUSH2 0xAD8 JUMP JUMPDEST SWAP2 POP PUSH2 0xBBB DUP3 DUP6 PUSH2 0xA80 JUMP JUMPDEST SWAP2 POP PUSH2 0xBC6 DUP3 PUSH2 0xB22 JUMP JUMPDEST SWAP2 POP PUSH2 0xBD2 DUP3 DUP5 PUSH2 0xA80 JUMP JUMPDEST SWAP2 POP PUSH2 0xBDD DUP3 PUSH2 0xB6C JUMP JUMPDEST SWAP2 POP DUP2 SWAP1 POP SWAP5 SWAP4 POP POP POP POP JUMP JUMPDEST PUSH32 0x4E487B7100000000000000000000000000000000000000000000000000000000 PUSH0 MSTORE PUSH1 0x12 PUSH1 0x4 MSTORE PUSH1 0x24 PUSH0 REVERT JUMPDEST PUSH0 PUSH2 0xC21 DUP3 PUSH2 0x625 JUMP JUMPDEST SWAP2 POP PUSH2 0xC2C DUP4 PUSH2 0x625 JUMP JUMPDEST SWAP3 POP DUP3 PUSH2 0xC3C JUMPI PUSH2 0xC3B PUSH2 0xBEA JUMP JUMPDEST JUMPDEST DUP3 DUP3 DIV SWAP1 POP SWAP3 SWAP2 POP POP JUMP JUMPDEST PUSH32 0x4E487B7100000000000000000000000000000000000000000000000000000000 PUSH0 MSTORE PUSH1 0x41 PUSH1 0x4 MSTORE PUSH1 0x24 PUSH0 REVERT JUMPDEST PUSH0 PUSH2 0xC7E DUP3 PUSH2 0x625 JUMP JUMPDEST SWAP2 POP PUSH2 0xC89 DUP4 PUSH2 0x625 JUMP JUMPDEST SWAP3 POP DUP3 DUP3 SUB SWAP1 POP DUP2 DUP2 GT ISZERO PUSH2 0xCA1 JUMPI PUSH2 0xCA0 PUSH2 0x925 JUMP JUMPDEST JUMPDEST SWAP3 SWAP2 POP POP JUMP JUMPDEST PUSH0 PUSH2 0xCB1 DUP3 PUSH2 0x625 JUMP JUMPDEST SWAP2 POP PUSH2 0xCBC DUP4 PUSH2 0x625 JUMP JUMPDEST SWAP3 POP DUP3 PUSH2 0xCCC JUMPI PUSH2 0xCCB PUSH2 0xBEA JUMP JUMPDEST JUMPDEST DUP3 DUP3 MOD SWAP1 POP SWAP3 SWAP2 POP POP JUMP JUMPDEST PUSH0 PUSH2 0xCE1 DUP3 PUSH2 0x625 JUMP JUMPDEST SWAP2 POP PUSH2 0xCEC DUP4 PUSH2 0x625 JUMP JUMPDEST SWAP3 POP DUP3 DUP3 ADD SWAP1 POP DUP1 DUP3 GT ISZERO PUSH2 0xD04 JUMPI PUSH2 0xD03 PUSH2 0x925 JUMP JUMPDEST JUMPDEST SWAP3 SWAP2 POP POP JUMP JUMPDEST PUSH32 0x4E487B7100000000000000000000000000000000000000000000000000000000 PUSH0 MSTORE PUSH1 0x32 PUSH1 0x4 MSTORE PUSH1 0x24 PUSH0 REVERT INVALID LOG2 PUSH5 0x6970667358 0x22 SLT KECCAK256 0x4D PUSH11 0x5678DCD95D282D9C44C833 ADDMOD 0xD ISZERO AND 0x1F 0xD2 SIGNEXTEND PUSH17 0xBD7CAAE286D50CE9561DA264736F6C6343 STOP ADDMOD BYTE STOP CALLER "
		},
		"gasEstimates": {
			"creation": {
				"codeDepositCost": "687400",
				"executionCost": "infinite",
				"totalCost": "infinite"
			},
			"external": {
				"blankVotes()": "2469",
				"candidates(uint256)": "infinite",
				"getResults()": "infinite",
				"hasVoted(address)": "2856",
				"resetVotes()": "20425",
				"totalVotes()": "2470",
				"vote(uint256)": "infinite"
			},
			"internal": {
				"addCandidate(uint256,string memory)": "infinite",
				"uintToString(uint256)": "infinite"
			}
		},
		"methodIdentifiers": {
			"blankVotes()": "6a316c9d",
			"candidates(uint256)": "3477ee2e",
			"getResults()": "4717f97c",
			"hasVoted(address)": "09eef43e",
			"resetVotes()": "b9830ff1",
			"totalVotes()": "0d15fd77",
			"vote(uint256)": "0121b93f"
		}
	},
	"abi": [
		{
			"inputs": [],
			"stateMutability": "nonpayable",
			"type": "constructor"
		},
		{
			"anonymous": false,
			"inputs": [
				{
					"indexed": false,
					"internalType": "address",
					"name": "voter",
					"type": "address"
				},
				{
					"indexed": false,
					"internalType": "uint256",
					"name": "candidateId",
					"type": "uint256"
				}
			],
			"name": "VoteCasted",
			"type": "event"
		},
		{
			"inputs": [],
			"name": "blankVotes",
			"outputs": [
				{
					"internalType": "uint256",
					"name": "",
					"type": "uint256"
				}
			],
			"stateMutability": "view",
			"type": "function"
		},
		{
			"inputs": [
				{
					"internalType": "uint256",
					"name": "",
					"type": "uint256"
				}
			],
			"name": "candidates",
			"outputs": [
				{
					"internalType": "uint256",
					"name": "id",
					"type": "uint256"
				},
				{
					"internalType": "string",
					"name": "name",
					"type": "string"
				},
				{
					"internalType": "uint256",
					"name": "voteCount",
					"type": "uint256"
				}
			],
			"stateMutability": "view",
			"type": "function"
		},
		{
			"inputs": [],
			"name": "getResults",
			"outputs": [
				{
					"internalType": "string",
					"name": "",
					"type": "string"
				}
			],
			"stateMutability": "view",
			"type": "function"
		},
		{
			"inputs": [
				{
					"internalType": "address",
					"name": "",
					"type": "address"
				}
			],
			"name": "hasVoted",
			"outputs": [
				{
					"internalType": "bool",
					"name": "",
					"type": "bool"
				}
			],
			"stateMutability": "view",
			"type": "function"
		},
		{
			"inputs": [],
			"name": "resetVotes",
			"outputs": [],
			"stateMutability": "nonpayable",
			"type": "function"
		},
		{
			"inputs": [],
			"name": "totalVotes",
			"outputs": [
				{
					"internalType": "uint256",
					"name": "",
					"type": "uint256"
				}
			],
			"stateMutability": "view",
			"type": "function"
		},
		{
			"inputs": [
				{
					"internalType": "uint256",
					"name": "_candidateId",
					"type": "uint256"
				}
			],
			"name": "vote",
			"outputs": [],
			"stateMutability": "nonpayable",
			"type": "function"
		}
	]
}